S017000075726E615F656C6574726F6E6963612E73726563D2
S113000063C000007DC000007BC0000079C0000018
S113001077C0000075C0000073C0000071C000000C
S11300206FC000006DC000006BC000000C94951AF6
S113003067C0000065C0000063C0000061C000002C
S11300405FC000005DC000000C94CE1959C00000D0
S113005057C0000055C0000053C0000051C000004C
S11300604FC000004DC00000FC08170932094D09BB
S1130070680983099E09B9090D0A420A1C0B3A0B47
S1130080040C020EBB0C020E530E750E770E990E65
S1130090BB0EDD0EFF0E210F730F9112AD0FCB0FB0
S11300A0951091124C1191120C142E1430145214F8
S11300B074149614B814DA142B15341860157B15BF
S11300C042163418EF16341811241FBECFEFD8E0AF
S11300D0DEBFCDBF15E0A0E0B1E0EEEBF6E302C079
S11300E005900D92A431B107D9F725E0A4E1B5E05C
S11300F001C01D92A931B207E1F79AD60C945D1B99
S11301007FCFCF92DF92EF92FF92CF93C0E049C0AE
S113011085B1806185B966E771E080E090E00E9476
S11301200E1A85B18F7E85B966E771E080E090E0B4
S11301300E940E1A8CEEC80E82E0D81EE11CF11C3F
S113014003C0C12CD12C760180E9C8168FE5D806EE
S113015081E0E806F104E4F2C12CD12C760118C048
S113016085B1806185B96CE571E080E090E00E9422
S11301700E1A85B18F7E85B96CE571E080E090E060
S11301800E940E1A88EBC80E82E0D81EE11CF11CF6
S113019080E9C8168FE5D80681E0E806F10404F387
S11301A0CF5FC53070F2C12CD12C760118C085B157
S11301B0806185B966E771E080E090E00E940E1AE4
S11301C085B18F7E85B966E771E080E090E00E949A
S11301D00E1A8CEEC80E82E0D81EE11CF11C80ECD5
S11301E0C81684EDD80681E0E806F10404F3CF9143
S11301F0FF90EF90DF90CF90089585B1877F85B908
S113020085B18B7F85B985B1826085B985B18E7FD3
S113021085B98BB18F7B8BB98BB180688BB98BB16E
S11302208F778BB98BB180688BB98BB18F778BB992
S113023068E270E080E090E00E940E1A8BB1806862
S11302408BB98BB18F778BB985B1886085B98BB148
S113025080688BB98BB18F778BB968E270E080E0EE
S113026090E00C940E1A08959BB19F7B9BB995B1B5
S1130270977F95B995B19B7F95B995B19D7F95B9B8
S113028095B19E7F95B99BB190689BB99BB19F77BF
S11302909BB995B1946095B9813021F485B18260A0
S11302A085B903C085B18D7F85B9613021F485B1ED
S11302B0816085B903C085B18E7F85B98BB18068B3
S11302C08BB98BB18F778BB968E270E080E090E0F6
S11302D00C940E1A089595B1977F95B995B19B7FAB
S11302E095B995B19D7F95B995B19E7F95B99BB10F
S11302F090689BB99BB19F779BB995B1986095B96C
S1130300813021F485B1846085B903C085B18B7FC8
S113031085B9613021F485B1826085B903C085B1A6
S11303208D7F85B9413021F485B1816085B903C0E1
S113033085B18E7F85B98BB180688BB98BB18F778E
S11303408BB968E270E080E090E00C940E1A089596
S113035090E002C0959587956A95E2F781700895BB
S1130360CF93C82F67E0F4DF813021F485B1886032
S113037085B903C085B1877F85B966E08C2FE8DF36
S1130380813021F485B1846085B903C085B18B7F48
S113039085B965E08C2FDCDF813021F485B1826082
S11303A085B903C085B18D7F85B964E08C2FD0DF1A
S11303B0813021F485B1816085B903C085B18E7F18
S11303C085B98BB180648BB98BB180688BB98BB1E3
S11303D08F778BB963E08C2FBBDF813021F485B13B
S11303E0886085B903C085B1877F85B962E08C2FA9
S11303F0AFDF813021F485B1846085B903C085B154
S11304008B7F85B961E08C2FA3DF813021F485B126
S1130410826085B903C085B18D7F85B960E08C2F7A
S113042097DF813021F485B1816085B903C085B13E
S11304308E7F85B98BB180688BB98BB18F778BB97F
S113044068E270E080E090E00E940E1ACF91089577
S1130450CF93C82F8BB18F7B8BB985B1886085B959
S113046066E08C2F75DF813021F485B1846085B915
S113047003C085B18B7F85B965E08C2F69DF81303E
S113048021F485B1826085B903C085B18D7F85B9BA
S113049064E08C2F5DDF813021F485B1816085B902
S11304A003C085B18E7F85B98BB180688BB98BB160
S11304B08F778BB963E08C2F4BDF813021F485B1CA
S11304C0886085B903C085B1877F85B962E08C2FC8
S11304D03FDF813021F485B1846085B903C085B1E3
S11304E08B7F85B961E08C2F33DF813021F485B1B6
S11304F0826085B903C085B18D7F85B960E08C2F9A
S113050027DF813021F485B1816085B903C085B1CD
S11305108E7F85B98BB180688BB98BB18F778BB99E
S113052068E270E080E090E00E940E1ACF91089596
S1130530CF93C82F8BB18F7B8BB985B1877F85B95A
S113054085B1846085B965E08C2F02DF813021F4A8
S113055085B1826085B903C085B18D7F85B964E0BA
S11305608C2FF6DE813021F485B1816085B903C01A
S113057085B18E7F85B98BB180688BB98BB18F774C
S11305808BB963E08C2FE4DE813021F485B188607F
S113059085B903C085B1877F85B962E08C2FD8DE29
S11305A0813021F485B1846085B903C085B18B7F26
S11305B085B961E08C2FCCDE813021F485B1826075
S11305C085B903C085B18D7F85B960E08C2FC0DE0D
S11305D0813021F485B1816085B903C085B18E7FF6
S11305E085B98BB180688BB98BB18F778BB968E291
S11305F070E080E090E00E940E1ACF9108950F936E
S11306001F93CF93DF938C01623011F080E001C01F
S113061080E4480F8FEF840F803118F0415440314B
S113062008F416DFC0E0D0E002C09ADE2196F8019B
S1130630EC0FFD1F80818111F8CFDF91CF911F91C5
S11306400F9108950F931F93CF93DF938C01C0E014
S1130650D0E002C085DE2196F801EC0FFD1F8081F9
S11306608111F8CFDF91CF911F910F9108950F93CE
S11306701F93CF93DF93CDB7DEB768970FB6F89487
S1130680DEBF0FBECDBF88E0E0E0F1E0DE011196F1
S113069001900D928A95E1F788E0E8E0F1E0DE014F
S11306A0199601900D928A95E1F788E0E0E1F1E076
S11306B0DE01519601900D928A95E1F780E438DFCE
S11306C000E010E00AC0E1E0F0E0EC0FFD1FE00FF5
S11306D0F11F808145DE0F5F1F4F083011059CF329
S11306E000E010E00AC0E9E0F0E0EC0FFD1FE00FCD
S11306F0F11F808135DE0F5F1F4F083011059CF319
S113070000E010E00AC0E1E1F0E0EC0FFD1FE00FB3
S1130710F11F808125DE0F5F1F4F083011059CF308
S113072080E096DE68960FB6F894DEBF0FBECDBFAC
S1130730DF91CF911F910F91089580E006C00E9430
S1130740C7189FEB980F923020F081548230B8F78D
S113075080E008950E94C7188234E1F708950F934A
S11307601F93CF93DF93CDB7DEB7AC970FB6F89452
S1130770DEBF0FBECDBFAC018B01FE01319688E018
S1130780DF011D928A95E9F785E589838EE48A83E2
S113079085E08B8380E1E4E2F1E0DE0119960190CB
S11307A00D928A95E1F7FE01799684E1DF011D92AD
S11307B08A95E9F790E010C0292F30E0F9013396CB
S11307C0DA01A20FB31F2C9161E070E06C0F7D1F62
S11307D0E60FF71F20839F5F953070F3CE010196DB
S11307E00E94AC19CE0149960E946619898D8D34F8
S11307F031F58A8D8E3429F541E020E019C0822F2D
S113080090E0D801A80FB91FFC01339669E170E0AC
S11308106C0F7D1FE60FF71F30813C93E9E0F0E099
S1130820EC0FFD1FE80FF91F8081381340E02F5FA4
S11308308B8D281720F3442331F080E005C08FEF1F
S113084003C08FEF01C081E0AC960FB6F894DEBF11
S11308500FBECDBFDF91CF911F910F91089541E05D
S113086061E084E391E0CBDE41E062E085E491E085
S1130870C6CE089541E062E084E591E0C0DE82E402
S1130880E7DD81E06DDD8EE4E3DD8FE769CD08957A
S11308909C0190E005C0F901E90FF11D10829F5FF2
S11308A09230C8F30895FF920F931F93CF93DF9371
S11308B0CDB7DEB7C357D1090FB6F894DEBF0FBE6C
S11308C0CDBFFE01319685E0DF011D928A95E9F7DF
S11308D081E13596DF01682F1D926A95E9F71F8A39
S11308E0188E198E7496DF01682F1D926A95E9F7A8
S11308F01BA61CA61DA67496DF011D928A95E9F716
S113090085E50E945F1989E40E945F19CE01CF96A4
S113091022E3FC0111922A95E9F70E9466198FAD32
S11309208D3409F06DC221968FAD2197893409F079
S113093069C241E061E085E691E061DE9BDFCE01C2
S1130940CF96A6DF00E00E94C718182F8FEB810F07
S1130950823008F08FC0113469F4033021F0013083
S113096011F001110FC089E389838A831B821C82E1
S113097002E008C0123431F480E389838A831B8245
S11309801C8202E085E50E945F1986E40E945F19DB
S1130990802F0E945F19023089F48981E2968FAF1B
S11309A0E2978A81E3968FAFE397E4961FAEE497CC
S11309B0CE018F589F4F0E94AC1904C0CE010196FE
S11309C00E94AC19CE01CF960E9466198FAD8D346A
S11309D029F421968FAD2197863411F08FEF1BC235
S11309E0DE01AE5BBF4FFD0101900020E9F73197B6
S11309F04E2F4A1B20E013C0822F90E0FC01339657
S1130A006FE370E06C0F7D1FE60FF71F3081E6E0A7
S1130A10F0E0EC0FFD1FE80FF91F30832F5F241760
S1130A2058F341E061E086E791E0E9DD41E061E00F
S1130A30CE010696E4DD41E062E087E891E0DFDD87
S1130A4081E08EDC88E693E0FDDD82E089DC82E4EF
S1130A5087DC73DE182F823409F03CC041E061E08A
S1130A6085E691E0CCDD06DFCE01CF9611DF00E014
S1130A7010E030C0133499F4002389F0FF24FA9471
S1130A80F00EE1E0F0E0EC0FFD1FEF0DF11D108220
S1130A908BE0800FDDDC80E263DC0F2D1BC01332A2
S1130AA0C9F01A32B9F01434A9F0123499F013349D
S1130AB089F0113479F0043068F48CE0800FC8DCDC
S1130AC0E1E0F0E0EC0FFD1FE00FF11D10830F5F7C
S1130AD0812F46DC1154123008F035CF41E061E03B
S1130AE083E991E08CDDC6DECE01CF96D1DE00E055
S1130AF00E94C718182F8FEB810F823008F074C042
S1130B00113439F4023028F489E38F8B888F02E0A2
S1130B1006C0123421F480E38F8B888F02E085E5D0
S1130B200E945F1983E50E945F19802F0E945F195C
S1130B30CE0147960E94AC19CE01CF960E94661949
S1130B408FAD8D3409F060C121968FAD2197833527
S1130B5009F05CC1DE01AE5BBF4FFD0101900020D6
S1130B60E9F731974E2F4A1B20E013C0822F90E003
S1130B70FC013396AFE3B0E0AC0FBD1FEA0FFB1FDF
S1130B803081EAE1F0E0EC0FFD1FE80FF91F30833C
S1130B902F5F241758F341E061E086E791E02FDDF1
S1130BA041E061E0CE014A962ADD41E062E087E857
S1130BB091E025DD81E0D4DB88E693E043DD82E04B
S1130BC0CFDB82E4CDDBB9DD182F823409F03CC0E1
S1130BD041E061E083E991E012DD4CDECE01CF9685
S1130BE057DE00E010E030C0133499F4002389F09C
S1130BF0FF24FA94F00EE7E1F0E0EC0FFD1FEF0D97
S1130C00F11D108287E0800F23DC80E2A9DB0F2D29
S1130C101BC01332C9F01A32B9F01434A9F01234DB
S1130C2099F0133489F0113479F0023068F488E0D3
S1130C30800F0EDCE7E1F0E0EC0FFD1FE00FF11D8B
S1130C4010830F5F812F8CDB1154123008F050CFCA
S1130C5041E061E084EA91E0D2DC0CDECE01CF9683
S1130C6017DE00E00E94C718182F8FEB810F823027
S1130C7008F074C0113439F4023028F489E38BA7E6
S1130C808CA702E006C0123421F480E38BA78CA762
S1130C9002E085E50E945F1980E50E945F19802FBC
S1130CA00E945F19CE018B960E94AC19CE01CF969B
S1130CB00E9466198FAD8D3409F0AAC021968FADBC
S1130CC02197803509F0A6C0DE01AE5BBF4FFD0160
S1130CD001900020E9F731974E2F4A1B20E013C002
S1130CE0822F90E0FC0133966FE370E06C0F7D1F60
S1130CF0E60FF71F3081EEE2F0E0EC0FFD1FE80F86
S1130D00F91F30832F5F241758F341E061E086E731
S1130D1091E075DC41E061E0CE018E9670DC41E04B
S1130D2062E087E891E06BDC81E01ADB88E693E01F
S1130D3089DC82E015DB82E413DBFFDC182F8234CC
S1130D4009F03CC041E061E084EA91E058DC92DDC6
S1130D50CE01CF969DDD00E010E030C0133499F44D
S1130D60002389F0FF24FA94F00EEBE2F0E0EC0F9C
S1130D70FD1FEF0DF11D10828AE0800F69DB80E218
S1130D80EFDA0F2D1BC01332C9F01A32B9F0143444
S1130D90A9F0123499F0133489F0113479F0023047
S1130DA068F48BE0800F54DBEBE2F0E0EC0FFD1F06
S1130DB0E00FF11D10830F5F812FD2DA115412302E
S1130DC008F050CFCE01CF9663DD85E50E945F1910
S1130DD083E40E945F19CE01CF960E9466198FADFD
S1130DE08D3429F421968FAD2197833411F037DDAA
S1130DF0FFCF41E061E085EB91E001DC82E00BC0D4
S1130E008FEF09C08FEF07C08FEF05C08FEF03C0CE
S1130E108FEF01C08FEFCD58DF4F0FB6F894DEBFD0
S1130E200FBECDBFDF91CF911F910F91FF90089519
S1130E30CF93DF93CDB7DEB7C750D3400FB6F89446
S1130E40DEBF0FBECDBF84B1816084B984B182603E
S1130E5084B984B1846084B984B1886084B98AB166
S1130E6080688AB98AB180648AB98AB180628AB991
S1130E708AB180618AB98AB188608AB98AB184608A
S1130E808AB987B18E7F87B987B18D7F87B987B1DA
S1130E908B7F87B987B1877F87B984B1806184B933
S1130EA084B1806284B98BB180628BB98BB180616B
S1130EB08BB98BB188608BB98BB184608BB988B1E5
S1130EC0816088B988B1826088B988B1846088B942
S1130ED088B1886088B985B18F7E85B985B18F7DE9
S1130EE085B98BD960E081E0BFD940E060E081E062
S1130EF0F2D9BDDB0E944D1A0E943F19FE01EF5545
S1130F00FD4F85E0DF01982F1D929A95E9F73596FC
S1130F1091E1DF011D929A95E9F77196DF01982F0F
S1130F201D929A95E9F73596DF011D928A95E9F7A6
S1130F3085E0E8E1F1E0DE01AF53BD4F01900D9291
S1130F408A95E1F785E0EEE1F1E0DE01AA53BD4FB9
S1130F5001900D928A95E1F7FE01E553FD4F82E37E
S1130F60DF011D928A95E9F7D12CC12CFF24F3945B
S1130F7001E0B2E0C95FDC4FB883C750D34027C15A
S1130F800230D1F0033009F468C0013009F0FBC02D
S1130F9041E061E086EC91E032DB41E062E087ED24
S1130FA091E02DDB80E0DCD981E4DAD9C6DB813441
S1130FB009F0E9C002E0E7C041E061E086EE91E0BB
S1130FC01EDB41E062E087EF91E019DB82E440DA66
S1130FD081E0C6D988E43CDA82E0C2D98EE438DA0A
S1130FE08FE7BED988E034DAE12C0E94C718182FA5
S1130FF0813419F4E5E0EE1651F1123451F1133451
S113100059F4EE2049F01FEF1E0D89E08E0D20DA11
S113101080E2A6D9E12E1EC0F4E0FE15D8F01A3203
S1131020C9F01434B9F01332A9F0113499F013341F
S113103089F08AE08E0D0CDA812F92D9ECEBF2E084
S1131040EC0FFD1FEE0DF11D1083E39403C003E0CC
S113105001C001E0023049F296C041E061E088E05D
S113106092E0CDDA41E062E087EF91E0C8DA82E411
S1131070EFD981E075D988E4EBD982E071D98EE4A7
S1131080E7D98FE76DD988E0E3D9E12C0E94C7182E
S1131090182F813409F041C085E0E8123EC025C014
S11310A0282F30E0ECEBF2E0EC0FFD1FE20FF31F12
S11310B04081E1ECF2E0EC0FFD1FE20FF31F9081A1
S11310C0491311C0E7EBF2E0EC0FFD1FE20FF31F31
S11310D04081E6ECF2E0EC0FFD1FE20FF31F90817C
S11310E0491301C05F5F8F5F02C050E080E085302C
S11310F0B8F2553009F43BC041E061E089E192E087
S11311007EDA41E062E08AE292E079DA82E028D98C
S113111082E426D91FDB01E033C0123481F1133499
S113112059F4EE2049F01FEF1E0D89E08E0D90D981
S113113080E216D9E12E24C094E09E1508F11A32FB
S1131140F9F01434E9F01332D9F01134C9F013343E
S1131150B9F08AE08E0D7CD98AE202D9E7EBF2E09D
S1131160EC0FFD1FEE0DF11D1083E39409C001E0A7
S1131170A2E0C95FDC4FA883C750D34001C001E09F
S1131180033009F483CF80911605823130F4813124
S1131190F1F4809117058F30D0F041E061E089E3EC
S11311A092E02DDA41E062E08AE492E028DA60ED30
S11311B077E080E090E00E942B1ACC24C394F12CB9
S11311C001E0B4E0C95FDC4FB883C750D340C95FC6
S11311D0DC4FE881C750D340E13009F04FC5D0CE91
S11311E0802F90E0FC013197E830F10508F009C147
S11311F0EC5CFF4F0C94351B41E061E08BE592E021
S1131200FED981E0ADD881E4ABD841E062E08AE662
S113121092E0F5D980E0A4D882E4A2D88EDA8234B0
S113122011F40F5FEEC0813409F0EBC0BEC041E0A1
S113123061E089E792E0E3D981E092D881E490D833
S113124041E062E088E892E0DAD980E089D882E47B
S113125087D873DA823411F40F5FD3C0813409F074
S1131260D0C0A7C041E061E087E992E0C8D981E03D
S113127077D881E475D841E062E086EA92E0BFD98C
S113128080E06ED882E46CD858DA823411F40F5FAF
S1131290B8C0813409F0B5C091C041E061E085EB8C
S11312A092E0ADD981E05CD881E45AD841E062E0B3
S11312B084EC92E0A4D980E053D882E451D83DDA9A
S11312C0823411F40F5F9DC0813409F09AC07CC050
S11312D041E061E083ED92E092D981E041D881E47C
S11312E03FD841E062E082EE92E089D980E038D8CC
S11312F082E436D822DA823411F40F5F82C081345A
S113130009F07FC066C041E061E081EF92E077D9E7
S113131081E026D881E424D841E062E080E093E0D3
S11313206ED980E01DD882E41BD807DA823411F428
S11313300F5F67C0813409F064C051C041E061E0CF
S11313408FE093E05CD981E00BD881E409D841E0D7
S113135062E08EE193E053D980E002D882E400D8C1
S1131360ECD9823411F40F5F4CC0813409F049C0C8
S11313703CC041E061E08DE293E041D981E00E940C
S1131380B00181E40E94B00141E062E08EE193E0AB
S113139036D980E00E94B00182E40E94B001CDD928
S11313A0823449F1813469F528C0FF24F39400E0C4
S11313B028C06894FF24F1F800E023C00F2EF3E066
S11313C0FF2EF02D00E01DC06894FF24F2F800E029
S11313D018C00F2EF5E0FF2EF02D00E012C00F2EE6
S11313E0F6E0FF2EF02D00E00CC00F2EF7E0FF2EEC
S11313F0F02D00E006C001E004C06894FF24F3F877
S113140000E08F2D90E0FC013197E830F10508F001
S1131410F9C3E45CFF4F0C94351B41E061E08CE3BD
S113142093E0EDD882E00E94B00181E40E94B00113
S113143041E062E08BE493E0E2D881E00E94B001F5
S113144082E40E94B00179D98234C1F441E061E0C0
S11314508AE593E0D4D841E062E08BE693E0CFD80C
S113146068EE73E080E090E00E942B1A01E0F1E066
S1131470C95FDC4FF883C750D340C4C3813409F03B
S1131480C1C3BBC341E061E08CE793E0B8D841E05D
S113149062E087EF91E0B3D882E40E94280281E001
S11314A00E94B00188E40E94280282E00E94B001F8
S11314B08EE40E9428028FE70E94B00188E00E9417
S11314C02802E12C0E94C718182F813409F07CC02F
S11314D085E0E81279C0BE016A557D4FCE018F5573
S11314E09D4F3DD9813009F049C041E061E0CE0112
S11314F08A559D4F84D841E062E087E891E07FD827
S113150081E00E94B00188E693E09CD882E00E94CA
S1131510B00182E40E94B00110D9182F813451F532
S1131520CE010196C0D9813059F441E061E08DE8E3
S113153093E065D841E062E08EE993E060D8FFCFA4
S11315408F3F19F48CD906D9FFCF823009F070C0CF
S1131550809114058F5F8093140541E061E08FEA68
S113156093E04DD841E062E086E791E048D80E94DC
S113157081005EC0823409F05BC055C0811115C082
S113158041E061E080EC93E03AD841E062E088E732
S113159091E035D882E00E94B00182E40E94B0015B
S11315A0D9D8182FF12C02E043C08F3F09F040C076
S11315B056D982E00E94B00182E40E94B001CAD8E8
S11315C0182FF12C02E034C0123481F1133471F479
S11315D0EE2061F0BB24BA94BE0C87E08E0D0E940D
S11315E0280280E20E94B001EB2C22C094E09E15F8
S11315F0F8F01A32E9F01434D9F01332C9F0113486
S1131600B9F01334A9F088E08E0D0E942802812FCE
S11316100E94B001E1EAF2E0EC0FFD1FEE0DF11DB6
S11316201083E39405C0F12C02E002C0F12C02E027
S1131630123409F047CFE6C241E061E081ED93E066
S11316400E94FF0241E062E088E791E00E94FF020D
S113165082E00E94B00182E40E94B0010E948E1ACE
S11316600E94C718823409F0CDC20E94921AF12C4C
S113167003E0C8C241E061E082EE93E00E94FF0211
S113168041E062E083EF93E00E94FF028FE70E9453
S1131690B00183E40E94B00180E20E94B00182E0C4
S11316A00E94B00182E40E94B00180E20E94B00175
S11316B081E00E94B00181E40E94B001C350DD4F7B
S11316C0188219821A821B82CD5FD240E12C0E94BB
S11316D0C718182F813409F053C0A4E0EA1250C08F
S11316E0C150DD4F4881CF5FD24050E04053510993
S11316F0C050DD4F9881C050D340C350DD4F288186
S1131700CD5FD24030E020533109C250DD4F3881E3
S1131710CE5FD240440F642F660F660F460F642FCE
S1131720690F6053220F822F880F880F280F822F92
S1131730830F80530E94631A81110DC041E061E060
S11317408CEF93E00E94FF0241E062E08DE094E0C0
S11317500E94FF020CC041E061E08EE194E00E942F
S1131760FF0241E062E08FE294E00E94FF0260ED3C
S113177077E080E090E00E942B1AF12C04E03FC057
S11317801234D9F11334A1F4EE2091F01FEF1E0DA1
S1131790123028F480E48E0D0E94280204C081E4F3
S11317A08E0D0E94280280E20E94B001E12E27C023
S11317B0B3E0BE1520F11A3211F1143401F11332E1
S11317C0F1F01134E1F01334D1F0E1E0EE1528F03A
S11317D081E48E0D0E94280204C082E48E0D0E94D2
S11317E02802812F0E94B001EDEFF2E0EC0FFD1F03
S11317F0EE0DF11D1083E39402C0F12C04E0F4E03B
S1131800FF1609F464CFFEC185E50E945F1986E5E1
S11318100E945F190F2EF6E1AF2EF5E0BF2EF02DDA
S1131820D5018C910E945F19F50181810E945F1995
S1131830809114050E945F19CE0185539D4F0E942B
S11318406619C553DD4F8881CB5CD2408D3409F0D5
S11318508DC0C453DD4F8881CC5CD240863509F0FD
S113186085C0C353DD4F8881CD5CD2408F34C9F429
S113187041E061E080E494E00E94FF0241E062E024
S113188081E594E00E94FF0268EE73E080E090E05E
S11318900E942B1A0F2EF3E0DF2EF02DF12C05E021
S11318A065C0893489F5D394F3E0DF125FC041E069
S11318B061E080E494E00E94FF0241E062E082E69D
S11318C094E00E94FF0268EE73E080E090E00E94E2
S11318D02B1A41E061E08AE593E00E94FF0241E0B7
S11318E062E08BE693E00E94FF0268EE73E080E022
S11318F090E00E942B1AF12C01E081E0C95FDC4FDB
S11319008883C750D34032C0883581F541E061E017
S113191080E494E00E94FF0241E062E082E694E009
S11319200E94FF0268EE73E080E090E00E942B1AB0
S113193041E061E08AE593E00E94FF0241E062E059
S11319408BE693E00E94FF0268EE73E080E090E093
S11319500E942B1A0F2EF3E0DF2EF02DF12C01E064
S113196091E0C95FDC4F9883C750D340A2E0AD1526
S113197008F04ACF47C1FE01EE5FFC4F85E0DF016E
S1131980982F1D929A95E9F73597DF011D928A9554
S1131990E9F741E061E083E794E00E94FF0241E05F
S11319A062E087EF91E00E94FF0282E40E94280235
S11319B081E00E94B00188E40E94280282E00E9433
S11319C0B0018EE40E9428028FE70E94B001EE2449
S11319D0E394B12C0E94C718182F813419F4B5E090
S11319E0BB1651F1123461F1133459F41FEF1B0D7E
S11319F08AE08B0D0E94280280E20E94B001B12E81
S1131A0024C0E4E0EB1508F11A32F9F01434E9F0DB
S1131A101332D9F01134C9F08BE08B0D0E942802E7
S1131A208AE20E94B001E2E0F3E0EC0FFD1FEB0D4F
S1131A30F11D1083B39409C06894EE24E1F805C045
S1131A400F2EF3E0EF2EF02DF12CF1E0EF1611F252
S1131A5083E0E81609F4D4C041E061E084E894E04E
S1131A600E94FF0241E062E085E994E00E94FF02E7
S1131A7080E00E94B00181E40E94B0010E949D03B5
S1131A8041E061E083E794E00E94FF0241E062E00C
S1131A9087EF91E00E94FF0282E40E94280281E025
S1131AA00E94B00188E40E94280282E00E94B001F2
S1131AB08EE40E9428028FE70E94B001B12C0E949C
S1131AC0C718182F813409F063C095E0B91260C0BB
S1131AD015C0822F90E0E2E0F3E0EC0FFD1FE80F69
S1131AE0F91F3081EDEFF2E0EC0FFD1FE80FF91F55
S1131AF08081381301C04F5F2F5F02C020E040E0B7
S1131B00253038F3453049F512C0822F90E0E2E0E9
S1131B10F3E0EC0FFD1FE80FF91F3081E7EBF2E073
S1131B20EC0FFD1FE80FF91F30832F5F01C020E089
S1131B30253058F341E061E084EA94E00E94FF021A
S1131B4041E062E085EB94E00E94FF0282E00E94A3
S1131B50B00182E40E94B00112C041E061E084EC73
S1131B6094E00E94FF0241E062E085ED94E00E946F
S1131B70FF0282E00E94B00182E40E94B0010E9450
S1131B80AA030F2EF3E0EF2EF02DF12C07E030C066
S1131B90123441F1133459F41FEF1B0D8AE08B0DFD
S1131BA00E94280280E20E94B001B12E21C0A4E06C
S1131BB0AB15F0F01A32E1F01434D1F01332C1F065
S1131BC01134B1F08BE08B0D0E9428028AE20E944E
S1131BD0B001EDEFF2E0EC0FFD1FEB0DF11D1083F2
S1131BE0B39406C00F2EF3E0EF2EF02DF12C07E096
S1131BF0B2E0EB1609F463CF05C0F12C01E002C09A
S1131C00F12C07E080911605883040F4C95FDC4F61
S1131C10E881C750D340E13059F530C02091140514
S1131C2030E02132310544F4823130F4813131F530
S1131C30809117058F3010F141E061E089E392E073
S1131C400E94FF0241E062E08AE492E00E94FF0207
S1131C5060ED77E080E090E00E942B1AC12CF12C1B
S1131C6001E0F4E0C95FDC4FF883C750D34006C0FD
S1131C7083E0C95FDC4F8883C750D340C95FDC4F22
S1131C809881C750D340923009F4AACA8DC4802FDA
S1131C9090E0FC013197E830F10508F018C1EC5BE5
S1131CA0FF4F0C94351B41E061E08BE592E00E940C
S1131CB0FF0281E00E94B00181E40E94B00141E092
S1131CC062E08AE692E00E94FF0280E00E94B00196
S1131CD082E40E94B0010E949D03823411F40E5FDD
S1131CE0F6C0813409F0F3C0CBC00F5FF0C041E00F
S1131CF061E087E992E00E94FF0281E00E94B00166
S1131D0081E40E94B00141E062E086EA92E00E9430
S1131D10FF0280E00E94B00182E40E94B0010E94B0
S1131D209D03823411F40F5FD2C0813409F0CFC017
S1131D30ABC041E061E085EB92E00E94FF0281E0EC
S1131D400E94B00181E40E94B00141E062E084ECB1
S1131D5092E00E94FF0280E00E94B00182E40E94AF
S1131D60B0010E949D03823411F40F5FB0C081342E
S1131D7009F0ADC08FC041E061E083ED92E00E94C4
S1131D80FF0281E00E94B00181E40E94B00141E0C1
S1131D9062E082EE92E00E94FF0280E00E94B001C5
S1131DA082E40E94B0010E949D03823411F40F5F0B
S1131DB08EC0813409F08BC072C041E061E081EFD4
S1131DC092E00E94FF0281E00E94B00181E40E943F
S1131DD0B00141E062E080E093E00E94FF0280E015
S1131DE00E94B00182E40E94B0010E949D038234EB
S1131DF011F40F5F6CC0813409F069C056C041E032
S1131E0061E08FE093E00E94FF0281E00E94B00154
S1131E1081E40E94B00141E062E08EE193E00E941F
S1131E20FF0280E00E94B00182E40E94B0010E949F
S1131E309D03823411F40F5F4AC0813409F047C016
S1131E403AC041E061E08DE293E00E94FF0281E04C
S1131E500E94B00181E40E94B00141E062E08EE1A1
S1131E6093E00E94FF0280E00E94B00182E40E949D
S1131E70B0010E949D03823421F1813441F523C0D5
S1131E80FF24F39400E023C00F2EF3E0FF2EF02D87
S1131E9000E01DC06894FF24F2F800E018C00F2E83
S1131EA0F5E0FF2EF02D00E012C00F2EF6E0FF2E1D
S1131EB0F02D00E00CC00F2EF7E0FF2EF02D00E017
S1131EC006C001E004C06894FF24F3F800E08F2DFD
S1131ED090E0FC013197E830F10508F022C3E45B9F
S1131EE0FF4F0C94351B41E061E084EE94E00E94C6
S1131EF0FF0282E00E94B00181E40E94B00141E04F
S1131F0062E08BE493E00E94FF0281E00E94B00152
S1131F1082E40E94B0010E949D038234D1F441E026
S1131F2061E08AE593E00E94FF0241E062E08BE613
S1131F3093E00E94FF0268EE73E080E090E00E946C
S1131F402B1A01E0A1E0C95FDC4FA883C750D3403E
S1131F50E8C2813409F0E5C2DFC241E061E081ED0D
S1131F6093E00E94FF0241E062E088E791E00E9472
S1131F70FF0282E00E94B00182E40E94B0010E944C
S1131F808E1A0E94C718823409F0CBC20E94921A9A
S1131F90F12C03E0C6C241E061E082EE93E00E94CE
S1131FA0FF0241E062E083EF93E00E94FF028FE7CB
S1131FB00E94B00183E40E94B00180E20E94B0015B
S1131FC082E00E94B00182E40E94B00180E20E949B
S1131FD0B00181E00E94B00181E40E94B001C350CD
S1131FE0DD4F188219821A821B82CD5FD240E12C08
S1131FF00E94C718182F813409F053C0B4E0EB12C3
S113200050C0C150DD4F4881CF5FD24050E04053B3
S11320105109C050DD4F9881C050D340C350DD4FAB
S11320202881CD5FD24030E020533109C250DD4FCA
S11320303881CE5FD240440F642F660F660F460F7F
S1132040642F690F6053220F822F880F880F280F87
S1132050822F830F80530E94631A81110DC041E0C7
S113206061E08CEF93E00E94FF0241E062E08DE0CA
S113207094E00E94FF020CC041E061E08EE194E034
S11320800E94FF0241E062E08FE294E00E94FF02BE
S113209060ED77E080E090E00E942B1AF12C04E0E0
S11320A03FC01234D9F11334A1F4EE2091F01FEFA4
S11320B01E0D123028F480E48E0D0E94280204C004
S11320C081E48E0D0E94280280E20E94B001E12E7C
S11320D027C0E3E0EE1520F11A3211F1143401F1B6
S11320E01332F1F01134E1F01334D1F0F1E0FE15C4
S11320F028F081E48E0D0E94280204C082E48E0D33
S11321000E942802812F0E94B001EDEFF2E0EC0F53
S1132110FD1FEE0DF11D1083E39402C0F12C04E0C9
S113212084E0F81609F464CFFCC185E50E945F19C8
S113213086E50E945F190F2EF6E1AF2EF5E0BF2E63
S1132140F02DD5018C910E945F19F50181810E94C7
S11321505F19809114050E945F19CE0185539D4F2C
S11321600E946619C553DD4F8881CB5CD2408D3403
S113217009F08DC0C453DD4F8881CC5CD2408635D4
S113218009F085C0C353DD4F8881CD5CD2408F34C4
S1132190C9F441E061E080E494E00E94FF0241E080
S11321A062E081E594E00E94FF0268EE73E080E063
S11321B090E00E942B1A0F2EF3E0DF2EF02DF12C6D
S11321C005E065C0893489F5D394F3E0DF125FC07C
S11321D041E061E080E494E00E94FF0241E062E0BB
S11321E082E694E00E94FF0268EE73E080E090E0F3
S11321F00E942B1A41E061E08AE593E00E94FF020D
S113220041E062E08BE693E00E94FF0268EE73E037
S113221080E090E00E942B1AF12C01E081E0C95F7C
S1132220DC4F8883C750D34032C0883581F541E004
S113223061E080E494E00E94FF0241E062E082E613
S113224094E00E94FF0268EE73E080E090E00E9458
S11322502B1A41E061E08AE593E00E94FF0241E02D
S113226062E08BE693E00E94FF0268EE73E080E098
S113227090E00E942B1A0F2EF3E0DF2EF02DF12CAC
S113228001E091E0C95FDC4F9883C750D340A2E0DE
S1132290AD1508F04ACF45C1FE01EE5FFC4F85E065
S11322A0DF01982F1D929A95E9F73597DF011D926A
S11322B08A95E9F741E061E083E794E00E94FF0238
S11322C041E062E087EF91E00E94FF0282E40E9415
S11322D0280281E00E94B00188E40E94280282E082
S11322E00E94B0018EE40E9428028FE70E94B00190
S11322F0EE24E394B12C4BD7182F813419F4B5E0B4
S1132300BB1651F1123461F1133459F41FEF1B0D54
S11323108AE08B0D0E94280280E20E94B001B12E57
S113232024C0E4E0EB1508F11A32F9F01434E9F0B2
S11323301332D9F01134C9F08BE08B0D0E942802BE
S11323408AE20E94B001E2E0F3E0EC0FFD1FEB0D26
S1132350F11D1083B39409C06894EE24E1F805C01C
S11323600F2EF3E0EF2EF02DF12CF1E0EF1619F221
S113237083E0E81609F4D3C041E061E084E894E026
S11323800E94FF0241E062E085E994E00E94FF02BE
S113239080E00E94B00181E40E94B0010E949D038C
S11323A041E061E083E794E00E94FF0241E062E0E3
S11323B087EF91E00E94FF0282E40E94280281E0FC
S11323C00E94B00188E40E94280282E00E94B001C9
S11323D08EE40E9428028FE70E94B001B12CD7D668
S11323E0182F813409F063C095E0B91260C015C09C
S11323F0822F90E0E2E0F3E0EC0FFD1FE80FF91FFD
S11324003081EDEFF2E0EC0FFD1FE80FF91F808142
S1132410381301C04F5F2F5F02C020E040E0253039
S113242038F3453049F512C0822F90E0E2E0F3E042
S1132430EC0FFD1FE80FF91F3081E7EBF2E0EC0F22
S1132440FD1FE80FF91F30832F5F01C020E0253006
S113245058F341E061E084EA94E00E94FF0241E025
S113246062E085EB94E00E94FF0282E00E94B001EA
S113247082E40E94B00112C041E061E084EC94E087
S11324800E94FF0241E062E085ED94E00E94FF02B9
S113249082E00E94B00182E40E94B0010E94AA037B
S11324A00F2EF3E0EF2EF02DF12C07E030C01234A4
S11324B041F1133459F41FEF1B0D8AE08B0D0E9478
S11324C0280280E20E94B001B12E21C0A4E0AB1525
S11324D0F0F01A32E1F01434D1F01332C1F01134B7
S11324E0B1F08BE08B0D0E9428028AE20E94B001B9
S11324F0EDEFF2E0EC0FFD1FEB0DF11D1083B39433
S113250006C00F2EF3E0EF2EF02DF12C07E0B2E021
S1132510EB1609F464CF05C0F12C01E002C0F12CE4
S113252007E080911605883080F0813130F08131E8
S113253061F4909117059F3040F4C95FDC4FE88146
S1132540C750D340E13051F52FC02091140530E03D
S11325502132310544F4823130F4813129F58091FE
S113256017058F3008F141E061E089E392E00E94B1
S1132570FF0241E062E08AE492E00E94FF0260ED23
S113258077E080E090E067D7C12CF12C01E0F4E023
S1132590C95FDC4FF883C750D34006C082E0C95FEF
S11325A0DC4F8883C750D340C95FDC4F9881C75044
S11325B0D340933009F46BCB57C5CC2009F421C127
S11325C00230F9F0033009F479C0013009F04CC548
S11325D041E061E086EC91E00E94FF0241E062E0AC
S11325E083EF94E00E94FF0280E00E94B00181E446
S11325F00E94B0010E949D03813409F035C502E0B8
S113260033C541E061E086EE91E00E94FF0241E0C3
S113261062E087EF91E00E94FF0282E40E942802B8
S113262081E00E94B00188E40E94280282E00E94B6
S1132630B0018EE40E9428028FE70E94B00188E076
S11326400E942802E12CA3D5182F813419F4A5E0A7
S1132650EA1671F1123471F1133469F4EE2059F071
S11326601FEF1E0D89E08E0D0E94280280E20E9459
S1132670B001E12E20C0B4E0BE15E8F01A32D9F062
S11326801434C9F01332B9F01134A9F0133499F0A9
S11326908AE08E0D0E942802812F0E94B001ECEB8B
S11326A0F2E0EC0FFD1FEE0DF11D1083E39403C067
S11326B003E001C001E0023031F2D6C441E061E040
S11326C088E092E00E94FF0241E062E087EF91E03F
S11326D00E94FF0282E40E94280281E00E94B0016D
S11326E088E40E94280282E00E94B0018EE40E94E5
S11326F028028FE70E94B00188E00E942802E12CA2
S113270046D5182F813409F046C0E5E0EE1243C0E7
S113271025C0282F30E0ECEBF2E0EC0FFD1FE20FB8
S1132720F31F4081E1ECF2E0EC0FFD1FE20FF31F19
S11327309081491311C0E7EBF2E0EC0FFD1FE20FAB
S1132740F31F4081E6ECF2E0EC0FFD1FE20FF31FF4
S11327509081491301C05F5F8F5F02C050E080E049
S11327608530B8F2553009F444C041E061E089E1B4
S113277092E00E94FF0241E062E08AE292E00E945D
S1132780FF0282E00E94B00182E40E94B0010E9434
S1132790AA0301E032C0123479F1133469F4EE2053
S11327A059F01FEF1E0D89E08E0D0E94280280E271
S11327B00E94B001E12E21C0F4E0FE15F0F01A32BF
S11327C0E1F01434D1F01332C1F01134B1F0133408
S11327D0A1F08AE08E0D0E9428028AE20E94B001D4
S11327E0E7EBF2E0EC0FFD1FEE0DF11D1083E39417
S11327F004C0C12C01E001C001E0033009F480CF22
S113280033C4802F90E0FC013197E830F10508F0E3
S113281017C1EC5AFF4F29C741E061E08BE592E014
S11328200E94FF0281E00E94B00181E40E94B00195
S113283041E062E08AE692E00E94FF0280E00E94AA
S1132840B00182E40E94B0010E949D03823411F41D
S11328500E5FF6C0813409F0F3C0CBC00F5FF0C047
S113286041E061E087E992E00E94FF0281E00E947A
S1132870B00181E40E94B00141E062E086EA92E0A6
S11328800E94FF0280E00E94B00182E40E94B00135
S11328900E949D03823411F40F5FD2C0813409F089
S11328A0CFC0ABC041E061E085EB92E00E94FF0243
S11328B081E00E94B00181E40E94B00141E062E045
S11328C084EC92E00E94FF0280E00E94B00182E466
S11328D00E94B0010E949D03823411F40F5FB0C0C6
S11328E0813409F0ADC08FC041E061E083ED92E036
S11328F00E94FF0281E00E94B00181E40E94B001C5
S113290041E062E082EE92E00E94FF0280E00E94D9
S1132910B00182E40E94B0010E949D03823411F44C
S11329200F5F8EC0813409F08BC072C041E061E05A
S113293081EF92E00E94FF0281E00E94B00181E4F5
S11329400E94B00141E062E080E093E00E94FF0257
S113295080E00E94B00182E40E94B0010E949D03C5
S1132960823411F40F5F6CC0813409F069C056C021
S113297041E061E08FE093E00E94FF0281E00E9469
S1132980B00181E40E94B00141E062E08EE193E095
S11329900E94FF0280E00E94B00182E40E94B00124
S11329A00E949D03823411F40F5F4AC0813409F000
S11329B047C03AC041E061E08DE293E00E94FF022B
S11329C081E00E94B00181E40E94B00141E062E034
S11329D08EE193E00E94FF0280E00E94B00182E455
S11329E00E94B0010E949D03823421F1813441F59B
S11329F023C0FF24F39400E023C00F2EF3E0FF2E46
S1132A00F02D00E01DC06894FF24F2F800E018C027
S1132A100F2EF5E0FF2EF02D00E012C00F2EF6E091
S1132A20FF2EF02D00E00CC00F2EF7E0FF2EF02D4E
S1132A3000E006C001E004C06894FF24F3F800E05D
S1132A408F2D90E0FC013197E830F10508F00CC3BC
S1132A50E45AFF4F0AC641E061E082E095E00E943B
S1132A60FF0282E00E94B00181E40E94B00141E0D3
S1132A7062E08BE493E00E94FF0281E00E94B001D7
S1132A8082E40E94B0010E949D038234A9F441E0D3
S1132A9061E08AE593E00E94FF0241E062E08BE698
S1132AA093E00E94FF0268EE73E080E090E0D3D4EC
S1132AB0CC24C39401E0D8C2813409F0D5C2CFC27A
S1132AC041E061E081ED93E00E94FF0241E062E0B9
S1132AD088E791E00E94FF0282E00E94B00182E454
S1132AE00E94B0011BD553D3823409F0BDC21AD55C
S1132AF0F12C03E0B9C241E061E082EE93E00E9470
S1132B00FF0241E062E083EF93E00E94FF028FE75F
S1132B100E94B00183E40E94B00180E20E94B001EF
S1132B2082E00E94B00182E40E94B00180E20E942F
S1132B30B00181E00E94B00181E40E94B001C35061
S1132B40DD4F188219821A821B82CD5FD240E12C9C
S1132B501ED3182F813409F051C084E0E8124EC00E
S1132B60C150DD4F4881CF5FD24050E040535109FE
S1132B70C050DD4F9881C050D340C350DD4F2881F1
S1132B80CD5FD24030E020533109C250DD4F38814F
S1132B90CE5FD240440F642F660F660F460F642F3A
S1132BA0690F6053220F822F880F880F280F822FFE
S1132BB0830F805388D481110DC041E061E08CEF14
S1132BC093E00E94FF0241E062E08DE094E00E9405
S1132BD0FF020CC041E061E08EE194E00E94FF023C
S1132BE041E062E08FE294E00E94FF0260ED77E052
S1132BF080E090E030D4F12C04E03FC01234D9F1ED
S1132C001334A1F4EE2091F01FEF1E0D123028F4BE
S1132C1080E48E0D0E94280204C081E48E0D0E947F
S1132C20280280E20E94B001E12E27C093E09E15A5
S1132C3020F11A3211F1143401F11332F1F011348C
S1132C40E1F01334D1F0A1E0AE1528F081E48E0D4B
S1132C500E94280204C082E48E0D0E942802812F63
S1132C600E94B001EDEFF2E0EC0FFD1FEE0DF11D3F
S1132C701083E39402C0F12C04E0B4E0FB1609F4E1
S1132C8067CFF2C185E51BD386E519D30F2EF6E194
S1132C90AF2EF5E0BF2EF02DF501808110D3D501C4
S1132CA011968C910CD38091140509D3CE018553D0
S1132CB09D4F0CD3C553DD4F8881CB5CD2408D34FE
S1132CC009F088C0C453DD4F8881CC5CD24086357E
S1132CD009F080C0C353DD4F8881CD5CD2408F346E
S1132CE0C1F441E061E080E494E00E94FF0241E02D
S1132CF062E081E594E00E94FF0268EE73E080E008
S1132D0090E0A9D30F2EF3E0DF2EF02DF12C05E097
S1132D1061C0893479F5D394B3E0DB125BC041E040
S1132D2061E080E494E00E94FF0241E062E082E618
S1132D3094E00E94FF0268EE73E080E090E08BD3A1
S1132D4041E061E08AE593E00E94FF0241E062E035
S1132D508BE693E00E94FF0268EE73E080E090E06F
S1132D607AD3F12C01E0E1E0C95FDC4FE883C7507E
S1132D70D34030C0883571F541E061E080E494E0EF
S1132D800E94FF0241E062E082E694E00E94FF02BA
S1132D9068EE73E080E090E05ED341E061E08AE5B4
S1132DA093E00E94FF0241E062E08BE693E00E9420
S1132DB0FF0268EE73E080E090E04DD30F2EF3E065
S1132DC0DF2EF02DF12C01E0F1E0C95FDC4FF88338
S1132DD0C750D34082E08D1508F054CF45C1FE01A1
S1132DE0EE5FFC4F85E0DF01982F1D929A95E9F77D
S1132DF03597DF011D928A95E9F741E061E083E7A9
S1132E0094E00E94FF0241E062E087EF91E00E94BB
S1132E10FF0282E40E94280281E00E94B00188E45B
S1132E200E94280282E00E94B0018EE40E942802DF
S1132E308FE70E94B001EE24E394B12CA8D1182F9F
S1132E40813419F4B5E0BB1651F1123461F1133435
S1132E5059F41FEF1B0D8AE08B0D0E94280280E2BB
S1132E600E94B001B12E24C0E4E0EB1508F11A323F
S1132E70F9F01434E9F01332D9F01134C9F08BE0CD
S1132E808B0D0E9428028AE20E94B001E2E0F3E086
S1132E90EC0FFD1FEB0DF11D1083B39409C0689472
S1132EA0EE24E1F805C00F2EF3E0EF2EF02DF12C07
S1132EB0F1E0EF1619F283E0E81609F4D3C041E01B
S1132EC061E084E894E00E94FF0241E062E085E969
S1132ED094E00E94FF0280E00E94B00181E40E941D
S1132EE0B0010E949D0341E061E083E794E00E9409
S1132EF0FF0241E062E087EF91E00E94FF0282E47A
S1132F000E94280281E00E94B00188E40E94280205
S1132F1082E00E94B0018EE40E9428028FE70E94A2
S1132F20B001B12C34D1182F813409F063C095E07D
S1132F30B91260C015C0822F90E0E2E0F3E0EC0F1C
S1132F40FD1FE80FF91F3081EDEFF2E0EC0FFD1FDC
S1132F50E80FF91F8081381301C04F5F2F5F02C053
S1132F6020E040E0253038F3453049F512C0822F87
S1132F7090E0E2E0F3E0EC0FFD1FE80FF91F308171
S1132F80E7EBF2E0EC0FFD1FE80FF91F30832F5F32
S1132F9001C020E0253058F341E061E084EA94E088
S1132FA00E94FF0241E062E085EB94E00E94FF0290
S1132FB082E00E94B00182E40E94B00112C041E0AC
S1132FC061E084EC94E00E94FF0241E062E085ED60
S1132FD094E00E94FF0282E00E94B00182E40E9419
S1132FE0B0010E94AA030F2EF3E0EF2EF02DF12C76
S1132FF007E030C0123441F1133459F41FEF1B0DB4
S11330008AE08B0D0E94280280E20E94B001B12E5A
S113301021C0A4E0AB15F0F01A32E1F01434D1F081
S11330201332C1F01134B1F08BE08B0D0E942802F1
S11330308AE20E94B001EDEFF2E0EC0FFD1FEB0D10
S1133040F11D1083B39406C00F2EF3E0EF2EF02D84
S1133050F12C07E0B2E0EB1609F464CF05C0F12CC3
S113306001E002C0F12C07E0C95FDC4FE881C750E2
S1133070D340E43009F4A1CA0C94E7081F93CF931A
S1133080DF93C62F8230B1F018F4813031F038C0AC
S11330908330E9F0843041F133C08BB18F7D8BB93B
S11330A08BB180618BB98BB188608BB98BB1846033
S11330B08BB926C08BB180628BB98BB18F7E8BB9F3
S11330C08BB188608BB98BB184608BB919C08BB11B
S11330D080628BB98BB180618BB98BB1877F8BB9DF
S11330E08BB184608BB90CC08BB180628BB98BB10E
S11330F080618BB98BB188608BB98BB18B7F8BB9B5
S1133100D0E010E001C0182F61E070E080E090E0B2
S1133110A2D1C23061F018F4C13031F016C0C3300E
S113312051F0C43069F011C086B181700FC086B10E
S1133130869581700BC086B182FB882780F906C012
S113314086B183FB882780F901C0812F181302C040
S1133150DF5F01C0D0E0D730B0F2C23061F018F4C4
S1133160C13031F010C0C33049F0C43051F00BC04D
S1133170309BFECF08C0319BFECF05C0329BFECFF3
S113318002C0339BFECFDF91CF911F91089561E080
S113319081E074DF882309F454C062E081E06EDFCB
S11331A0882309F450C063E081E068DF882309F4D0
S11331B04CC064E081E062DF882309F448C061E028
S11331C082E05CDF882309F444C062E082E056DFD9
S11331D0882309F440C063E082E050DF882309F4C7
S11331E03CC064E082E04ADF882309F438C061E02F
S11331F083E044DF8823A9F162E083E03FDF882392
S113320091F163E083E03ADF882379F164E083E0BD
S113321035DF882361F161E084E030DF882349F100
S113322062E084E02BDF882331F163E084E026DF71
S1133230882319F164E084E021DF8111A8CF84E4BC
S1133240089581E3089582E3089583E3089581E472
S1133250089584E3089585E3089586E3089582E458
S1133260089587E3089588E3089589E3089583E43E
S113327008958AE2089580E3089583E20895E1ECD5
S1133280F0E088E1808383E390E09093C50080932D
S1133290C40080818068808378940895E1ECF0E034
S11332A080818F7780838091C0008823E4F78091A8
S11332B0C600E1ECF0E090819068908308958093DB
S11332C0C6008091C00085FFFCCF0895FF920F9344
S11332D01F93CF93DF93EC01E1DF88838D34E1F713
S11332E08D3499F5DBDF8983893431F0833421F01F
S11332F0843511F0823511F41A8228C0863551F4D0
S1133300CDDF8A838F3421F0893411F0883511F4AC
S11333101B821CC089818E3431F0803521F08335C5
S113332011F0863491F4BADF8A83F12C0AC00F2D90
S113333010E00D5F1F4F0C0F1D1FB0DFF8018083DD
S1133340F3948A81F81698F301C01882DF91CF9123
S11333501F910F91FF900895EF92FF920F931F9387
S1133360CF93DF937C01FC0101900020E9F73197B2
S11333708F01081B190BC0E0D0E006C0F701EC0F69
S1133380FD1F80819CDF21960C171D07BCF7DF9180
S1133390CF911F910F91FF90EF9008951F920F927C
S11333A00FB60F9211242F933F934F935F936F9314
S11333B07F938F939F93AF93BF93CF93EF93FF9399
S11333C08091C6008D34C1F4E1ECF0E080818F7708
S11333D0808364DF883459F461DFC82F5FDF682F8E
S11333E08C2F71D0811103C081E195E0B5DFE1EC50
S11333F0F0E0808180688083FF91EF91CF91BF914D
S1133400AF919F918F917F916F915F914F913F9178
S11334102F910F900FBE0F901F90189522E024BD9E
S113342031E035BD3FE937BD16BC25BB2AE030E0AD
S113343040E050E0FED080E090E0DC01A99BFECFAC
S113344062E065BB0196A11DB11D82179307A40715
S1133450B507A4F308950F931F938B019C0182E099
S113346084BD83E085BD89EF87BD16BC85B38260CA
S113347085BB40E050E0BA01A99BFECF85B38260D2
S113348085BB4F5F5F4F6F4F7F4F401751076207F8
S1133490730794F31F910F910895109280008CE0AC
S11334A08093810083E294EF909389008093880055
S11334B01092850010928400EFE6F0E08081826033
S11334C0808378940895883140F46C3340F4E6E1C5
S11334D0F5E08083618380E0089581E0089581E0D0
S11334E00895809118058B33A9F4E6E1F5E0128282
S11334F081818B3359F411828081873119F41092C0
S1133500160508958F5F8093160508958F5F809345
S1133510170508958F5F80931805089581E08093BF
S1133520150508951092150508951F920F920FB670
S11335300F9211242F933F934F935F936F937F9335
S11335408F939F93AF93BF93EF93FF93CF93DF93A7
S1133550CDB7DEB72997DEBFCDBFC3DF8091150598
S1133560882309F44BC0FE01319689E0DF011D92E6
S11335708A95E9F7A6E1B5E08C919DEC899F212D10
S1133580112426952695269530E3320F3983220F90
S1133590322F330F330F230F821B805D8A834AE35C
S11335A04B8311968C911197899F212D1124269577
S11335B02695269530E3320F3C83220F322F330FAA
S11335C0330F230F821B805D8D834E8312962C91C3
S11335D0299F912D112496959695969580E3890FB0
S11335E08F83990F892F880F880F980F291B205DCF
S11335F0288741E062E0CF010E94FF0282E086BB9F
S113360029960FB6F894DEBF0FBECDBFDF91CF91E0
S1133610FF91EF91BF91AF919F918F917F916F91A6
S11336205F914F913F912F910F900FBE0F901F907C
S11336301895052E97FB16F400940FD057FD05D06E
S11336401AD007FC02D046F408C050954095309536
S113365021953F4F4F4F5F4F0895909580957095FA
S113366061957F4F8F4F9F4F0895EE0FFF1F059079
S1133670F491E02D0994A1E21A2EAA1BBB1BFD01B3
S11336800DC0AA1FBB1FEE1FFF1FA217B307E4073D
S1133690F50720F0A21BB30BE40BF50B661F771F95
S11336A0881F991F1A9469F7609570958095909575
S11136B09B01AC01BD01CF010895F894FFCF3A
S11336BE04040404150E0400000103161C08000083
S11336CE0E111114121F020430313233370031320D
S11336DE33373800436F6469676F20696E76616CA7
S11336EE69646F004552524F204E4120434F4D5551
S11336FE4E49432E00202020202053455249414C50
S113370E20202000413A2020423A4252414E434F5B
S113371E20433A2000446570204665646572616CEE
S113372E3A2020202000202020202020202020208D
S113373E20202020202000436F6E6669726D613F49
S113374E20200053656E61646F723A202020202081
S113375E20202000507265736964656E74653A208A
S113376E2020202000202020202020202066696D8B
S113377E20202020200020202020202055726E6141
S113378E20202020202000202020426C6F7175659F
S113379E6164612020004C6F67696E2061646D3A2C
S11337AE20202020202000413A20202020423A20B0
S11337BE202020433A20200053656E686120616406
S11337CE6D3A2020202020200020202020204D652E
S11337DE736172696F202020200020202020696EE2
S11337EE76616C69646F20200020202020202055F3
S11337FE524E412020202020200020202020454E03
S113380E4345525241444120202000312E2045731D
S113381E7461646F20646F2020002020202053697F
S113382E7374656D6120202000322E202020204EDE
S113383E6F766F20202020002020202020456C65EC
S113384E69746F72202000332E2020436F6E7375BF
S113385E6C7461202000202020646520486F726102
S113386E72696F2000342E202054726F63612064BD
S113387E6520200020202020486F726172696F201D
S113388E202000352E2020566572696669632E202D
S113389E2000646520436F72726573706F6E642EC0
S11338AE00362E2052656C61746F72696F20200091
S11338BE2020646520566F746163616F2020003789
S11338CE2E202054726F6361206465202000202016
S11338DE20202053656E68612020202000382E2081
S11338EE2052657365746172202020004F5045523A
S11338FE4143494F4E414C2020200020426C6F71B1
S113390E756561723F2020202000424C4F51554571
S113391E414E444F2055524E41200020202020205D
S113392E202E2E2E2020202020202000456C65697C
S113393E746F723A20202020202020200020202086
S113394E20202054454D504F2020202020002020A0
S113395E2020204553474F5441444F20202000201F
S113396E20202020202046494D20202020202000E9
S113397E454C4549544F5220494E56414C49444FAB
S113398E00484F524120415455414C3A20202020AA
S113399E2000494E534552495220484F52415249F4
S11339AE4F20003C20203A20203E2000484F524118
S11339BE52494F20414C54455241444F002020431C
S11339CE4F4D205355434553534F2020200056410D
S11339DE4C4F5220494E56414C49444F2C200054D2
S11339EE454E5445204E4F56414D454E54452000AC
S11339FE2020434F4E53495354454E4349412020B2
S1133A0E00202020202020204F4B2020202020206A
S1133A1E2000202020202046414C484F55202020B5
S1133A2E2020004E6F76612053656E68613A202027
S1133A3E20202000205265706974612061204E6F31
S1133A4E76612020002020202053656E686120209E
S1133A5E202020002054726F63612064652053651A
S1133A6E6E686120002020202045666574756164AF
S1133A7E6120200020202053656E686173204E6102
S1133A8E6F2020200020202020436F6E6665726513
S1133A9E6D202000414755415244414E444F202051
S1133AAE202000202020456E6365727261646120BF
S1133ABE2000454E434552524144412020202020AF
S1073ACE0055480053
S9030000FC
