S017000075726E615F656C6574726F6E6963612E73726563D2
S113000033C000004CC000004AC0000048C00000DB
S113001046C0000044C0000042C0000040C00000D0
S11300203EC000003CC000003AC00000AAC5000069
S113003036C0000034C0000032C0000030C00000F0
S11300402EC000002CC000002AC0000028C0000000
S113005026C0000024C0000022C0000020C0000010
S11300601EC000001CC0000011241FBECFEFD8E04A
S1130070DEBFCDBF12E0A0E0B1E0EAE3FDE002C0E4
S113008005900D92AE30B107D9F722E0AEE0B2E0B0
S113009001C01D92A231B207E1F784D24CC6B0CFA1
S11300A085B1877F85B985B18B7F85B985B182603C
S11300B085B985B18E7F85B98BB18F7B8BB98BB1B7
S11300C080688BB98BB18F778BB98BB180688BB912
S11300D08BB18F778BB988E290E0BFD48BB1806805
S11300E08BB98BB18F778BB985B1886085B98BB1AA
S11300F080688BB98BB18F778BB988E290E0ADC4FF
S113010008959BB19F7B9BB995B1977F95B995B1A4
S11301109B7F95B995B19D7F95B995B19E7F95B912
S11301209BB190689BB99BB19F779BB995B1946043
S113013095B9813021F485B1826085B903C085B158
S11301408D7F85B9613021F485B1816085B903C0A3
S113015085B18E7F85B98BB180688BB98BB18F7770
S11301608BB988E290E079C4089595B1977F95B9E9
S113017095B19B7F95B995B19D7F95B995B19E7FBA
S113018095B99BB190689BB99BB19F779BB995B189
S1130190986095B9813021F485B1846085B903C034
S11301A085B18B7F85B9613021F485B1826085B9D1
S11301B003C085B18D7F85B9413021F485B181605B
S11301C085B903C085B18E7F85B98BB180688BB941
S11301D08BB18F778BB988E290E03FC4089590E0AB
S11301E002C0959587956A95E2F781700895CF933B
S11301F0C82F67E0F4DF813021F485B1886085B9C8
S113020003C085B1877F85B966E08C2FE8DF813034
S113021021F485B1846085B903C085B18B7F85B92C
S113022065E08C2FDCDF813021F485B1826085B9F3
S113023003C085B18D7F85B964E08C2FD0DF813018
S113024021F485B1816085B903C085B18E7F85B9FC
S11302508BB180648BB98BB180688BB98BB18F778C
S11302608BB963E08C2FBBDF813021F485B18860CA
S113027085B903C085B1877F85B962E08C2FAFDF74
S1130280813021F485B1846085B903C085B18B7F49
S113029085B961E08C2FA3DF813021F485B18260C0
S11302A085B903C085B18D7F85B960E08C2F97DF58
S11302B0813021F485B1816085B903C085B18E7F19
S11302C085B98BB180688BB98BB18F778BB988E294
S11302D090E0C3D3CF910895CF93C82F8BB18F7B78
S11302E08BB985B1886085B966E08C2F78DF813061
S11302F021F485B1846085B903C085B18B7F85B94C
S113030065E08C2F6CDF813021F485B1826085B982
S113031003C085B18D7F85B964E08C2F60DF8130A7
S113032021F485B1816085B903C085B18E7F85B91B
S11303308BB180688BB98BB18F778BB963E08C2FCD
S11303404EDF813021F485B1886085B903C085B161
S1130350877F85B962E08C2F42DF813021F485B13B
S1130360846085B903C085B18B7F85B961E08C2F2A
S113037036DF813021F485B1826085B903C085B14F
S11303808D7F85B960E08C2F2ADF813021F485B11F
S1130390816085B903C085B18E7F85B98BB18068D2
S11303A08BB98BB18F778BB988E290E056D3CF911C
S11303B00895CF93C82F8BB18F7B8BB985B1877F7D
S11303C085B985B1846085B965E08C2F08DF8130FB
S11303D021F485B1826085B903C085B18D7F85B96B
S11303E064E08C2FFCDE813021F485B1816085B915
S11303F003C085B18E7F85B98BB180688BB98BB111
S11304008F778BB963E08C2FEADE813021F485B1DC
S1130410886085B903C085B1877F85B962E08C2F78
S1130420DEDE813021F485B1846085B903C085B1F5
S11304308B7F85B961E08C2FD2DE813021F485B1C8
S1130440826085B903C085B18D7F85B960E08C2F4A
S1130450C6DE813021F485B1816085B903C085B1E0
S11304608E7F85B98BB180688BB98BB18F778BB94F
S113047088E290E0F2D2CF9108950F931F93CF9327
S1130480DF938C01623011F080E001C080E4480FFA
S11304908FEF840F803118F04154403108F41CDF91
S11304A0C0E0D0E002C0A3DE2196F801EC0FFD1FEE
S11304B080818111F8CFDF91CF911F910F91089521
S11304C00F931F93CF93DF93CDB7DEB768970FB623
S11304D0F894DEBF0FBECDBF88E0E0E0F1E0DE01BE
S11304E0119601900D928A95E1F788E0E8E0F1E039
S11304F0DE01199601900D928A95E1F788E0E0E11A
S1130500F1E0DE01519601900D928A95E1F780E4C5
S113051050DF00E010E00AC0E1E0F0E0EC0FFD1F66
S1130520E00FF11F808163DE0F5F1F4F083011055C
S11305309CF300E010E00AC0E9E0F0E0EC0FFD1FDE
S1130540E00FF11F808153DE0F5F1F4F083011054C
S11305509CF300E010E00AC0E1E1F0E0EC0FFD1FC5
S1130560E00FF11F808143DE0F5F1F4F083011053C
S11305709CF380E0B1DE68960FB6F894DEBF0FBE40
S1130580CDBFDF91CF911F910F91089580E005C0F9
S1130590E2D19FEB980F923020F081548230C0F763
S11305A080E0089584B1816084B984B1826084B9A3
S11305B084B1846084B984B1886084B98AB1806864
S11305C08AB98AB180648AB98AB180628AB98AB1E7
S11305D080618AB98AB188608AB98AB184608AB92B
S11305E087B18E7F87B987B18D7F87B987B18B7FBC
S11305F087B987B1877F87B984B1806184B984B1B1
S1130600806284B98BB180628BB98BB180618BB904
S11306108BB188608BB98BB184608BB988B18160F0
S113062088B988B1826088B988B1846088B988B192
S1130630886088B985B18F7E85B985B18F7D85B98C
S11306402FDD60E081E05DDD40E060E081E08DDD94
S113065037DF5DD2F8D1D0E0C1E0EFC041E061E026
S113066088E191E00ADF41E062E089E291E005DFA0
S113067082E432DE81E0BBDD88E42EDE82E0B7DD99
S11306808EE42ADE8FE7B3DDFFCF41E061E08AE349
S113069091E0F3DE41E062E08BE491E0EEDE82E0A3
S11306A0A6DD82E4A4DD66D256D1823419F466D282
S11306B0D0E0C3E0C33009F445C028F4C13061F090
S11306C0C23029F1BAC0C53009F472C008F455C06B
S11306D0C63009F487C0B1C041E061E08AE591E029
S11306E0CCDE81E084DD81E482DD41E062E089E604
S11306F091E0C3DE80E07BDD82E479DD47DF823494
S113070011F4CF5F9AC0813409F097C083C041E0EF
S113071061E088E791E0B1DE81E069DD81E467DDD5
S113072041E062E087E891E0A8DE80E060DD82E4F9
S11307305EDD2CDF823411F4CF5F7FC0813409F099
S11307407CC06BC041E061E086E991E096DE81E027
S11307504EDD81E44CDD41E062E085EA91E08DDE2E
S113076080E045DD82E443DD11DF823411F4CF5FA4
S113077064C0813409F061C053C041E061E084EB9E
S113078091E07BDE81E033DD81E431DD41E062E054
S113079083EC91E072DE80E02ADD82E428DDF6DE7F
S11307A0823411F4CF5F49C0813409F046C03BC0A4
S11307B041E061E082ED91E060DE81E018DD81E4FA
S11307C016DD41E062E081EE91E057DE80E00FDD6E
S11307D082E40DDDDBDE823411F4CF5F2EC0813480
S11307E061F524C041E061E080EF91E046DE81E004
S11307F0FEDC81E4FCDC41E062E08FEF91E03DDE71
S113080080E0F5DC82E4F3DCC1DE823491F08134F3
S1130810A1F411C0D1E0C0E010C0D2E0C0E00DC02E
S1130820D3E0C0E00AC0D4E0C0E007C0D5E0C0E037
S113083004C0C1E002C0D6E0C0E0D23009F40ECF5B
S1130840D33009F422CF36CF1F93CF93DF93C62F33
S11308508230B1F018F4813031F038C08330E9F0DF
S1130860843041F133C08BB18F7D8BB98BB1806102
S11308708BB98BB188608BB98BB184608BB926C07E
S11308808BB180628BB98BB18F7E8BB98BB1886051
S11308908BB98BB184608BB919C08BB180628BB971
S11308A08BB180618BB98BB1877F8BB98BB184603D
S11308B08BB90CC08BB180628BB98BB180618BB961
S11308C08BB188608BB98BB18B7F8BB9D0E010E092
S11308D001C0182F88EE93E0C0D0C23061F018F444
S11308E0C13031F016C0C33051F0C43069F011C0CA
S11308F086B181700FC086B1869581700BC086B1B8
S113090082FB882780F906C086B183FB882780F99B
S113091001C0812F181302C0DF5F01C0D0E0D730BF
S1130920C0F2C23061F018F4C13031F010C0C330ED
S113093049F0C43051F00BC0309BFECF08C0319B4E
S1130940FECF05C0329BFECF02C0339BFECFDF91AA
S1130950CF911F91089561E081E076DF882309F447
S113096054C062E081E070DF882309F450C063E082
S113097081E06ADF882309F44CC064E081E064DF2D
S1130980882309F448C061E082E05EDF882309F42B
S113099044C062E082E058DF882309F440C063E089
S11309A082E052DF882309F43CC064E082E04CDF3B
S11309B0882309F438C061E083E046DF8823A9F185
S11309C062E083E041DF882391F163E083E03CDF70
S11309D0882379F164E083E037DF882361F161E003
S11309E084E032DF882349F162E084E02DDF88234C
S11309F031F163E084E028DF882319F164E084E0C6
S1130A0023DF8111A8CF84E4089581E3089582E36C
S1130A10089583E3089581E4089584E3089585E3C4
S1130A20089586E3089582E4089587E3089588E3AA
S1130A30089589E3089583E408958AE2089580E39C
S1130A40089583E2089588E18093C10083E390E0F0
S1130A509093C5008093C400089514BC8138910517
S1130A6080F422E025BDDC0120E034E244EF50E0D4
S1130A7027D120E032E14AE750E006D1219526BD96
S1130A8041C09C01215831092038334080F423E0CF
S1130A9025BDDC0120E034E244EF50E011D120E038
S1130AA030E940ED53E0F0D0219526BD2BC09C01E8
S1130AB02150344021153C4080F424E025BDDC0164
S1130AC020E034E244EF50E0FBD020E030E442E4A4
S1130AD05FE0DAD0219526BD15C09C01215030413C
S1130AE02115304398F425E025BDDC0120E034E2F3
S1130AF044EF50E0E5D020E030E049E05DE3C4D0CD
S1130B00219526BD81E085BBA89BFECF0895109258
S1130B1080008CE08093810083E294EF90938900BD
S1130B20809388001092850010928400EFE6F0E034
S1130B3080818260808378940895809111028B3340
S1130B40A9F4EFE0F2E0128281818B3359F411822F
S1130B508081873119F410920F0208958F5F80937A
S1130B600F0208958F5F8093100208958F5F809322
S1130B701102089581E080930E02089510920E02EE
S1130B8008951F920F920FB60F9211242F933F9343
S1130B904F935F936F937F938F939F93AF93BF9381
S1130BA0EF93FF93CF93DF93CDB7DEB72997DEBFE3
S1130BB0CDBFC3DF80910E02882309F44AC0FE0131
S1130BC0319689E0DF011D928A95E9F7AFE0B2E042
S1130BD08C919DEC899F212D11242695269526958F
S1130BE030E3320F3983220F322F330F330F230FA9
S1130BF0821B805D8A834AE34B8311968C91119703
S1130C00899F212D112426952695269530E3320FB0
S1130C103C83220F322F330F330F230F821B805D4F
S1130C208D834E8312962C91299F912D1124969594
S1130C309695969580E3890F8F83990F892F880F56
S1130C40880F980F291B205D288741E062E0CF01BF
S1130C5014DC82E086BB29960FB6F894DEBF0FBE83
S1130C60CDBFDF91CF91FF91EF91BF91AF919F9154
S1130C708F917F916F915F914F913F912F910F9041
S1130C800FBE0F901F901895052E97FB16F4009435
S1130C900FD057FD05D01ED007FC02D046F408C083
S1130CA050954095309521953F4F4F4F5F4F089594
S1130CB090958095709561957F4F8F4F9F4F0895C4
S1130CC02BD0A59F900DB49F900DA49F800D911DD6
S1130CD011240895A1E21A2EAA1BBB1BFD010DC00D
S1130CE0AA1FBB1FEE1FFF1FA217B307E407F507D8
S1130CF020F0A21BB30BE40BF50B661F771F881FB4
S1130D00991F1A9469F760957095809590959B0149
S1130D10AC01BD01CF010895A29FB001B39FC001F2
S1130D20A39F700D811D1124911DB29F700D811D13
S10D0D301124911D0895F894FFCFDB
S1130D3A04040404150E0400000103161C08000030
S1130D4A0E111114121F0204456C6569746F723A0C
S1130D5A202020202020202000413A202020204248
S1130D6A3A20202020433A202000484F5241204173
S1130D7A5455414C3A2020202020002020202020B5
S1130D8A20202020202020202000312E204573748A
S1130D9A61646F20646F202000202020205369732F
S1130DAA74656D6120202000322E202020204E6F91
S1130DBA766F20202020002020202020456C6569A1
S1130DCA746F72202000332E2020436F6E73756C6B
S1130DDA7461202000202020646520486F726172AB
S1130DEA696F2000342E202054726F636120646579
S1130DFA20200020202020486F726172696F202011
S1130E0A2000352E2020566572696669632E2020DB
S1130E1A00646520436F72726573706F6E642E008E
S1130E2A362E2052656C61746F72696F202000201F
S1110E3A20646520566F746163616F20200090
S9030000FC
