S017000075726E615F656C6574726F6E6963612E73726563D2
S113000065C0000080C000007EC000007CC000000D
S11300107AC0000078C0000076C0000074C0000000
S113002072C0000070C000006EC000000C94D522A5
S11300306AC0000068C0000066C0000064C0000020
S113004062C0000060C000000C9440215CC000004D
S11300505AC0000058C0000056C0000054C0000040
S113006052C0000050C00000610F980FCF0F06105F
S11300703D107410AB10E2101811591165117E1364
S1130080871390139D13F1135E156A158D16C4160C
S1130090CB16021739177017A717DD171E18121A77
S11300A02A1833183C1849189E18071ACD1B031C2C
S11300B00A1C401C761CAC1CE21C171D561D471F55
S11300C0621D6B1D741D801DD31D3C1F11241FBE9A
S11300D0CFEFD8E0DEBFCDBF16E0A0E0B1E0EAE9A3
S11300E0F7E402C005900D92A837B107D9F726E0CE
S11300F0A8E7B6E001C01D92A038B207E1F70E945C
S1130100CE0C0C94CB237CCFCF92DF92EF92FF9254
S1130110CF93C0E049C085B1806185B966E771E0DD
S113012080E090E00E944E2285B18F7E85B966E71B
S113013071E080E090E00E944E228CEEC80E82E0D6
S1130140D81EE11CF11C03C0C12CD12C760180E91E
S1130150C8168FE5D80681E0E806F104E4F2C12C64
S1130160D12C760118C085B1806185B96CE571E048
S113017080E090E00E944E2285B18F7E85B96CE5C7
S113018071E080E090E00E944E2288EBC80E82E08D
S1130190D81EE11CF11C80E9C8168FE5D80681E061
S11301A0E806F10404F3CF5FC53070F2C12CD12C02
S11301B0760118C085B1806185B966E771E080E099
S11301C090E00E944E2285B18F7E85B966E771E08A
S11301D080E090E00E944E228CEEC80E82E0D81E91
S11301E0E11CF11C80ECC81684EDD80681E0E80619
S11301F0F10404F3CF91FF90EF90DF90CF90089536
S1130200CF93DF93EA0190E024C0E62FF72F292F44
S113021030E0D901AA0FBB1F2A0F3B1F220F331F47
S1130220220F331F220F331FE20FF31F3081288167
S113023032130EC03181298132130AC02281222354
S113024061F03A81231304C033812B81321739F0D2
S11302509F5F9817D0F28FEF03C0892F01C0892FB9
S1130260DF91CF910895EF92FF920F931F93CF9355
S1130270DF93EC018B017A01688179818A81A8017D
S1130280BFDF8F3F09F041C0888199812A8130E026
S1130290A901440F551F240F351F220F331F220FAE
S11302A0331F220F331F820F931FB70106960E943C
S11302B0C423888199812A8130E0A901440F551F04
S11302C0240F351F220F331F220F331F220F331F1A
S11302D0B801820F931F0E94C423E881F9818A81A7
S11302E090E09C01220F331F820F931F880F991FE8
S11302F0880F991F880F991FE80FF91F87898F5F4F
S1130300878B8A818F5F8A8313C0E881F98190E0AB
S11303109C01220F331F820F931F880F991F880F90
S1130320991F880F991FE80FF91F87898F5F878BA3
S1130330DF91CF911F910F91FF90EF900895CF938C
S1130340C82FDA010D900020E9F71197CD01841B25
S1130350950B40E01FC00696E62FF72F242F30E0C0
S1130360D901AA0FBB1F2A0F3B1F220F331F220FD5
S1130370331F220F331FE20FF31F3696DF010D9058
S11303800020E9F71197AE1BBF0BA80FB91FCD01D1
S113039002964F5F4C17F8F2CF910895CF92DF92F7
S11303A0EF92FF920F931F93CF93DF93D62EE72EF6
S11303B0F82E00E03EC0CD2DDE2D802F90E09C0174
S11303C0220F331F820F931F880F991F880F991FC5
S11303D0880F991FC80FD91F8F899DEC899F912D74
S11303E011249695969596950F2EF0E3CF2EF02D29
S11303F0C90E990F292F220F220F920F891B10E388
S1130400180F8AEA91E00E941C218C2D0E94CF20B3
S1130410812F0E94CF2080E20E94CF20CE01069639
S11304200E941C218DE00E94CF208AE00E94CF20F0
S11304300F5F0F1508F4BFCFDF91CF911F910F917C
S1130440FF90EF90DF90CF9008950F931F93CF9379
S1130450DF93CDB7DEB7AE970FB6F894DEBF0FBE0D
S1130460CDBFAC018B01FE01319689E0DF011D9205
S11304708A95E9F785E589838EE48A8385E08B8311
S113048080E1E8E3F1E0DE011A9601900D928A958D
S1130490E1F7FE017A9685E1DF011D928A95E9F77D
S11304A090E010C0292F30E0F9013396DA01A20F51
S11304B0B31F2C9161E070E06C0F7D1FE60FF71FF6
S11304C020839F5F953070F31986CE0101960E94B8
S11304D01C21CE014A960E94D6208A8D8D3431F596
S11304E08B8D8E3429F541E020E019C0822F90E0F5
S11304F0D801A80FB91FFC0133966AE170E06C0FB4
S11305007D1FE60FF71F30813C93EAE0F0E0EC0F2B
S1130510FD1FE80FF91F8081381340E02F5F8C8D99
S1130520281720F3442331F080E005C08DEF03C089
S11305308DEF01C081E0AE960FB6F894DEBF0FBE1A
S1130540CDBFDF91CF911F910F9108959FEB980F2D
S1130550993120F09FE9980F993110F48F5F089535
S11305608A3521F08A3721F480E2089580E20895E3
S113057081E408959EEB980F993120F09EE9980F3D
S1130580993110F481500895813421F0813621F499
S113059080E2089580E208958AE508959FEB980F1C
S11305A09A3110F4805E08959FE9980F9A3108F407
S11305B0805208959C0190E005C0F901E90FF11DF6
S11305C010829F5F9230C8F30895CF92DF92EF922A
S11305D0FF920F931F93CF93DF93CDB7DEB7679747
S11305E00FB6F894DEBF0FBECDBF7C0181E1EDE90B
S11305F0F1E0DE01119601900D928A95E1F7FE017A
S1130600729686E0DF011D928A95E9F741E061E088
S113061088E491E024D341E062E089E591E01FD3CE
S11306208BE446D281E4CCD181E0CAD180E2C8D146
S113063082E4C6D182E0C4D10E94A120823409F4AC
S1130640F6C041E061E08AE691E009D341E062E06E
S11306508BE791E004D382E42BD281E0B1D188E42A
S113066027D282E0ADD18EE423D28FE7A9D188E0EE
S11306701FD200E00E94DA1F182F823409F4D9C077
S1130680833461F4002351F0DD24DA94D00E87E042
S1130690800F0ED280E294D10D2D19C00530B8F42C
S11306A01A32A9F0143499F0133289F0133479F022
S11306B0113469F088E0800FFBD1812F81D1E2E110
S11306C0F0E0EC0FFD1FE00FF11D10830F5F1134FC
S11306D089F6053079F6CE0101966CDF41E061E0E0
S11306E088E491E0BCD241E062E08CE891E0B7D2CA
S11306F08BE4DED181E464D181E062D180E260D117
S113070082E45ED182E05CD10E94A120823409F4AB
S113071092C041E061E08DE991E0A1D280E4C8D1CA
S113072082E34ED184E04CD18EEA91E0C4D285E0DC
S113073047D182EB91E0BFD286E042D185EB91E0D4
S1130740BAD282E03DD188EB91E0B5D281E038D1D4
S113075081E436D100E00E94DA1F182F823391F42D
S1130760CC24C394D12CCC0EDD1EC00ED11CF601BA
S1130770808100DFD6018C93802F9AD1F60180818D
S11307801FD136C0883391F4CC24C394D12CCC0E21
S1130790DD1EC00ED11CD6018C91D8DEF6018083FB
S11307A0802F86D1D6018C910BD122C0843321F4C1
S11307B0002311F001501CC0163321F40F3010F443
S11307C00F5F16C0153391F4CC24C394D12CCC0EF6
S11307D0DD1EC00ED11CF6018081E0DED6018C93B3
S11307E0802F66D1F6018081EBD002C0123429F14A
S11307F0113409F0B0CFBE016E5E7F4FC7010E9475
S1130800C423BE016F5F7F4FC70106960E94C423B5
S1130810EDE7F6E08081D70157968C935797818155
S113082058968C93589759961C9281E007C082E0A1
S113083005C082E003C082E001C082E067960FB683
S1130840F894DEBF0FBECDBFDF91CF911F910F9102
S1130850FF90EF90DF90CF90089585B1877F85B9A1
S113086085B18B7F85B985B1826085B985B18E7F6D
S113087085B98BB18F7B8BB98BB180688BB98BB108
S11308808F778BB98BB180688BB98BB18F778BB92C
S113089068E270E080E090E00E944E228BB18068B4
S11308A08BB98BB18F778BB985B1886085B98BB1E2
S11308B080688BB98BB18F778BB968E270E080E088
S11308C090E00C944E2208959BB19F7B9BB995B107
S11308D0977F95B995B19B7F95B995B19D7F95B952
S11308E095B19E7F95B99BB190689BB99BB19F7759
S11308F09BB995B1946095B9813021F485B182603A
S113090085B903C085B18D7F85B9613021F485B186
S1130910816085B903C085B18E7F85B98BB180684C
S11309208BB98BB18F778BB968E270E080E090E08F
S11309300C944E22089595B1977F95B995B19B7FFC
S113094095B995B19D7F95B995B19E7F95B99BB1A8
S113095090689BB99BB19F779BB995B1986095B905
S1130960813021F485B1846085B903C085B18B7F62
S113097085B9613021F485B1826085B903C085B140
S11309808D7F85B9413021F485B1816085B903C07B
S113099085B18E7F85B98BB180688BB98BB18F7728
S11309A08BB968E270E080E090E00C944E220895E8
S11309B090E002C0959587956A95E2F78170089555
S11309C0CF93C82F67E0F4DF813021F485B18860CC
S11309D085B903C085B1877F85B966E08C2FE8DFD0
S11309E0813021F485B1846085B903C085B18B7FE2
S11309F085B965E08C2FDCDF813021F485B182601C
S1130A0085B903C085B18D7F85B964E08C2FD0DFB3
S1130A10813021F485B1816085B903C085B18E7FB1
S1130A2085B98BB180648BB98BB180688BB98BB17C
S1130A308F778BB963E08C2FBBDF813021F485B1D4
S1130A40886085B903C085B1877F85B962E08C2F42
S1130A50AFDF813021F485B1846085B903C085B1ED
S1130A608B7F85B961E08C2FA3DF813021F485B1C0
S1130A70826085B903C085B18D7F85B960E08C2F14
S1130A8097DF813021F485B1816085B903C085B1D8
S1130A908E7F85B98BB180688BB98BB18F778BB919
S1130AA068E270E080E090E00E944E22CF910895C9
S1130AB0CF93C82F8BB18F7B8BB985B1886085B9F3
S1130AC066E08C2F75DF813021F485B1846085B9AF
S1130AD003C085B18B7F85B965E08C2F69DF8130D8
S1130AE021F485B1826085B903C085B18D7F85B954
S1130AF064E08C2F5DDF813021F485B1816085B99C
S1130B0003C085B18E7F85B98BB180688BB98BB1F9
S1130B108F778BB963E08C2F4BDF813021F485B163
S1130B20886085B903C085B1877F85B962E08C2F61
S1130B303FDF813021F485B1846085B903C085B17C
S1130B408B7F85B961E08C2F33DF813021F485B14F
S1130B50826085B903C085B18D7F85B960E08C2F33
S1130B6027DF813021F485B1816085B903C085B167
S1130B708E7F85B98BB180688BB98BB18F778BB938
S1130B8068E270E080E090E00E944E22CF910895E8
S1130B90CF93C82F8BB18F7B8BB985B1877F85B9F4
S1130BA085B1846085B965E08C2F02DF813021F442
S1130BB085B1826085B903C085B18D7F85B964E054
S1130BC08C2FF6DE813021F485B1816085B903C0B4
S1130BD085B18E7F85B98BB180688BB98BB18F77E6
S1130BE08BB963E08C2FE4DE813021F485B1886019
S1130BF085B903C085B1877F85B962E08C2FD8DEC3
S1130C00813021F485B1846085B903C085B18B7FBF
S1130C1085B961E08C2FCCDE813021F485B182600E
S1130C2085B903C085B18D7F85B960E08C2FC0DEA6
S1130C30813021F485B1816085B903C085B18E7F8F
S1130C4085B98BB180688BB98BB18F778BB968E22A
S1130C5070E080E090E00E944E22CF910895EF92E0
S1130C60FF921F93CF93DF937C01142F623011F016
S1130C7090E001C090E4910F8FEF890F803118F05C
S1130C809154903108F414DFC0E0D0E002C098DE43
S1130C902196F701EC0FFD1F8081882331F09E011E
S1130CA0210F311D2131310591F7DF91CF911F9132
S1130CB0FF90EF9008950F931F93CF93DF938C01D0
S1130CC0C0E0D0E002C07CDE2196F801EC0FFD1FED
S1130CD080818111F8CFDF91CF911F910F910895F9
S1130CE00F931F93CF93DF93CDB7DEB7E8970FB67B
S1130CF0F894DEBF0FBECDBF88E0E0E0F1E0DE0196
S1130D00119601900D928A95E1F788E0E8E0F1E010
S1130D10DE01199601900D928A95E1F788E0E0E1F1
S1130D20F1E0DE01519601900D928A95E1F788E099
S1130D30E8E1F1E0DE01599601900D928A95E1F720
S1130D4088E0E0E2F1E0DE01919601900D928A954F
S1130D50E1F788E0E8E2F1E0DE01999601900D9276
S1130D608A95E1F788E0E0E3F1E0DE01D1960190B5
S1130D700D928A95E1F780E40BDF00E010E00AC0F1
S1130D80E1E0F0E0EC0FFD1FE00FF11F808118DEC1
S1130D900F5F1F4F083011059CF300E010E00AC0FC
S1130DA0E9E0F0E0EC0FFD1FE00FF11F808108DEA9
S1130DB00F5F1F4F083011059CF300E010E00AC0DC
S1130DC0E1E1F0E0EC0FFD1FE00FF11F8081F8DDA1
S1130DD00F5F1F4F083011059CF300E010E00AC0BC
S1130DE0E9E1F0E0EC0FFD1FE00FF11F8081E8DD89
S1130DF00F5F1F4F083011059CF300E010E00AC09C
S1130E00E1E2F0E0EC0FFD1FE00FF11F8081D8DD7F
S1130E100F5F1F4F083011059CF300E010E00AC07B
S1130E20E9E2F0E0EC0FFD1FE00FF11F8081C8DD67
S1130E300F5F1F4F083011059CF300E010E00AC05B
S1130E40E1E3F0E0EC0FFD1FE00FF11F8081B8DD5E
S1130E500F5F1F4F083011059CF380E029DEE896F0
S1130E600FB6F894DEBF0FBECDBFDF91CF911F91B7
S1130E700F91089541E061E08BEB91E0F0DE41E0F9
S1130E8062E08CEC91E0EBCE089541E062E08BED02
S1130E9091E0E5DE82E40CDE81E092DD8FE408DEA1
S1130EA08FE78ECD08950F931F93CF93DF93EC01BB
S1130EB08B0141E061E08CEE91E0D1DE41E062E043
S1130EC08FE991E0CCDE82E07BDD82E479DD0E9473
S1130ED0CE220E94A9200E94D222F801108283E02F
S1130EE08883DF91CF911F910F910895CF92DF9264
S1130EF0EF92FF920F931F93CF93DF9300D000D014
S1130F00CDB7DEB76C017B0141E061E08DEF91E08C
S1130F10A6DE41E062E08EE092E0A1DE8FE750DDE4
S1130F2083E44EDD80E24CDD82E04ADD82E448DD8C
S1130F3080E246DD81E044DD81E442DD19821A82EB
S1130F401B821C8200E00E94DA1F182F813409F0F2
S1130F5042C0043009F03FC04B8150E04053510976
S1130F609C81298130E0205331093A81440F642F58
S1130F70660F660F460F642F690F6053220F822F8E
S1130F80880F880F280F822F830F80530E94A3227B
S1130F9081110BC041E061E087E192E060DE41E055
S1130FA062E088E292E05BDE0AC041E061E089E34E
S1130FB092E055DE41E062E08AE492E050DE60EDCA
S1130FC077E080E090E00E946B2284E0F601808369
S1130FD0F70110823AC0123431F484E0F6018083C0
S1130FE0F701108232C0133489F4002379F01FEF23
S1130FF0100F123020F480E4800F5ADD03C081E426
S1131000800F56DD80E2DCDC012F1FC00430E8F4E1
S11310101A32D9F01434C9F01332B9F01134A9F0EA
S1131020133499F0023020F481E4800F41DD03C0D1
S113103082E4800F3DDD812FC3DCE1E0F0E0EC0FC2
S1131040FD1FE00FF11D10830F5FF70180818430D5
S113105009F479CF0F900F900F900F90DF91CF91FB
S11310601F910F91FF90EF90DF90CF900895EF9232
S1131070FF920F931F93CF93DF938C017B01EA01BF
S11310808881833071F08430B1F08230E9F441E03A
S113109061E08BE592E0E3DD82E092DC81E490DCC8
S11310A013C041E061E08AE692E0D9DD82E088DCA9
S11310B081E486DC09C041E061E089E792E0CFDDAC
S11310C082E07EDC81E47CDC41E062E088E892E05E
S11310D0C6DD81E075DC82E473DC0E94A1208234E9
S11310E0A9F481E08883F801808341E061E087E925
S11310F092E0B5DD41E062E088EA92E0B0DD68EEBE
S113110073E080E090E00E946B2207C0813429F4F0
S1131110F701108281E0F8018083DF91CF911F9164
S11311200F91FF90EF900895FA0121E3208322E3C9
S1131130218323E3228327E3238328E3248321E0F9
S1131140FC012083FB01108241E061E089EB92E025
S113115086DD41E062E08AEC92E081DD60ED77E0DB
S113116080E090E00C946B2208954F925F927F92FE
S11311709F92AF92BF92CF92DF92EF92FF920F9322
S11311801F93CF93DF93CDB7DEB7C057D1090FB606
S1131190F894DEBF0FBECDBF5C016B017A0129015B
S11311A0FE01319685E0DF011D928A95E9F781E120
S11311B03596DF01682F1D926A95E9F71F8A188E0C
S11311C0198E7496DF01682F1D926A95E9F71BA6A4
S11311D01CA61DA67496DF011D928A95E9F781E08D
S11311E08093790685E50E94CF2089E40E94CF2070
S11311F0CE01CF9622E3FC0111922A95E9F70E94D1
S1131200D6208FAD8D3409F0B7C221968FAD2197CA
S1131210893409F0B3C241E061E08BED92E01FDD57
S113122034DECE01CF96C6D910E00E94DA1F082F13
S1131230883009F4A5C28FEB800F823008F080C09B
S1131240013469F4133021F0113011F011110FC081
S113125089E389838A831B821C8212E008C00234DA
S113126031F480E389838A831B821C8212E085E542
S11312700E94CF2086E40E94CF20812F0E94CF209D
S1131280CE0101960E941C21CE01CF960E94D62049
S11312908FAD8D3409F076C221968FAD21978634B7
S11312A009F072C2DE01AE5BBF4FFD010190002068
S11312B0E9F731974E2F4A1B20E013C0822F90E0AC
S11312C0FC0133966FE370E06C0F7D1FE60FF71F90
S11312D03081E6E0F0E0EC0FFD1FE80FF91F3083EA
S11312E02F5F421758F741E061E08DE991E0B7DCE8
S11312F041E061E0CE010696B2DC41E062E08CEEB2
S113130092E0ADDC81E05CDB80E993E0D4DC82E058
S113131057DB82E455DB0E94A120082F883009F4B2
S113132035C2823409F03CC041E061E08BED92E0CB
S113133096DCABDDCE01CF963DD910E000E030C0A5
S1131340033499F4112389F077247A94710EE1E03F
S1131350F0E0EC0FFD1FE70DF11D10828BE0810F13
S1131360A7DB80E22DDB172D1BC00332C9F00A3244
S1131370B9F00434A9F0023499F0033489F001344B
S113138079F0143068F48CE0810F92DBE1E0F0E056
S1131390EC0FFD1FE10FF11D00831F5F802F10DB99
S11313A08FEB800F823008F040CF41E061E088EF9E
S11313B092E055DC6ADDCE01CF96FCD8912C0E94D8
S11313C0DA1F182F883009F4E3C18FEB810F8230C4
S11313D008F07DC0113451F471E0791538F089E3D7
S11313E08F8B888F6894992491F808C0123431F453
S11313F080E38F8B888F6894992491F885E50E9407
S1131400CF2083E50E94CF20892D0E94CF20CE01DA
S113141047960E941C21CE01CF960E94D6208FAD04
S11314208D3409F0B7C121968FAD2197833509F02A
S1131430B3C1DE01AE5BBF4FFD0101900020E9F7AF
S113144031974E2F4A1B20E013C0822F90E0FC01FD
S11314503396AFE3B0E0AC0FBD1FEA0FFB1F308142
S1131460EAE1F0E0EC0FFD1FE80FF91F30832F5F76
S1131470421758F741E061E08DE991E0F0DB41E08B
S113148061E0CE014A96EBDB41E062E08CEE92E053
S1131490E6DB81E095DA80E993E00DDC82E090DA26
S11314A082E48EDA0E94A120182F883009F476C1D4
S11314B0823409F03DC041E061E088EF92E0CFDB87
S11314C0E4DCCE01CF9676D8912C10E031C01334F1
S11314D099F4992089F077247A94790CE7E1F0E083
S11314E0EC0FFD1FE70DF11D108287E0890DE0DA96
S11314F080E266DA972C1CC01332D1F01A32C1F0A4
S11315001434B1F01234A1F0133491F0113481F099
S1131510B1E0B91568F088E0890DCADAE7E1F0E0D6
S1131520EC0FFD1FE90DF11D10839394812F48DA10
S11315308FEB810F823008F042CF41E061E089E017
S113154093E08DDBA2DCCE01CF9634D8912C0E949F
S1131550DA1F182F883009F423C18FEB810F8230F2
S113156008F07EC0113451F4E1E0E91538F089E364
S11315708BA78CA76894992491F808C0123431F48D
S113158080E38BA78CA76894992491F885E50E9441
S1131590CF2080E50E94CF20892D0E94CF20CE014C
S11315A08B960E941C21CE01CF960E94D6208FAD2F
S11315B08D3409F0F7C021968FAD2197803509F05D
S11315C0F3C0DE01AE5BBF4FFD0101900020E9F7DF
S11315D031974E2F4A1B20E013C0822F90E0FC016C
S11315E033966FE370E06C0F7D1FE60FF71F3081B9
S11315F0EEE2F0E0EC0FFD1FE80FF91F30832F5FE0
S1131600421758F741E061E08DE991E028DB41E0C1
S113161061E0CE018E9623DB41E062E08CEE92E045
S11316201EDB81E0CDD980E993E045DB82E0C8D9B7
S113163082E4C6D90E94A120182F883009F4B6C0CC
S1131640823409F03EC041E061E089E093E007DBC9
S11316501CDCCE01CF960E94DA02912C10E031C03E
S1131660133499F4992089F077247A94790CEBE275
S1131670F0E0EC0FFD1FE70DF11D10828AE0890DEB
S113168017DA80E29DD9972C1CC01332D1F01A329C
S1131690C1F01434B1F01234A1F0133491F01134C8
S11316A081F071E0791568F08BE0890D01DAEBE2E5
S11316B0F0E0EC0FFD1FE90DF11D10839394812FD1
S11316C07FD98FEB810F823008F041CFCE01CF96C6
S11316D00E94DA0285E50E94CF2083E40E94CF2095
S11316E0CE01CF960E94D6208FAD8D3429F4219659
S11316F08FAD2197833419F0BDDB8DEF58C0DE0127
S11317001196FD0101900020E9F73197EA1BFB0BCC
S1131710349759F08981803319F49A81903329F0F0
S1131720893369F48A81893351F4AE014A5F5F4F8A
S1131730BE016F5F7F4FC5010E94330109C0AE0136
S11317404A5F5F4FBE016F5F7F4FC6010E94330146
S1131750AE01465E5F4FBE01695E7F4FC7010E94C6
S11317603301AE01425D5F4FBE01655D7F4FC20133
S11317700E94330182E01BC08DEF19C08DEF17C0AA
S113178088E015C08DEF13C08DEF11C088E00FC045
S113179088E00DC08DEF0BC08DEF09C088E007C055
S11317A088E005C08DEF03C08DEF01C088E0C0590B
S11317B0DF4F0FB6F894DEBF0FBECDBFDF91CF91E0
S11317C01F910F91FF90EF90DF90CF90BF90AF905B
S11317D09F907F905F904F9008955F926F927F9259
S11317E08F929F92AF92BF92CF92DF92EF92FF922D
S11317F00F931F93CF93DF93CDB7DEB76C970FB6DC
S1131800F894DEBF0FBECDBF762E872E982E622EA3
S1131810532ED42EEA8EFB8E0C8FC11039C086E174
S1131820ECE6F3E0DE01149601900D928A95E1F75F
S11318307E0184E0E80EF11CF70101900020E9F735
S113184031978F010E191F0985E50E94CF2082E58B
S11318500E94CF20812F0E94CF20802F0E94CF2072
S1131860C7010E941C21CE0101960E94D62041E0AE
S113187061E08AE193E0F3D989818D3429F48A8186
S1131880823521F08DEF74C08DEF72C081E070C09D
S1131890F82E882341F043E253E00E949F018C011B
S11318A0025F1F4F02C00EE010E0ED2CDD2049F076
S11318B041E353E0662D752D8D2D0E949F01080F85
S11318C0191F4DE353E06A8D7B8D8C8D0E949F011F
S11318D0080F191F4AE453E06A2D7B2D8C2D0E94BA
S11318E09F01080F191F8AE593E00E941C21812F94
S11318F00E94CF20802F0E94CF208DE593E00E948C
S11319001C21FF2049F083E293E00E941C21672DF3
S1131910782D892D0E94CE01EE2049F081E393E0D9
S11319200E941C21662D752D8D2D0E94CE018DE304
S113193093E00E941C216A8D7B8D8C8D0E94CE01C8
S11319408AE493E00E941C216A2D7B2D8C2D0E9439
S1131950CE01CE0101960E94D62089818D3429F4CE
S11319608A81823521F08DEF03C08DEF01C081E0C3
S11319706C960FB6F894DEBF0FBECDBFDF91CF914A
S11319801F910F91FF90EF90DF90CF90BF90AF9099
S11319909F908F907F906F905F900895CF93DF9387
S11319A0CDB7DEB7C857D6400FB6F894DEBF0FBE2A
S11319B0CDBF84B1816084B984B1826084B984B1BB
S11319C0846084B984B1886084B98AB180688AB932
S11319D08AB180648AB98AB180628AB98AB1806125
S11319E08AB98AB188608AB98AB184608AB987B1B0
S11319F08E7F87B987B18D7F87B987B18B7F87B990
S1131A0087B1877F87B984B1806184B984B18062EA
S1131A1084B98BB180628BB98BB180618BB98BB186
S1131A2088608BB98BB184608BB988B1816088B9C7
S1131A3088B1826088B988B1846088B988B18860C7
S1131A4088B985B18F7E85B985B18F7D85B90E94AE
S1131A502D0460E081E00E94640440E060E081E0E5
S1131A600E949B043DD90E948D220E94AF20FE015A
S1131A70319686ECDF011D928A95E9F7CE018F5DE0
S1131A809B4FCF5CD94F99838883C153D640CD5C9B
S1131A90D94F1882C353D64088559F4FCC5CD94F39
S1131AA099838883C453D640CA5CD94F1882C653DD
S1131AB0D64088589F4FC95CD94F99838883C753B0
S1131AC0D640C75CD94F1882C953D64080579F4F20
S1131AD0C65CD94F99838883CA53D640C45CD94F16
S1131AE01882CC53D64081E0C35CD94F8883CD5350
S1131AF0D640C25CD94F8883CE53D640C15CD94FFF
S1131B001882CF53D640E15CF94F86E0DF01282FDD
S1131B101D922A95E9F7369691E1DF011D929A9577
S1131B20E9F77196DF01282F1D922A95E9F7369679
S1131B30DF011D928A95E9F786E0E6E3F6E0DE012F
S1131B40AD59B94F01900D928A95E1F786E0ECE327
S1131B50F6E0DE01A759B94F01900D928A95E1F79D
S1131B60D12C912C10E093C1C25CD94F8881CE5303
S1131B70D640823061F1833009F495C0813009F098
S1131B8047C141E061E082E893E069D841E062E066
S1131B9083E993E064D882E40E94580583E00E94BC
S1131BA0E0040E94A120813439F482E0C25CD94F60
S1131BB08883CE53D6402CC1AE014759594FBE013C
S1131BC0615C794FCE01825C994FAEDA21C141E06C
S1131BD061E084EA93E043D841E062E08BE791E07E
S1131BE03ED882E40E94580581E00E94E00488E423
S1131BF00E94580582E00E94E0048EE40E94580589
S1131C008FE70E94E00488E00E945805F12C0E94AE
S1131C10DA1F082F813451F4B5E0FB1207C083E0CA
S1131C20C25CD94F8883CE53D64034C0023439F4D1
S1131C3081E0C25CD94F8883CE53D6402BC0033495
S1131C4069F4FF2059F00FEF0F0D89E08F0D0E940A
S1131C50580580E20E94E004F02E1CC0E4E0EF1579
S1131C60C8F00A32B9F00434A9F0033299F001340F
S1131C7089F0033479F08AE08F0D0E945805802F93
S1131C800E94E004EDE5F6E0EC0FFD1FEF0DF11D01
S1131C900083F394C25CD94F8881CE53D6408230FE
S1131CA009F4B5CFB5C041E061E085EB93E00E9453
S1131CB02F0641E062E08BE791E00E942F0682E468
S1131CC00E94580581E00E94E00488E40E945805BF
S1131CD082E00E94E0048EE40E9458058FE70E948F
S1131CE0E00488E00E945805F12C0E94DA1F082FB6
S1131CF0813409F051C0F5E0FF124EC025C0822F97
S1131D0090E0EDE5F6E0EC0FFD1FE80FF91F5081C0
S1131D10E3E6F6E0EC0FFD1FE80FF91F40815413D2
S1131D2011C0E7E5F6E0EC0FFD1FE80FF91F408155
S1131D30E9E6F6E0EC0FFD1FE80FF91F8081481378
S1131D4001C03F5F2F5F02C030E020E02530B8F2D1
S1131D5081E0C25CD94F8883CE53D640353039F404
S1131D6082E0C35CD94F8883CD53D64049C041E05B
S1131D7061E086EC93E00E942F0641E062E087ED8B
S1131D8093E00E942F0682E00E94E00482E40E9415
S1131D90E0040E94A92034C0023439F481E0C25C1A
S1131DA0D94F8883CE53D6402BC0033469F4FF2027
S1131DB059F00FEF0F0D89E08F0D0E94580580E256
S1131DC00E94E004F02E1CC024E02F15C8F00A3253
S1131DD0B9F00434A9F0033299F0013489F00334E2
S1131DE079F08AE08F0D0E9458058AE20E94E0048F
S1131DF0E7E5F6E0EC0FFD1FEF0DF11D0083F39412
S1131E00C25CD94F8881CE53D640833009F46DCF5C
S1131E1080917D06883070F4C35CD94F8881CD539E
S1131E20D6408130A1F183E0C35CD94F8883CD5380
S1131E30D6402DC0823130F4813149F580917E063F
S1131E408F3028F184E0C35CD94F8883CD53D640CA
S1131E5041E061E086EE93E00E942F0641E062E0FB
S1131E6087EF93E00E942F0660ED77E080E090E03A
S1131E700E946B2281E0C25CD94F8883CE53D64046
S1131E80C15CD94F1882CF53D640DD24D394C35CB0
S1131E90D94F8881CD53D640813009F024C764CE10
S1131EA0C25CD94FE881CE53D6408E2F90E0FC011E
S1131EB03197E930F10508F0EBC1EC5CFF4F0C946D
S1131EC09C2341E061E088E094E00E942F0681E0D9
S1131ED00E94E00481E40E94E00441E062E087E1C2
S1131EE094E00E942F0680E00E94E00482E40E94B5
S1131EF0E0040E94A120823461F4C25CD94F88813D
S1131F00CE53D6408F5FC25CD94F8883CE53D64020
S1131F10BFC1813409F0BCC181E0C15CD94F888361
S1131F20CF53D640C25CD94F1882CE53D640B0C1ED
S1131F3041E061E086E294E00E942F0681E00E9485
S1131F40E00481E40E94E00441E062E085E394E07F
S1131F500E942F0680E00E94E00482E40E94E004D4
S1131F600E94A120823461F4C25CD94F8881CE538F
S1131F70D6408F5FC25CD94F8883CE53D64088C188
S1131F80813409F085C182E0C15CD94F8883CF5385
S1131F90D640C25CD94F1882CE53D64079C141E0B5
S1131FA061E084E494E00E942F0681E00E94E00452
S1131FB081E40E94E00441E062E083E594E00E9451
S1131FC02F0680E00E94E00482E40E94E0040E9464
S1131FD0A120823461F4C25CD94F8881CE53D640AB
S1131FE08F5FC25CD94F8883CE53D64051C18134B0
S1131FF009F04EC183E0C15CD94F8883CF53D640EA
S1132000C25CD94F1882CE53D64042C141E061E050
S113201082E694E00E942F0681E00E94E00481E4BD
S11320200E94E00441E062E081E794E00E942F0610
S113203080E00E94E00482E40E94E0040E94A12067
S1132040823461F4C25CD94F8881CE53D6408F5F0D
S1132050C25CD94F8883CE53D6401AC1813409F06B
S113206017C184E0C15CD94F8883CF53D640C25C8A
S1132070D94F1882CE53D6400BC141E061E080E8CD
S113208094E00E942F0681E00E94E00481E40E9413
S1132090E00441E062E08FE894E00E942F0680E0D3
S11320A00E94E00482E40E94E0040E94A1208234A1
S11320B061F4C25CD94F8881CE53D6408F5FC25C35
S11320C0D94F8883CE53D640E3C0813409F0E0C0B1
S11320D085E0C15CD94F8883CF53D640C25CD94FC9
S11320E01882CE53D640D4C041E061E08EE994E03A
S11320F00E942F0681E00E94E00481E40E94E00433
S113210041E062E08DEA94E00E942F0680E00E94A4
S1132110E00482E40E94E0040E94A120823461F47D
S1132120C25CD94F8881CE53D6408F5FC25CD94FF1
S11321308883CE53D640ACC0813409F0A9C086E070
S1132140C15CD94F8883CF53D640C25CD94F188223
S1132150CE53D6409DC041E061E08CEB94E00E94F8
S11321602F0681E00E94E00481E40E94E00441E043
S113217062E08BEC94E00E942F0680E00E94E00471
S113218082E40E94E0040E94A120823461F4C25CD3
S1132190D94F8881CE53D6408F5FC25CD94F888394
S11321A0CE53D64075C0813409F072C087E0C15C5B
S11321B0D94F8883CF53D640C25CD94F1882CE53AF
S11321C0D64066C041E061E08AED94E00E942F06AB
S11321D081E00E94E00481E40E94E00441E062E0C6
S11321E08BEC94E00E942F0680E00E94E00482E4DD
S11321F00E94E0040E94A120823461F4C25CD94FA1
S11322008881CE53D6408F5FC25CD94F8883CE532A
S1132210D6403EC08134E1F588E0C15CD94F888363
S1132220CF53D640C25CD94F1882CE53D64030C06B
S113223041E061E089EE94E00E942F0681E00E9473
S1132240E00481E40E94E00441E062E088EF94E06D
S11322500E942F0680E00E94E00482E40E94E004D1
S11322600E94A120823439F481E0C25CD94F888372
S1132270CE53D6400DC0813459F489E0C15CD94FA6
S11322808883CF53D640C25CD94F1882CE53D640F0
S1132290C15CD94FE881CF53D6408E2F90E0FC012A
S11322A03197E930F10508F0D9C4E35CFF4F0C9491
S11322B09C23AE01435C594FBE01615C794FCE0152
S11322C0825C994F0E943708C9C441E061E08AE604
S11322D091E00E942F0641E062E08BE791E00E94CA
S11322E02F0682E40E94580581E00E94E00488E4FD
S11322F00E94580582E00E94E0048EE40E94580582
S11323008FE70E94E00488E00E945805F12C0E94A7
S1132310DA1F082F813409F0B3C135E0F312B0C1DC
S1132320CB5BD94F1882C554D640BE016A5B794F46
S1132330CE01805C994F0E942502CA5AD94F188257
S1132340C655D64090E061C0292F30E0F901EE0F68
S1132350FF1FE20FF31FEE0FFF1F41E050E04C0F91
S11323605D1FE40FF51F5081C05CD94F4881C054F4
S1132370D640541349C0F901EE0FFF1FE20FF31FBB
S1132380EE0FFF1F61E070E06C0F7D1FE60FF71F7B
S11323905181CF5BD94F4881C154D640541334C0C6
S11323A0F901EE0FFF1FE20FF31FEE0FFF1FE60F01
S11323B0F71F5281CE5BD94F4881C254D640541383
S11323C023C0F901EE0FFF1FE20FF31FEE0FFF1FF3
S11323D0E60FF71F5381CD5BD94F4881C354D640D4
S11323E0541312C0F901EE0FFF1FE20FF31FEE0F9B
S11323F0FF1FE60FF71F3481CC5BD94F2881C454EB
S1132400D640321301C082E09F5F911708F49CCF3D
S1132410813009F0D5C041E061E0CE018A5B994F7B
S11324200E942F0641E062E08CEE92E00E942F06AB
S113243081E00E94E00481E40E94E00480E20E94C2
S1132440E00482E00E94E00482E40E94E0040E942E
S1132450A120082F813409F0A4C09E012F5C394FBC
S1132460AE014C5C594FBE01665C794FCE01895C6C
S1132470994F0E94B508883071F587E095E00E9475
S11324801C210E94BE20082F0E94BE200D3411F48E
S1132490843519F00E943A07FFCF41E061E08AE0F9
S11324A095E00E942F0641E062E08BE195E00E94F6
S11324B02F0660ED77E080E090E00E946B22C15C23
S11324C0D94F1882CF53D64082E0C25CD94F88835B
S11324D0CE53D640C3C38D3FA9F40E943A070E944D
S11324E0A920C15CD94F1882CF53D64082E0C25C88
S11324F0D94F8883CE53D64010927A0685B18F7D0A
S113250085B9FFCF823009F0F5C01EC0812F90E05D
S1132510422F50E0E0E4F6E0EC0FFD1FE40FF51F5E
S11325203081BC01660F771F860F971F880F991F94
S1132530A1E0B0E0AC0FBD1F8A0F9B1FFC01E40FAC
S1132540F51F30832F5F01C020E02530F8F21F5FB4
S113255041E061E08CE295E00E942F0641E062E0F8
S11325608DE991E00E942F0610927A0685B18F7D45
S113257085B910927906109278060E94840064ED61
S113258073E080E090E00E946B22C15CD94F188216
S1132590CF53D64082E0C25CD94F8883CE53D64015
S11325A05DC3823409F0A6C0C15CD94F1882CF53F1
S11325B0D64082E0C25CD94F8883CE53D6409AC0BD
S11325C0811121C041E061E08DE395E00E942F0676
S11325D041E062E08FE991E00E942F0682E00E94D0
S11325E0E00482E40E94E0040E94A920082FC15C58
S11325F0D94F1882CF53D64082E0C25CD94F88832A
S1132600CE53D64077C0823009F541E061E08EE4D4
S113261095E00E942F0641E062E08FE991E00E947C
S11326202F0682E00E94E00482E40E94E0040E94FB
S1132630A920082FC15CD94F1882CF53D64082E01D
S1132640C25CD94F8883CE53D64054C08D3F09F025
S113265051C00E943A0782E00E94E00482E40E9492
S1132660E0040E94A920082FC15CD94F1882CF53DF
S1132670D64082E0C25CD94F8883CE53D6403AC05C
S1132680023461F4C15CD94F1882CF53D64082E042
S1132690C25CD94F8883CE53D6402CC0033471F426
S11326A0FF2061F0EE24EA94EF0C87E08F0D0E9486
S11326B0580580E20E94E004FE2C1CC0B4E0BF1563
S11326C0C8F00A32B9F00434A9F0033299F00134A5
S11326D089F0033479F088E08F0D0E945805802F2B
S11326E00E94E004E0E4F6E0EC0FFD1FEF0DF11DA5
S11326F00083F394023409F00ACEB0C2BE01615CD7
S1132700794FCE01825C994F0E945307A7C2BE0144
S1132710615C794FCE01825C994F0E9476079EC21C
S1132720212FAE01435C594FBE01615C794FCE014C
S1132730825C994F0E94802191C241E061E08FE563
S113274095E00E942F0641E062E088EA92E00E9450
S11327502F06CF5CD94FA880B980CA80C153D64018
S1132760CC5CD94FE880F9800A81C453D640C65C5A
S1132770D94F288139814A81CA53D640C95CD94F7F
S1132780688179818A81C753D64027D8813099F4EA
S113279041E061E080E795E00E942F0641E062E0BD
S11327A081E895E00E942F0660ED77E080E090E0FC
S11327B00E946B220AC08D3F41F40E943A0760EDEB
S11327C077E080E090E00E946B22C15CD94F1882D0
S11327D0CF53D64086E0C25CD94F8883CE53D640CF
S11327E03DC2FE01EC58F94F85E0DF01282F1D9210
S11327F02A95E9F73597DF011D928A95E9F741E0BB
S113280061E082E995E00E942F0641E062E08BE7F7
S113281091E00E942F0682E40E94580581E00E9404
S1132820E00488E40E94580582E00E94E0048EE4FB
S11328300E9458058FE70E94E004FF24F394E12CE2
S11328400E94DA1F082F813419F4B5E0EB16C1F1A8
S1132850023451F4C15CD94F1882CF53D6400F2EA5
S1132860F3E0FF2EF02D2FC0033469F4EE2059F06D
S11328700FEF0E0D8AE08E0D0E94580580E20E9433
S1132880E004E02E20C0E4E0EE15E8F00A32D9F0CE
S11328900434C9F00332B9F00134A9F0033499F0D7
S11328A08BE08E0D0E9458058AE20E94E004E4E762
S11328B0F6E0EC0FFD1FEE0DF11D0083E39403C061
S11328C06894FF24F1F8F1E0FF1609F4B9CF23E08E
S11328D0F21609F4E7C041E061E083EA95E00E9462
S11328E02F0641E062E084EB95E00E942F0680E031
S11328F00E94E00481E40E94E0040E94A12041E0DF
S113290061E082E995E00E942F0641E062E08BE7F6
S113291091E00E942F0682E40E94580581E00E9403
S1132920E00488E40E94580582E00E94E0048EE4FA
S11329300E9458058FE70E94E004E12C0E94DA1FF0
S1132940082F813409F06CC035E0E31269C015C06A
S1132950822F90E0E4E7F6E0EC0FFD1FE80FF91F8B
S11329603081EFE6F6E0EC0FFD1FE80FF91F8081E0
S1132970381301C04F5F2F5F02C020E040E02530D4
S113298038F387E0C25CD94F8883CE53D6404530B4
S113299049F512C0822F90E0E4E7F6E0EC0FFD1F4A
S11329A0E80FF91F3081E9E6F6E0EC0FFD1FE80FB0
S11329B0F91F30832F5F01C020E0253058F341E038
S11329C061E083EC95E00E942F0641E062E084ED33
S11329D095E00E942F0682E00E94E00482E40E94B7
S11329E0E00412C041E061E083EE95E00E942F060E
S11329F041E062E084EF95E00E942F0682E00E94AD
S1132A00E00482E40E94E0040E94A920C15CD94F42
S1132A101882CF53D6400F2EF3E0FF2EF02D3DC089
S1132A20023481F4C15CD94F1882CF53D64087E079
S1132A30C25CD94F8883CE53D6400F2EF3E0FF2ECD
S1132A40F02D2BC0033469F4EE2059F00FEF0E0D76
S1132A508AE08E0D0E94580580E20E94E004E02E78
S1132A601CC044E04E15C8F00A32B9F00434A9F091
S1132A70033299F0013489F0033479F08BE08E0D40
S1132A800E9458058AE20E94E004EFE6F6E0EC0FAB
S1132A90FD1FEE0DF11D0083E39452E0F51609F4D9
S1132AA04DCFDCC0C15CD94F1882CF53D64087E0EC
S1132AB0C25CD94F8883CE53D640D0C0AE014759AB
S1132AC0594FBE01615C794FCE01825C994F0E94DF
S1132AD09408C4C0E92CF12C2AE12E9DC0012F9D3D
S1132AE0900D112467EC70E06C0F7D1F860F971F0B
S1132AF00E94E5028230F1F441E061E083E096E077
S1132B000E942F0641E062E084E196E00E942F06D5
S1132B1068EB7BE080E090E00E946B2289E0C25C7D
S1132B20D94F8883CE53D640C15CD94F1882CF5336
S1132B30D64094C0813009F091C041E061E083E067
S1132B4096E00E942F0641E062E085E296E00E9452
S1132B502F0668EB7BE080E090E00E946B2241E06E
S1132B6061E08DE991E00E942F0641E062E08DE989
S1132B7091E00E942F068AE18E9D50018F9DB00C3A
S1132B801124C501069641E061E0A7ECB0E0AC0F6A
S1132B90BD1F8A0F9B1F0E942F060F2EF7ECEF2EEE
S1132BA0F12CF02DEC0EFD1EEA0CFB1C41E062E062
S1132BB0C7010E942F0686E40E945805F701878901
S1132BC00DEC809F812D1124869586958695805DD8
S1132BD00E94E004D70157968C91809F912D112477
S1132BE0969596959695990F292F220F220F920F5D
S1132BF0891B805D0E94E0048AE30E94E004F701DF
S1132C00808D809F812D1124869586958695805D83
S1132C100E94E004D70158968C91809F912D112435
S1132C20969596959695990F292F220F220F920F1C
S1132C30891B805D0E94E00468EB7BE080E090E00B
S1132C400E946B22939489E0C25CD94F8883CE534F
S1132C50D640C15CD94F1882CF53D64080917D06AF
S1132C60883070F4C35CD94F8881CD53D64081300D
S1132C70D1F183E0C35CD94F8883CD53D64033C0B0
S1132C80292D30E0210F311D2132310544F48231E8
S1132C9030F4813141F580917E068F3020F184E05B
S1132CA0C35CD94F8883CD53D64041E061E086EEC2
S1132CB093E00E942F0641E062E087EF93E00E94D8
S1132CC02F0660ED77E080E090E00E946B2281E0C7
S1132CD0C25CD94F8883CE53D640C15CD94F188289
S1132CE0CF53D640D12CC35CD94F8881CD53D64025
S1132CF0823009F4D5C8E3C3C25CD94F2881CE53CE
S1132D00D640822F90E0FC013197E830F10508F0BD
S1132D1084C1EA5BFF4F0C949C2341E061E088E0AE
S1132D2094E00E942F0681E00E94E00481E40E9466
S1132D30E00441E062E087E194E00E942F0680E035
S1132D400E94E00482E40E94E0040E94A1208234F4
S1132D5061F4C25CD94F8881CE53D6408E5FC25C89
S1132D60D94F8883CE53D64058C1813409F055C118
S1132D7081E0C15CD94F8883CF53D640C25CD94F20
S1132D801882CE53D64049C12F5FC25CD94F2883E5
S1132D90CE53D64042C141E061E084E494E00E9415
S1132DA02F0681E00E94E00481E40E94E00441E0F7
S1132DB062E083E594E00E942F0680E00E94E00434
S1132DC082E40E94E0040E94A120823461F4C25C87
S1132DD0D94F8881CE53D6408F5FC25CD94F888348
S1132DE0CE53D6401AC1813409F017C183E0C15CC7
S1132DF0D94F8883CF53D640C25CD94F1882CE5363
S1132E00D6400BC141E061E082E694E00E942F06C7
S1132E1081E00E94E00481E40E94E00441E062E079
S1132E2081E794E00E942F0680E00E94E00482E49F
S1132E300E94E0040E94A120823461F4C25CD94F54
S1132E408881CE53D6408F5FC25CD94F8883CE53DE
S1132E50D640E3C0813409F0E0C084E0C15CD94FBE
S1132E608883CF53D640C25CD94F1882CE53D64004
S1132E70D4C041E061E080E894E00E942F0681E044
S1132E800E94E00481E40E94E00441E062E08FE8F3
S1132E9094E00E942F0680E00E94E00482E40E94F5
S1132EA0E0040E94A120823461F4C25CD94F88817D
S1132EB0CE53D6408F5FC25CD94F8883CE53D64061
S1132EC0ACC0813409F0A9C085E0C15CD94F8883C6
S1132ED0CF53D640C25CD94F1882CE53D6409DC042
S1132EE041E061E08EE994E00E942F0681E00E94B7
S1132EF0E00481E40E94E00441E062E08DEA94E0B1
S1132F000E942F0680E00E94E00482E40E94E00414
S1132F100E94A120823461F4C25CD94F8881CE53CF
S1132F20D6408F5FC25CD94F8883CE53D64075C0DC
S1132F30813409F072C086E0C15CD94F8883CF53D5
S1132F40D640C25CD94F1882CE53D64066C041E009
S1132F5061E08CEB94E00E942F0681E00E94E00483
S1132F6081E40E94E00441E062E08BEC94E00E9482
S1132F702F0680E00E94E00482E40E94E0040E94A4
S1132F80A120823461F4C25CD94F8881CE53D640EB
S1132F908F5FC25CD94F8883CE53D6403EC0813404
S1132FA0E1F587E0C15CD94F8883CF53D640C25C3A
S1132FB0D94F1882CE53D64030C041E061E08AED4B
S1132FC094E00E942F0681E00E94E00481E40E94C4
S1132FD0E00441E062E08BEC94E00E942F0680E084
S1132FE00E94E00482E40E94E0040E94A120823452
S1132FF039F481E0C25CD94F8883CE53D6400DC0EA
S1133000813459F488E0C15CD94F8883CF53D640CA
S1133010C25CD94F1882CE53D640C15CD94FE881E7
S1133020CF53D6408E2F90E0FC013197E830F10564
S113303008F0F8C1E25BFF4F0C949C23AE01435CA3
S1133040594FBE01615C794FCE01825C994F0E9459
S11330503708E8C1BE01615C794FCE01825C994FAB
S11330600E945307DFC1BE01615C794FCE01825CCF
S1133070994F0E947607D6C1212FAE01435C594F68
S1133080BE01615C794FCE01825C994F0E94802120
S1133090C9C141E061E08FE595E00E942F0641E05F
S11330A062E088EA92E00E942F06CF5CD94FA880A4
S11330B0B980CA80C153D640CC5CD94FE880F9802E
S11330C00A81C453D640C65CD94F288139814A81CC
S11330D0CA53D640C95CD94F688179818A81C75364
S11330E0D6400E94ED0B813099F441E061E080E725
S11330F095E00E942F0641E062E081E895E00E949D
S11331002F0660ED77E080E090E00E946B220AC019
S11331108D3F41F40E943A0760ED77E080E090E053
S11331200E946B22C15CD94F1882CF53D64086E0EF
S1133130C25CD94F8883CE53D64074C1FE01EC588B
S1133140F94F85E0DF01282F1D922A95E9F735977D
S1133150DF011D928A95E9F741E061E082E995E09B
S11331600E942F0641E062E08BE791E00E942F0667
S113317082E40E94580581E00E94E00488E40E94F1
S1133180580582E00E94E0048EE40E9458058FE70F
S11331900E94E004FF24F394E12C0CD7082F81341F
S11331A019F4B5E0EB16C1F1023451F4C15CD94F06
S11331B01882CF53D6400F2EF3E0FF2EF02D2FC0F0
S11331C0033469F4EE2059F00FEF0E0D8AE08E0DF2
S11331D00E94580580E20E94E004E02E20C0E4E052
S11331E0EE15E8F00A32D9F00434C9F00332B9F02C
S11331F00134A9F0033499F08BE08E0D0E94580538
S11332008AE20E94E004E4E7F6E0EC0FFD1FEE0D15
S1133210F11D0083E39403C06894FF24F1F8F1E006
S1133220FF1609F4BACF23E0F21609F4E4C041E032
S113323061E083EA95E00E942F0641E062E084EBBE
S113324095E00E942F0680E00E94E00481E40E9441
S1133250E00477D741E061E082E995E00E942F061F
S113326041E062E08BE791E00E942F0682E40E9435
S1133270580581E00E94E00488E40E94580582E039
S11332800E94E0048EE40E9458058FE70E94E00447
S1133290E12C90D6082F813409F06BC035E0E3129D
S11332A068C015C0822F90E0E4E7F6E0EC0FFD1F44
S11332B0E80FF91F3081EFE6F6E0EC0FFD1FE80F91
S11332C0F91F8081381301C04F5F2F5F02C020E0D7
S11332D040E0253038F387E0C25CD94F8883CE5371
S11332E0D640453049F512C0822F90E0E4E7F6E07D
S11332F0EC0FFD1FE80FF91F3081E9E6F6E0EC0F53
S1133300FD1FE80FF91F30832F5F01C020E0253037
S113331058F341E061E083EC95E00E942F0641E020
S113332062E084ED95E00E942F0682E00E94E004B2
S113333082E40E94E00412C041E061E083EE95E083
S11333400E942F0641E062E084EF95E00E942F0680
S113335082E00E94E00482E40E94E004FAD6C15CA8
S1133360D94F1882CF53D6400F2EF3E0FF2EF02D05
S11333703DC0023481F4C15CD94F1882CF53D6408A
S113338087E0C25CD94F8883CE53D6400F2EF3E03A
S1133390FF2EF02D2BC0033469F4EE2059F00FEF0B
S11333A00E0D8AE08E0D0E94580580E20E94E00412
S11333B0E02E1CC044E04E15C8F00A32B9F00434C3
S11333C0A9F0033299F0013489F0033479F08BE0E9
S11333D08E0D0E9458058AE20E94E004EFE6F6E0B2
S11333E0EC0FFD1FEE0DF11D0083E39452E0F51682
S11333F009F44FCF17C0C15CD94F1882CF53D640C0
S113340087E0C25CD94F8883CE53D6400BC0AE014F
S11334104759594FBE01615C794FCE01825C994F87
S11334200E94940880917D068830B0F0813130F09C
S1133430813191F490917E069F3070F4C35CD94F32
S11334408881CD53D6408130D1F182E0C35CD94F1D
S11334508883CD53D64033C0292D30E0210F311D50
S11334602132310544F4823130F4813141F58091C7
S11334707E068F3020F184E0C35CD94F8883CD531E
S1133480D64041E061E086EE93E00E942F0641E0E1
S113349062E087EF93E00E942F0660ED77E080E022
S11334A090E00E946B2281E0C25CD94F8883CE53A6
S11334B0D640C15CD94F1882CF53D640D12CC35CBF
S11334C0D94F8881CD53D640833009F415CCDFC45D
S11334D0DD2009F452C1C25CD94F8881CE53D64055
S11334E0823071F1833009F498C0813009F0CFC47F
S11334F041E061E082E893E00E942F0641E062E04F
S113350083E993E00E942F0682E40E94580583E039
S11335100E94E00416D6813439F482E0C25CD94FAB
S11335208883CE53D640B3C4AE014759594FBE0128
S1133530615C794FCE01825C994F0E949408A7C4C4
S113354041E061E084EA93E00E942F0641E062E0FA
S11335508BE791E00E942F0682E40E94580581E0E7
S11335600E94E00488E40E94580582E00E94E0047E
S11335708EE40E9458058FE70E94E00488E00E94D0
S11335805805F12C17D5082F813451F465E0F61253
S113359007C083E0C25CD94F8883CE53D64034C081
S11335A0023439F481E0C25CD94F8883CE53D640CB
S11335B02BC0033469F4FF2059F00FEF0F0D89E09D
S11335C08F0D0E94580580E20E94E004F02E1CC07A
S11335D074E07F15C8F00A32B9F00434A9F003325C
S11335E099F0013489F0033479F08AE08F0D0E9458
S11335F05805802F0E94E004EDE5F6E0EC0FFD1F76
S1133600EF0DF11D0083F394C25CD94F8881CE5332
S1133610D640823009F4B6CF3AC441E061E085EB8C
S113362093E00E942F0641E062E08BE791E00E9464
S11336302F0682E40E94580581E00E94E00488E499
S11336400E94580582E00E94E0048EE40E9458051E
S11336508FE70E94E00488E00E945805F12CAAD468
S1133660082F813409F04AC085E0F81247C025C00C
S1133670282F30E0EDE5F6E0EC0FFD1FE20FF31F1D
S11336804081E3E6F6E0EC0FFD1FE20FF31F9081AB
S1133690491311C0E7E5F6E0EC0FFD1FE20FF31F3D
S11336A04081E9E6F6E0EC0FFD1FE20FF31F908185
S11336B0491301C05F5F8F5F02C050E080E0853036
S11336C0B8F281E0C25CD94F8883CE53D6405530DE
S11336D009F449C041E061E086EC93E00E942F06C2
S11336E041E062E087ED93E00E942F0682E00E94B1
S11336F0E00482E40E94E0042CD536C0023439F49C
S113370081E0C25CD94F8883CE53D6402DC00334A8
S113371069F4FF2059F00FEF0F0D89E08F0D0E941F
S1133720580580E20E94E004F02E1EC094E09F152C
S1133730D8F00A32C9F00434B9F00332A9F00134E4
S113374099F0033489F08AE08F0D0E9458058AE2CB
S11337500E94E004E7E5F6E0EC0FFD1FEF0DF11D1C
S11337600083F39401C0D12CC25CD94F8881CE531D
S1133770D640833009F473CF8AC3C25CD94F288101
S1133780CE53D640822F90E0FC013197E830F1050A
S113379008F07CC1EA5AFF4FCFC741E061E088E0FE
S11337A094E00E942F0681E00E94E00481E40E94DC
S11337B0E00441E062E087E194E00E942F0680E0AB
S11337C00E94E00482E40E94E004BBD4823461F4E9
S11337D0C25CD94F8881CE53D6408E5FC25CD94F2C
S11337E08883CE53D64052C1813409F04FC181E061
S11337F0C15CD94F8883CF53D640C25CD94F18825D
S1133800CE53D64043C12F5FC25CD94F2883CE53D9
S1133810D6403CC141E061E084E494E00E942F067C
S113382081E00E94E00481E40E94E00441E062E05F
S113383083E594E00E942F0680E00E94E00482E485
S11338400E94E0047ED4823461F4C25CD94F888142
S1133850CE53D6408F5FC25CD94F8883CE53D640B7
S113386015C1813409F012C183E0C15CD94F88834A
S1133870CF53D640C25CD94F1882CE53D64006C12E
S113388041E061E082E694E00E942F0681E00E941C
S1133890E00481E40E94E00441E062E081E794E016
S11338A00E942F0680E00E94E00482E40E94E0046B
S11338B048D4823461F4C25CD94F8881CE53D64057
S11338C08F5FC25CD94F8883CE53D640DFC081342A
S11338D009F0DCC084E0C15CD94F8883CF53D64063
S11338E0C25CD94F1882CE53D640D0C041E061E0CB
S11338F080E894E00E942F0681E00E94E00481E4C5
S11339000E94E00441E062E08FE894E00E942F0608
S113391080E00E94E00482E40E94E00412D4823435
S113392061F4C25CD94F8881CE53D6408F5FC25CAC
S1133930D94F8883CE53D640A9C0813409F0A6C09C
S113394085E0C15CD94F8883CF53D640C25CD94F40
S11339501882CE53D6409AC041E061E08EE994E0EB
S11339600E942F0681E00E94E00481E40E94E004AA
S113397041E062E08DEA94E00E942F0680E00E941C
S1133980E00482E40E94E004DCD3823461F4C25C8B
S1133990D94F8881CE53D6408F5FC25CD94F88837C
S11339A0CE53D64073C0813409F070C086E0C15C48
S11339B0D94F8883CF53D640C25CD94F1882CE5397
S11339C0D64064C041E061E08CEB94E00E942F0695
S11339D081E00E94E00481E40E94E00441E062E0AE
S11339E08BEC94E00E942F0680E00E94E00482E4C5
S11339F00E94E004A6D3823461F4C25CD94F88816A
S1133A00CE53D6408F5FC25CD94F8883CE53D64005
S1133A103DC08134D9F587E0C15CD94F8883CF5349
S1133A20D640C25CD94F1882CE53D6402FC041E055
S1133A3061E08AED94E00E942F0681E00E94E00498
S1133A4081E40E94E00441E062E08BEC94E00E9497
S1133A502F0680E00E94E00482E40E94E00471D317
S1133A60823439F481E0C25CD94F8883CE53D64086
S1133A700DC0813459F488E0C15CD94F8883CF5399
S1133A80D640C25CD94F1882CE53D640C15CD94FC0
S1133A90E881CF53D6408E2F90E0FC013197E83077
S1133AA0F10508F0F4C1E25AFF4F46C6AE01435C8B
S1133AB0594FBE01615C794FCE01825C994F0E94DF
S1133AC03708E5C1BE01615C794FCE01825C994F34
S1133AD00E945307DCC1BE01615C794FCE01825C58
S1133AE0994F0E947607D3C1212FAE01435C594FF1
S1133AF0BE01615C794FCE01825C994F01D4C7C18C
S1133B0041E061E08FE595E00E942F0641E062E02C
S1133B1088EA92E00E942F06CF5CD94FA880B98032
S1133B20CA80C153D640CC5CD94FE880F9800A8161
S1133B30C453D640C65CD94F288139814A81CA53BF
S1133B40D640C95CD94F688179818A81C753D640F0
S1133B500E94ED0B813091F441E061E080E795E053
S1133B600E942F0641E062E081E895E00E942F0662
S1133B7060ED77E080E090E0AED409C08D3F39F489
S1133B800E943A0760ED77E080E090E0A4D4C15C45
S1133B90D94F1882CF53D64086E0C25CD94F888370
S1133BA0CE53D64074C1FE01EC58F94F85E0DF01D5
S1133BB0282F1D922A95E9F73597DF011D928A95E2
S1133BC0E9F741E061E082E995E00E942F0641E0D7
S1133BD062E08BE791E00E942F0682E40E94580580
S1133BE081E00E94E00488E40E94580582E00E947B
S1133BF0E0048EE40E9458058FE70E94E004FF244D
S1133C00F394E12CD7D1082F813419F4B5E0EB16E5
S1133C10C1F1023451F4C15CD94F1882CF53D6405C
S1133C200F2EF3E0FF2EF02D2FC0033469F4EE20A5
S1133C3059F00FEF0E0D8AE08E0D0E94580580E2B8
S1133C400E94E004E02E20C0E4E0EE15E8F00A3221
S1133C50D9F00434C9F00332B9F00134A9F00334C3
S1133C6099F08BE08E0D0E9458058AE20E94E004D0
S1133C70E4E7F6E0EC0FFD1FEE0DF11D0083E39485
S1133C8003C06894FF24F1F8F1E0FF1609F4BACFF9
S1133C9023E0F21609F4E4C041E061E083EA95E030
S1133CA00E942F0641E062E084EB95E00E942F061B
S1133CB080E00E94E00481E40E94E00442D241E0FA
S1133CC061E082E995E00E942F0641E062E08BE723
S1133CD091E00E942F0682E40E94580581E00E9430
S1133CE0E00488E40E94580582E00E94E0048EE427
S1133CF00E9458058FE70E94E004E12C5BD1082F55
S1133D00813409F06BC035E0E31268C015C0822F1E
S1133D1090E0E4E7F6E0EC0FFD1FE80FF91F3081B7
S1133D20EFE6F6E0EC0FFD1FE80FF91F8081381372
S1133D3001C04F5F2F5F02C020E040E0253038F320
S1133D4087E0C25CD94F8883CE53D640453049F5CD
S1133D5012C0822F90E0E4E7F6E0EC0FFD1FE80FBD
S1133D60F91F3081E9E6F6E0EC0FFD1FE80FF91FBB
S1133D7030832F5F01C020E0253058F341E061E03B
S1133D8083EC95E00E942F0641E062E084ED95E02B
S1133D900E942F0682E00E94E00482E40E94E00474
S1133DA012C041E061E083EE95E00E942F0641E0FD
S1133DB062E084EF95E00E942F0682E00E94E00416
S1133DC082E40E94E004C5D1C15CD94F1882CF536C
S1133DD0D6400F2EF3E0FF2EF02D3DC0023481F4C7
S1133DE0C15CD94F1882CF53D64087E0C25CD94F0B
S1133DF08883CE53D6400F2EF3E0FF2EF02D2BC038
S1133E00033469F4EE2059F00FEF0E0D8AE08E0DA5
S1133E100E94580580E20E94E004E02E1CC044E0A9
S1133E204E15C8F00A32B9F00434A9F0033299F0FF
S1133E30013489F0033479F08BE08E0D0E9458052B
S1133E408AE20E94E004EFE6F6E0EC0FFD1FEE0DBF
S1133E50F11D0083E39452E0F51609F44FCF17C027
S1133E60C15CD94F1882CF53D64087E0C25CD94F8A
S1133E708883CE53D6400BC0AE014759594FBE017B
S1133E80615C794FCE01825C994F0E949408C35CB7
S1133E90D94F8881CD53D640843009F419CB0C9482
S1133EA0470F1F93CF93DF93C62F8230B1F018F4DE
S1133EB0813031F038C08330E9F0843041F133C0CF
S1133EC08BB18F7D8BB98BB180618BB98BB18860DD
S1133ED08BB98BB184608BB926C08BB180628BB9EE
S1133EE08BB18F7E8BB98BB188608BB98BB18460B9
S1133EF08BB919C08BB180628BB98BB180618BB9DE
S1133F008BB1877F8BB98BB184608BB90CC08BB1BB
S1133F1080628BB98BB180618BB98BB188608BB9AE
S1133F208BB18B7F8BB9D0E010E001C0182F61E01A
S1133F3070E080E090E0CFD2C23061F018F4C1307C
S1133F4031F016C0C33051F0C43069F011C086B1ED
S1133F5081700FC086B1869581700BC086B182FBDB
S1133F60882780F906C086B183FB882780F901C0C1
S1133F70812F181302C0DF5F01C0D0E0D730B0F248
S1133F80C23061F018F4C13031F010C0C33049F0D0
S1133F90C43051F00BC0309BFECF08C0319BFECF24
S1133FA005C0329BFECF02C0339BFECFDF91CF9181
S1133FB01F91089580917806883019F4109278063C
S1133FC0089561E081E06DDF811107C06AEF70E060
S1133FD080E090E080D281E3089562E081E061DFD7
S1133FE0811107C06AEF70E080E090E074D282E350
S1133FF0089563E081E055DF811107C06AEF70E046
S113400080E090E068D283E3089564E081E049DFD2
S1134010811107C06AEF70E080E090E05CD281E437
S1134020089561E082E03DDF811107C06AEF70E02E
S113403080E090E050D284E3089562E082E031DFD2
S1134040811107C06AEF70E080E090E044D285E31C
S1134050089563E082E025DF811107C06AEF70E014
S113406080E090E038D286E3089564E082E019DFCE
S1134070811107C06AEF70E080E090E02CD282E406
S1134080089561E083E00DDF811107C06AEF70E0FD
S113409080E090E020D287E3089562E083E001DFCE
S11340A0811107C06AEF70E080E090E014D288E3E9
S11340B0089563E083E0F5DE811107C06AEF70E0E4
S11340C080E090E008D289E3089564E083E0E9DECB
S11340D0811107C06AEF70E080E090E0FCD183E4D6
S11340E0089561E084E0DDDE811107C06AEF70E0CD
S11340F080E090E0F0D18AE2089562E084E0D1DECD
S1134100811107C06AEF70E080E090E0E4D180E3C1
S1134110089563E084E0C5DE811107C06AEF70E0B2
S113412080E090E0D8D183E2089564E084E0B9DED1
S1134130811140CF6AEF70E080E090E0CCD184E45C
S1134140089538DF9FEB980F923010F08830C9F74C
S1134150089530DF823411F08830D9F70895E1EC06
S1134160F0E088E1808383E390E09093C50080933E
S1134170C40080818068808378940895E1ECF0E045
S113418080818F7780838091C0008823E4F78091B9
S1134190C600E1ECF0E090819068908308958093EC
S11341A0C6008091C00085FFFCCF0895FF920F9355
S11341B01F93CF93DF93EC01E1DF88838D34E1F724
S11341C08D3499F5DBDF8983893431F0833421F030
S11341D0843511F0823511F41A8228C0863551F4E1
S11341E0CDDF8A838F3421F0893411F0883511F4BE
S11341F01B821CC089818E3431F0803521F08335D7
S113420011F0863491F4BADF8A83F12C0AC00F2DA1
S113421010E00D5F1F4F0C0F1D1FB0DFF8018083EE
S1134220F3948A81F81698F301C01882DF91CF9134
S11342301F910F91FF900895EF92FF920F931F9398
S1134240CF93DF937C01FC0101900020E9F73197C3
S11342508F01081B190BC0E0D0E002C0A0DF21963B
S1134260C017D10734F4F701EC0FFD1F80818111D1
S1134270F5CFDF91CF911F910F91FF90EF900895AB
S11342801F920F920FB60F9211242F933F934F93C7
S11342905F936F937F938F939F93AF93BF93CF93CA
S11342A0EF93FF938091C6008D34C1F4E1ECF0E00C
S11342B080818F77808362DF883459F45FDFC82F71
S11342C05DDF682F8C2F3FD1811103C082E496E01B
S11342D0B3DFE1ECF0E0808180688083FF91EF91AF
S11342E0CF91BF91AF919F918F917F916F915F918A
S11342F04F913F912F910F900FBE0F901F901895E3
S11343008F929F92AF92BF92CF92DF92EF92FF92E1
S11343100F931F93CF93DF93CDB7DEB7E2970FB61A
S1134320F894DEBF0FBECDBF5C016B014A01E22EE3
S1134330FE01319682E3DF011D928A95E9F7F12CA3
S113434085E52DDF86E52BDF0DE716E0F80180819A
S113435026DFD80111968C9122DF8E2D20DFCE012D
S1134360019624DF89818D3409F081C08A818635E4
S113437009F07DC08B818F34D9F441E061E085E49C
S113438096E00E942F0641E062E086E596E00E94F6
S11343902F0668EE73E080E090E09DD0F601108275
S11343A085E0D5018C930F2EF3E0FF2EF02D5FC036
S11343B0893471F5F394B3E0FB1259C011E0F401B0
S11343C0108341E061E085E496E00E942F0641E01D
S11343D062E087E696E00E942F0668EE73E080E0D4
S11343E090E079D041E061E087E992E00E942F06F5
S11343F041E062E088EA92E00E942F0668EE73E0F2
S113440080E090E068D0D6011C92F50110832FC0A3
S1134410883569F511E0D4011C9341E061E085E43D
S113442096E00E942F0641E062E087E696E00E9453
S11344302F0668EE73E080E090E04DD041E061E04B
S113444087E992E00E942F0641E062E088EA92E068
S11344500E942F0668EE73E080E090E03CD0F60105
S11344601082D5011C930F2EF3E0FF2EF02DB2E045
S1134470BF1508F065CFE2960FB6F894DEBF0FBE05
S1134480CDBFDF91CF911F910F91FF90EF90DF90FF
S1134490CF90BF90AF909F908F90089522E024BD5D
S11344A031E035BD3FE937BD16BC25BB2AE030E01D
S11344B040E050E025D180E090E0DC01A99BFECFF4
S11344C062E065BB0196A11DB11D82179307A40785
S11344D0B507A4F308950F931F938B019C0182E009
S11344E084BD83E085BD89EF87BD16BC85B382603A
S11344F085BB40E050E0BA01A99BFECF85B3826042
S113450085BB4F5F5F4F6F4F7F4F40175107620767
S1134510730794F31F910F910895109280008BE01C
S11345208093810083E294EF9093890080938800C4
S11345301092850010928400EFE6F0E080818260A2
S1134540808378940895883140F46C3340F4EDE727
S1134550F6E08083618380E0089581E0089581E03E
S1134560089580917F068B33A9F4EDE7F6E012827B
S113457081818B3359F411828081873119F410922F
S11345807D0608958F5F80937D0608958F5F8093E5
S11345907E0608958F5F80937F06089581E080935F
S11345A07C06089510927C0608951F920F920FB610
S11345B00F9211242F933F934F935F936F937F93A5
S11345C08F939F93AF93BF93EF93FF93CF93DF9317
S11345D0CDB7DEB72997DEBFCDBF80917B06833090
S11345E020F48F5F80937B0668C0809179068823CE
S11345F089F080917A068F5F80937A06883750F02D
S113460010927A0685B18F7D85B91092790688E07B
S113461080937806A6DF80917C06882309F44BC03A
S1134620FE01319689E0DF011D928A95E9F7ADE735
S1134630B6E08C919DEC899F212D11242695269519
S1134640269530E3320F3983220F322F330F330F85
S1134650230F821B805D8A834AE34B8311968C91DE
S11346601197899F212D112426952695269530E3AF
S1134670320F3C83220F322F330F330F230F821B51
S1134680805D8D834E8312962C91299F912D112448
S113469096959695969580E3890F8F83990F892F28
S11346A0880F880F980F291B205D288741E062E05E
S11346B0CF010E942F0610927B0680917A068436E1
S11346C020F095B180E2892785B982E086BB2996DE
S11346D00FB6F894DEBF0FBECDBFDF91CF91FF912F
S11346E0EF91BF91AF919F918F917F916F915F9166
S11346F04F913F912F910F900FBE0F901F901895DF
S1134700052E97FB16F400940FD057FD05D01AD050
S113471007FC02D046F408C0509540953095219589
S11347203F4F4F4F5F4F08959095809570956195D9
S11347307F4F8F4F9F4F0895EE0FFF1F0590F49109
S1134740E02D0994A1E21A2EAA1BBB1BFD010DC08A
S1134750AA1FBB1FEE1FFF1FA217B307E407F5072D
S113476020F0A21BB30BE40BF50B661F771F881F09
S1134770991F1A9469F760957095809590959B019F
S1134780AC01BD01CF010895FB01DC0101900D9244
S10D47900020E1F70895F894FFCF2C
S113479A04040404150E0400000103161C08000096
S11347AA0E111114121F02040E1101011F1B1B1FEB
S11347BA00081400050200000408040004020400AE
S11347CA1C08080802070203436F6469676F2069BB
S11347DA6E76616C69646F004120534547554952AE
S11347EA20494E5349524120004F204E554D4552BF
S11347FA4F202020202020202000456C6569746FFA
S113480A723A202020202020202000413A20202013
S113481A20423A20202020433A2020004F204E4FA5
S113482A4D45202020202020202020200020202048
S113483A2020202020202020202020202000382072
S113484A34003620003520004220004552524F20C1
S113485A4E4120434F4D554E49432E0020202020DF
S113486A2053455249414C20202000413A202042FD
S113487A3A4252414E434F20433A2000484F524154
S113488A20415455414C3A202020202000494E53BF
S113489A4552495220484F524152494F20003C2028
S11348AA203A20203E2000484F524152494F20418D
S11348BA4C54455241444F002020434F4D205355F8
S11348CA434553534F2020200056414C4F52204910
S11348DA4E56414C49444F2C200054454E544520D1
S11348EA4E4F56414D454E544520004F5045524176
S11348FA43494F4E414C20202000414755415244E0
S113490A414E444F2020202000454E4345525241F7
S113491A444120202020200020426C6F717565617B
S113492A723F2020202000424C4F515545414E44AD
S113493A4F2055524E4120002020202020202E2E88
S113494A2E20202020202020002053454E4841209C
S113495A414C544552414441200020205041524187
S113496A2050414452414F20202000446570204683
S113497A65646572616C3A2020202000436F6E667C
S113498A69726D613F20200053656E61646F723AEB
S113499A202020202020202000507265736964653D
S11349AA6E74653A202020202000506173736F755D
S11349BA2021002D43616E64696461746F3A0D0AA3
S11349CA002D5061727469646F3A0D0A000D0A531E
S11349DA454E41444F523A0D0A000D0A505245536E
S11349EA4944454E54453A0D0A005552004445502F
S11349FA204645444552414C3A0D0A0053454D2040
S1134A0A564F544F53205245474953545241444FE9
S1134A1A53002055524E4120424C4F515545414472
S1134A2A412000413A202020423A5273742E5365A1
S1134A3A6E6861004C6F67696E2061646D3A20206C
S1134A4A202020200053656E68612061646D3A203D
S1134A5A20202020200020202020204D6573617210
S1134A6A696F202020200020202020696E76616C46
S1134A7A69646F20200020202020202055524E41B6
S1134A8A2020202020200020202020454E4345526B
S1134A9A5241444120202000312E20457374616420
S1134AAA6F20646F202000202020205369737465CE
S1134ABA6D6120202000322E202020204E6F766F38
S1134ACA20202020002020202020456C6569746F56
S1134ADA72202000332E2020436F6E73756C74612C
S1134AEA202000202020646520486F726172696F5B
S1134AFA2000342E202054726F63612064652020C4
S1134B0A0020202020486F726172696F20202000E3
S1134B1A352E2020566572696669632E202000644A
S1134B2A6520436F72726573706F6E642E00362E41
S1134B3A2052656C61746F72696F202000202064B2
S1134B4A6520566F746163616F202000372E202020
S1134B5A54726F6361206465202000202020202085
S1134B6A53656E68612020202000382E202052656B
S1134B7A736574617220202000392E204A7573747B
S1134B8A6966696361722000202020202020566F04
S1134B9A746F20202020005554002020202020203B
S1134BAA54454D504F202020202000202020202032
S1134BBA4553474F5441444F2020200020202020B1
S1134BCA202046494D2020202020202000454C4505
S1134BDA49544F5220494E56414C49444F00454C82
S1134BEA4549544F52204A4120564F544F550020AC
S1134BFA202020454E5649414E444F202020200073
S1134C0A20202052454C41544F52494F2020202005
S1134C1A0020202020454E564941444F2020202080
S1134C2A20004E6F76612053656E68613A20202019
S1134C3A202000205265706974612061204E6F76CD
S1134C4A612020002020202053656E6861202020E6
S1134C5A2020002054726F63612064652053656EBE
S1134C6A68612000202020204566657475616461AE
S1134C7A20200020202053656E686173204E616FE6
S1134C8A2020200020202020436F6E666572656D07
S1134C9A202000204A555354494649434154495611
S1134CAA41202000204E414F20434F4E434C55494A
S1134CBA4441202000202020434F4E434C55494470
S1134CCA412020202000303132333700313233374B
S1134CDA38005548002020434F4E53495354454EFB
S1134CEA434941202000202020202020204F4B200F
S1134CFA20202020202000202020202046414C482B
S10B4D0A4F5520202020200059
S9030000FC
