S017000075726E615F656C6574726F6E6963612E73726563D2
S113000063C000007EC000007CC000007AC0000015
S113001078C0000076C0000074C0000072C0000008
S113002070C000006EC000006CC000000C949A1FE9
S113003068C0000066C0000064C0000062C0000028
S113004060C000005EC000000C94D31E5AC00000C3
S113005058C0000056C0000054C0000052C0000048
S113006050C000004EC00000FA0B1C0C3E0C600C8B
S1130070820CA40CC60CE80C3F0D790D7F0E9D0E6E
S1130080670F1F106110A3112F1251125312751212
S11300909712B912DB12FD124F13E7168913A71337
S11300A0711429156B15AC169218B418B618D81813
S11300B0FA181C193E196019B119311DE619011AF3
S11300C0C81A741BB51BF51C11241FBECFEFD8E052
S11300D0DEBFCDBF15E0A0E0B1E0E4E2F1E402C090
S11300E005900D92A23BB107D9F725E0A2EBB5E04C
S11300F001C01D92AB3BB207E1F70E946E090C945C
S113010090207ECFCF92DF92EF92FF92CF93C0E008
S113011049C085B1806185B966E771E080E090E00F
S11301200E94131F85B18F7E85B966E771E080E078
S113013090E00E94131F8CEEC80E82E0D81EE11CD2
S1130140F11C03C0C12CD12C760180E9C8168FE5BF
S1130150D80681E0E806F104E4F2C12CD12C760142
S113016018C085B1806185B96CE571E080E090E0EC
S11301700E94131F85B18F7E85B96CE571E080E024
S113018090E00E94131F88EBC80E82E0D81EE11C89
S1130190F11C80E9C8168FE5D80681E0E806F10471
S11301A004F3CF5FC53070F2C12CD12C760118C096
S11301B085B1806185B966E771E080E090E00E94D6
S11301C0131F85B18F7E85B966E771E080E090E00A
S11301D00E94131F8CEEC80E82E0D81EE11CF11C95
S11301E080ECC81684EDD80681E0E806F10404F337
S11301F0CF91FF90EF90DF90CF90089585B1877FE6
S113020085B985B18B7F85B985B1826085B985B1A2
S11302108E7F85B98BB18F7B8BB98BB180688BB99D
S11302208BB18F778BB98BB180688BB98BB18F779A
S11302308BB968E270E080E090E00E94131F8BB1FC
S113024080688BB98BB18F778BB985B1886085B99C
S11302508BB180688BB98BB18F778BB968E270E012
S113026080E090E00C94131F08959BB19F7B9BB991
S113027095B1977F95B995B19B7F95B995B19D7FC0
S113028095B995B19E7F95B99BB190689BB99BB187
S11302909F779BB995B1946095B9813021F485B16C
S11302A0826085B903C085B18D7F85B9613021F441
S11302B085B1816085B903C085B18E7F85B98BB165
S11302C080688BB98BB18F778BB968E270E080E07E
S11302D090E00C94131F089595B1977F95B995B14B
S11302E09B7F95B995B19D7F95B995B19E7F95B941
S11302F09BB190689BB99BB19F779BB995B198606E
S113030095B9813021F485B1846085B903C085B184
S11303108B7F85B9613021F485B1826085B903C0D2
S113032085B18D7F85B9413021F485B1816085B96E
S113033003C085B18E7F85B98BB180688BB98BB1D1
S11303408F778BB968E270E080E090E00C94131F23
S1130350089590E002C0959587956A95E2F78170BB
S11303600895CF93C82F67E0F4DF813021F485B17D
S1130370886085B903C085B1877F85B966E08C2F15
S1130380E8DF813021F485B1846085B903C085B18B
S11303908B7F85B965E08C2FDCDF813021F485B15A
S11303A0826085B903C085B18D7F85B964E08C2FE7
S11303B0D0DF813021F485B1816085B903C085B176
S11303C08E7F85B98BB180648BB98BB180688BB912
S11303D08BB18F778BB963E08C2FBBDF813021F435
S11303E085B1886085B903C085B1877F85B962E02E
S11303F08C2FAFDF813021F485B1846085B903C0CF
S113040085B18B7F85B961E08C2FA3DF813021F426
S113041085B1826085B903C085B18D7F85B960E0FF
S11304208C2F97DF813021F485B1816085B903C0B9
S113043085B18E7F85B98BB180688BB98BB18F778D
S11304408BB968E270E080E090E00E94131FCF91C6
S11304500895CF93C82F8BB18F7B8BB985B18860FA
S113046085B966E08C2F75DF813021F485B1846015
S113047085B903C085B18B7F85B965E08C2F69DFB1
S1130480813021F485B1826085B903C085B18D7F47
S113049085B964E08C2F5DDF813021F485B1816002
S11304A085B903C085B18E7F85B98BB180688BB95E
S11304B08BB18F778BB963E08C2F4BDF813021F4C4
S11304C085B1886085B903C085B1877F85B962E04D
S11304D08C2F3FDF813021F485B1846085B903C05E
S11304E085B18B7F85B961E08C2F33DF813021F4B6
S11304F085B1826085B903C085B18D7F85B960E01F
S11305008C2F27DF813021F485B1816085B903C048
S113051085B18E7F85B98BB180688BB98BB18F77AC
S11305208BB968E270E080E090E00E94131FCF91E5
S11305300895CF93C82F8BB18F7B8BB985B1877FFB
S113054085B985B1846085B965E08C2F02DF81307F
S113055021F485B1826085B903C085B18D7F85B9E9
S113056064E08C2FF6DE813021F485B1816085B999
S113057003C085B18E7F85B98BB180688BB98BB18F
S11305808F778BB963E08C2FE4DE813021F485B161
S1130590886085B903C085B1877F85B962E08C2FF7
S11305A0D8DE813021F485B1846085B903C085B17A
S11305B08B7F85B961E08C2FCCDE813021F485B14D
S11305C0826085B903C085B18D7F85B960E08C2FC9
S11305D0C0DE813021F485B1816085B903C085B165
S11305E08E7F85B98BB180688BB98BB18F778BB9CE
S11305F068E270E080E090E00E94131FCF910895BC
S11306000F931F93CF93DF938C01623011F080E03E
S113061001C080E4480F8FEF840F803118F04154FB
S1130620403108F416DFC0E0D0E002C09ADE219623
S1130630F801EC0FFD1F80818111F8CFDF91CF917C
S11306401F910F9108950F931F93CF93DF938C0104
S1130650C0E0D0E002C085DE2196F801EC0FFD1F5A
S113066080818111F8CFDF91CF911F910F9108956F
S11306700F931F93CF93DF93CDB7DEB7A0970FB639
S1130680F894DEBF0FBECDBF88E0E0E0F1E0DE010C
S1130690119601900D928A95E1F788E0E8E0F1E087
S11306A0DE01199601900D928A95E1F788E0E0E168
S11306B0F1E0DE01519601900D928A95E1F788E010
S11306C0E8E1F1E0DE01599601900D928A95E1F797
S11306D080E42FDF00E010E00AC0E1E0F0E0EC0F7E
S11306E0FD1FE00FF11F80813CDE0F5F1F4F0830BC
S11306F011059CF300E010E00AC0E9E0F0E0EC0F23
S1130700FD1FE00FF11F80812CDE0F5F1F4F0830AB
S113071011059CF300E010E00AC0E1E1F0E0EC0F09
S1130720FD1FE00FF11F80811CDE0F5F1F4F08309B
S113073011059CF300E010E00AC0E9E1F0E0EC0FE1
S1130740FD1FE00FF11F80810CDE0F5F1F4F08308B
S113075011059CF380E07DDEA0960FB6F894DEBF11
S11307600FBECDBFDF91CF911F910F91089580E00F
S113077006C00E94C41D9FEB980F923020F0815454
S11307808230B8F780E008950E94C41D8234E1F7F6
S113079008950F931F93CF93DF93CDB7DEB7AC9734
S11307A00FB6F894DEBF0FBECDBFAC018B01FE01C6
S11307B0319688E0DF011D928A95E9F785E5898302
S11307C08EE48A8385E08B8380E1E0E2F1E0DE0160
S11307D0199601900D928A95E1F7FE01799684E1CC
S11307E0DF011D928A95E9F790E010C0292F30E0CF
S11307F0F9013396DA01A20FB31F2C9161E070E086
S11308006C0F7D1FE60FF71F20839F5F953070F3F9
S1130810CE0101960E94B11ECE0149960E946B1E24
S1130820898D8D3431F58A8D8E3429F541E020E0AF
S113083019C0822F90E0D801A80FB91FFC0133968C
S113084069E170E06C0F7D1FE60FF71F30813C9368
S1130850E9E0F0E0EC0FFD1FE80FF91F8081381389
S113086040E02F5F8B8D281720F3442331F080E084
S113087005C08FEF03C08FEF01C081E0AC960FB6C7
S1130880F894DEBF0FBECDBFDF91CF911F910F91C2
S11308900895CF93DF93EA0190E024C0E62FF72F69
S11308A0292F30E0D901AA0FBB1F2A0F3B1F220FAB
S11308B0331F220F331F220F331FE20FF31F308128
S11308C0288132130EC03181298132130AC022815A
S11308D0222361F03A81231304C033812B81321720
S11308E039F09F5F9817D0F28FEF03C0892F01C0B2
S11308F0892FDF91CF910895EF92FF920F931F9369
S1130900CF93DF93EC018B017A01688179818A812D
S1130910A801BFDF8F3F09F041C0888199812A81F6
S113092030E0A901440F551F240F351F220F331F38
S1130930220F331F220F331F820F931FB701069616
S11309400E948920888199812A8130E0A901440F7D
S1130950551F240F351F220F331F220F331F220F61
S1130960331FB801820F931F0E948920E881F98107
S11309708A8190E09C01220F331F820F931F880FFE
S1130980991F880F991F880F991FE80FF91F8789EE
S11309908F5F878B8A818F5F8A8313C0E881F98197
S11309A090E09C01220F331F820F931F880F991F21
S11309B0880F991F880F991FE80FF91F87898F5F88
S11309C0878BDF91CF911F910F91FF90EF90089546
S11309D0CF93C82FDA010D900020E9F71197CD01CC
S11309E0841B950B40E01FC00696E62FF72F242F9B
S11309F030E0D901AA0FBB1F2A0F3B1F220F331F60
S1130A00220F331F220F331FE20FF31F3696DF012D
S1130A100D900020E9F71197AE1BBF0BA80FB91F6B
S1130A20CD0102964F5F4C17F8F2CF91089541E043
S1130A3061E080E391E0E4DD41E062E081E491E0A3
S1130A40DFCD089541E062E080E591E0D9DD82E404
S1130A5000DD81E086DC8FE4FCDC8FE782CC089546
S1130A60CF92DF92EF92FF920F931F93CF93DF9376
S1130A70D62EE72EF82E00E03EC0CD2DDE2D802FA1
S1130A8090E09C01220F331F820F931F880F991F40
S1130A90880F991F880F991FC80FD91F8F899DEC44
S1130AA0899F912D11249695969596950F2EF0E396
S1130AB0CF2EF02DC90E990F292F220F220F920F3E
S1130AC0891B10E3180F8EED91E00E94B11E8C2D4E
S1130AD00E94641E812F0E94641E80E20E94641E94
S1130AE0CE0106960E94B11E8DE00E94641E8AE02B
S1130AF00E94641E0F5F0F1508F4BFCFDF91CF91E2
S1130B001F910F91FF90EF90DF90CF9008955F9227
S1130B106F927F928F929F92AF92BF92CF92DF9209
S1130B20EF92FF920F931F93CF93DF9300D000D0E7
S1130B3000D0CDB7DEB7762E872E982E622E532E98
S1130B40D42EEC82FD820E83C1101EC085E50E9466
S1130B50641E82E50E94641E80E00E94641E85E19A
S1130B600E94641E81E691E00E94B11ECE010196AE
S1130B700E946B1E89818D3409F06BC08A81823595
S1130B8009F469C08FEF6CC0F82E882339F047E769
S1130B9051E01EDF8C01025F1F4F02C00EE010E027
S1130BA0ED2CDD2041F045E851E0662D752D8D2DAD
S1130BB00FDF080F191F41E951E06C817D818E819F
S1130BC007DF080F191F4EE951E06A2D7B2D8C2D8C
S1130BD0FFDE080F191F8EEA91E00E94B11E812FDB
S1130BE00E94641E802F0E94641E81EB91E00E948B
S1130BF0B11EFF2041F087E791E00E94B11E672DEE
S1130C00782D892D2DDFEE2041F085E891E00E94BA
S1130C10B11E662D752D8D2D23DF81E991E00E9493
S1130C20B11E6C817D818E811BDF8EE991E00E9473
S1130C30B11E6A2D7B2D8C2D13DFCE0101960E94EF
S1130C406B1E89818D3449F48A81823541F08FEF9E
S1130C5007C08FEF05C081E003C08FEF01C081E0C2
S1130C6026960FB6F894DEBF0FBECDBFDF91CF91AD
S1130C701F910F91FF90EF90DF90CF90BF90AF90B6
S1130C809F908F907F906F905F9008959C0190E06B
S1130C9005C0F901E90FF11D10829F5F9230C8F37E
S1130CA008954F925F927F929F92AF92BF92CF929C
S1130CB0DF92EF92FF920F931F93CF93DF93CDB701
S1130CC0DEB7C357D1090FB6F894DEBF0FBECDBF50
S1130CD05C016B017A012901FE01319685E0DF0197
S1130CE01D928A95E9F781E13596DF01682F1D92FF
S1130CF06A95E9F71F8A188E198E7496DF01682F9A
S1130D001D926A95E9F71BA61CA61DA67496DF0121
S1130D101D928A95E9F785E50E94641E89E40E9484
S1130D20641ECE01CF9622E3FC0111922A95E9F7C5
S1130D300E946B1E8FAD8D3409F0AFC221968FAD2A
S1130D402197893409F0ABC241E061E080EC91E085
S1130D5057DC78DECE01CF9699DF10E00E94C41DE7
S1130D60082F8FEB800F823008F08FC0013469F4B4
S1130D70133021F0113011F011110FC089E3898370
S1130D808A831B821C8212E008C0023431F480E39F
S1130D9089838A831B821C8212E085E50E94641E7B
S1130DA086E40E94641E812F0E94641E123089F41E
S1130DB08981E2968FAFE2978A81E3968FAFE397BA
S1130DC0E4961FAEE497CE018F589F4F0E94B11E48
S1130DD004C0CE0101960E94B11ECE01CF960E949E
S1130DE06B1E8FAD8D3429F421968FAD21978634F7
S1130DF011F08FEF5DC2DE01AE5BBF4FFD010190CC
S1130E000020E9F731974E2F4A1B20E013C0822FB0
S1130E1090E0FC0133966FE370E06C0F7D1FE60FEA
S1130E20F71F3081E6E0F0E0EC0FFD1FE80FF91F3B
S1130E3030832F5F421758F741E061E081ED91E084
S1130E40DFDB41E061E0CE010696DADB41E062E0FF
S1130E5082EE91E0D5DB81E084DA8EE192E0F3DB8F
S1130E6082E07FDA82E47DDA82DC082F823409F0C2
S1130E703CC041E061E080EC91E0C2DBE3DDCE0107
S1130E80CF9604DF10E000E030C0033499F411235E
S1130E9089F077247A94710EE1E0F0E0EC0FFD1F05
S1130EA0E70DF11D10828BE0810FD3DA80E259DA6D
S1130EB0172D1BC00332C9F00A32B9F00434A9F06B
S1130EC0023499F0033489F0013479F0143068F471
S1130ED08CE0810FBEDAE1E0F0E0EC0FFD1FE10FE2
S1130EE0F11D00831F5F802F3CDA8FEB800F82306F
S1130EF008F034CF41E061E08EEE91E081DBA2DDC9
S1130F00CE01CF96C3DE912C0E94C41D182F8FEB07
S1130F10810F823008F079C0113451F471E07915F1
S1130F2038F089E38F8B888F6894992491F808C0EE
S1130F30123431F480E38F8B888F6894992491F86C
S1130F4085E50E94641E83E50E94641E892D0E942B
S1130F50641ECE0147960E94B11ECE01CF960E9418
S1130F606B1E8FAD8D3409F09CC121968FAD2197F6
S1130F70833509F098C1DE01AE5BBF4FFD010190DE
S1130F800020E9F731974E2F4A1B20E013C0822F2F
S1130F9090E0FC013396AFE3B0E0AC0FBD1FEA0F65
S1130FA0FB1F3081EAE1F0E0EC0FFD1FE80FF91FB1
S1130FB030832F5F421758F741E061E081ED91E003
S1130FC01FDB41E061E0CE014A961ADB41E062E0BA
S1130FD082EE91E015DB81E0C4D98EE192E033DB4F
S1130FE082E0BFD982E4BDD9C2DB182F823409F074
S1130FF03DC041E061E08EEE91E002DB23DDCE01F5
S1131000CF9644DE912C10E031C0133499F499202A
S113101089F077247A94790CE7E1F0E0EC0FFD1F76
S1131020E70DF11D108287E0890D13DA80E299D96A
S1131030972C1CC01332D1F01A32C1F01434B1F021
S11310401234A1F0133491F0113481F0B1E0B915E8
S113105068F088E0890DFDD9E7E1F0E0EC0FFD1FB1
S1131060E90DF11D10839394812F7BD98FEB810FB0
S1131070823008F049CF41E061E08FEF91E0C0DABF
S1131080E1DCCE01CF9602DE912C0E94C41D182F04
S11310908FEB810F823008F079C0113451F4E1E014
S11310A0E91538F089E38BA78CA76894992491F803
S11310B008C0123431F480E38BA78CA76894992478
S11310C091F885E50E94641E80E50E94641E892DC6
S11310D00E94641ECE018B960E94B11ECE01CF9653
S11310E00E946B1E8FAD8D3409F0DFC021968FAD49
S11310F02197803509F0DBC0DE01AE5BBF4FFD01F7
S113110001900020E9F731974E2F4A1B20E013C0CD
S1131110822F90E0FC0133966FE370E06C0F7D1F2B
S1131120E60FF71F3081EEE2F0E0EC0FFD1FE80F51
S1131130F91F30832F5F421758F741E061E081EDDA
S113114091E05EDA41E061E0CE018E9659DA41E049
S113115062E082EE91E054DA81E003D98EE192E01C
S113116072DA82E0FED882E4FCD801DB182F8234E4
S113117009F03DC041E061E08FEF91E041DA62DCCB
S1131180CE01CF9683DD912C10E031C0133499F455
S1131190992089F077247A94790CEBE2F0E0EC0F53
S11311A0FD1FE70DF11D10828AE0890D52D980E2FE
S11311B0D8D8972C1CC01332D1F01A32C1F0143491
S11311C0B1F01234A1F0133491F0113481F071E0D4
S11311D0791568F08BE0890D3CD9EBE2F0E0EC0F77
S11311E0FD1FE90DF11D10839394812FBAD88FEB65
S11311F0810F823008F049CFCE01CF9647DD85E5D7
S11312000E94641E83E40E94641ECE01CF960E9455
S11312106B1E8FAD8D3429F421968FAD21978334C5
S113122019F005DC8FEF44C0DE011196FD01019039
S11312300020E9F73197EA1BFB0B349759F08981B9
S1131240803319F49A81903329F0893361F48A81C7
S1131250893349F4AE014A5F5F4FBE016F5F7F4F30
S1131260C5014ADB08C0AE014A5F5F4FBE016F5F34
S11312707F4FC60141DBAE01465E5F4FBE01695E32
S11312807F4FC70139DBAE01425D5F4FBE01655D33
S11312907F4FC20131DB82E00BC08FEF09C08FEFBB
S11312A007C08FEF05C08FEF03C08FEF01C08FEF32
S11312B0CD58DF4F0FB6F894DEBF0FBECDBFDF9120
S11312C0CF911F910F91FF90EF90DF90CF90BF903F
S11312D0AF909F907F905F904F900895CF93DF934E
S11312E0CDB7DEB7C05CD5400FB6F894DEBF0FBEF5
S11312F0CDBF84B1816084B984B1826084B984B182
S1131300846084B984B1886084B98AB180688AB9F8
S11313108AB180648AB98AB180628AB98AB18061EB
S11313208AB98AB188608AB98AB184608AB987B176
S11313308E7F87B987B18D7F87B987B18B7F87B956
S113134087B1877F87B984B1806184B984B18062B1
S113135084B98BB180628BB98BB180618BB98BB14D
S113136088608BB98BB184608BB988B1816088B98E
S113137088B1826088B988B1846088B988B188608E
S113138088B985B18F7E85B985B18F7D85B90E9475
S1131390FE0060E081E00E94350140E060E081E011
S11313A00E946C0165D90E94521F0E94441EFE01D6
S11313B0319689E393E0DF019C011D922150304076
S11313C0E1F79E01265C3C4F88EAD9011D928A957B
S11313D0E9F7CE018E519C4F48E7FC0111924A95E2
S11313E0E9F7DE01A65ABB4F40E9FD0111924A9587
S11313F0E9F7BE0166517B4F40E6FB0111924A9525
S1131400E9F7C65BDA4F39832883CA54D540C45BF5
S1131410DA4F1882CC54D540C35BDA4F9983888362
S1131420CD54D540C15BDA4F1882CF54D540C05B50
S1131430DA4FB983A883C055D540CE5ADA4F188203
S1131440C255D540CD5ADA4F79836883C355D54008
S1131450CB5ADA4F1882C555D540FE01EA5AFA4FE5
S113146085E0DF011D928A95E9F7359681E1DF0178
S11314701D928A95E9F7719686E0DF01282F1D9267
S11314802A95E9F73696DF011D928A95E9F786E0F9
S1131490E3EAF5E0DE01A858BA4F01900D928A956F
S11314A0E1F786E0E9EAF5E0DE01A258BA4F0190DF
S11314B00D928A95E1F7FE01EC57FA4F82E3DF01C2
S11314C01D928A95E9F7D12C912CF12C01E0B2E020
S11314D0C054DA4FB883C05CD54077C1023009F4F8
S11314E049C0033009F4A2C0013009F048C141E009
S11314F061E080E192E084D841E062E081E292E040
S11315007FD882E40E94290283E00E94B1012FD98E
S1131510813409F433C181E3C258DA4F8883CE574A
S1131520D54082E3C158DA4F8883CF57D54083E34F
S1131530C058DA4F8883C058D54087E3CF57DA4F75
S11315408883C158D54088E3CE57DA4F8883C25880
S1131550D54041E061E082E392E052D841E062E0AC
S113156083E492E04DD860ED77E080E090E00E9463
S1131570301F05C141E061E084E592E041D841E0DB
S113158062E085E692E03CD882E40E94290281E090
S11315900E94B10188E40E94290282E00E94B10104
S11315A08EE40E9429028FE70E94B10188E00E9424
S11315B02902E12C0E94C41D182F813419F4E5E09E
S11315C0EE1671F1123471F1133469F4EE2059F00E
S11315D01FEF1E0D89E08E0D0E94290280E20E94F9
S11315E0B101E12E20C0F4E0FE15E8F01A32D9F082
S11315F01434C9F01332B9F01134A9F0133499F04A
S11316008AE08E0D0E942902812F0E94B101E2E737
S1131610F5E0EC0FFD1FEE0DF11D1083E39403C004
S113162003E001C001E0023029F2A9C041E061E019
S113163086E792E00E94000341E062E085E692E0E2
S11316400E94000382E40E94290281E00E94B10109
S113165088E40E94290282E00E94B1018EE40E9483
S113166029028FE70E94B10188E00E942902E12C3F
S11316700E94C41D182F813409F045C025E0E212F0
S113168042C025C0282F30E0E2E7F5E0EC0FFD1F53
S1131690E20FF31F4081E8E7F5E0EC0FFD1FE20FD6
S11316A0F31F9081491311C0ECE6F5E0EC0FFD1F28
S11316B0E20FF31F4081EEE7F5E0EC0FFD1FE20FB0
S11316C0F31F9081491301C05F5F8F5F02C050E038
S11316D080E08530B8F2553009F443C041E061E060
S11316E087E892E00E94000341E062E088E992E02A
S11316F00E94000382E00E94B10182E40E94B101D1
S113170043D801E037C01234A1F1133469F4EE2058
S113171059F01FEF1E0D89E08E0D0E94290280E210
S11317200E94B101E12E26C034E03E1518F11A32B0
S113173009F11434F9F01332E9F01134D9F0133407
S1131740C9F08AE08E0D0E9429028AE20E94B1014A
S1131750ECE6F5E0EC0FFD1FEE0DF11D1083E394B4
S113176009C001E082E0C054DA4F8883C05CD540F0
S113177001C001E0033009F47BCF01C002E0809195
S1131780B805823130F4813101F58091B9058F308B
S1131790E0F041E061E087EA92E00E94000341E06A
S11317A062E088EB92E00E94000360ED77E080E065
S11317B090E00E94301F99249394F12C01E094E06E
S11317C0C054DA4F9883C05CD540C054DA4FA88126
S11317D0C05CD540A13009F02DC680CE802F90E0AA
S11317E0FC013197E830F10508F03DC1EC5CFF4F96
S11317F00C94612041E061E089EC92E00E940003D6
S113180081E00E94B10181E40E94B10141E062E003
S113181088ED92E00E94000380E00E94B10182E41E
S11318200E94B1010E94B703823411F40F5F1BC1FF
S1131830813409F018C1EBC041E061E087EE92E029
S11318400E94000381E00E94B10181E40E94B10181
S113185041E062E086EF92E00E94000380E00E9493
S1131860B10182E40E94B1010E94B703823411F4F1
S11318700F5FF9C0813409F0F6C0CDC041E061E0EA
S113188085E093E00E94000381E00E94B10181E4BD
S11318900E94B10141E062E084E193E00E94000310
S11318A080E00E94B10182E40E94B1010E94B7036A
S11318B0823411F40F5FD7C0813409F0D4C0B0C0B2
S11318C041E061E083E293E00E94000381E00E9432
S11318D0B10181E40E94B10141E062E082E393E05E
S11318E00E94000380E00E94B10182E40E94B101E1
S11318F00E94B703823411F40F5FB5C0813409F03C
S1131900B2C094C041E061E081E493E00E9400032E
S113191081E00E94B10181E40E94B10141E062E0F2
S113192080E593E00E94000380E00E94B10182E41C
S11319300E94B1010E94B703823411F40F5F93C077
S1131940813409F090C077C041E061E08FE593E015
S11319500E94000381E00E94B10181E40E94B10170
S113196041E062E08EE693E00E94000380E00E9482
S1131970B10182E40E94B1010E94B703823411F4E0
S11319800F5F71C0813409F06EC05BC041E061E05B
S11319908DE793E00E94000381E00E94B10181E49D
S11319A00E94B10141E062E08CE893E00E940003F0
S11319B080E00E94B10182E40E94B1010E94B70359
S11319C0823411F40F5F4FC0813409F04CC03FC022
S11319D041E061E08BE993E00E94000381E00E9412
S11319E0B10181E40E94B10141E062E08CE893E03E
S11319F00E94000380E00E94B10182E40E94B101D0
S1131A000E94B703823449F1813469F528C0FF2468
S1131A10F39400E028C06894FF24F1F800E023C0A8
S1131A200F2EF3E0FF2EF02D00E01DC06894FF247C
S1131A30F2F800E018C00F2EF5E0FF2EF02D00E0C4
S1131A4012C00F2EF6E0FF2EF02D00E00CC00F2E7A
S1131A50F7E0FF2EF02D00E006C001E004C068941A
S1131A60FF24F3F800E08F2D90E0FC013197E8307B
S1131A70F10508F0A3C4E45CFF4F0C94612041E03D
S1131A8061E08AEA93E00E94000382E00E94B101CF
S1131A9081E40E94B10141E062E089EB93E00E949D
S1131AA0000381E00E94B10182E40E94B1010E941E
S1131AB0B7038234D1F441E061E088EC93E00E9402
S1131AC0000341E062E089ED93E00E94000368EEC8
S1131AD073E080E090E00E94301F01E0B1E0C05468
S1131AE0DA4FB883C05CD54069C4813409F066C458
S1131AF05DC441E061E08AEE93E00E94000341E0AE
S1131B0062E085E692E00E94000382E40E942902DA
S1131B1081E00E94B10188E40E94290282E00E94CF
S1131B20B1018EE40E9429028FE70E94B10188E08E
S1131B300E942902E12C0E94C41D182F813409F04F
S1131B40A6C0E5E0EE12A3C0AE014F5F5F4FBE0139
S1131B50655A7A4FCE018A5A9A4F0E94C90381303E
S1131B6009F07BC041E061E0CE01855A9A4F0E94A2
S1131B70000341E062E082EE91E00E94000381E014
S1131B800E94B1018EE192E00E94230382E00E9450
S1131B90B10182E40E94B1010E94B703182F81347D
S1131BA009F057C09E01265B3A4FAE01435B5A4F82
S1131BB0BE016D5A7A4FCE01805B9A4F72D8813044
S1131BC069F441E061E08BEF93E00E94000341E09F
S1131BD062E08CE094E00E940003FFCF823009F0C1
S1131BE08AC01091B205F9E11F9F70011124BE0152
S1131BF06A5A7A4F81E090E08C0F9D1F8E0D9F1DD5
S1131C000E948920C7010596BE01655A7A4F21E0DA
S1131C1030E02C0F3D1F820F931F0E9489201F5F0D
S1131C201093B20541E061E08DE194E00E9400036D
S1131C3041E062E081ED91E00E9400030E94820095
S1131C4064ED73E080E090E00E94301FF12C02E02C
S1131C50B5C3823409F04FC049C081114CC041E082
S1131C6061E08EE294E00E94000341E062E083EDD3
S1131C7091E00E94000382E00E94B10182E40E948C
S1131C80B1010E94C403182FF12C02E034C01234B5
S1131C9081F1133471F4EE2061F0BB24BA94BE0CCC
S1131CA087E08E0D0E94290280E20E94B101EB2C94
S1131CB022C034E03E15F8F01A32E9F01434D9F0B9
S1131CC01332C9F01134B9F01334A9F088E08E0D41
S1131CD00E942902812F0E94B101E6E5F5E0EC0F94
S1131CE0FD1FEE0DF11D1083E39405C0F12C02E0FD
S1131CF002C0F12C02E0123409F01DCF5FC341E0B1
S1131D0061E08FE394E00E94000341E062E083ED30
S1131D1091E00E94000382E00E94B10182E40E94EB
S1131D20B1010E94931F0E94C41D823409F046C36E
S1131D300E94971FF12C03E041C341E061E080E57C
S1131D4094E00E94000341E062E081E694E00E9496
S1131D5000038FE70E94B10183E40E94B10180E295
S1131D600E94B10182E00E94B10182E40E94B101AB
S1131D7080E20E94B10181E00E94B10181E40E94ED
S1131D80B101CA54DA4F188219821A821B82C65BC7
S1131D90D540E12C0E94C41D182F813409F053C092
S1131DA084E0E81250C0C854DA4F4881C85BD5407B
S1131DB050E040535109C754DA4F9881C95BD5406C
S1131DC0CA54DA4F2881C65BD54030E0205331092C
S1131DD0C954DA4F3881C75BD540440F642F660F6E
S1131DE0660F460F642F690F6053220F822F880FEE
S1131DF0880F280F822F830F80530E94681F811140
S1131E000DC041E061E08AE694E00E94000341E0F5
S1131E1062E08BE794E00E9400030CC041E061E0C3
S1131E208CE894E00E94000341E062E08DE994E0D4
S1131E300E94000360ED77E080E090E00E94301F94
S1131E40F12C04E03FC01234D9F11334A1F4EE2094
S1131E5091F01FEF1E0D123028F480E48E0D0E94C5
S1131E60290204C081E48E0D0E94290280E20E94AE
S1131E70B101E12E27C093E09E1520F11A3211F131
S1131E80143401F11332F1F01134E1F01334D1F0D0
S1131E90A1E0AE1528F081E48E0D0E94290204C051
S1131EA082E48E0D0E942902812F0E94B101E6EB8B
S1131EB0F5E0EC0FFD1FEE0DF11D1083E39402C05D
S1131EC0F12C04E0B4E0FB1609F464CF77C285E595
S1131ED00E94641E86E50E94641E0F2EF8EBAF2E4E
S1131EE0F5E0BF2EF02DF50180810E94641ED5011E
S1131EF011968C910E94641E8091B2050E94641E0A
S1131F00CE018C579A4F0E946B1ECC57DA4F8881B2
S1131F10C458D5408D3409F08DC0CB57DA4F888131
S1131F20C558D540863509F085C0CA57DA4F88812F
S1131F30C658D5408F34C9F441E061E08EEA94E09C
S1131F400E94000341E062E08FEB94E00E940003F2
S1131F5068EE73E080E090E00E94301F0F2EF3E003
S1131F60DF2EF02DF12C05E065C0893489F5D3947A
S1131F70B3E0DB125FC041E061E08EEA94E00E94CE
S1131F80000341E062E080ED94E00E94000368EE0B
S1131F9073E080E090E00E94301F41E061E088EC53
S1131FA093E00E94000341E062E089ED93E00E9427
S1131FB0000368EE73E080E090E00E94301FF12C93
S1131FC001E0E1E0C054DA4FE883C05CD54032C0A0
S1131FD0883581F541E061E08EEA94E00E940003D7
S1131FE041E062E080ED94E00E94000368EE73E05B
S1131FF080E090E00E94301F41E061E088EC93E0D3
S11320000E94000341E062E089ED93E00E94000336
S113201068EE73E080E090E00E94301F0F2EF3E042
S1132020DF2EF02DF12C01E0F1E0C054DA4FF883FB
S1132030C05CD54022E02D1508F049CFBFC141E076
S113204061E081EE94E00E94000341E062E089EDEA
S113205093E00E940003C65BDA4FA880B980CA806F
S1132060CA54D540C35BDA4FE880F9800A81CD5465
S1132070D540CD5ADA4F288139814A81C355D5409C
S1132080C05BDA4F688179818A81C055D5400E944E
S11320908705813009F08DC141E061E082EF94E071
S11320A00E94000341E062E083E095E00E940003A7
S11320B060ED77E080E090E00E94301FF12C06E0B4
S11320C07DC1FE01E554FA4F85E0DF01282F1D9202
S11320D02A95E9F73597DF011D928A95E9F741E0E2
S11320E061E084E195E00E94000341E062E085E65E
S11320F092E00E94000382E40E94290281E00E948F
S1132100B10188E40E94290282E00E94B1018EE4B8
S11321100E9429028FE70E94B101EE24E394B12CBE
S11321200E94C41D182F813419F4B5E0BB1651F177
S1132130123461F1133459F41FEF1B0D8AE08B0D37
S11321400E94290280E20E94B101B12E24C0E4E081
S1132150EB1508F11A32F9F01434E9F01332D9F01E
S11321601134C9F08BE08B0D0E9429028AE20E948F
S1132170B101EBEBF5E0EC0FFD1FEB0DF11D10834E
S1132180B39409C06894EE24E1F805C00F2EF3E07F
S1132190EF2EF02DF12CF1E0EF1611F223E0E21610
S11321A009F40AC141E061E085E295E00E94000380
S11321B041E062E086E395E00E94000380E00E9433
S11321C0B10181E40E94B1010E94B70341E061E0E2
S11321D084E195E00E94000341E062E085E692E03C
S11321E00E94000382E40E94290281E00E94B1015E
S11321F088E40E94290282E00E94B1018EE40E94D8
S113220029028FE70E94B101B12C0E94C41D182F2E
S1132210813409F063C035E0B31260C015C0822F69
S113222090E0EBEBF5E0EC0FFD1FE80FF91F3081B8
S1132230E6EBF5E0EC0FFD1FE80FF91F8081381382
S113224001C04F5F2F5F02C020E040E0253038F32B
S1132250453049F512C0822F90E0EBEBF5E0EC0F2E
S1132260FD1FE80FF91F3081ECE6F5E0EC0FFD1FD0
S1132270E80FF91F30832F5F01C020E0253058F3A9
S113228041E061E085E495E00E94000341E062E002
S113229086E595E00E94000382E00E94B10182E499
S11322A00E94B10112C041E061E085E695E00E9420
S11322B0000341E062E086E795E00E94000382E0CB
S11322C00E94B10182E40E94B1010E94C4030F2E56
S11322D0F3E0EF2EF02DF12C07E030C0123441F181
S11322E0133459F41FEF1B0D8AE08B0D0E94290251
S11322F080E20E94B101B12E21C084E08B15F0F080
S11323001A32E1F01434D1F01332C1F01134B1F0C7
S11323108BE08B0D0E9429028AE20E94B101E6EB58
S1132320F5E0EC0FFD1FEB0DF11D1083B39406C017
S11323300F2EF3E0EF2EF02DF12C07E092E0E916DA
S113234009F463CF3BC081E3C258DA4F8883CE5788
S1132350D54082E3C158DA4F8883CF57D54083E311
S1132360C058DA4F8883C058D54087E3CF57DA4F37
S11323708883C158D54088E3CE57DA4F8883C25842
S1132380D54041E061E082E392E00E94000341E035
S113239062E083E492E00E94000360ED77E080E075
S11323A090E00E94301FF12C08E008C0F12C01E0FD
S11323B005C0F12C06E002C0F12C07E08091B805BD
S11323C0883040F4C054DA4FA881C05CD540A130B5
S11323D059F530C02091B20530E02132310544F482
S11323E0823130F4813131F58091B9058F3010F1AB
S11323F041E061E087EA92E00E94000341E062E08C
S113240088EB92E00E94000360ED77E080E090E0CA
S11324100E94301F912CF12C01E0B4E0C054DA4F3B
S1132420B883C05CD54006C0E3E0C054DA4FE8830B
S1132430C05CD540C054DA4FF881C05CD540F2305E
S113244009F4CCC908C5802F90E0FC013197E8302D
S1132450F10508F018C1EC5BFF4F0C94612041E0DA
S113246061E089EC92E00E94000381E00E94B101E6
S113247081E40E94B10141E062E088ED92E00E94B3
S1132480000380E00E94B10182E40E94B1010E9435
S1132490B703823411F40E5FF6C0813409F0F3C03F
S11324A0CBC00F5FF0C041E061E085E093E00E94A3
S11324B0000381E00E94B10181E40E94B10141E086
S11324C062E084E193E00E94000380E00E94B10195
S11324D082E40E94B1010E94B703823411F40F5FB9
S11324E0D2C0813409F0CFC0ABC041E061E083E2E7
S11324F093E00E94000381E00E94B10181E40E9404
S1132500B10141E062E082E393E00E94000380E0D5
S11325100E94B10182E40E94B1010E94B703823497
S113252011F40F5FB0C0813409F0ADC08FC041E039
S113253061E081E493E00E94000381E00E94B10124
S113254081E40E94B10141E062E080E593E00E94F1
S1132550000380E00E94B10182E40E94B1010E9464
S1132560B703823411F40F5F8EC0813409F08BC03D
S113257072C041E061E08FE593E00E94000381E0D6
S11325800E94B10181E40E94B10141E062E08EE663
S113259093E00E94000380E00E94B10182E40E9463
S11325A0B1010E94B703823411F40F5F6CC081340F
S11325B009F069C056C041E061E08DE793E00E94F4
S11325C0000381E00E94B10181E40E94B10141E075
S11325D062E08CE893E00E94000380E00E94B10175
S11325E082E40E94B1010E94B703823411F40F5FA8
S11325F04AC0813409F047C03AC041E061E08BE948
S113260093E00E94000381E00E94B10181E40E94F2
S1132610B10141E062E08CE893E00E94000380E0B5
S11326200E94B10182E40E94B1010E94B703823486
S113263021F1813441F523C0FF24F39400E023C049
S11326400F2EF3E0FF2EF02D00E01DC06894FF2450
S1132650F2F800E018C00F2EF5E0FF2EF02D00E098
S113266012C00F2EF6E0FF2EF02D00E00CC00F2E4E
S1132670F7E0FF2EF02D00E006C001E004C06894EE
S1132680FF24F3F800E08F2D90E0FC013197E8304F
S1132690F10508F09CC3E45BFF4F0C94612041E01A
S11326A061E085E895E00E94000382E00E94B101A8
S11326B081E40E94B10141E062E089EB93E00E9471
S11326C0000381E00E94B10182E40E94B1010E94F2
S11326D0B7038234D1F441E061E088EC93E00E94D6
S11326E0000341E062E089ED93E00E94000368EE9C
S11326F073E080E090E00E94301F01E021E0C054CC
S1132700DA4F2883C05CD54062C3813409F05FC3CB
S113271056C341E061E08FE394E00E94000341E08E
S113272062E083ED91E00E94000382E00E94B10127
S113273082E40E94B1010E94931F0E94C41D82344E
S113274009F045C30E94971FF12C03E040C341E008
S113275061E080E594E00E94000341E062E081E6EC
S113276094E00E9400038FE70E94B10183E40E9479
S1132770B10180E20E94B10182E00E94B10182E4D1
S11327800E94B10180E20E94B10181E00E94B10186
S113279081E40E94B101CA54DA4F188219821A8264
S11327A01B82C65BD540E12C0E94C41D182F8134C6
S11327B009F053C034E0E31250C0C854DA4F4881E2
S11327C0C85BD54050E040535109C754DA4F988153
S11327D0C95BD540CA54DA4F2881C65BD54030E086
S11327E020533109C954DA4F3881C75BD540440FAF
S11327F0642F660F660F460F642F690F6053220F14
S1132800822F880F880F280F822F830F80530E94F6
S1132810681F81110DC041E061E08AE694E00E94E6
S1132820000341E062E08BE794E00E9400030CC0E7
S113283041E061E08CE894E00E94000341E062E042
S11328408DE994E00E94000360ED77E080E090E081
S11328500E94301FF12C04E03FC01234D9F113342C
S1132860A1F4EE2091F01FEF1E0D123028F480E445
S11328708E0D0E94290204C081E48E0D0E9429025B
S113288080E20E94B101E12E27C083E08E1520F181
S11328901A3211F1143401F11332F1F01134E1F070
S11328A01334D1F091E09E1528F081E48E0D0E943E
S11328B0290204C082E48E0D0E942902812F0E9405
S11328C0B101E6EBF5E0EC0FFD1FEE0DF11D1083F9
S11328D0E39402C0F12C04E0A4E0FA1609F464CFF6
S11328E076C285E50E94641E86E50E94641E0F2E52
S11328F0F8EBAF2EF5E0BF2EF02DF50180810E949C
S1132900641ED50111968C910E94641E8091B205BB
S11329100E94641ECE018C579A4F0E946B1ECC57A6
S1132920DA4F8881C458D5408D3409F08DC0CB5717
S1132930DA4F8881C558D540863509F085C0CA5715
S1132940DA4F8881C658D5408F34C9F441E061E03C
S11329508EEA94E00E94000341E062E08FEB94E091
S11329600E94000368EE73E080E090E00E94301F54
S11329700F2EF3E0DF2EF02DF12C05E065C0893435
S113298089F5D394B3E0DB125FC041E061E08EEAE5
S113299094E00E94000341E062E080ED94E00E9434
S11329A0000368EE73E080E090E00E94301F41E095
S11329B061E088EC93E00E94000341E062E089ED6D
S11329C093E00E94000368EE73E080E090E00E94D0
S11329D0301FF12C01E0E1E0C054DA4FE883C05C21
S11329E0D54032C0883581F541E061E08EEA94E05B
S11329F00E94000341E062E080ED94E00E94000345
S1132A0068EE73E080E090E00E94301F41E061E0F6
S1132A1088EC93E00E94000341E062E089ED93E0DA
S1132A200E94000368EE73E080E090E00E94301F93
S1132A300F2EF3E0DF2EF02DF12C01E0F1E0C05475
S1132A40DA4FF883C05CD54022E02D1508F049CF59
S1132A50BEC141E061E081EE94E00E94000341E0E8
S1132A6062E089ED93E00E940003C65BDA4FA88020
S1132A70B980CA80CA54D540C35BDA4FE880F98074
S1132A800A81CD54D540CD5ADA4F288139814A8103
S1132A90C355D540C05BDA4F688179818A81C055BE
S1132AA0D5400E948705813009F08CC141E061E086
S1132AB082EF94E00E94000341E062E083E095E04D
S1132AC00E94000360ED77E080E090E00E94301FF8
S1132AD0F12C06E07CC1FE01E554FA4F85E0DF01EC
S1132AE0282F1D922A95E9F73597DF011D928A95C3
S1132AF0E9F741E061E084E195E00E94000341E0F0
S1132B0062E085E692E00E94000382E40E942902CA
S1132B1081E00E94B10188E40E94290282E00E94BF
S1132B20B1018EE40E9429028FE70E94B101EE24D4
S1132B30E394B12C0E94C41D182F813419F4B5E01C
S1132B40BB1651F1123461F1133459F41FEF1B0D0C
S1132B508AE08B0D0E94290280E20E94B101B12E0D
S1132B6024C0E4E0EB1508F11A32F9F01434E9F06A
S1132B701332D9F01134C9F08BE08B0D0E94290275
S1132B808AE20E94B101EBEBF5E0EC0FFD1FEB0DC7
S1132B90F11D1083B39409C06894EE24E1F805C0D4
S1132BA00F2EF3E0EF2EF02DF12CF1E0EF1611F2E1
S1132BB023E0E21609F409C141E061E085E295E011
S1132BC00E94000341E062E086E395E00E94000376
S1132BD080E00E94B10181E40E94B1010E94B70328
S1132BE041E061E084E195E00E94000341E062E09D
S1132BF085E692E00E94000382E40E94290281E0BB
S1132C000E94B10188E40E94290282E00E94B1017D
S1132C108EE40E9429028FE70E94B101B12CB4D73F
S1132C20182F813409F063C035E0B31260C015C0B9
S1132C30822F90E0EBEBF5E0EC0FFD1FE80FF91F9E
S1132C403081E6EBF5E0EC0FFD1FE80FF91F808102
S1132C50381301C04F5F2F5F02C020E040E02530F1
S1132C6038F3453049F512C0822F90E0EBEBF5E0E4
S1132C70EC0FFD1FE80FF91F3081ECE6F5E0EC0FD7
S1132C80FD1FE80FF91F30832F5F01C020E02530BE
S1132C9058F341E061E085E495E00E94000341E0DF
S1132CA062E086E595E00E94000382E00E94B101A3
S1132CB082E40E94B10112C041E061E085E695E042
S1132CC00E94000341E062E086E795E00E94000371
S1132CD082E00E94B10182E40E94B1010E94C40317
S1132CE00F2EF3E0EF2EF02DF12C07E030C012345C
S1132CF041F1133459F41FEF1B0D8AE08B0D0E9430
S1132D00290280E20E94B101B12E21C084E08B151A
S1132D10F0F01A32E1F01434D1F01332C1F011346E
S1132D20B1F08BE08B0D0E9429028AE20E94B1016E
S1132D30E6EBF5E0EC0FFD1FEB0DF11D1083B394F2
S1132D4006C00F2EF3E0EF2EF02DF12C07E092E0F9
S1132D50E91609F464CF3BC081E3C258DA4F888393
S1132D60CE57D54082E3C158DA4F8883CF57D54038
S1132D7083E3C058DA4F8883C058D54087E3CF57E0
S1132D80DA4F8883C158D54088E3CE57DA4F888319
S1132D90C258D54041E061E082E392E00E94000322
S1132DA041E062E083E492E00E94000360ED77E09A
S1132DB080E090E00E94301FF12C08E008C0F12C64
S1132DC001E005C0F12C06E002C0F12C07E080917F
S1132DD0B805883080F0813130F0813161F4909110
S1132DE0B9059F3040F4C054DA4FA881C05CD54087
S1132DF0A13059F530C02091B20530E021323105BF
S1132E0044F4823130F4813131F58091B9058F3049
S1132E1010F141E061E087EA92E00E94000341E0A2
S1132E2062E088EB92E00E94000360ED77E080E0CE
S1132E3090E00E94301F912CF12C01E0B4E0C054CA
S1132E40DA4FB883C05CD54006C0E2E0C054DA4F24
S1132E50E883C05CD540C054DA4FF881C05CD540EB
S1132E60F33009F4F0CAFDC5992009F450C10230C9
S1132E7009F44DC0033009F4A7C0013009F0F1C5CD
S1132E8041E061E080E192E00E94000341E062E001
S1132E9081E292E00E94000382E40E94290283E01E
S1132EA00E94B1010E94B703813409F4D9C581E3BA
S1132EB0C258DA4F8883CE57D54082E3C158DA4FDF
S1132EC08883CF57D54083E3C058DA4F8883C058EE
S1132ED0D54087E3CF57DA4F8883C158D54088E37C
S1132EE0CE57DA4F8883C258D54041E061E082E38F
S1132EF092E00E94000341E062E083E492E00E94D9
S1132F00000360ED77E080E090E0AAD7AAC541E035
S1132F1061E084E592E00E94000341E062E085E61E
S1132F2092E00E94000382E40E94290281E00E9450
S1132F30B10188E40E94290282E00E94B1018EE47A
S1132F400E9429028FE70E94B10188E00E942902B1
S1132F50E12C1AD6182F813419F425E0E21671F108
S1132F60123471F1133469F4EE2059F01FEF1E0D81
S1132F7089E08E0D0E94290280E20E94B101E12EB7
S1132F8020C034E03E15E8F01A32D9F01434C9F008
S1132F901332B9F01134A9F0133499F08AE08E0D8C
S1132FA00E942902812F0E94B101E2E7F5E0EC0FB3
S1132FB0FD1FEE0DF11D1083E39403C003E001C077
S1132FC001E0023031F24DC541E061E086E792E074
S1132FD00E94000341E062E085E692E00E94000363
S1132FE082E40E94290281E00E94B10188E40E94E7
S1132FF0290282E00E94B1018EE40E9429028FE737
S11330000E94B10188E00E942902E12CBDD5182F4D
S1133010813409F046C085E0E81243C025C0282F5A
S113302030E0E2E7F5E0EC0FFD1FE20FF31F408113
S1133030E8E7F5E0EC0FFD1FE20FF31F9081491361
S113304011C0ECE6F5E0EC0FFD1FE20FF31F408129
S1133050EEE7F5E0EC0FFD1FE20FF31F908149133B
S113306001C05F5F8F5F02C050E080E08530B8F23E
S1133070553009F444C041E061E087E892E00E94E1
S1133080000341E062E088E992E00E94000382E0EC
S11330900E94B10182E40E94B1010E94C40301E0D4
S11330A032C0123479F1133469F4EE2059F01FEF71
S11330B01E0D89E08E0D0E94290280E20E94B1015A
S11330C0E12E21C094E09E15F0F01A32E1F01434A0
S11330D0D1F01332C1F01134B1F01334A1F08AE00D
S11330E08E0D0E9429028AE20E94B101ECE6F5E00D
S11330F0EC0FFD1FEE0DF11D1083E39404C0912C21
S113310001E001C001E0033009F480CFAAC4802F9C
S113311090E0FC013197E830F10508F017C1EC5A52
S1133120FF4FCFC741E061E089EC92E00E940003C9
S113313081E00E94B10181E40E94B10141E062E0BA
S113314088ED92E00E94000380E00E94B10182E4D5
S11331500E94B1010E94B703823411F40E5FF6C0DD
S1133160813409F0F3C0CBC00F5FF0C041E061E0EF
S113317085E093E00E94000381E00E94B10181E4B4
S11331800E94B10141E062E084E193E00E94000307
S113319080E00E94B10182E40E94B1010E94B70361
S11331A0823411F40F5FD2C0813409F0CFC0ABC0B8
S11331B041E061E083E293E00E94000381E00E9429
S11331C0B10181E40E94B10141E062E082E393E055
S11331D00E94000380E00E94B10182E40E94B101D8
S11331E00E94B703823411F40F5FB0C0813409F038
S11331F0ADC08FC041E061E081E493E00E94000330
S113320081E00E94B10181E40E94B10141E062E0E9
S113321080E593E00E94000380E00E94B10182E413
S11332200E94B1010E94B703823411F40F5F8EC073
S1133230813409F08BC072C041E061E08FE593E016
S11332400E94000381E00E94B10181E40E94B10167
S113325041E062E08EE693E00E94000380E00E9479
S1133260B10182E40E94B1010E94B703823411F4D7
S11332700F5F6CC0813409F069C056C041E061E061
S11332808DE793E00E94000381E00E94B10181E494
S11332900E94B10141E062E08CE893E00E940003E7
S11332A080E00E94B10182E40E94B1010E94B70350
S11332B0823411F40F5F4AC0813409F047C03AC028
S11332C041E061E08BE993E00E94000381E00E9409
S11332D0B10181E40E94B10141E062E08CE893E035
S11332E00E94000380E00E94B10182E40E94B101C7
S11332F00E94B703823421F1813441F523C0FF24B5
S1133300F39400E023C00F2EF3E0FF2EF02D00E035
S11333101DC06894FF24F2F800E018C00F2EF5E0F9
S1133320FF2EF02D00E012C00F2EF6E0FF2EF02D40
S113333000E00CC00F2EF7E0FF2EF02D00E006C0D9
S113334001E004C06894FF24F3F800E08F2D90E0BE
S1133350FC013197E830F10508F083C3E45AFF4FCC
S1133360B0C641E061E084E995E00E94000382E098
S11333700E94B10181E40E94B10141E062E089EB65
S113338093E00E94000381E00E94B10182E40E9464
S1133390B1010E94B7038234A9F441E061E088ECF2
S11333A093E00E94000341E062E089ED93E00E9413
S11333B0000368EE73E080E090E052D59924939482
S11333C001E04FC3813409F04CC341C341E061E0E3
S11333D08FE394E00E94000341E062E083ED91E01A
S11333E00E94000382E00E94B10182E40E94B101C4
S11333F09AD5CAD3823409F034C399D5F12C03E0A9
S113340030C341E061E080E594E00E94000341E0C4
S113341062E081E694E00E9400038FE70E94B1011C
S113342083E40E94B10180E20E94B10182E00E9423
S1133430B10182E40E94B10180E20E94B10181E005
S11334400E94B10181E40E94B101CA54DA4F18828A
S113345019821A821B82C65BD540E12C95D3182FA2
S1133460813409F051C0A4E0EA124EC0C854DA4FC6
S11334704881C85BD54050E040535109C754DA4FE6
S11334809881C95BD540CA54DA4F2881C65BD540C0
S113349030E020533109C954DA4F3881C75BD54035
S11334A0440F642F660F660F460F642F690F605335
S11334B0220F822F880F880F280F822F830F8053AB
S11334C007D581110DC041E061E08AE694E00E94D5
S11334D0000341E062E08BE794E00E9400030CC02B
S11334E041E061E08CE894E00E94000341E062E086
S11334F08DE994E00E94000360ED77E080E090E0C5
S1133500AFD4F12C04E03FC01234D9F11334A1F448
S1133510EE2091F01FEF1E0D123028F480E48E0D82
S11335200E94290204C081E48E0D0E94290280E2D7
S11335300E94B101E12E27C0B3E0BE1520F11A327A
S113354011F1143401F11332F1F01134E1F01334B8
S1133550D1F0E1E0EE1528F081E48E0D0E942902FD
S113356004C082E48E0D0E942902812F0E94B101C1
S1133570E6EBF5E0EC0FFD1FEE0DF11D1083E39477
S113358002C0F12C04E0F4E0FF1609F467CF69C22D
S113359085E59AD386E598D30F2EF8EBAF2EF5E0A8
S11335A0BF2EF02DD5018C918FD3F50181818CD361
S11335B08091B20589D3CE018C579A4F8CD3CC57C6
S11335C0DA4F8881C458D5408D3409F088C0CB5770
S11335D0DA4F8881C558D540863509F080C0CA576E
S11335E0DA4F8881C658D5408F34C1F441E061E098
S11335F08EEA94E00E94000341E062E08FEB94E0E5
S11336000E94000368EE73E080E090E029D40F2E5E
S1133610F3E0DF2EF02DF12C05E061C0893479F55B
S1133620D394F3E0DF125BC041E061E08EEA94E002
S11336300E94000341E062E080ED94E00E940003F8
S113364068EE73E080E090E00BD441E061E088EC48
S113365093E00E94000341E062E089ED93E00E9460
S1133660000368EE73E080E090E0FAD3F12C01E00F
S113367021E0C054DA4F2883C05CD54030C088357F
S113368071F541E061E08EEA94E00E94000341E0BC
S113369062E080ED94E00E94000368EE73E080E055
S11336A090E0DED341E061E088EC93E00E94000307
S11336B041E062E089ED93E00E94000368EE73E06C
S11336C080E090E0CDD30F2EF3E0DF2EF02DF12C2F
S11336D001E031E0C054DA4F3883C05CD54082E069
S11336E08D1508F055CFBDC141E061E081EE94E055
S11336F00E94000341E062E089ED93E00E94000330
S1133700C65BDA4FA880B980CA80CA54D540C35B6F
S1133710DA4FE880F9800A81CD54D540CD5ADA4F8A
S1133720288139814A81C355D540C05BDA4F68810D
S113373079818A81C055D5400E948705813009F07E
S113374089C141E061E082EF94E00E94000341E01E
S113375062E083E095E00E94000360ED77E080E0A2
S113376090E07ED3F12C06E07CC1FE01E554FA4FD3
S113377085E0DF01282F1D922A95E9F73597DF01AF
S11337801D928A95E9F741E061E084E195E00E94A9
S1133790000341E062E085E692E00E94000382E4D7
S11337A00E94290281E00E94B10188E40E9429025A
S11337B082E00E94B1018EE40E9429028FE70E94F8
S11337C0B101EE24E394B12CDFD1182F813419F424
S11337D0B5E0BB1651F1123461F1133459F41FEF03
S11337E01B0D8AE08B0D0E94290280E20E94B10128
S11337F0B12E24C0E4E0EB1508F11A32F9F01434C8
S1133800E9F01332D9F01134C9F08BE08B0D0E942A
S113381029028AE20E94B101EBEBF5E0EC0FFD1FF7
S1133820EB0DF11D1083B39409C06894EE24E1F804
S113383005C00F2EF3E0EF2EF02DF12CF1E0EF1682
S113384019F223E0E21609F408C141E061E085E2DF
S113385095E00E94000341E062E086E395E00E9467
S1133860000380E00E94B10181E40E94B1010E9442
S1133870B70341E061E084E195E00E94000341E088
S113388062E085E692E00E94000382E40E9429023D
S113389081E00E94B10188E40E94290282E00E9432
S11338A0B1018EE40E9429028FE70E94B101B12C7C
S11338B06BD1182F813409F063C035E0B31260C0B6
S11338C015C0822F90E0EBEBF5E0EC0FFD1FE80F45
S11338D0F91F3081E6EBF5E0EC0FFD1FE80FF91F4F
S11338E08081381301C04F5F2F5F02C020E040E0A9
S11338F0253038F3453049F512C0822F90E0EBEBC8
S1133900F5E0EC0FFD1FE80FF91F3081ECE6F5E060
S1133910EC0FFD1FE80FF91F30832F5F01C020E07B
S1133920253058F341E061E085E495E00E9400030E
S113393041E062E086E595E00E94000382E00E9497
S1133940B10182E40E94B10112C041E061E085E668
S113395095E00E94000341E062E086E795E00E9462
S1133960000382E00E94B10182E40E94B1010E943E
S1133970C4030F2EF3E0EF2EF02DF12C07E030C03E
S1133980123441F1133459F41FEF1B0D8AE08B0DEF
S11339900E94290280E20E94B101B12E21C084E07C
S11339A08B15F0F01A32E1F01434D1F01332C1F077
S11339B01134B1F08BE08B0D0E9429028AE20E943F
S11339C0B101E6EBF5E0EC0FFD1FEB0DF11D1083EB
S11339D0B39406C00F2EF3E0EF2EF02DF12C07E088
S11339E092E0E91609F464CF3CC081E3C258DA4F8F
S11339F08883CE57D54082E3C158DA4F8883CF57A6
S1133A00D54083E3C058DA4F8883C058D54087E354
S1133A10CF57DA4F8883C158D54088E3CE57DA4F61
S1133A208883C258D54041E061E082E392E00E947D
S1133A30000341E062E083E492E00E94000360ED51
S1133A4077E080E090E00CD2F12C08E00AC0F12C81
S1133A5001E007C0F12C06E004C0F12C07E001C02E
S1133A6002E0C054DA4FA881C05CD540A43009F408
S1133A70FBC90C94E50B1F93CF93DF93C62F8230C1
S1133A80B1F018F4813031F038C08330E9F084307B
S1133A9041F133C08BB18F7D8BB98BB180618BB910
S1133AA08BB188608BB98BB184608BB926C08BB124
S1133AB080628BB98BB18F7E8BB98BB188608BB9E7
S1133AC08BB184608BB919C08BB180628BB98BB117
S1133AD080618BB98BB1877F8BB98BB184608BB9D3
S1133AE00CC08BB180628BB98BB180618BB98BB107
S1133AF088608BB98BB18B7F8BB9D0E010E001C0AB
S1133B00182F61E070E080E090E0AAD1C23061F04B
S1133B1018F4C13031F016C0C33051F0C43069F02C
S1133B2011C086B181700FC086B1869581700BC0BB
S1133B3086B182FB882780F906C086B183FB88277B
S1133B4080F901C0812F181302C0DF5F01C0D0E0EB
S1133B50D730B0F2C23061F018F4C13031F010C087
S1133B60C33049F0C43051F00BC0309BFECF08C0C5
S1133B70319BFECF05C0329BFECF02C0339BFECFEC
S1133B80DF91CF911F91089561E081E074DF882374
S1133B9009F45AC062E081E06EDF882309F456C05C
S1133BA063E081E068DF882309F452C064E081E0C7
S1133BB062DF882309F44EC061E082E05CDF882381
S1133BC009F44AC062E082E056DF882309F446C063
S1133BD063E082E050DF882309F442C064E082E0BD
S1133BE04ADF882309F43EC061E083E044DF882390
S1133BF009F43AC062E083E03EDF8823B9F163E070
S1133C0083E039DF8823A1F164E083E034DF882393
S1133C1089F161E084E02FDF882371F162E084E0C0
S1133C202ADF882359F163E084E025DF882341F10A
S1133C3064E084E020DF882329F18091B3058823A0
S1133C4009F4A2CF8FEF089581E3089582E30895E4
S1133C5083E3089581E4089584E3089585E3089552
S1133C6086E3089582E4089587E3089588E3089538
S1133C7089E3089583E408958AE2089580E308952A
S1133C8083E2089584E40895E1ECF0E088E1808320
S1133C9083E390E09093C5008093C40080818068A2
S1133CA0808378940895E1ECF0E080818F778083BD
S1133CB08091C0008823E4F78091C600E1ECF0E035
S1133CC090819068908308958093C6008091C0008D
S1133CD085FFFCCF0895FF920F931F93CF93DF933B
S1133CE0EC01E1DF88838D34E1F78D3499F5DBDF76
S1133CF08983893431F0833421F0843511F082359D
S1133D0011F41A8228C0863551F4CDDF8A838F34AA
S1133D1021F0893411F0883511F41B821CC089818B
S1133D208E3431F0803521F0833511F0863491F4EE
S1133D30BADF8A83F12C0AC00F2D10E00D5F1F4FEC
S1133D400C0F1D1FB0DFF8018083F3948A81F816ED
S1133D5098F301C01882DF91CF911F910F91FF90CA
S1133D600895EF92FF920F931F93CF93DF937C01FB
S1133D70FC0101900020E9F731978F01081B190B12
S1133D80C0E0D0E006C0F701EC0FFD1F80819CDF8E
S1133D902196C017D107BCF3DF91CF911F910F91EA
S1133DA0FF90EF9008951F920F920FB60F92112477
S1133DB02F933F934F935F936F937F938F939F932F
S1133DC0AF93BF93CF93EF93FF938091C6008D344D
S1133DD0C1F4E1ECF0E080818F77808364DF883484
S1133DE059F461DFC82F5FDF682F8C2F71D08111E8
S1133DF003C08FEA95E0B5DFE1ECF0E080818068F4
S1133E008083FF91EF91CF91BF91AF919F918F915B
S1133E107F916F915F914F913F912F910F900FBEC2
S1133E200F901F90189522E024BD31E035BD3FE985
S1133E3037BD16BC25BB2AE030E040E050E025D178
S1133E4080E090E0DC01A99BFECF62E065BB0196B7
S1133E50A11DB11D82179307A407B507A4F3089504
S1133E600F931F938B019C0182E084BD83E085BD89
S1133E7089EF87BD16BC85B3826085BB40E050E006
S1133E80BA01A99BFECF85B3826085BB4F5F5F4FAC
S1133E906F4F7F4F401751076207730794F31F91C9
S1133EA00F910895109280008BE08093810083E24B
S1133EB094EF90938900809388001092850010926B
S1133EC08400EFE6F0E08081826080837894089536
S1133ED0883140F46C3340F4E8EBF5E0808361838F
S1133EE080E0089581E0089581E008958091BA0505
S1133EF08B33A9F4E8EBF5E0128281818B3359F41A
S1133F0011828081873119F41092B80508958F5F6A
S1133F108093B80508958F5F8093B90508958F5FE6
S1133F208093BA05089581E08093B70508951092AF
S1133F30B70508951F920F920FB60F9211242F9375
S1133F403F934F935F936F937F938F939F93AF931D
S1133F50BF93EF93FF93CF93DF93CDB7DEB729974A
S1133F60DEBFCDBF8091B605833020F48F5F809390
S1133F70B60568C08091B405882389F08091B505A1
S1133F808F5F8093B505883750F01092B50585B1E1
S1133F908F7D85B91092B40581E08093B305A6DFC7
S1133FA08091B705882309F44BC0FE01319689E05E
S1133FB0DF011D928A95E9F7A8EBB5E08C919DECA1
S1133FC0899F212D112426952695269530E3320FBD
S1133FD03983220F322F330F330F230F821B805D5F
S1133FE08A834AE34B8311968C911197899F212DE3
S1133FF0112426952695269530E3320F3C83220F13
S1134000322F330F330F230F821B805D8D834E833A
S113401012962C91299F912D1124969596959695FB
S113402080E3890F8F83990F892F880F880F980F4A
S1134030291B205D288741E062E0CF010E94000334
S11340401092B6058091B505843620F095B180E2D2
S1134050892785B982E086BB29960FB6F894DEBF1E
S11340600FBECDBFDF91CF91FF91EF91BF91AF9183
S11340709F918F917F916F915F914F913F912F917C
S11340800F900FBE0F901F901895052E97FB16F4F6
S113409000940FD057FD05D01AD007FC02D046F487
S11340A008C050954095309521953F4F4F4F5F4F35
S11340B0089590958095709561957F4F8F4F9F4F90
S11340C00895EE0FFF1F0590F491E02D0994A1E2ED
S11340D01A2EAA1BBB1BFD010DC0AA1FBB1FEE1F7E
S11340E0FF1FA217B307E407F50720F0A21BB30BC9
S11340F0E40BF50B661F771F881F991F1A9469F745
S113410060957095809590959B01AC01BD01CF01A0
S11341100895FB01DC0101900D920020E1F7089560
S1074120F894FFCF3D
S113412404040404150E0400000103161C08000012
S11341340E111114121F02040E1101011F1B1B1F67
S1134144436F6469676F20696E76616C69646F009C
S11341544552524F204E4120434F4D554E49432E14
S113416400202020202053455249414C2020200087
S1134174413A2020423A4252414E434F20433A208E
S11341840053454D20564F544F53205245474953ED
S1134194545241444F53002D43616E646964617405
S11341A46F3A0D0A002D5061727469646F3A0D0AF6
S11341B4000D0A53454E41444F523A0D0A000D0A6C
S11341C4505245534944454E54453A0D0A005552FC
S11341D400444550204645444552414C3A0D0A009A
S11341E4446570204665646572616C3A2020202021
S11341F400202020202020202020202020202020D7
S11342042000436F6E6669726D613F202000536520
S11342146E61646F723A20202020202020200050F8
S11342247265736964656E74653A202020202000E9
S11342342055524E4120424C4F5155454144412052
S113424400413A202020423A5273742E53656E681A
S113425461002053454E484120414C544552414449
S11342644120002020504152412050414452414FAA
S1134274202020004C6F67696E2061646D3A202011
S11342842020202000413A20202020423A202020CF
S113429420433A20200053656E68612061646D3ABE
S11342A42020202020200020202020204D65736120
S11342B472696F202020200020202020696E7661FE
S11342C46C69646F20200020202020202055524E49
S11342D4412020202020200020202020454E43453A
S11342E4525241444120202000312E2045737461F0
S11342F4646F20646F20200020202020536973748D
S1134304656D6120202000322E202020204E6F76FF
S11343146F20202020002020202020456C65697413
S11343246F72202000332E2020436F6E73756C74DB
S113433461202000202020646520486F7261726926
S11343446F2000342E202054726F63612064652032
S1134354200020202020486F726172696F20202081
S113436400352E2020566572696669632E2020006C
S1134374646520436F72726573706F6E642E0036C9
S11343842E2052656C61746F72696F2020002020A6
S1134394646520566F746163616F202000372E209A
S11343A42054726F63612064652020002020202043
S11343B42053656E68612020202000382E2020526E
S11343C4657365746172202020004F504552414347
S11343D4494F4E414C2020200020426C6F7175657A
S11343E461723F2020202000424C4F515545414EDC
S11343F4444F2055524E4120002020202020202EBE
S11344042E2E2020202020202000456C6569746F06
S1134414723A202020202020202000202020202048
S11344242054454D504F20202020200020202020BF
S1134434204553474F5441444F202020002020203E
S113444420202046494D2020202020202000454CB7
S11344544549544F5220494E56414C49444F004813
S11344644F524120415455414C3A202020202000F1
S1134474494E534552495220484F524152494F20C4
S1134484003C20203A20203E2000484F524152490B
S11344944F20414C54455241444F002020434F4D3A
S11344A4205355434553534F2020200056414C4F2D
S11344B45220494E56414C49444F2C200054454EF9
S11344C45445204E4F56414D454E5445200020201E
S11344D4434F4E53495354454E43494120200020F1
S11344E42020202020204F4B20202020202020008A
S11344F4202020202046414C484F552020202020B5
S11345040020202020454E5649414E444F2020206F
S1134514200020202052454C41544F52494F202022
S113452420200020202020454E564941444F20207D
S1134534202020004E6F76612053656E68613A2016
S11345442020202000205265706974612061204E6F
S11345546F76612020002020202053656E6861203E
S113456420202020002054726F636120646520534E
S1134574656E68612000202020204566657475619D
S1134584646120200020202053656E686173204EEE
S1134594616F2020200020202020436F6E66657206
S11345A4656D202000414755415244414E444F20FB
S11345B420202000454E43455252414441202020AE
S11345C4202000303132333700313233373800554C
S10545D4480099
S9030000FC
