:1000000033C000004DC000004BC0000049C00000DC
:1000100047C0000045C0000043C0000041C00000D0
:100020003FC000003DC000003BC0000088C700008A
:1000300037C0000035C0000033C0000031C00000F0
:100040002FC000002DC000002BC0000029C0000000
:1000500027C0000025C0000023C0000021C0000010
:100060001FC000001DC0000011241FBECFEFD8E04C
:10007000DEBFCDBF12E0A0E0B1E0E6EFF0E102C0EC
:1000800005900D92AE35B107D9F722E0AEE5B2E0AA
:1000900001C01D92A336B207E1F71DD30C94790875
:1000A000AFCF85B1877F85B985B18B7F85B985B1A4
:1000B000826085B985B18E7F85B98BB18F7B8BB915
:1000C0008BB180688BB98BB18F778BB98BB180681E
:1000D0008BB98BB18F778BB988E290E09CD68BB1CE
:1000E00080688BB98BB18F778BB985B1886085B902
:1000F0008BB180688BB98BB18F778BB988E290E038
:100100008AC608959BB19F7B9BB995B1977F95B99E
:1001100095B19B7F95B995B19D7F95B995B19E7F1E
:1001200095B99BB190689BB99BB19F779BB995B1ED
:10013000946095B9813021F485B1826085B903C09E
:1001400085B18D7F85B9613021F485B1816085B934
:1001500003C085B18E7F85B98BB180688BB98BB1B7
:100160008F778BB988E290E056C6089595B1977F56
:1001700095B995B19B7F95B995B19D7F95B995B18D
:100180009E7F95B99BB190689BB99BB19F779BB9B6
:1001900095B1986095B9813021F485B1846085B9B5
:1001A00003C085B18B7F85B9613021F485B1826050
:1001B00085B903C085B18D7F85B9413021F485B102
:1001C000816085B903C085B18E7F85B98BB18068A8
:1001D0008BB98BB18F778BB988E290E01CC60895FC
:1001E00090E002C0959587956A95E2F78170089531
:1001F000CF93C82F67E0F4DF813021F485B18860A8
:1002000085B903C085B1877F85B966E08C2FE8DFAB
:10021000813021F485B1846085B903C085B18B7FBD
:1002200085B965E08C2FDCDF813021F485B18260F7
:1002300085B903C085B18D7F85B964E08C2FD0DF8F
:10024000813021F485B1816085B903C085B18E7F8D
:1002500085B98BB180648BB98BB180688BB98BB158
:100260008F778BB963E08C2FBBDF813021F485B1B0
:10027000886085B903C085B1877F85B962E08C2F1E
:10028000AFDF813021F485B1846085B903C085B1C9
:100290008B7F85B961E08C2FA3DF813021F485B19C
:1002A000826085B903C085B18D7F85B960E08C2FF0
:1002B00097DF813021F485B1816085B903C085B1B4
:1002C0008E7F85B98BB180688BB98BB18F778BB9F5
:1002D00088E290E0A0D5CF910895CF93C82F8BB13D
:1002E0008F7B8BB985B1886085B966E08C2F78DF0C
:1002F000813021F485B1846085B903C085B18B7FDD
:1003000085B965E08C2F6CDF813021F485B1826086
:1003100085B903C085B18D7F85B964E08C2F60DF1E
:10032000813021F485B1816085B903C085B18E7FAC
:1003300085B98BB180688BB98BB18F778BB963E04E
:100340008C2F4EDF813021F485B1886085B903C0E0
:1003500085B1877F85B962E08C2F42DF813021F43F
:1003600085B1846085B903C085B18B7F85B961E0B3
:100370008C2F36DF813021F485B1826085B903C0CE
:1003800085B18D7F85B960E08C2F2ADF813021F423
:1003900085B1816085B903C085B18E7F85B98BB188
:1003A00080688BB98BB18F778BB988E290E033D5B9
:1003B000CF910895CF93C82F8BB18F7B8BB985B127
:1003C000877F85B985B1846085B965E08C2F08DFAA
:1003D000813021F485B1826085B903C085B18D7FFC
:1003E00085B964E08C2FFCDE813021F485B1816019
:1003F00085B903C085B18E7F85B98BB180688BB913
:100400008BB18F778BB963E08C2FEADE813021F4DA
:1004100085B1886085B903C085B1877F85B962E001
:100420008C2FDEDE813021F485B1846085B903C074
:1004300085B18B7F85B961E08C2FD2DE813021F4CC
:1004400085B1826085B903C085B18D7F85B960E0D3
:100450008C2FC6DE813021F485B1816085B903C05F
:1004600085B18E7F85B98BB180688BB98BB18F7761
:100470008BB988E290E0CFD4CF9108950F931F936A
:10048000CF93DF938C01623011F080E001C080E4F3
:10049000480F8FEF840F803118F04154403108F439
:1004A0001CDFC0E0D0E002C0A3DE2196F801EC0F13
:1004B000FD1F80818111F8CFDF91CF911F910F91A6
:1004C00008950F931F93CF93DF938C01C0E0D0E08A
:1004D00002C08EDE2196F801EC0FFD1F8081811194
:1004E000F8CFDF91CF911F910F9108950F931F9334
:1004F000CF93DF93CDB7DEB768970FB6F894DEBF22
:100500000FBECDBF88E0E0E0F1E0DE011196019082
:100510000D928A95E1F788E0E8E0F1E0DE011996B6
:1005200001900D928A95E1F788E0E0E1F1E0DE01CB
:10053000519601900D928A95E1F780E43BDF00E04F
:1005400010E00AC0E1E0F0E0EC0FFD1FE00FF11F4A
:1005500080814EDE0F5F1F4F083011059CF300E0D5
:1005600010E00AC0E9E0F0E0EC0FFD1FE00FF11F22
:1005700080813EDE0F5F1F4F083011059CF300E0C5
:1005800010E00AC0E1E1F0E0EC0FFD1FE00FF11F09
:1005900080812EDE0F5F1F4F083011059CF380E035
:1005A0009CDE68960FB6F894DEBF0FBECDBFDF911C
:1005B000CF911F910F91089580E005C025D39FEB47
:1005C000980F923020F081548230C0F780E0089577
:1005D0001BD38234E9F708950F931F93CF93DF93D2
:1005E000CDB7DEB7AC970FB6F894DEBF0FBECDBF68
:1005F000AC018B01FE01319688E0DF011D928A95E6
:10060000E9F785E589838EE48A8385E08B8380E141
:10061000E8E1F1E0DE01199601900D928A95E1F78B
:10062000FE01799684E1DF011D928A95E9F790E059
:1006300010C0292F30E0F9013396DA01A20FB31F61
:100640002C9161E070E06C0F7D1FE60FF71F208397
:100650009F5F953070F3CE010196BBD3CE014996D2
:1006600063D3898D8D3431F58A8D8E3429F541E03F
:1006700020E019C0822F90E0D801A80FB91FFC011B
:10068000339669E170E06C0F7D1FE60FF71F308134
:100690003C93E9E0F0E0EC0FFD1FE80FF91F8081CB
:1006A000381340E02F5F8B8D281720F3442331F05F
:1006B00080E005C08FEF03C08FEF01C081E0AC96F2
:1006C0000FB6F894DEBF0FBECDBFDF91CF911F9163
:1006D0000F9108950895CF93DF93CDB7DEB7C75A32
:1006E000D2400FB6F894DEBF0FBECDBF84B181609B
:1006F00084B984B1826084B984B1846084B984B1DE
:10070000886084B98AB180688AB98AB180648AB9FC
:100710008AB180628AB98AB180618AB98AB18860F7
:100720008AB98AB184608AB987B18E7F87B987B167
:100730008D7F87B987B18B7F87B987B1877F87B96D
:1007400084B1806184B984B1806284B98BB18062E4
:100750008BB98BB180618BB98BB188608BB98BB150
:1007600084608BB988B1816088B988B1826088B9AA
:1007700088B1846088B988B1886088B985B18F7E76
:1007800085B985B18F7D85B98CDC60E081E0BADC0C
:1007900040E060E081E0EADCA9DE97D3ADD2FE0163
:1007A000EE56FD4F85E0DF011D928A95E9F73596FB
:1007B00081E1DF011D928A95E9F7EE24E394FF249D
:1007C000F39480C141E061E088E291E057DE81E08E
:1007D0000FDD81E40DDD41E062E087E391E04EDE74
:1007E00080E006DD82E404DDE7DE823411F4F39478
:1007F000AAC0813409F0A7C084C041E061E086E46A
:1008000091E03CDE81E0F4DC81E4F2DC41E062E096
:1008100085E591E033DE80E0EBDC82E4E9DCCCDEF0
:10082000823411F4F3948FC0813409F08CC06DC010
:1008300041E061E084E691E021DE81E0D9DC81E401
:10084000D7DC41E062E083E791E018DE80E0D0DCB5
:1008500082E4CEDCB1DE823411F4F39474C08134CE
:1008600009F071C057C041E061E082E891E006DE26
:1008700081E0BEDC81E4BCDC41E062E081E991E042
:10088000FDDD80E0B5DC82E4B3DC96DE823411F479
:10089000F39459C0813409F056C042C041E061E090
:1008A00080EA91E0EBDD81E0A3DC81E4A1DC41E0C2
:1008B00062E08FEA91E0E2DD80E09ADC82E498DC9D
:1008C0007BDE823411F4F3943EC0813409F03BC0E6
:1008D0002CC041E061E08EEB91E0D0DD81E088DC6E
:1008E00081E486DC41E062E08DEC91E0C7DD80E0F0
:1008F0007FDC82E47DDC60DE8234E9F0813419F54E
:100900001DC0EE24E394F12C1EC06894EE24E1F89F
:10091000F12C19C00F2EF3E0EF2EF02DF12C13C0A7
:100920006894EE24E2F8F12C0EC00F2EF5E0EF2EC5
:10093000F02DF12C08C0FF24F39405C00F2EF6E033
:10094000EF2EF02DF12CB2E0EB1629F083E0E81643
:1009500009F4A0C0B7C041E061E08CED91E08EDD0C
:1009600041E062E08DEE91E089DD82E4B6DC81E079
:100970003FDC88E4B2DC82E03BDC8EE4AEDC8FE777
:1009800037DC88E0AADC00E03FD1182F813409F081
:100990004EC0053009F04BC0BE0169567D4FCE01F7
:1009A0008E569D4F19DE813059F541E061E0CE0150
:1009B00089569D4F63DD41E062E08EEF91E05EDDA0
:1009C00081E016DC8AE092E07CDD82E011DC82E4EA
:1009D0000FDCF2DD182F813479F4CE0101967ADE36
:1009E000813009F453C0823009F050C080915E021A
:1009F0008F5F80935E024AC0823409F047C03DC0D9
:100A0000811144C041E061E08DE092E037DD41E0DA
:100A100062E08EE192E032DD82E0EADB82E4E8DB54
:100A2000D7DD182FE12C6894FF24F1F82FC0123481
:100A300049F1133451F4DD24DA94D00E87E0800FAD
:100A40004CDC80E2D5DB0D2D21C00530F8F41A32E4
:100A5000E9F01434D9F01332C9F01134B9F088E058
:100A6000800F3BDC812FC4DBE2E9F2E0EC0FFD1FDD
:100A7000E00FF11D10830F5F09C0E12C6894FF2483
:100A8000F1F804C0E12C6894FF24F1F8123409F065
:100A90007BCF18C041E061E08DE292E0EFDC41E005
:100AA00062E08EE192E0EADC82E0A2DB82E4A0DB9D
:100AB0003FD2AAD0823431F43FD2E12C0F2EF3E0A2
:100AC000FF2EF02DA3E0FA1609F4B2CEAF1548F0D0
:100AD000B1E0FB1609F476CE82E0F81609F48DCE6B
:100AE00032CFA5E0FA1609F4D9CEFA1608F4BBCE37
:100AF000B6E0FB1609F4EDCE26CF1F93CF93DF931C
:100B0000C62F8230B1F018F4813031F038C0833014
:100B1000E9F0843041F133C08BB18F7D8BB98BB15B
:100B200080618BB98BB188608BB98BB184608BB9D4
:100B300026C08BB180628BB98BB18F7E8BB98BB1A4
:100B400088608BB98BB184608BB919C08BB180621E
:100B50008BB98BB180618BB98BB1877F8BB98BB12E
:100B600084608BB90CC08BB180628BB98BB1806112
:100B70008BB98BB188608BB98BB18B7F8BB9D0E08F
:100B800010E001C0182F88EE93E045D1C23061F02B
:100B900018F4C13031F016C0C33051F0C43069F0E0
:100BA00011C086B181700FC086B1869581700BC06F
:100BB00086B182FB882780F906C086B183FB88272F
:100BC00080F901C0812F181302C0DF5F01C0D0E09F
:100BD000D730C0F2C23061F018F4C13031F010C02B
:100BE000C33049F0C43051F00BC0309BFECF08C079
:100BF000319BFECF05C0329BFECF02C0339BFECFA0
:100C0000DF91CF911F91089561E081E076DF882325
:100C100009F454C062E081E070DF882309F450C019
:100C200063E081E06ADF882309F44CC064E081E07E
:100C300064DF882309F448C061E082E05EDF882336
:100C400009F444C062E082E058DF882309F440C020
:100C500063E082E052DF882309F43CC064E082E074
:100C60004CDF882309F438C061E083E046DF882345
:100C7000A9F162E083E041DF882391F163E083E042
:100C80003CDF882379F164E083E037DF882361F17A
:100C900061E084E032DF882349F162E084E02DDF07
:100CA000882331F163E084E028DF882319F164E0D0
:100CB00084E023DF8111A8CF84E4089581E30895BF
:100CC00082E3089583E3089581E4089584E3089519
:100CD00085E3089586E3089582E4089587E30895FF
:100CE00088E3089589E3089583E408958AE20895E6
:100CF00080E3089583E2089588E18093C10083E34F
:100D000090E09093C5008093C40008958091C00046
:100D10008823E4F78091C60008958093C6008091EF
:100D2000C00085FFFCCF0895FF920F931F93CF93D0
:100D3000DF93EC01EBDF88838D34E1F78D3409F02C
:100D400041C0E4DF8983893431F0833421F0843574
:100D500011F0823511F41A8236C0863551F4D6DF8F
:100D60008A838F3421F0893411F0883511F41B8285
:100D70002AC08981883459F4C9DF8A83C7DF8B830D
:100D80009A81983120F48C3310F41C821CC0898124
:100D90008E3431F0803521F0833511F0863491F4B2
:100DA000B5DF8A83F12C0AC00F2D10E00D5F1F4FB5
:100DB0000C0F1D1FABDFF8018083F3948A81F816B6
:100DC00098F301C01882DF91CF911F910F91FF908E
:100DD0000895EF92FF920F931F93CF93DF937C01BF
:100DE000FC0101900020E9F731978F01081B190BD6
:100DF000C0E0D0E006C0F701EC0FFD1F80818DDF61
:100E000021960C171D07BCF7DF91CF911F910F9111
:100E1000FF90EF90089514BC8138910580F422E092
:100E200025BDDC0120E034E244EF50E027D120E092
:100E300032E14AE750E006D1219526BD41C09C0130
:100E4000215831092038334080F423E025BDDC01EE
:100E500020E034E244EF50E011D120E030E940EDF1
:100E600053E0F0D0219526BD2BC09C012150344089
:100E700021153C4080F424E025BDDC0120E034E273
:100E800044EF50E0FBD020E030E442E45FE0DAD011
:100E9000219526BD15C09C012150304121153043BC
:100EA00098F425E025BDDC0120E034E244EF50E079
:100EB000E5D020E030E049E05DE3C4D0219526BDD7
:100EC00081E085BBA89BFECF0895109280008CE046
:100ED0008093810083E294EF90938900809388004F
:100EE0001092850010928400EFE6F0E0808182602D
:100EF000808378940895809162028B33A9F4E0E6B0
:100F0000F2E0128281818B3359F411828081873122
:100F100019F41092600208958F5F80936002089523
:100F20008F5F8093610208958F5F809362020895BE
:100F300081E080935F02089510925F0208951F92EE
:100F40000F920FB60F9211242F933F934F935F93FD
:100F50006F937F938F939F93AF93BF93EF93FF9381
:100F6000CF93DF93CDB7DEB72997DEBFCDBFC3DF09
:100F700080915F02882309F44AC0FE01319689E01E
:100F8000DF011D928A95E9F7A0E6B2E08C919DEC15
:100F9000899F212D112426952695269530E3320F21
:100FA0003983220F322F330F330F230F821B805DC3
:100FB0008A834AE34B8311968C911197899F212D47
:100FC000112426952695269530E3320F3C83220F77
:100FD000322F330F330F230F821B805D8D834E839F
:100FE00012962C91299F912D112496959695969560
:100FF00080E3890F8F83990F892F880F880F980FAF
:10100000291B205D288741E062E0CF0137DA82E0CA
:1010100086BB29960FB6F894DEBF0FBECDBFDF9119
:10102000CF91FF91EF91BF91AF919F918F917F9160
:101030006F915F914F913F912F910F900FBE0F9045
:101040001F901895052E97FB16F400940FD057FDAE
:1010500005D01ED007FC02D046F408C0509540953C
:10106000309521953F4F4F4F5F4F08959095809554
:10107000709561957F4F8F4F9F4F08952BD0A59FFF
:10108000900DB49F900DA49F800D911D1124089583
:10109000A1E21A2EAA1BBB1BFD010DC0AA1FBB1F7C
:1010A000EE1FFF1FA217B307E407F50720F0A21BEE
:1010B000B30BE40BF50B661F771F881F991F1A945B
:1010C00069F760957095809590959B01AC01BD0185
:1010D000CF010895A29FB001B39FC001A39F700DDF
:1010E000811D1124911DB29F700D811D1124911D30
:0610F0000895F894FFCF03
:1010F60004040404150E0400000103161C08000075
:101106000E111114121F0204436F6469676F206980
:101116006E76616C69646F00312E2045737461646C
:101126006F20646F2020002020202053697374658F
:101136006D6120202000322E202020204E6F766FF9
:1011460020202020002020202020456C6569746F17
:1011560072202000332E2020436F6E73756C7461ED
:10116600202000202020646520486F726172696F1C
:101176002000342E202054726F6361206465202085
:101186000020202020486F726172696F20202000A5
:10119600352E2020566572696669632E202000640C
:1011A6006520436F72726573706F6E642E00362E03
:1011B6002052656C61746F72696F20200020206474
:1011C6006520566F746163616F202000456C656908
:1011D600746F723A202020202020202000413A20DF
:1011E600202020423A20202020433A202000436F2E
:1011F6006E6669726D613F202000412000454C45B6
:1012060049544F5220494E56414C49444F002020E4
:1012160020202020202020202020202000484F525F
:101226004120415455414C3A20202020200045526F
:10123600524F204E4120434F4D554E49432E0020DC
:0E1246002020202053455249414C20202000FA
:00000001FF
