S017000075726E615F656C6574726F6E6963612E73726563D2
S113000063C000007EC000007CC000007AC0000015
S113001078C0000076C0000074C0000072C0000008
S113002070C000006EC000006CC000000C94A41EE0
S113003068C0000066C0000064C0000062C0000028
S113004060C000005EC000000C940F1D5AC0000088
S113005058C0000056C0000054C0000052C0000048
S113006050C000004EC00000A70DDE0D150E4C0E52
S1130070830EBA0EF10E270F680F740FB010B9106B
S1130080C210CF1019117712DF1216131D13541357
S11300908B13C213F9132F1470144A167C1485148D
S11300A08E149B14E5143F16FF1735183C1872186C
S11300B0A818DE18141949198819601B94199D1978
S11300C0A619B219FB19551B11241FBECFEFD8E096
S11300D0DEBFCDBF15E0A0E0B1E0E8E3FFE302C07E
S11300E005900D92A63BB107D9F725E0A6EBB5E044
S11300F001C01D92AE3BB207E1F70E94080B0C94BD
S11301009A1F7ECFCF92DF92EF92FF92CF93C0E0FF
S113011049C085B1806185B966E771E080E090E00F
S11301200E941D1E85B18F7E85B966E771E080E06F
S113013090E00E941D1E8CEEC80E82E0D81EE11CC9
S1130140F11C03C0C12CD12C760180E9C8168FE5BF
S1130150D80681E0E806F104E4F2C12CD12C760142
S113016018C085B1806185B96CE571E080E090E0EC
S11301700E941D1E85B18F7E85B96CE571E080E01B
S113018090E00E941D1E88EBC80E82E0D81EE11C80
S1130190F11C80E9C8168FE5D80681E0E806F10471
S11301A004F3CF5FC53070F2C12CD12C760118C096
S11301B085B1806185B966E771E080E090E00E94D6
S11301C01D1E85B18F7E85B966E771E080E090E001
S11301D00E941D1E8CEEC80E82E0D81EE11CF11C8C
S11301E080ECC81684EDD80681E0E806F10404F337
S11301F0CF91FF90EF90DF90CF900895CF93DF934E
S1130200EA0190E024C0E62FF72F292F30E0D9012E
S1130210AA0FBB1F2A0F3B1F220F331F220F331FAE
S1130220220F331FE20FF31F3081288132130EC0D7
S11302303181298132130AC02281222361F03A815B
S1130240231304C033812B81321739F09F5F981731
S1130250D0F28FEF03C0892F01C0892FDF91CF9196
S11302600895EF92FF920F931F93CF93DF93EC01C6
S11302708B017A01688179818A81A801BFDF8F3F70
S113028009F041C0888199812A8130E0A901440F95
S1130290551F240F351F220F331F220F331F220F28
S11302A0331F820F931FB70106960E94931F888104
S11302B099812A8130E0A901440F551F240F351F6D
S11302C0220F331F220F331F220F331FB801820F57
S11302D0931F0E94931FE881F9818A8190E09C0119
S11302E0220F331F820F931F880F991F880F991FA6
S11302F0880F991FE80FF91F87898F5F878B8A8181
S11303008F5F8A8313C0E881F98190E09C01220FFA
S1130310331F820F931F880F991F880F991F880F0F
S1130320991FE80FF91F87898F5F878BDF91CF9122
S11303301F910F91FF90EF900895CF93C82FDA018A
S11303400D900020E9F71197CD01841B950B40E037
S11303501FC00696E62FF72F242F30E0D901AA0FED
S1130360BB1F2A0F3B1F220F331F220F331F220FE5
S1130370331FE20FF31F3696DF010D900020E9F7DB
S11303801197AE1BBF0BA80FB91FCD0102964F5F8B
S11303904C17F8F2CF910895CF92DF92EF92FF922B
S11303A00F931F93CF93DF93D62EE72EF82E00E002
S11303B03EC0CD2DDE2D802F90E09C01220F331FF7
S11303C0820F931F880F991F880F991F880F991FF9
S11303D0C80FD91F8F899DEC899F912D1124969563
S11303E0969596950F2EF0E3CF2EF02DC90E990F0A
S11303F0292F220F220F920F891B10E3180F8DEC67
S113040092E00E94ED1C8C2D0E94A01C812F0E9462
S1130410A01C80E20E94A01CCE0106960E94ED1C46
S11304208DE00E94A01C8AE00E94A01C0F5F0F15A3
S113043008F4BFCFDF91CF911F910F91FF90EF9000
S1130440DF90CF9008950F931F93CF93DF93CDB791
S1130450DEB7AE970FB6F894DEBF0FBECDBFAC01CA
S11304608B01FE01319689E0DF011D928A95E9F73F
S113047085E589838EE48A8385E08B8380E1E0E2ED
S1130480F1E0DE011A9601900D928A95E1F7FE01E2
S11304907A9685E1DF011D928A95E9F790E010C014
S11304A0292F30E0F9013396DA01A20FB31F2C9102
S11304B061E070E06C0F7D1FE60FF71F20839F5FE4
S11304C0953070F31986CE0101960E94ED1CCE0181
S11304D04A960E94A71C8A8D8D3431F58B8D8E34FB
S11304E029F541E020E019C0822F90E0D801A80F3F
S11304F0B91FFC0133966AE170E06C0F7D1FE60FB3
S1130500F71F30813C93EAE0F0E0EC0FFD1FE80FA9
S1130510F91F8081381340E02F5F8C8D281720F35A
S1130520442331F080E005C08FEF03C08FEF01C09A
S113053081E0AE960FB6F894DEBF0FBECDBFDF915B
S1130540CF911F910F91089585B1877F85B985B1AA
S11305508B7F85B985B1826085B985B18E7F85B978
S11305608BB18F7B8BB98BB180688BB98BB18F7753
S11305708BB98BB180688BB98BB18F778BB968E2FB
S113058070E080E090E00E941D1E8BB180688BB902
S11305908BB18F778BB985B1886085B98BB1806851
S11305A08BB98BB18F778BB968E270E080E090E013
S11305B00C941D1E08959BB19F7B9BB995B1977FA9
S11305C095B995B19B7F95B995B19D7F95B995B135
S11305D09E7F95B99BB190689BB99BB19F779BB95E
S11305E095B1946095B9813021F485B1826085B963
S11305F003C085B18D7F85B9613021F485B18160F7
S113060085B903C085B18E7F85B98BB180688BB9FC
S11306108BB18F778BB968E270E080E090E00C9446
S11306201D1E089595B1977F95B995B19B7F95B996
S113063095B19D7F95B995B19E7F95B99BB1906811
S11306409BB99BB19F779BB995B1986095B981305F
S113065021F485B1846085B903C085B18B7F85B9E8
S1130660613021F485B1826085B903C085B18D7F85
S113067085B9413021F485B1816085B903C085B164
S11306808E7F85B98BB180688BB98BB18F778BB92D
S113069068E270E080E090E00C941D1E089590E004
S11306A002C0959587956A95E2F781700895CF9376
S11306B0C82F67E0F4DF813021F485B1886085B903
S11306C003C085B1877F85B966E08C2FE8DF813070
S11306D021F485B1846085B903C085B18B7F85B968
S11306E065E08C2FDCDF813021F485B1826085B92F
S11306F003C085B18D7F85B964E08C2FD0DF813054
S113070021F485B1816085B903C085B18E7F85B937
S11307108BB180648BB98BB180688BB98BB18F77C7
S11307208BB963E08C2FBBDF813021F485B1886005
S113073085B903C085B1877F85B962E08C2FAFDFAF
S1130740813021F485B1846085B903C085B18B7F84
S113075085B961E08C2FA3DF813021F485B18260FB
S113076085B903C085B18D7F85B960E08C2F97DF93
S1130770813021F485B1816085B903C085B18E7F54
S113078085B98BB180688BB98BB18F778BB968E2EF
S113079070E080E090E00E941D1ECF910895CF93F9
S11307A0C82F8BB18F7B8BB985B1886085B966E022
S11307B08C2F75DF813021F485B1846085B903C045
S11307C085B18B7F85B965E08C2F69DF813021F499
S11307D085B1826085B903C085B18D7F85B964E038
S11307E08C2F5DDF813021F485B1816085B903C030
S11307F085B18E7F85B98BB180688BB98BB18F77CA
S11308008BB963E08C2F4BDF813021F485B1886094
S113081085B903C085B1877F85B962E08C2F3FDF3E
S1130820813021F485B1846085B903C085B18B7FA3
S113083085B961E08C2F33DF813021F485B182608A
S113084085B903C085B18D7F85B960E08C2F27DF22
S1130850813021F485B1816085B903C085B18E7F73
S113086085B98BB180688BB98BB18F778BB968E20E
S113087070E080E090E00E941D1ECF910895CF9318
S1130880C82F8BB18F7B8BB985B1877F85B985B133
S1130890846085B965E08C2F02DF813021F485B155
S11308A0826085B903C085B18D7F85B964E08C2FE2
S11308B0F6DE813021F485B1816085B903C085B14C
S11308C08E7F85B98BB180688BB98BB18F778BB9EB
S11308D063E08C2FE4DE813021F485B1886085B932
S11308E003C085B1877F85B962E08C2FD8DE813063
S11308F021F485B1846085B903C085B18B7F85B946
S113090061E08C2FCCDE813021F485B1826085B921
S113091003C085B18D7F85B960E08C2FC0DE813046
S113092021F485B1816085B903C085B18E7F85B915
S11309308BB180688BB98BB18F778BB968E270E02B
S113094080E090E00E941D1ECF9108950F931F93A5
S1130950CF93DF938C01623011F080E001C080E41A
S1130960480F8FEF840F803118F04154403108F460
S113097016DFC0E0D0E002C09ADE2196F801EC0F49
S1130980FD1F80818111F8CFDF91CF911F910F91CD
S113099008950F931F93CF93DF938C01C0E0D0E0B1
S11309A002C085DE2196F801EC0FFD1F80818111C4
S11309B0F8CFDF91CF911F910F9108950F931F935B
S11309C0CF93DF93CDB7DEB7A0970FB6F894DEBF11
S11309D00FBECDBF88E0E0E0F1E0DE0111960190AA
S11309E00D928A95E1F788E0E8E0F1E0DE011996DE
S11309F001900D928A95E1F788E0E0E1F1E0DE01F3
S1130A00519601900D928A95E1F788E0E8E1F1E0D2
S1130A10DE01599601900D928A95E1F780E42FDF6B
S1130A2000E010E00AC0E1E0F0E0EC0FFD1FE00F91
S1130A30F11F80813CDE0F5F1F4F083011059CF3CE
S1130A4000E010E00AC0E9E0F0E0EC0FFD1FE00F69
S1130A50F11F80812CDE0F5F1F4F083011059CF3BE
S1130A6000E010E00AC0E1E1F0E0EC0FFD1FE00F50
S1130A70F11F80811CDE0F5F1F4F083011059CF3AE
S1130A8000E010E00AC0E9E1F0E0EC0FFD1FE00F28
S1130A90F11F80810CDE0F5F1F4F083011059CF39E
S1130AA080E07DDEA0960FB6F894DEBF0FBECDBF0A
S1130AB0DF91CF911F910F91089541E061E080E3B0
S1130AC091E044DF41E062E081E491E03FCF0895AA
S1130AD041E062E080E591E039DF82E460DE81E0BC
S1130AE0E6DD8FE45CDE8FE7E2CD08950F931F937C
S1130AF0CF93DF93EC018B0141E061E081E691E06B
S1130B0025DF41E062E082EC92E020DF82E0CFDD8D
S1130B1082E4CDDD0E949D1E0E947A1C0E94A11ECB
S1130B20F801108283E08883DF91CF911F910F91A8
S1130B300895CF92DF92EF92FF920F931F93CF937A
S1130B40DF9300D000D0CDB7DEB76C017B0141E06C
S1130B5061E082E791E0FADE41E062E083E891E05F
S1130B60F5DE8FE7A4DD83E4A2DD80E2A0DD82E090
S1130B709EDD82E49CDD80E29ADD81E098DD81E403
S1130B8096DD19821A821B821C8200E00E94F31BEC
S1130B90182F813409F042C0043009F03FC04B8162
S1130BA050E0405351099C81298130E020533109A0
S1130BB03A81440F642F660F660F460F642F690F46
S1130BC06053220F822F880F880F280F822F830FE4
S1130BD080530E94721E81110BC041E061E08CE8D9
S1130BE091E0B4DE41E062E08DE991E0AFDE0AC05D
S1130BF041E061E08EEA91E0A9DE41E062E08FEB42
S1130C0091E0A4DE60ED77E080E090E00E943A1E7F
S1130C1084E0F6018083F70110823AC0123431F483
S1130C2084E0F6018083F701108232C0133489F422
S1130C30002379F01FEF100F123020F480E4800FAE
S1130C40AEDD03C081E4800FAADD80E230DD012F38
S1130C501FC00430E8F41A32D9F01434C9F0133246
S1130C60B9F01134A9F0133499F0023020F481E47E
S1130C70800F95DD03C082E4800F91DD812F17DDA5
S1130C80E1E0F0E0EC0FFD1FE00FF11D10830F5FBA
S1130C90F7018081843009F479CF0F900F900F9081
S1130CA00F90DF91CF911F910F91FF90EF90DF9004
S1130CB0CF900895EF92FF920F931F93CF93DF93FA
S1130CC08C017B01EA018881833071F08430B1F0BA
S1130CD08230E9F441E061E080ED91E037DE82E0CA
S1130CE0E6DC81E4E4DC13C041E061E08FED91E0F7
S1130CF02DDE82E0DCDC81E4DADC09C041E061E085
S1130D008EEE91E023DE82E0D2DC81E4D0DC41E0AF
S1130D1062E08DEF91E01ADE81E0C9DC82E4C7DC99
S1130D200E94721C8234A9F481E08883F8018083D4
S1130D3041E061E08CE092E009DE41E062E08DE1B7
S1130D4092E004DE68EE73E080E090E00E943A1ED8
S1130D5007C0813429F4F701108281E0F80180830F
S1130D60DF91CF911F910F91FF90EF900895FA01B9
S1130D7021E3208322E3218323E3228327E32383C4
S1130D8028E3248321E0FC012083FB01108241E05D
S1130D9061E08EE292E0DADD41E062E08FE392E02E
S1130DA0D5DD60ED77E080E090E00C943A1E089584
S1130DB05F926F927F928F929F92AF92BF92CF92E7
S1130DC0DF92EF92FF920F931F93CF93DF9300D0A4
S1130DD000D000D0CDB7DEB7762E872E982E622EA7
S1130DE0532ED42EEC82FD820E83C1101EC085E5E5
S1130DF00E94A01C82E50E94A01C80E00E94A01C0E
S1130E0085E10E94A01C80E592E00E94ED1CCE01C9
S1130E1001960E94A71C89818D3409F06BC08A81D8
S1130E20823509F469C08FEF6CC0F82E882339F03D
S1130E3046E652E082DA8C01025F1F4F02C00EE0E8
S1130E4010E0ED2CDD2041F044E752E0662D752DD5
S1130E508D2D73DA080F191F40E852E06C817D81F3
S1130E608E816BDA080F191F4DE852E06A2D7B2D35
S1130E708C2D63DA080F191F8DE992E00E94ED1C96
S1130E80812F0E94A01C802F0E94A01C80EA92E067
S1130E900E94ED1CFF2041F086E692E00E94ED1CCA
S1130EA0672D782D892D78DAEE2041F084E792E0E1
S1130EB00E94ED1C662D752D8D2D6EDA80E892E072
S1130EC00E94ED1C6C817D818E8166DA8DE892E052
S1130ED00E94ED1C6A2D7B2D8C2D5EDACE010196CD
S1130EE00E94A71C89818D3449F48A81823541F09E
S1130EF08FEF07C08FEF05C081E003C08FEF01C003
S1130F0081E026960FB6F894DEBF0FBECDBFDF9109
S1130F10CF911F910F91FF90EF90DF90CF90BF90F2
S1130F20AF909F908F907F906F905F9008959C01F9
S1130F3090E005C0F901E90FF11D10829F5F923026
S1130F40C8F308954F925F927F928F929F92AF92CF
S1130F50BF92CF92DF92EF92FF921F93CF93DF93D2
S1130F60CDB7DEB7C357D1090FB6F894DEBF0FBEB5
S1130F70CDBF5C016B017A012901FE01319685E048
S1130F80DF011D928A95E9F781E13596DF01682F2B
S1130F901D926A95E9F71F8A188E198E7496DF01DF
S1130FA0682F1D926A95E9F71BA61CA61DA67496C8
S1130FB0DF011D928A95E9F781E08093B70585E505
S1130FC00E94A01C89E40E94A01CCE01CF9622E3BB
S1130FD0FC0111922A95E9F70E94A71C8FAD8D346C
S1130FE009F0EBC221968FAD2197893409F0E7C24D
S1130FF041E061E08FEA92E0A9DC6ADDCE01CF96A0
S113100096DF912C0E94F31B182F883009F4D9C263
S11310108FEB810F823008F09FC0113489F4F3E024
S11310209F1629F061E0961611F0911013C089E320
S113103089838A831B821C826894992491F80AC04C
S1131040123441F480E389838A831B821C8268946E
S1131050992491F885E50E94A01C86E40E94A01CB6
S1131060892D0E94A01C72E0971211C08981E2961A
S11310708FAFE2978A81E3968FAFE397E4961FAE32
S1131080E497CE018F589F4F0E94ED1C04C0CE01FF
S113109001960E94ED1CCE01CF960E94A71C8FAD35
S11310A08D3409F053C021968FAD2197863409F011
S11310B04FC0DE01AE5BBF4FFD0101900020E9F798
S11310C031974E2F4A1B20E013C0822F90E0FC0181
S11310D03396AFE3B0E0AC0FBD1FEA0FFB1F3081C6
S11310E0E6E0F0E0EC0FFD1FE80FF91F30832F5FFF
S11310F0421758F741E061E080EC92E027DC41E0E0
S113110061E0CE01069622DC41E062E081ED92E0EE
S11311101DDC81E0CCDA8DE093E03BDC82E0C7DAD1
S113112082E4C5DA0E94721C182F883099F0823448
S113113009F043C041E061E08FEA92E007DCC8DCDB
S1131140CE01CF96F4DE912C10E037C08FEF4AC267
S11311508FEF48C288E046C2133499F4992089F08D
S113116077247A94790CE1E0F0E0EC0FFD1FE70DB1
S1131170F11D10828BE0890D12DB80E298DA972C46
S11311801CC01332D1F01A32C1F01434B1F012344D
S1131190A1F0133491F0113481F0B3E0B91568F083
S11311A08CE0890DFCDAE1E0F0E0EC0FFD1FE90DC5
S11311B0F11D10839394812F7ADA8FEB810F8230A3
S11311C008F020CF41E061E08DED92E0BFDB80DCF0
S11311D0CE01CF96ACDE912C0E94F31B882EE8E062
S11311E08E1709F4F0C18FEB880D823008F080C0AF
S11311F0F1E48F120AC061E0691538F089E38F8B3E
S1131200888F6894992491F809C072E4871206C003
S113121080E38F8B888F6894992491F885E50E94E8
S1131220A01C83E50E94A01C892D0E94A01CCE0155
S113123047960E94ED1CCE01CF960E94A71C8FAD4D
S11312408D3409F0C2C121968FAD2197833509F001
S1131250BEC1DE01AE5BBF4FFD0101900020E9F786
S113126031974E2F4A1B20E013C0822F90E0FC01DF
S11312703396AFE3B0E0AC0FBD1FEA0FFB1F308124
S1131280EAE1F0E0EC0FFD1FE80FF91F30832F5F58
S1131290421758F741E061E080EC92E057DB41E00F
S11312A061E0CE014A9652DB41E062E081ED92E0DA
S11312B04DDB81E0FCD98DE093E06BDB82E0F7D974
S11312C082E4F5D90E94721C882EB8E08B1709F4C9
S11312D080C1E2E48E1344C041E061E08DED92E010
S11312E035DBF6DBCE01CF9622DE912C812C38C083
S11312F0F3E48F1213C0992089F077247A94790C3F
S1131300E7E1F0E0EC0FFD1FE70DF11D108287E02F
S1131310890D45DA80E2CBD9972C22C063E2861688
S1131320F9F07AE28716E1F084E48816C9F092E4D1
S11313308916B1F0A3E48A1699F0B1E48B1681F012
S1131340E1E0E91568F088E0890D29DAE7E1F0E0E9
S1131350EC0FFD1FE90DF11D80829394882DA7D910
S11313608FEB880D823008F037CF41E061E08EEEDC
S113137092E0ECDAADDBCE01CF96D9DD912C0E9460
S1131380F31B882EF8E08F1709F425C18FEB880D25
S1131390823008F080C061E486120AC071E07915D9
S11313A038F089E38BA78CA76894992491F809C035
S11313B082E4881206C080E38BA78CA768949924E2
S11313C091F885E50E94A01C80E50E94A01C892D4F
S11313D00E94A01CCE018B960E94ED1CCE01CF96DC
S11313E00E94A71C8FAD8D3409F0F7C021968FADF4
S11313F02197803509F0F3C0DE01AE5BBF4FFD01DC
S113140001900020E9F731974E2F4A1B20E013C0CA
S1131410822F90E0FC013396AFE3B0E0AC0FBD1F28
S1131420EA0FFB1F3081EEE2F0E0EC0FFD1FE80F46
S1131430F91F30832F5F421758F741E061E080ECD9
S113144092E084DA41E061E0CE018E967FDA41E0F9
S113145062E081ED92E07ADA81E029D98DE093E0CF
S113146098DA82E024D982E422D90E94721C882E60
S1131470B8E08B1709F4B5C0E2E48E1344C041E030
S113148061E08EEE92E062DA23DBCE01CF964FDD8F
S1131490912C812C38C0F3E48F1213C0992089F069
S11314A077247A94790CEBE2F0E0EC0FFD1FE70D62
S11314B0F11D10828AE0890D72D980E2F8D8972C48
S11314C022C063E28616F9F07AE28716E1F084E43A
S11314D08816C9F092E48916B1F0A3E48A1699F04B
S11314E0B1E48B1681F0E1E0E91568F08BE0890D39
S11314F056D9EBE2F0E0EC0FFD1FE90DF11D8082FF
S11315009394882DD4D88FEB880D823008F037CF90
S1131510CE01CF960CDD85E50E94A01C83E40E94D9
S1131520A01CCE01CF960E94A71C8FAD8D3429F448
S113153021968FAD2197833419F0BFDA8FEF52C013
S1131540DE011196FD0101900020E9F73197EA1BB5
S1131550FB0B349759F08981803319F49A819033C5
S113156029F0893369F48A81893351F4AE014A5FE1
S11315705F4FBE016F5F7F4FC5010E94310109C0FB
S1131580AE014A5F5F4FBE016F5F7F4FC6010E948D
S11315903101AE01465E5F4FBE01695E7F4FC701F8
S11315A00E943101AE01425D5F4FBE01655D7F4F18
S11315B0C2010E94310182E015C08FEF13C08FEF8A
S11315C011C088E00FC088E00DC08FEF0BC08FEF13
S11315D009C088E007C088E005C08FEF03C08FEF23
S11315E001C088E0CD58DF4F0FB6F894DEBF0FBEC0
S11315F0CDBFDF91CF911F91FF90EF90DF90CF90FF
S1131600BF90AF909F908F907F905F904F90089580
S1131610CF93DF93CDB7DEB7C855D2400FB6F89459
S1131620DEBF0FBECDBF84B1816084B984B1826056
S113163084B984B1846084B984B1886084B98AB17E
S113164080688AB98AB180648AB98AB180628AB9A9
S11316508AB180618AB98AB188608AB98AB18460A2
S11316608AB987B18E7F87B987B18D7F87B987B1F2
S11316708B7F87B987B1877F87B984B1806184B94B
S113168084B1806284B98BB180628BB98BB1806183
S11316908BB98BB188608BB98BB184608BB988B1FD
S11316A0816088B988B1826088B988B1846088B95A
S11316B088B1886088B985B18F7E85B985B18F7D01
S11316C085B90E94A40260E081E00E94DB0240E050
S11316D060E081E00E94120371D90E945C1E0E94A6
S11316E0801C9E012F5F3F4F88EAD9011D928A9585
S11316F0E9F7CE0187559F4F48E7FC0111924A95BF
S1131700E9F7DE01AF5DBE4F40E9FD0111924A9554
S1131710E9F7BE016F547E4F40E6FB0111924A95F2
S1131720E9F7CF5EDD4F39832883C151D240CD5EC6
S1131730DD4F1882C351D240CC5EDD4F998388833C
S1131740C451D240CA5EDD4F1882C651D240C95E30
S1131750DD4FB983A883C751D240C75EDD4F1882DD
S1131760C951D240C65EDD4F79836883CA51D240E5
S1131770C45EDD4F1882CC51D24082E0C35EDD4F9F
S11317808883CD51D24081E0C25EDD4F8883CE5143
S1131790D240C15EDD4F1882CF51D240FE01E05EDF
S11317A0FD4F86E0DF01982F1D929A95E9F7369652
S11317B091E1DF011D929A95E9F77196DF01982F67
S11317C01D929A95E9F73696DF011D928A95E9F7FD
S11317D086E0E3E7F5E0DE01AD5BBD4F01900D92DD
S11317E08A95E1F786E0E9E7F5E0DE01A75BBD4F06
S11317F001900D928A95E1F7D12C912C8EC1C25E95
S1131800DD4F8881CE51D240823061F1833009F4BA
S113181093C0813009F042C141E061E08FEF92E072
S113182095D841E062E080E193E090D882E40E94A0
S1131830CF0383E00E9457030E94721C813439F461
S113184082E0C25EDD4F8883CE51D24027C1AE0113
S1131850475B5D4FBE01615E7D4FCE01825E9D4F51
S113186086DA1CC141E061E081E293E06FD841E097
S113187062E082E393E06AD882E40E94CF0381E0CD
S11318800E94570388E40E94CF0382E00E9457031A
S11318908EE40E94CF038FE70E94570388E00E94E2
S11318A0CF0300E00E94F31B182F813449F4053064
S11318B039F483E0C25EDD4F8883CE51D24033C019
S11318C0123439F481E0C25EDD4F8883CE51D240B8
S11318D02AC0133469F4002359F01FEF100F89E074
S11318E0800F0E94CF0380E20E945703012F1BC088
S11318F00530C8F41A32B9F01434A9F0133299F04F
S1131900113489F0133479F08AE0800F0E94CF03F8
S1131910812F0E945703EDE3F2E0EC0FFD1FE00F6F
S1131920F11D10830F5FC25EDD4F8881CE51D2401E
S1131930823009F4B7CFB2C041E061E083E493E0C0
S113194005D841E062E082E393E000D882E40E949B
S1131950CF0381E00E94570388E40E94CF0382E012
S11319600E9457038EE40E94CF038FE70E9457031F
S113197088E00E94CF0300E00E94F31B182F8134FB
S113198009F051C0053009F04EC025C0282F30E0C1
S1131990EDE3F2E0EC0FFD1FE20FF31F4081E3E4FF
S11319A0F2E0EC0FFD1FE20FF31F9081491311C009
S11319B0E7E3F2E0EC0FFD1FE20FF31F4081E9E4DF
S11319C0F2E0EC0FFD1FE20FF31F9081491301C0F9
S11319D05F5F8F5F02C050E080E08530B8F281E045
S11319E0C25EDD4F8883CE51D240553039F482E057
S11319F0C35EDD4F8883CD51D24048C041E061E0F1
S1131A0084E593E00E94A60441E062E085E693E069
S1131A100E94A60482E00E94570382E40E945703B6
S1131A200E947A1C33C0123439F481E0C25EDD4F67
S1131A308883CE51D2402AC0133469F4002359F06C
S1131A401FEF100F89E0800F0E94CF0380E20E94F5
S1131A505703012F1BC00530C8F41A32B9F01434EF
S1131A60A9F0133299F0113489F0133479F08AE033
S1131A70800F0E94CF038AE20E945703E7E3F2E05B
S1131A80EC0FFD1FE00FF11D10830F5FC25EDD4FF1
S1131A908881CE51D240833009F46ECF8091BB054A
S1131AA0883070F4C35EDD4F8881CD51D2408130DF
S1131AB0A1F183E0C35EDD4F8883CD51D2402DC0B8
S1131AC0823130F4813149F58091BC058F3028F1A1
S1131AD084E0C35EDD4F8883CD51D24041E061E0B4
S1131AE084E793E00E94A60441E062E085E893E085
S1131AF00E94A60460ED77E080E090E00E943A1E28
S1131B0081E0C25EDD4F8883CE51D240C15EDD4F9D
S1131B101882CF51D240DD24D394C35EDD4F888137
S1131B20CD51D240813009F030C569CEC25EDD4F5F
S1131B30E881CE51D2408E2F90E0FC013197E830FD
S1131B40F10508F0B4C1EC5CFF4F0C946B1F41E04D
S1131B5061E086E993E00E94A60481E00E945703B5
S1131B6081E40E94570341E062E085EA93E00E9429
S1131B70A60480E00E94570382E40E9457030E9457
S1131B80721C823461F4C25EDD4F8881CE51D24032
S1131B908F5FC25EDD4F8883CE51D24088C18134CD
S1131BA009F085C181E0C15EDD4F8883CF51D24009
S1131BB0C25EDD4F1882CE51D24079C141E061E06E
S1131BC084EB93E00E94A60481E00E94570381E421
S1131BD00E94570341E062E083EC93E00E94A60474
S1131BE080E00E94570382E40E9457030E94721C03
S1131BF0823461F4C25EDD4F8881CE51D2408F5F62
S1131C00C25EDD4F8883CE51D24051C1813409F088
S1131C104EC182E0C15EDD4F8883CF51D240C25EA7
S1131C20DD4F1882CE51D24042C141E061E082EDE5
S1131C3093E00E94A60481E00E94570381E40E947D
S1131C40570341E062E081EE93E00E94A60480E045
S1131C500E94570382E40E9457030E94721C82343C
S1131C6061F4C25EDD4F8881CE51D2408F5FC25E87
S1131C70DD4F8883CE51D2401AC1813409F017C197
S1131C8083E0C15EDD4F8883CF51D240C25EDD4F19
S1131C901882CE51D2400BC141E061E080EF93E065
S1131CA00E94A60481E00E94570381E40E94570326
S1131CB041E062E08FEF93E00E94A60480E00E947E
S1131CC0570382E40E9457030E94721C823461F419
S1131CD0C25EDD4F8881CE51D2408F5FC25EDD4F40
S1131CE08883CE51D240E3C0813409F0E0C084E05F
S1131CF0C15EDD4F8883CF51D240C25EDD4F188272
S1131D00CE51D240D4C041E061E08EE094E00E9424
S1131D10A60481E00E94570381E40E94570341E036
S1131D2062E08DE194E00E94A60480E00E945703E3
S1131D3082E40E9457030E94721C823461F4C25EE2
S1131D40DD4F8881CE51D2408F5FC25EDD4F8883E4
S1131D50CE51D240ACC0813409F0A9C085E0C15E47
S1131D60DD4F8883CF51D240C25EDD4F1882CE5101
S1131D70D2409DC041E061E08CE294E00E94A60460
S1131D8081E00E94570381E40E94570341E062E02E
S1131D908BE394E00E94A60480E00E94570382E44F
S1131DA00E9457030E94721C823461F4C25EDD4FAC
S1131DB08881CE51D2408F5FC25EDD4F8883CE5181
S1131DC0D24075C0813409F072C086E0C15EDD4F37
S1131DD08883CF51D240C25EDD4F1882CE51D240AB
S1131DE066C041E061E08AE494E00E94A60481E0D8
S1131DF00E94570381E40E94570341E062E089E5B1
S1131E0094E00E94A60480E00E94570382E40E94AA
S1131E1057030E94721C823461F4C25EDD4F8881D4
S1131E20CE51D2408F5FC25EDD4F8883CE51D24007
S1131E303EC08134E1F587E0C15EDD4F8883CF5138
S1131E40D240C25EDD4F1882CE51D24030C041E054
S1131E5061E088E694E00E94A60481E00E945703B2
S1131E6081E40E94570341E062E089E594E00E9426
S1131E70A60480E00E94570382E40E9457030E9454
S1131E80721C823439F481E0C25EDD4F8883CE5106
S1131E90D2400DC0813459F488E0C15EDD4F88839F
S1131EA0CF51D240C25EDD4F1882CE51D240C15EC6
S1131EB0DD4FE881CF51D2408E2F90E0FC01319765
S1131EC0E830F10508F01EC3E45CFF4F0C946B1F6F
S1131ED0AE01435E5D4FBE01615E7D4FCE01825E09
S1131EE09D4F0E945A060EC341E061E087E794E0EB
S1131EF00E94A60441E062E082E393E00E94A6040B
S1131F0082E40E94CF0381E00E94570388E40E9488
S1131F10CF0382E00E9457038EE40E94CF038FE731
S1131F200E94570388E00E94CF0300E00E94F31B45
S1131F30182F813409F0D7C0053009F0D4C0492DD9
S1131F40BE016A5D7D4FCE01805E9D4F0E942302DB
S1131F50813009F0A5C041E061E0CE018A5D9D4F6A
S1131F600E94A60441E062E081ED92E00E94A60492
S1131F7081E00E9457038DE093E00E94C90482E04F
S1131F800E94570382E40E9457030E94721C182F78
S1131F90813409F076C09E012F5E3D4FAE014C5E48
S1131FA05D4FBE01665E7D4FCE01895E9D4F0E94EE
S1131FB0A207883071F588E894E00E94ED1C0E9425
S1131FC08F1C182F0E948F1C1D3411F4843519F0B6
S1131FD00E945D05FFCF41E061E08BE894E00E9440
S1131FE0A60441E062E08CE994E00E94A60460ED5E
S1131FF077E080E090E00E943A1EC15EDD4F1882D7
S1132000CF51D24082E0C25EDD4F8883CE51D240B0
S113201079C2823009F0A0C002C08F5F01C080E0A5
S11320208630D8F386E001C08F5F8131E8F3939462
S113203041E061E08DEA94E00E94A60441E062E0A0
S113204080EC92E00E94A6041092B80585B18F7DC1
S113205085B91092B7051092B6050E94820064ED0E
S113206073E080E090E00E943A1EC15EDD4F18826A
S1132070CF51D24082E0C25EDD4F8883CE51D24040
S113208041C2823409F068C0C15EDD4F1882CF516D
S1132090D24082E0C25EDD4F8883CE51D2405CC024
S11320A081115AC041E061E08EEB94E00E94A604E5
S11320B041E062E082EC92E00E94A60482E00E9489
S11320C0570382E40E9457030E947A1C182FC15EB2
S11320D0DD4F1882CF51D24082E0C25EDD4F88834B
S11320E0CE51D24039C0123461F4C15EDD4F188242
S11320F0CF51D24082E0C25EDD4F8883CE51D240C0
S11321002BC0133471F4002361F0FF24FA94F00E11
S113211087E0800F0E94CF0380E20E9457030F2DB7
S11321201BC00530C8F41A32B9F01434A9F01332C4
S113213099F0113489F0133479F088E0800F0E940B
S1132140CF03812F0E945703E0E2F2E0EC0FFD1F62
S1132150E00FF11D10830F5F123409F0E7CED2C1F6
S1132160BE01615E7D4FCE01825E9D4F0E94760569
S1132170C9C1BE01615E7D4FCE01825E9D4F0E944A
S11321809905C0C1292DAE01435E5D4FBE01615E5C
S11321907D4FCE01825E9D4F0E944F1DB3C141E031
S11321A061E08FEC94E00E94A60441E062E08DE1DE
S11321B092E00E94A604CF5EDD4FA880B980CA8059
S11321C0C151D240CC5EDD4FE880F9800A81C45110
S11321D0D240C65EDD4F288139814A81CA51D2403E
S11321E0C95EDD4F688179818A81C751D2400E94DE
S11321F0D806813091F441E061E080EE94E00E94E1
S1132200A60441E062E081EF94E00E94A60460ED40
S113221077E080E090E00E943A1EC15EDD4F1882B4
S1132220CF51D24086E0C25EDD4F8883CE51D2408A
S113223069C1FE01EC5AFD4F85E0DF01982F1D9224
S11322409A95E9F73597DF011D928A95E9F741E000
S113225061E082E095E00E94A60441E062E082E34E
S113226093E00E94A60482E40E94CF0381E00E94CE
S1132270570388E40E94CF0382E00E9457038EE450
S11322800E94CF038FE70E94570301E0F12C0E94C4
S1132290F31B182F813419F4B5E0FB16A9F112349D
S11322A039F4C15EDD4F1882CF51D24003E02DC016
S11322B0133469F4FF2059F01FEF1F0D8AE08F0DCE
S11322C00E94CF0380E20E945703F12E1EC0E4E077
S11322D0EF15D8F01A32C9F01434B9F01332A9F05A
S11322E0113499F0133489F08BE08F0D0E94CF03E1
S11322F08AE20E945703E4E5F2E0EC0FFD1FEF0DC4
S1132300F11D1083F39401C002E0013009F4BFCF42
S1132310033009F4E0C041E061E083E195E00E940C
S1132320A60441E062E084E295E00E94A60480E015
S11323300E94570381E40E9457030E94721C41E0EB
S113234061E082E095E00E94A60441E062E082E35D
S113235093E00E94A60482E40E94CF0381E00E94DD
S1132360570388E40E94CF0382E00E9457038EE45F
S11323700E94CF038FE70E945703F12C0E94F31BA6
S1132380182F813409F069C0F5E0FF1266C015C04A
S1132390822F90E0E4E5F2E0EC0FFD1FE80FF91F57
S11323A03081EFE4F2E0EC0FFD1FE80FF91F8081AC
S11323B0381301C04F5F2F5F02C020E040E025309A
S11323C038F387E0C25EDD4F8883CE51D24045307A
S11323D049F512C0822F90E0E4E5F2E0EC0FFD1F16
S11323E0E80FF91F3081E7E3F2E0EC0FFD1FE80F7F
S11323F0F91F30832F5F01C020E0253058F341E0FE
S113240061E083E395E00E94A60441E062E084E495
S113241095E00E94A60482E00E94570382E40E9491
S1132420570312C041E061E083E595E00E94A604F1
S113243041E062E084E695E00E94A60482E00E9406
S1132440570382E40E9457030E947A1CC15EDD4F49
S11324501882CF51D24003E03AC0123469F4C15E0D
S1132460DD4F1882CF51D24087E0C25EDD4F8883B2
S1132470CE51D24003E02BC0133469F4FF2059F04D
S11324801FEF1F0D8AE08F0D0E94CF0380E20E9490
S11324905703F12E1CC084E08F15C8F01A32B9F02E
S11324A01434A9F0133299F0113489F0133479F00B
S11324B08BE08F0D0E94CF038AE20E945703EFE462
S11324C0F2E0EC0FFD1FEF0DF11D1083F3940230C9
S11324D009F454CF17C0C15EDD4F1882CF51D240EA
S11324E087E0C25EDD4F8883CE51D2400BC0AE017F
S11324F0475B5D4FBE01615E7D4FCE01825E9D4FA5
S11325000E94B7068091BB05883070F4C35EDD4F2E
S11325108881CD51D2408130C1F183E0C35EDD4F6B
S11325208883CD51D24031C0292D30E0213231058C
S113253044F4823130F4813141F58091BC058F300F
S113254020F184E0C35EDD4F8883CD51D24041E069
S113255061E084E793E00E94A60441E062E085E83C
S113256093E00E94A60460ED77E080E090E00E9492
S11325703A1E81E0C25EDD4F8883CE51D240C15EF7
S1132580DD4F1882CF51D240D12CC35EDD4F8881FC
S1132590CD51D240823009F4C9CAC6C3C25EDD4FF0
S11325A02881CE51D240822F90E0FC013197E8304F
S11325B0F10508F084C1EC5BFF4F0C946B1F41E004
S11325C061E086E993E00E94A60481E00E9457033B
S11325D081E40E94570341E062E085EA93E00E94AF
S11325E0A60480E00E94570382E40E9457030E94DD
S11325F0721C823461F4C25EDD4F8881CE51D240B8
S11326008E5FC25EDD4F8883CE51D24058C1813483
S113261009F055C181E0C15EDD4F8883CF51D240BE
S1132620C25EDD4F1882CE51D24049C12F5FC25ED7
S1132630DD4F2883CE51D24042C141E061E082EDBA
S113264093E00E94A60481E00E94570381E40E9463
S1132650570341E062E081EE93E00E94A60480E02B
S11326600E94570382E40E9457030E94721C823422
S113267061F4C25EDD4F8881CE51D2408F5FC25E6D
S1132680DD4F8883CE51D2401AC1813409F017C17D
S113269083E0C15EDD4F8883CF51D240C25EDD4FFF
S11326A01882CE51D2400BC141E061E080EF93E04B
S11326B00E94A60481E00E94570381E40E9457030C
S11326C041E062E08FEF93E00E94A60480E00E9464
S11326D0570382E40E9457030E94721C823461F4FF
S11326E0C25EDD4F8881CE51D2408F5FC25EDD4F26
S11326F08883CE51D240E3C0813409F0E0C084E045
S1132700C15EDD4F8883CF51D240C25EDD4F188257
S1132710CE51D240D4C041E061E08EE094E00E940A
S1132720A60481E00E94570381E40E94570341E01C
S113273062E08DE194E00E94A60480E00E945703C9
S113274082E40E9457030E94721C823461F4C25EC8
S1132750DD4F8881CE51D2408F5FC25EDD4F8883CA
S1132760CE51D240ACC0813409F0A9C085E0C15E2D
S1132770DD4F8883CF51D240C25EDD4F1882CE51E7
S1132780D2409DC041E061E08CE294E00E94A60446
S113279081E00E94570381E40E94570341E062E014
S11327A08BE394E00E94A60480E00E94570382E435
S11327B00E9457030E94721C823461F4C25EDD4F92
S11327C08881CE51D2408F5FC25EDD4F8883CE5167
S11327D0D24075C0813409F072C086E0C15EDD4F1D
S11327E08883CF51D240C25EDD4F1882CE51D24091
S11327F066C041E061E08AE494E00E94A60481E0BE
S11328000E94570381E40E94570341E062E089E596
S113281094E00E94A60480E00E94570382E40E9490
S113282057030E94721C823461F4C25EDD4F8881BA
S1132830CE51D2408F5FC25EDD4F8883CE51D240ED
S11328403EC08134E1F587E0C15EDD4F8883CF511E
S1132850D240C25EDD4F1882CE51D24030C041E03A
S113286061E088E694E00E94A60481E00E94570398
S113287081E40E94570341E062E089E594E00E940C
S1132880A60480E00E94570382E40E9457030E943A
S1132890721C823439F481E0C25EDD4F8883CE51EC
S11328A0D2400DC0813459F488E0C15EDD4F888385
S11328B0CF51D240C25EDD4F1882CE51D240C15EAC
S11328C0DD4FE881CF51D2408E2F90E0FC0131974B
S11328D0E830F10508F0DEC1E45BFF4F0C946B1F98
S11328E0AE01435E5D4FBE01615E7D4FCE01825EEF
S11328F09D4F0E945A06CEC1BE01615E7D4FCE013E
S1132900825E9D4F0E947605C5C1BE01615E7D4F0A
S1132910CE01825E9D4F0E949905BCC1292DAE0156
S1132920435E5D4FBE01615E7D4FCE01825E9D4F71
S11329300E944F1DAFC141E061E08FEC94E00E9422
S1132940A60441E062E08DE192E00E94A604CF5E1D
S1132950DD4FA880B980CA80C151D240CC5EDD4F22
S1132960E880F9800A81C451D240C65EDD4F2881D7
S113297039814A81CA51D240C95EDD4F688179816B
S11329808A81C751D2400E94D806813091F441E037
S113299061E080EE94E00E94A60441E062E081EFF1
S11329A094E00E94A60460ED77E080E090E00E944D
S11329B03A1EC15EDD4F1882CF51D24086E0C25E1E
S11329C0DD4F8883CE51D24065C1FE01EC5AFD4FE4
S11329D085E0DF01982F1D929A95E9F73597DF017D
S11329E01D928A95E9F741E061E082E095E00E945A
S11329F0A60441E062E082E393E00E94A60482E43C
S1132A000E94CF0381E00E94570388E40E94CF0311
S1132A1082E00E9457038EE40E94CF038FE70E9456
S1132A20570301E0F12CDFD6182F813419F4B5E0F7
S1132A30FB16A9F1123439F4C15EDD4F1882CF516F
S1132A40D24003E02DC0133469F4FF2059F01FEF86
S1132A501F0D8AE08F0D0E94CF0380E20E9457036E
S1132A60F12E1EC0E4E0EF15D8F01A32C9F0143488
S1132A70B9F01332A9F0113499F0133489F08BE0D2
S1132A808F0D0E94CF038AE20E945703E4E5F2E02F
S1132A90EC0FFD1FEF0DF11D1083F39401C002E054
S1132AA0013009F4C0CF033009F4DDC041E061E036
S1132AB083E195E00E94A60441E062E084E295E0AF
S1132AC00E94A60480E00E94570381E40E945703F9
S1132AD009D741E061E082E095E00E94A60441E06C
S1132AE062E082E393E00E94A60482E40E94CF03A2
S1132AF081E00E94570388E40E94CF0382E00E9491
S1132B0057038EE40E94CF038FE70E945703F12CF2
S1132B106AD6182F813409F068C0F5E0FF1265C049
S1132B2015C0822F90E0E4E5F2E0EC0FFD1FE80F02
S1132B30F91F3081EFE4F2E0EC0FFD1FE80FF91FFD
S1132B408081381301C04F5F2F5F02C020E040E056
S1132B50253038F387E0C25EDD4F8883CE51D24002
S1132B60453049F512C0822F90E0E4E5F2E0EC0F25
S1132B70FD1FE80FF91F3081E7E3F2E0EC0FFD1FC2
S1132B80E80FF91F30832F5F01C020E0253058F390
S1132B9041E061E083E395E00E94A60441E062E045
S1132BA084E495E00E94A60482E00E94570382E434
S1132BB00E94570312C041E061E083E595E00E9462
S1132BC0A60441E062E084E695E00E94A60482E067
S1132BD00E94570382E40E9457038CD6C15EDD4FE6
S1132BE01882CF51D24003E03AC0123469F4C15E76
S1132BF0DD4F1882CF51D24087E0C25EDD4F88831B
S1132C00CE51D24003E02BC0133469F4FF2059F0B5
S1132C101FEF1F0D8AE08F0D0E94CF0380E20E94F8
S1132C205703F12E1CC084E08F15C8F01A32B9F096
S1132C301434A9F0133299F0113489F0133479F073
S1132C408BE08F0D0E94CF038AE20E945703EFE4CA
S1132C50F2E0EC0FFD1FEF0DF11D1083F394023031
S1132C6009F456CF17C0C15EDD4F1882CF51D24050
S1132C7087E0C25EDD4F8883CE51D2400BC0AE01E7
S1132C80475B5D4FBE01615E7D4FCE01825E9D4F0D
S1132C900E94B7068091BB058830B0F0813130F0D6
S1132CA0813191F49091BC059F3070F4C35EDD4F87
S1132CB08881CD51D2408130B9F182E0C35EDD4FCD
S1132CC08883CD51D24030C0292D30E021323105E6
S1132CD044F4823130F4813139F58091BC058F3070
S1132CE018F184E0C35EDD4F8883CD51D24041E0CA
S1132CF061E084E793E00E94A60441E062E085E895
S1132D0093E00E94A60460ED77E080E090E0B2D703
S1132D1081E0C25EDD4F8883CE51D240C15EDD4F7B
S1132D201882CF51D240D12CC35EDD4F8881CD5162
S1132D30D240833009F432CCC3C4DD2009F44FC13E
S1132D40C25EDD4F8881CE51D240823071F1833032
S1132D5009F496C0813009F0B3C441E061E08FEF1B
S1132D6092E00E94A60441E062E080E193E00E94C8
S1132D70A60482E40E94CF0383E00E945703B2D5E5
S1132D80813439F482E0C25EDD4F8883CE51D24073
S1132D9097C4AE01475B5D4FBE01615E7D4FCE01BE
S1132DA0825E9D4F0E94B7068BC441E061E081E2E0
S1132DB093E00E94A60441E062E082E393E00E9473
S1132DC0A60482E40E94CF0381E00E94570388E4B2
S1132DD00E94CF0382E00E9457038EE40E94CF0337
S1132DE08FE70E94570388E00E94CF0300E0FBD4E2
S1132DF0182F813449F4053039F483E0C25EDD4F85
S1132E008883CE51D24033C0123439F481E0C25E9B
S1132E10DD4F8883CE51D2402AC0133469F4002395
S1132E2059F01FEF100F89E0800F0E94CF0380E25A
S1132E300E945703012F1BC00530C8F41A32B9F0A1
S1132E401434A9F0133299F0113489F0133479F061
S1132E508AE0800F0E94CF03812F0E945703EDE385
S1132E60F2E0EC0FFD1FE00FF11D10830F5FC25E57
S1132E70DD4F8881CE51D240823009F4B8CF20C4CE
S1132E8041E061E083E493E00E94A60441E062E053
S1132E9082E393E00E94A60482E40E94CF0381E0CF
S1132EA00E94570388E40E94CF0382E00E945703E4
S1132EB08EE40E94CF038FE70E94570388E00E94AC
S1132EC0CF0300E090D4182F813409F04AC00530B4
S1132ED009F047C025C0282F30E0EDE3F2E0EC0F05
S1132EE0FD1FE20FF31F4081E3E4F2E0EC0FFD1F4E
S1132EF0E20FF31F9081491311C0E7E3F2E0EC0FF6
S1132F00FD1FE20FF31F4081E9E4F2E0EC0FFD1F27
S1132F10E20FF31F9081491301C05F5F8F5F02C00E
S1132F2050E080E08530B8F281E0C25EDD4F8883F6
S1132F30CE51D240553009F448C041E061E084E507
S1132F4093E00E94A60441E062E085E693E00E94DB
S1132F50A60482E00E94570382E40E945703CAD465
S1132F6035C0123439F481E0C25EDD4F8883CE511E
S1132F70D2402CC0133469F4002359F01FEF100F12
S1132F8089E0800F0E94CF0380E20E945703012F43
S1132F901DC00530D8F41A32C9F01434B9F0133214
S1132FA0A9F0113499F0133489F08AE0800F0E945B
S1132FB0CF038AE20E945703E7E3F2E0EC0FFD1F20
S1132FC0E00FF11D10830F5F01C0D12CC25EDD4FF5
S1132FD08881CE51D240833009F474CF71C3C25E6C
S1132FE0DD4F2881CE51D240822F90E0FC013197F1
S1132FF0E830F10508F07CC1EC5AFF4F6CC741E0A2
S113300061E086E993E00E94A60481E00E945703F0
S113301081E40E94570341E062E085EA93E00E9464
S1133020A60480E00E94570382E40E9457035AD406
S1133030823461F4C25EDD4F8881CE51D2408E5F0E
S1133040C25EDD4F8883CE51D24052C1813409F033
S11330504FC181E0C15EDD4F8883CF51D240C25E53
S1133060DD4F1882CE51D24043C12F5FC25EDD4F87
S11330702883CE51D2403CC141E061E082ED93E02F
S11330800E94A60481E00E94570381E40E94570332
S113309041E062E081EE93E00E94A60480E00E9499
S11330A0570382E40E9457031DD4823461F4C25E44
S11330B0DD4F8881CE51D2408F5FC25EDD4F888361
S11330C0CE51D24015C1813409F012C183E0C15EF2
S11330D0DD4F8883CF51D240C25EDD4F1882CE517E
S11330E0D24006C141E061E080EF93E00E94A60473
S11330F081E00E94570381E40E94570341E062E0AB
S11331008FEF93E00E94A60480E00E94570382E4BC
S11331100E945703E7D3823461F4C25EDD4F888195
S1133120CE51D2408F5FC25EDD4F8883CE51D240F4
S1133130DFC0813409F0DCC084E0C15EDD4F8883E8
S1133140CF51D240C25EDD4F1882CE51D240D0C0A2
S113315041E061E08EE094E00E94A60481E00E94D8
S1133160570381E40E94570341E062E08DE194E05B
S11331700E94A60480E00E94570382E40E94570341
S1133180B1D3823461F4C25EDD4F8881CE51D24026
S11331908F5FC25EDD4F8883CE51D240A9C0813497
S11331A009F0A6C085E0C15EDD4F8883CF51D240CF
S11331B0C25EDD4F1882CE51D2409AC041E061E038
S11331C08CE294E00E94A60481E00E94570381E40B
S11331D00E94570341E062E08BE394E00E94A6045E
S11331E080E00E94570382E40E9457037BD3823419
S11331F061F4C25EDD4F8881CE51D2408F5FC25EE2
S1133200DD4F8883CE51D24073C0813409F070C041
S113321086E0C15EDD4F8883CF51D240C25EDD4F70
S11332201882CE51D24064C041E061E08AE494E067
S11332300E94A60481E00E94570381E40E94570380
S113324041E062E089E594E00E94A60480E00E94E7
S1133250570382E40E94570345D3823461F4C25E6B
S1133260DD4F8881CE51D2408F5FC25EDD4F8883AF
S1133270CE51D2403DC08134D9F587E0C15EDD4FE7
S11332808883CF51D240C25EDD4F1882CE51D240E6
S11332902FC041E061E088E694E00E94A60481E04A
S11332A00E94570381E40E94570341E062E089E5EC
S11332B094E00E94A60480E00E94570382E40E94E6
S11332C0570310D3823439F481E0C25EDD4F888322
S11332D0CE51D2400DC0813459F488E0C15EDD4F37
S11332E08883CF51D240C25EDD4F1882CE51D24086
S11332F0C15EDD4FE881CF51D2408E2F90E0FC01BA
S11333003197E830F10508F0DBC1E45AFF4FE3C51B
S1133310AE01435E5D4FBE01615E7D4FCE01825EB4
S11333209D4F0E945A06CCC1BE01615E7D4FCE0105
S1133330825E9D4F0E947605C3C1BE01615E7D4FD2
S1133340CE01825E9D4F0E949905BAC1292DAE011E
S1133350435E5D4FBE01615E7D4FCE01825E9D4F37
S11333609ED3AEC141E061E08FEC94E00E94A604DC
S113337041E062E08DE192E00E94A604CF5EDD4F61
S1133380A880B980CA80C151D240CC5EDD4FE880AC
S1133390F9800A81C451D240C65EDD4F288139814B
S11333A04A81CA51D240C95EDD4F688179818A81E0
S11333B0C751D2400E94D806813089F441E061E0CF
S11333C080EE94E00E94A60441E062E081EF94E084
S11333D00E94A60460ED77E080E090E04BD4C15EEB
S11333E0DD4F1882CF51D24086E0C25EDD4F888324
S11333F0CE51D24065C1FE01EC5AFD4F85E0DF019C
S1133400982F1D929A95E9F73597DF011D928A95B9
S1133410E9F741E061E082E095E00E94A60441E022
S113342062E082E393E00E94A60482E40E94CF0358
S113343081E00E94570388E40E94CF0382E00E9447
S113344057038EE40E94CF038FE70E94570301E0E5
S1133450F12CC9D1182F813419F4B5E0FB16A9F168
S1133460123439F4C15EDD4F1882CF51D24003E0EB
S11334702DC0133469F4FF2059F01FEF1F0D8AE0AB
S11334808F0D0E94CF0380E20E945703F12E1EC0CD
S1133490E4E0EF15D8F01A32C9F01434B9F013325D
S11334A0A9F0113499F0133489F08BE08F0D0E9448
S11334B0CF038AE20E945703E4E5F2E0EC0FFD1F1C
S11334C0EF0DF11D1083F39401C002E0013009F403
S11334D0C0CF033009F4DDC041E061E083E195E051
S11334E00E94A60441E062E084E295E00E94A60402
S11334F080E00E94570381E40E945703F3D141E026
S113350061E082E095E00E94A60441E062E082E38B
S113351093E00E94A60482E40E94CF0381E00E940B
S1133520570388E40E94CF0382E00E9457038EE48D
S11335300E94CF038FE70E945703F12C54D1182F18
S1133540813409F068C0F5E0FF1265C015C0822F10
S113355090E0E4E5F2E0EC0FFD1FE80FF91F308185
S1133560EFE4F2E0EC0FFD1FE80FF91F8081381340
S113357001C04F5F2F5F02C020E040E0253038F3E8
S113358087E0C25EDD4F8883CE51D240453049F595
S113359012C0822F90E0E4E5F2E0EC0FFD1FE80F8B
S11335A0F91F3081E7E3F2E0EC0FFD1FE80FF91F8C
S11335B030832F5F01C020E0253058F341E061E003
S11335C083E395E00E94A60441E062E084E495E090
S11335D00E94A60482E00E94570382E40E945703DB
S11335E012C041E061E083E595E00E94A60441E059
S11335F062E084E695E00E94A60482E00E945703FC
S113360082E40E94570376D1C15EDD4F1882CF5108
S1133610D24003E03AC0123469F4C15EDD4F18822F
S1133620CF51D24087E0C25EDD4F8883CE51D24075
S113363003E02BC0133469F4FF2059F01FEF1F0D72
S11336408AE08F0D0E94CF0380E20E945703F12E7F
S11336501CC084E08F15C8F01A32B9F01434A9F0F4
S1133660133299F0113489F0133479F08BE08F0D13
S11336700E94CF038AE20E945703EFE4F2E0EC0FCA
S1133680FD1FEF0DF11D1083F394023009F456CFA2
S113369017C0C15EDD4F1882CF51D24087E0C25EB1
S11336A0DD4F8883CE51D2400BC0AE01475B5D4FE6
S11336B0BE01615E7D4FCE01825E9D4F0E94B706C2
S11336C0C35EDD4F8881CD51D240843009F435CBBF
S11336D00C948D0D1F93CF93DF93C62F8230B1F0DE
S11336E018F4813031F038C08330E9F0843041F18E
S11336F033C08BB18F7D8BB98BB180618BB98BB1AA
S113370088608BB98BB184608BB926C08BB1806221
S11337108BB98BB18F7E8BB98BB188608BB98BB130
S113372084608BB919C08BB180628BB98BB1806115
S11337308BB98BB1877F8BB98BB184608BB90CC08B
S11337408BB180628BB98BB180618BB98BB188608E
S11337508BB98BB18B7F8BB9D0E010E001C0182FEF
S113376061E070E080E090E085D2C23061F018F44E
S1133770C13031F016C0C33051F0C43069F011C00B
S113378086B181700FC086B1869581700BC086B1F9
S113379082FB882780F906C086B183FB882780F9DD
S11337A001C0812F181302C0DF5F01C0D0E0D73001
S11337B0B0F2C23061F018F4C13031F010C0C3303F
S11337C049F0C43051F00BC0309BFECF08C0319B90
S11337D0FECF05C0329BFECF02C0339BFECFDF91EC
S11337E0CF911F9108958091B605883019F41092F5
S11337F0B605089561E081E06DDF882309F454C0C3
S113380062E081E067DF882309F450C063E081E06F
S113381061DF882309F44CC064E081E05BDF882326
S113382009F448C061E082E055DF882309F444C00C
S113383062E082E04FDF882309F440C063E082E065
S113384049DF882309F43CC064E082E043DF882335
S113385009F438C061E083E03DDF8823A9F162E028
S113386083E038DF882391F163E083E033DF88234A
S113387079F164E083E02EDF882361F161E084E084
S113388029DF882349F162E084E024DF882331F1D1
S113389063E084E01FDF882319F164E084E01ADF29
S11338A08111A1CF84E4089581E3089582E308950A
S11338B083E3089581E4089584E3089585E30895F6
S11338C086E3089582E4089587E3089588E30895DC
S11338D089E3089583E408958AE2089580E30895CE
S11338E083E2089580DF9FEB980F923010F08830C8
S11338F0C9F7089578DF823411F08830D9F7089534
S1133900E1ECF0E088E1808383E390E09093C500EC
S11339108093C40080818068808378940895E1EC6A
S1133920F0E080818F7780838091C0008823E4F762
S11339308091C600E1ECF0E0908190689083089556
S11339408093C6008091C00085FFFCCF0895FF924C
S11339500F931F93CF93DF93EC01E1DF88838D34C2
S1133960E1F78D3499F5DBDF8983893431F08334D1
S113397021F0843511F0823511F41A8228C086357D
S113398051F4CDDF8A838F3421F0893411F08835E6
S113399011F41B821CC089818E3431F0803521F0F2
S11339A0833511F0863491F4BADF8A83F12C0AC08E
S11339B00F2D10E00D5F1F4F0C0F1D1FB0DFF8011E
S11339C08083F3948A81F81698F301C01882DF91FA
S11339D0CF911F910F91FF900895EF92FF920F9353
S11339E01F93CF93DF937C01FC0101900020E9F742
S11339F031978F01081B190BC0E0D0E006C0F70116
S1133A00EC0FFD1F80819CDF2196C017D107BCF30A
S1133A10DF91CF911F910F91FF90EF9008951F9226
S1133A200F920FB60F9211242F933F934F935F93EE
S1133A306F937F938F939F93AF93BF93CF93EF93A2
S1133A40FF938091C6008D34C1F4E1ECF0E08081F5
S1133A508F77808364DF883459F461DFC82F5FDF98
S1133A60682F8C2F3FD1811103C08FE795E0B5DF1C
S1133A70E1ECF0E0808180688083FF91EF91CF9149
S1133A80BF91AF919F918F917F916F915F914F9172
S1133A903F912F910F900FBE0F901F9018958F920A
S1133AA09F92AF92BF92CF92DF92EF92FF920F93C9
S1133AB01F93CF93DF93CDB7DEB7E2970FB6F89499
S1133AC0DEBF0FBECDBF5C016B014A01E22EFE01D9
S1133AD0319682E3DF011D928A95E9F7F12C85E5A1
S1133AE02FDF86E52DDF0BEB15E0F801808128DF61
S1133AF0D80111968C9124DF8E2D22DFCE01019600
S1133B0026DF89818D3409F081C08A81863509F0E8
S1133B107DC08B818F34D9F441E061E082E895E087
S1133B200E94A60441E062E083E995E00E94A604B5
S1133B3068EE73E080E090E09DD0F601108285E0AD
S1133B40D5018C930F2EF3E0FF2EF02D5FC0893446
S1133B5071F5F394B3E0FB1259C011E0F401108342
S1133B6041E061E082E895E00E94A60441E062E061
S1133B7084EA95E00E94A60468EE73E080E090E099
S1133B8079D041E061E08CE092E00E94A60441E03B
S1133B9062E08DE192E00E94A60468EE73E080E0AA
S1133BA090E068D0D6011C92F50110832FC08835AF
S1133BB069F511E0D4011C9341E061E082E895E0ED
S1133BC00E94A60441E062E084EA95E00E94A60413
S1133BD068EE73E080E090E04DD041E061E08CE07D
S1133BE092E00E94A60441E062E08DE192E00E942E
S1133BF0A60468EE73E080E090E03CD0F601108209
S1133C00D5011C930F2EF3E0FF2EF02DB2E0BF156B
S1133C1008F065CFE2960FB6F894DEBF0FBECDBFB5
S1133C20DF91CF911F910F91FF90EF90DF90CF9094
S1133C30BF90AF909F908F90089522E024BD31E013
S1133C4035BD3FE937BD16BC25BB2AE030E040E076
S1133C5050E025D180E090E0DC01A99BFECF62E03A
S1133C6065BB0196A11DB11D82179307A407B50773
S1133C70A4F308950F931F938B019C0182E084BDEC
S1133C8083E085BD89EF87BD16BC85B3826085BBA3
S1133C9040E050E0BA01A99BFECF85B3826085BBAA
S1133CA04F5F5F4F6F4F7F4F401751076207730796
S1133CB094F31F910F910895109280008BE08093EC
S1133CC0810083E294EF909389008093880010929E
S1133CD0850010928400EFE6F0E0808182608083AA
S1133CE078940895883140F46C3340F4EBEBF5E0BC
S1133CF08083618380E0089581E0089581E00895E0
S1133D008091BD058B33A9F4EBEBF5E01282818140
S1133D108B3359F411828081873119F41092BB05D9
S1133D2008958F5F8093BB0508958F5F8093BC05D2
S1133D3008958F5F8093BD05089581E08093BA054F
S1133D4008951092BA0508951F920F920FB60F921C
S1133D5011242F933F934F935F936F937F938F938C
S1133D609F93AF93BF93EF93FF93CF93DF93CDB71D
S1133D70DEB72997DEBFCDBF8091B905833020F42B
S1133D808F5F8093B90568C08091B705882389F057
S1133D908091B8058F5F8093B805843150F01092FC
S1133DA0B80585B18F7D85B91092B70588E08093F9
S1133DB0B605A6DF8091BA05882309F44BC0FE013D
S1133DC0319689E0DF011D928A95E9F7ABEBB5E006
S1133DD08C919DEC899F212D11242695269526955D
S1133DE030E3320F3983220F322F330F330F230F77
S1133DF0821B805D8A834AE34B8311968C911197D1
S1133E00899F212D112426952695269530E3320F7E
S1133E103C83220F322F330F330F230F821B805D1D
S1133E208D834E8312962C91299F912D1124969562
S1133E309695969580E3890F8F83990F892F880F24
S1133E40880F980F291B205D288741E062E0CF018D
S1133E500E94A6041092B9058091B8058A3020F01A
S1133E6095B180E2892785B982E086BB29960FB691
S1133E70F894DEBF0FBECDBFDF91CF91FF91EF91DC
S1133E80BF91AF919F918F917F916F915F914F916E
S1133E903F912F910F900FBE0F901F901895052EF4
S1133EA097FB16F400940FD057FD05D01AD007FCE9
S1133EB002D046F408C050954095309521953F4F67
S1133EC04F4F5F4F089590958095709561957F4F02
S1133ED08F4F9F4F0895EE0FFF1F0590F491E02D33
S1133EE00994A1E21A2EAA1BBB1BFD010DC0AA1F37
S1133EF0BB1FEE1FFF1FA217B307E407F50720F04F
S1133F00A21BB30BE40BF50B661F771F881F991FC9
S1133F101A9469F760957095809590959B01AC0112
S1133F20BD01CF010895FB01DC0101900D92002039
S10B3F30E1F70895F894FFCFB6
S1133F3804040404150E0400000103161C08000000
S1133F480E111114121F02040E1101011F1B1B1F55
S1133F58436F6469676F20696E76616C69646F008A
S1133F684552524F204E4120434F4D554E49432E02
S1133F7800202020202053455249414C2020200075
S1133F88413A2020423A4252414E434F20433A207C
S1133F9800484F524120415455414C3A202020209A
S1133FA82000494E534552495220484F52415249E4
S1133FB84F20003C20203A20203E2000484F524108
S1133FC852494F20414C54455241444F002020430C
S1133FD84F4D205355434553534F202020005641FD
S1133FE84C4F5220494E56414C49444F2C200054C2
S1133FF8454E5445204E4F56414D454E544520009C
S11340084F5045524143494F4E414C2020200041D6
S11340184755415244414E444F2020202000454EEC
S11340284345525241444120202020200020426C24
S11340386F71756561723F2020202000424C4F51FA
S11340485545414E444F2055524E412000202020D2
S11340582020202E2E2E2020202020202000205317
S1134068454E484120414C5445524144412000208A
S113407820504152412050414452414F20202000B9
S113408853454D20564F544F532052454749535496
S11340985241444F53002D43616E64696461746FE7
S11340A83A0D0A002D5061727469646F3A0D0A0062
S11340B80D0A53454E41444F523A0D0A000D0A5019
S11340C85245534944454E54453A0D0A0055520049
S11340D8444550204645444552414C3A0D0A004453
S11340E86570204665646572616C3A202020200062
S11340F820202020202020202020202020202020B4
S113410800436F6E6669726D613F20200053656ECF
S113411861646F723A2020202020202020005072F1
S113412865736964656E74653A2020202020002038
S113413855524E4120424C4F51554541444120006F
S1134148413A202020423A5273742E53656E6861B6
S1134158004C6F67696E2061646D3A20202020202E
S11341682000413A20202020423A20202020433AAF
S113417820200053656E68612061646D3A20202018
S11341882020200020202020204D65736172696F53
S1134198202020200020202020696E76616C69642C
S11341A86F20200020202020202055524E4120201E
S11341B8202020200020202020454E4345525241F3
S11341C8444120202000312E2045737461646F20FF
S11341D8646F2020002020202053697374656D616A
S11341E820202000322E202020204E6F766F2020A1
S11341F82020002020202020456C6569746F7220DF
S11342082000332E2020436F6E73756C7461202058
S113421800202020646520486F726172696F200055
S1134228342E202054726F6361206465202000209E
S1134238202020486F726172696F20202000352E7B
S11342482020566572696669632E20200064652003
S1134258436F72726573706F6E642E00362E20522F
S1134268656C61746F72696F20200020206465207A
S1134278566F746163616F202000372E20205472BA
S11342886F6361206465202000202020202053656E
S11342986E68612020202000382E20205265736526
S11342A874617220202000456C6569746F723A202D
S11342B820202020202020005554002020202020C9
S11342C82054454D504F202020202000202020201D
S11342D8204553474F5441444F202020002020209C
S11342E820202046494D2020202020202000454C15
S11342F84549544F5220494E56414C49444F002099
S1134308202020454E5649414E444F20202020006D
S113431820202052454C41544F52494F2020202000
S11343280020202020454E564941444F202020207B
S113433820004E6F76612053656E68613A20202014
S1134348202000205265706974612061204E6F76C8
S1134358612020002020202053656E6861202020E1
S11343682020002054726F63612064652053656EB9
S113437868612000202020204566657475616461A9
S113438820200020202053656E686173204E616FE1
S11343982020200020202020436F6E666572656D02
S11343A8202000303132333700313233373800556A
S11343B848002020434F4E53495354454E434941E6
S11343C8202000202020202020204F4B20202020A7
S11343D820202000202020202046414C484F5520F2
S10943E82020202000004B
S9030000FC
