S017000075726E615F656C6574726F6E6963612E73726563D2
S113000033C000004CC000004AC0000048C00000DB
S113001046C0000044C0000042C0000040C00000D0
S11300203EC000003CC000003AC0000038C00000E0
S113003036C0000096C2000032C0000030C000008C
S11300402EC000002CC000002AC0000028C0000000
S113005026C0000024C0000022C0000020C0000010
S11300601EC000001CC0000011241FBECFEFD8E04A
S1130070DEBFCDBF11E0A0E0B1E0EAE6F6E002C0E9
S113008005900D92AC30B107D9F721E0ACE0B1E0B6
S113009001C01D92AF30B207E1F79BD0E4C2B0CFEC
S11300A085B1877F85B985B18B7F85B985B182603C
S11300B085B985B18E7F85B98BB18F7B8BB98BB1B7
S11300C080688BB98BB18F778BB988E290E0BED111
S11300D08BB180688BB98BB18F778BB985B1886010
S11300E085B98BB180688BB98BB18F778BB988E276
S11300F090E0ACC108959BB19F7B9BB995B1977F6C
S113010095B995B19B7F95B995B19D7F95B995B1F9
S11301109E7F95B99BB190689BB99BB19F779BB922
S113012095B1946095B9813021F485B1826085B927
S113013003C085B18D7F85B9613021F485B18160BB
S113014085B903C085B18E7F85B98BB180688BB9C1
S11301508BB18F778BB988E290E078C1089595B11F
S1130160977F95B995B19B7F95B995B19D7F95B9C9
S113017095B19E7F95B99BB190689BB99BB19F77D0
S11301809BB995B1986095B9813021F485B18460AB
S113019085B903C085B18B7F85B9613021F485B100
S11301A0826085B903C085B18D7F85B9413021F462
S11301B085B1816085B903C085B18E7F85B98BB166
S11301C080688BB98BB18F778BB988E290E03EC1A0
S11301D00895CF93DF93CDB7DEB72C970FB6F8947D
S11301E0DEBF0FBECDBF84B1816084B984B18260AB
S11301F084B984B1846084B984B1886084B98AB1D3
S113020080688AB98AB180648AB98AB180628AB9FD
S11302108AB180618AB98AB188608AB98AB18460F6
S11302208AB987B18E7F87B987B18D7F87B987B146
S11302308B7F87B987B1877F87B98BB180628BB990
S11302408BB180618BB98BB188608BB98BB18460C1
S11302508BB988B1816088B988B1826088B988B166
S1130260846088B988B1886088B91ADF60E081E069
S113027042DF41E061E081E072DF40D1B4D08CE044
S1130280E0E0F1E0DE01119601900D928A95E1F72C
S113029072D08B878823E1F3CE010196B5D0F8CFD5
S11302A01F93CF93DF93162F8230B1F018F481306F
S11302B031F038C08330E9F0843041F133C08BB180
S11302C08F7D8BB98BB180618BB98BB188608BB911
S11302D08BB184608BB926C08BB180628BB98BB132
S11302E08F7E8BB98BB188608BB98BB184608BB9ED
S11302F019C08BB180628BB98BB180618BB98BB122
S1130300877F8BB98BB184608BB90CC08BB1806251
S11303108BB98BB180618BB98BB188608BB98BB190
S11303208B7F8BB9C0E0D0E001C0D82F88EE93E07A
S11303308DD0113019F0123021F007C086B18170D0
S113034005C086B18695817001C08D2FD81302C077
S1130350CF5F01C0C0E0C73040F3113019F0123054
S113036021F005C0309BFECF02C0319BFECFDF9150
S1130370CF911F91089561E081E092DF882329F1F4
S113038062E081E08DDF882311F161E082E088DFA3
S11303908823F9F062E082E083DF8823E1F061E002
S11303A083E07EDF8823C9F062E083E079DF88237D
S11303B0B1F061E084E074DF882399F062E084E0C6
S11303C06FDF8111D8CF80E3089581E3089582E33C
S11303D0089584E3089585E3089587E3089588E301
S11303E008958AE2089588E18093C10083E390E050
S11303F09093C5008093C40008958093C6008091B3
S1130400C00085FFFCCF0895EF92FF920F931F93D6
S1130410CF93DF937C01FC0101900020E9F7319731
S11304208F01081B190BC0E0D0E006C0F701EC0FE8
S1130430FD1F8081E2DF21960C171D07BCF7DF91B9
S1130440CF911F910F91FF90EF90089514BC8038C5
S1130450910584F422E025BDDC0120E034E244EF80
S113046050E0C0D020E032E14AE750E09FD021952F
S113047026BD41C09C01205831092936334080F4FF
S113048023E025BDDC0120E034E244EF50E0AAD0B3
S113049020E030E940ED53E089D0219526BD2BC002
S11304A09C01295E3340283B3B4080F424E025BD79
S11304B0DC0120E034E244EF50E094D020E030E46A
S11304C042E45FE073D0219526BD15C09C01215AFA
S11304D03F402C30304378F425E025BDDC0120E09A
S11304E034E244EF50E07ED020E030E049E05DE3C8
S11304F05DD0219526BDA89BFECF08951092800063
S11305008CE08093810083E294EF90938900809340
S113051088001092850010928400EFE6F0E080815C
S1130520826080837894089580910E018B33A9F4BE
S1130530ECE0F1E0128281818B3359F411828081E5
S1130540873119F410920C0108958F5F80930C0188
S113055008958F5F80930D0108958F5F80930E013E
S113056008951F920F920FB60F9211242F933F9369
S11305704F935F936F937F938F939F93AF93BF93A7
S1130580EF93FF93D1DF82E086BBFF91EF91BF91A0
S1130590AF919F918F917F916F915F914F913F9117
S11305A02F910F900FBE0F901F901895052E97FB5B
S11305B016F400940FD057FD05D01AD007FC02D0D2
S11305C046F408C050954095309521953F4F4F4FC4
S11305D05F4F089590958095709561957F4F8F4FEB
S11305E09F4F0895B7FF26C025D0821B930B089513
S11305F0A1E21A2EAA1BBB1BFD010DC0AA1FBB1F23
S1130600EE1FFF1FA217B307E407F50720F0A21B94
S1130610B30BE40BF50B661F771F881F991F1A9401
S113062069F760957095809590959B01AC01BD012B
S1130630CF01089509D0A59F900DB49F900DA49F5C
S1130640800D911D11240895A29FB001B39FC00194
S1130650A39F700D811D1124911DB29F700D811DEA
S10D06601124911D0895F894FFCFB2
S10F066A41207465636C612065207800F9
S9030000FC
