:1000000033C000004CC000004AC0000048C00000DF
:1000100046C0000044C0000042C0000040C00000D4
:100020003EC000003CC000003AC000006AC50000AD
:1000300036C0000034C0000032C0000030C00000F4
:100040002EC000002CC000002AC0000028C0000004
:1000500026C0000024C0000022C0000020C0000014
:100060001EC000001CC0000011241FBECFEFD8E04E
:10007000DEBFCDBF11E0A0E0B1E0EAEBFCE002C0E2
:1000800005900D92A43EB107D9F721E0A4EEB1E0AE
:1000900001C01D92A83EB207E1F75ED20CC6B0CFF8
:1000A00085B1877F85B985B18B7F85B985B1826040
:1000B00085B985B18E7F85B98BB18F7B8BB98BB1BB
:1000C00080688BB98BB18F778BB988E290E085D44B
:1000D0008BB180688BB98BB18F778BB985B1886014
:1000E00085B98BB180688BB98BB18F778BB988E27A
:1000F00090E073C408959BB19F7B9BB995B1977FA6
:1001000095B995B19B7F95B995B19D7F95B995B1FD
:100110009E7F95B99BB190689BB99BB19F779BB926
:1001200095B1946095B9813021F485B1826085B92B
:1001300003C085B18D7F85B9613021F485B18160BF
:1001400085B903C085B18E7F85B98BB180688BB9C5
:100150008BB18F778BB988E290E03FC4089595B159
:10016000977F95B995B19B7F95B995B19D7F95B9CD
:1001700095B19E7F95B99BB190689BB99BB19F77D4
:100180009BB995B1986095B9813021F485B18460AF
:1001900085B903C085B18B7F85B9613021F485B104
:1001A000826085B903C085B18D7F85B9413021F466
:1001B00085B1816085B903C085B18E7F85B98BB16A
:1001C00080688BB98BB18F778BB988E290E005C4DA
:1001D000089590E002C0959587956A95E2F7817041
:1001E0000895CF93C82F67E0F4DF813021F485B103
:1001F000886085B903C085B1877F85B966E08C2F9B
:10020000E8DF813021F485B1846085B903C085B110
:100210008B7F85B965E08C2FDCDF813021F485B1DF
:10022000826085B903C085B18D7F85B964E08C2F6C
:10023000D0DF813021F485B1816085B903C085B1FB
:100240008E7F85B98BB180648BB98BB180688BB997
:100250008BB18F778BB963E08C2FBBDF813021F4BA
:1002600085B1886085B903C085B1877F85B962E0B3
:100270008C2FAFDF813021F485B1846085B903C054
:1002800085B18B7F85B961E08C2FA3DF813021F4AC
:1002900085B1826085B903C085B18D7F85B960E085
:1002A0008C2F97DF813021F485B1816085B903C03F
:1002B00085B18E7F85B98BB180688BB98BB18F7713
:1002C0008BB988E290E089D3CF910895CF93C82F5E
:1002D0008BB18F7B8BB985B1886085B966E08C2F37
:1002E00078DF813021F485B1846085B903C085B1A0
:1002F0008B7F85B965E08C2F6CDF813021F485B16F
:10030000826085B903C085B18D7F85B964E08C2F8B
:1003100060DF813021F485B1816085B903C085B18A
:100320008E7F85B98BB180688BB98BB18F778BB994
:1003300063E08C2F4EDF813021F485B1886085B970
:1003400003C085B1877F85B962E08C2F42DF8130A1
:1003500021F485B1846085B903C085B18B7F85B9EF
:1003600061E08C2F36DF813021F485B1826085B960
:1003700003C085B18D7F85B960E08C2F2ADF813085
:1003800021F485B1816085B903C085B18E7F85B9BF
:100390008BB180688BB98BB18F778BB988E290E095
:1003A0001CD3CF910895CF93C82F8BB18F7B8BB97E
:1003B00085B1877F85B985B1846085B965E08C2F6B
:1003C00008DF813021F485B1826085B903C085B131
:1003D0008D7F85B964E08C2FFCDE813021F485B1FE
:1003E000816085B903C085B18E7F85B98BB1806886
:1003F0008BB98BB18F778BB963E08C2FEADE8130BC
:1004000021F485B1886085B903C085B1877F85B93E
:1004100062E08C2FDEDE813021F485B1846085B905
:1004200003C085B18B7F85B961E08C2FD2DE81302E
:1004300021F485B1826085B903C085B18D7F85B90E
:1004400060E08C2FC6DE813021F485B1816085B9F2
:1004500003C085B18E7F85B98BB180688BB98BB1B4
:100460008F778BB988E290E0B8D2CF9108950F933F
:100470001F93CF93DF938C01623011F080E001C0B5
:1004800080E4480F8FEF840F803118F041544031E1
:1004900008F41CDFC0E0D0E002C0A3DE2196F80122
:1004A000EC0FFD1F80818111F8CFDF91CF911F915B
:1004B0000F9108950F931F93CF93DF938C01C0E0AA
:1004C000D0E002C08EDE2196F801EC0FFD1F808186
:1004D0008111F8CFDF91CF911F910F910895CF93A4
:1004E000DF93CDB7DEB760970FB6F894DEBF0FBECF
:1004F000CDBF88E0E0E0F1E0DE01119601900D92C1
:100500008A95E1F788E0E8E0F1E0DE0119960190D4
:100510000D928A95E1F780E446DFCE010196CADFAD
:1005200088E441DFCE010996C5DF80E0CFDE60962A
:100530000FB6F894DEBF0FBECDBFDF91CF91089507
:1005400080E005C0C8D19FEB980F923020F0815415
:100550008230C0F780E0089584B1816084B984B1AD
:10056000826084B984B1846084B984B1886084B9BC
:100570008AB180688AB98AB180648AB98AB1806296
:100580008AB98AB180618AB98AB188608AB98AB128
:1005900084608AB987B18E7F87B987B18D7F87B92B
:1005A00087B18B7F87B987B1877F87B984B1806135
:1005B00084B984B1806284B98BB180628BB98BB10C
:1005C00080618BB98BB188608BB98BB184608BB93A
:1005D00088B1816088B988B1826088B988B1846047
:1005E00088B988B1886088B985B18F7E85B985B1B1
:1005F0008F7D85B955DD60E081E07DDD40E060E024
:1006000081E0ADDD6CDF43D2DED1D0E0C1E0D8C007
:1006100041E061E080E191E02ADF41E062E081E2D7
:1006200091E025DF8FE7DDDD82E4DBDD63D253D1AE
:10063000823419F463D2D0E0C3E0C33009F445C07A
:1006400028F4C13061F0C23029F1BAC0C53009F4D4
:1006500072C008F455C0C63009F487C0B1C041E08B
:1006600061E080E391E003DF80E0BBDD81E4B9DDA0
:1006700041E062E08FE391E0FADE81E0B2DD82E406
:10068000B0DD5EDF813411F4CF5F9AC0823409F0AF
:1006900097C083C041E061E08EE491E0E8DE80E055
:1006A000A0DD81E49EDD41E062E08DE591E0DFDEEA
:1006B00081E097DD82E495DD43DF813411F4CF5F83
:1006C0007FC0823409F07CC06BC041E061E08CE601
:1006D00091E0CDDE80E085DD81E483DD41E062E014
:1006E0008BE791E0C4DE81E07CDD82E47ADD28DF07
:1006F000813411F4CF5F64C0823409F061C053C00B
:1007000041E061E08AE891E0B2DE80E06ADD81E408
:1007100068DD41E062E089E991E0A9DE81E061DD28
:1007200082E45FDD0DDF813411F4CF5F49C0823494
:1007300009F046C03BC041E061E088EA91E097DE05
:1007400080E04FDD81E44DDD41E062E087EB91E048
:100750008EDE81E046DD82E444DDF2DE813411F498
:10076000CF5F2EC0823461F524C041E061E086ECA9
:1007700091E07DDE80E035DD81E433DD41E062E063
:1007800085ED91E074DE81E02CDD82E42ADDD8DEA7
:10079000813491F08234A1F411C0D1E0C0E010C0E6
:1007A000D2E0C0E00DC0D3E0C0E00AC0D4E0C0E0B9
:1007B00007C0D5E0C0E004C0C1E002C0D6E0C0E0A0
:1007C000D33009F03ACF24CF1F93CF93DF93C62FB6
:1007D0008230B1F018F4813031F038C08330E9F064
:1007E000843041F133C08BB18F7D8BB98BB1806187
:1007F0008BB98BB188608BB98BB184608BB926C003
:100800008BB180628BB98BB18F7E8BB98BB18860D5
:100810008BB98BB184608BB919C08BB180628BB9F5
:100820008BB180618BB98BB1877F8BB98BB18460C1
:100830008BB90CC08BB180628BB98BB180618BB9E5
:100840008BB188608BB98BB18B7F8BB9D0E010E016
:1008500001C0182F88EE93E0C0D0C23061F018F4C8
:10086000C13031F016C0C33051F0C43069F011C04E
:1008700086B181700FC086B1869581700BC086B13C
:1008800082FB882780F906C086B183FB882780F920
:1008900001C0812F181302C0DF5F01C0D0E0D73044
:1008A000C0F2C23061F018F4C13031F010C0C33072
:1008B00049F0C43051F00BC0309BFECF08C0319BD3
:1008C000FECF05C0329BFECF02C0339BFECFDF912F
:1008D000CF911F91089561E081E076DF882309F4CC
:1008E00054C062E081E070DF882309F450C063E007
:1008F00081E06ADF882309F44CC064E081E064DFB2
:10090000882309F448C061E082E05EDF882309F4AF
:1009100044C062E082E058DF882309F440C063E00D
:1009200082E052DF882309F43CC064E082E04CDFBF
:10093000882309F438C061E083E046DF8823A9F109
:1009400062E083E041DF882391F163E083E03CDFF4
:10095000882379F164E083E037DF882361F161E087
:1009600084E032DF882349F162E084E02DDF8823D0
:1009700031F163E084E028DF882319F164E084E04A
:1009800023DF8111A8CF84E4089581E3089582E3F1
:10099000089583E3089581E4089584E3089585E349
:1009A000089586E3089582E4089587E3089588E32F
:1009B000089589E3089583E408958AE2089580E321
:1009C000089583E2089588E18093C10083E390E075
:1009D0009093C5008093C400089514BC813891059C
:1009E00080F422E025BDDC0120E034E244EF50E059
:1009F00027D120E032E14AE750E006D1219526BD1B
:100A000041C09C01205831092138334080F423E053
:100A100025BDDC0120E034E244EF50E011D120E0BC
:100A200030E940ED53E0F0D0219526BD2BC09C016C
:100A30002150344021153C4080F424E025BDDC01E8
:100A400020E034E244EF50E0FBD020E030E442E428
:100A50005FE0DAD0219526BD15C09C0121503041C0
:100A60002115304398F425E025BDDC0120E034E277
:100A700044EF50E0E5D020E030E049E05DE3C4D051
:100A8000219526BD81E085BBA89BFECF08951092DD
:100A900080008CE08093810083E294EF9093890042
:100AA000809388001092850010928400EFE6F0E0B9
:100AB000808182608083789408958091E7018B33F0
:100AC000A9F4E5EEF1E0128281818B3359F41182B1
:100AD0008081873119F41092E50108958F5F80932A
:100AE000E50108958F5F8093E60108958F5F8093FD
:100AF000E701089581E08093E40108951092E401F4
:100B000008951F920F920FB60F9211242F933F93C7
:100B10004F935F936F937F938F939F93AF93BF9305
:100B2000EF93FF93CF93DF93CDB7DEB72997DEBF67
:100B3000CDBFC3DF8091E401882309F44AC0FE01E0
:100B4000319689E0DF011D928A95E9F7A5EEB1E0C3
:100B50008C919DEC899F212D112426952695269513
:100B600030E3320F3983220F322F330F330F230F2D
:100B7000821B805D8A834AE34B8311968C91119787
:100B8000899F212D112426952695269530E3320F35
:100B90003C83220F322F330F330F230F821B805DD4
:100BA0008D834E8312962C91299F912D1124969519
:100BB0009695969580E3890F8F83990F892F880FDB
:100BC000880F980F291B205D288741E062E0CF0144
:100BD0004EDC82E086BB29960FB6F894DEBF0FBECE
:100BE000CDBFDF91CF91FF91EF91BF91AF919F91D9
:100BF0008F917F916F915F914F913F912F910F90C6
:100C00000FBE0F901F901895052E97FB16F40094B9
:100C10000FD057FD05D01ED007FC02D046F408C007
:100C200050954095309521953F4F4F4F5F4F089518
:100C300090958095709561957F4F8F4F9F4F089548
:100C40002BD0A59F900DB49F900DA49F800D911D5A
:100C500011240895A1E21A2EAA1BBB1BFD010DC091
:100C6000AA1FBB1FEE1FFF1FA217B307E407F5075C
:100C700020F0A21BB30BE40BF50B661F771F881F38
:100C8000991F1A9469F760957095809590959B01CE
:100C9000AC01BD01CF010895A29FB001B39FC00177
:100CA000A39F700D811D1124911DB29F700D811D98
:0A0CB0001124911D0895F894FFCF60
:100CBA0004040404150E0400200103161C08000095
:100CCA00484F524120415455414C3A20202020207F
:100CDA00002020202020202020202020202020004A
:100CEA00312E2045737461646F20646F20200020C8
:100CFA0020202053697374656D6120202000322EF4
:100D0A00202020204E6F766F2020202000202020D7
:100D1A002020456C6569746F72202000332E2020D4
:100D2A00436F6E73756C7461202000202020646507
:100D3A0020486F726172696F2000342E202054722D
:100D4A006F636120646520200020202020486F7294
:100D5A006172696F20202000352E20205665726945
:100D6A006669632E202000646520436F7272657382
:100D7A00706F6E642E00362E2052656C61746F722D
:100D8A00696F2020002020646520566F74616361BA
:040D9A006F202000A6
:00000001FF
