S017000075726E615F656C6574726F6E6963612E73726563D2
S113000063C000007EC000007CC000007AC0000015
S113001078C0000076C0000074C0000072C0000008
S113002070C000006EC000006CC000000C94691D1C
S113003068C0000066C0000064C0000062C0000028
S113004060C000005EC000000C94A21C5AC00000F6
S113005058C0000056C0000054C0000052C0000048
S113006050C000004EC00000460B670B880BAA0B63
S1130070CC0BEE0B100C320C8A0CC50CA80DC90D60
S1130080950E4D0F810FC310151138113A115C11E3
S11300907E11A011C211E411371257157212931276
S11300A05F13571517145715DD1600170217241779
S11300B0461768178A17AC17FE17081B341852180E
S11300C01B19081BC819081B11241FBECFEFD8E049
S11300D0DEBFCDBF15E0A0E0B1E0E6E6FCE302C080
S11300E005900D92A239B107D9F725E0A2E9B5E050
S11300F001C01D92A739B207E1F70E94EB080C94E6
S1130100311E7ECFCF92DF92EF92FF92CF93C0E069
S113011049C085B1806185B966E771E080E090E00F
S11301200E94E21C85B18F7E85B966E771E080E0AC
S113013090E00E94E21C8CEEC80E82E0D81EE11C06
S1130140F11C03C0C12CD12C760180E9C8168FE5BF
S1130150D80681E0E806F104E4F2C12CD12C760142
S113016018C085B1806185B96CE571E080E090E0EC
S11301700E94E21C85B18F7E85B96CE571E080E058
S113018090E00E94E21C88EBC80E82E0D81EE11CBD
S1130190F11C80E9C8168FE5D80681E0E806F10471
S11301A004F3CF5FC53070F2C12CD12C760118C096
S11301B085B1806185B966E771E080E090E00E94D6
S11301C0E21C85B18F7E85B966E771E080E090E03E
S11301D00E94E21C8CEEC80E82E0D81EE11CF11CC9
S11301E080ECC81684EDD80681E0E806F10404F337
S11301F0CF91FF90EF90DF90CF90089585B1877FE6
S113020085B985B18B7F85B985B1826085B985B1A2
S11302108E7F85B98BB18F7B8BB98BB180688BB99D
S11302208BB18F778BB98BB180688BB98BB18F779A
S11302308BB968E270E080E090E00E94E21C8BB130
S113024080688BB98BB18F778BB985B1886085B99C
S11302508BB180688BB98BB18F778BB968E270E012
S113026080E090E00C94E21C08959BB19F7B9BB9C5
S113027095B1977F95B995B19B7F95B995B19D7FC0
S113028095B995B19E7F95B99BB190689BB99BB187
S11302909F779BB995B1946095B9813021F485B16C
S11302A0826085B903C085B18D7F85B9613021F441
S11302B085B1816085B903C085B18E7F85B98BB165
S11302C080688BB98BB18F778BB968E270E080E07E
S11302D090E00C94E21C089595B1977F95B995B17F
S11302E09B7F95B995B19D7F95B995B19E7F95B941
S11302F09BB190689BB99BB19F779BB995B198606E
S113030095B9813021F485B1846085B903C085B184
S11303108B7F85B9613021F485B1826085B903C0D2
S113032085B18D7F85B9413021F485B1816085B96E
S113033003C085B18E7F85B98BB180688BB98BB1D1
S11303408F778BB968E270E080E090E00C94E21C57
S1130350089590E002C0959587956A95E2F78170BB
S11303600895CF93C82F67E0F4DF813021F485B17D
S1130370886085B903C085B1877F85B966E08C2F15
S1130380E8DF813021F485B1846085B903C085B18B
S11303908B7F85B965E08C2FDCDF813021F485B15A
S11303A0826085B903C085B18D7F85B964E08C2FE7
S11303B0D0DF813021F485B1816085B903C085B176
S11303C08E7F85B98BB180648BB98BB180688BB912
S11303D08BB18F778BB963E08C2FBBDF813021F435
S11303E085B1886085B903C085B1877F85B962E02E
S11303F08C2FAFDF813021F485B1846085B903C0CF
S113040085B18B7F85B961E08C2FA3DF813021F426
S113041085B1826085B903C085B18D7F85B960E0FF
S11304208C2F97DF813021F485B1816085B903C0B9
S113043085B18E7F85B98BB180688BB98BB18F778D
S11304408BB968E270E080E090E00E94E21CCF91FA
S11304500895CF93C82F8BB18F7B8BB985B18860FA
S113046085B966E08C2F75DF813021F485B1846015
S113047085B903C085B18B7F85B965E08C2F69DFB1
S1130480813021F485B1826085B903C085B18D7F47
S113049085B964E08C2F5DDF813021F485B1816002
S11304A085B903C085B18E7F85B98BB180688BB95E
S11304B08BB18F778BB963E08C2F4BDF813021F4C4
S11304C085B1886085B903C085B1877F85B962E04D
S11304D08C2F3FDF813021F485B1846085B903C05E
S11304E085B18B7F85B961E08C2F33DF813021F4B6
S11304F085B1826085B903C085B18D7F85B960E01F
S11305008C2F27DF813021F485B1816085B903C048
S113051085B18E7F85B98BB180688BB98BB18F77AC
S11305208BB968E270E080E090E00E94E21CCF9119
S11305300895CF93C82F8BB18F7B8BB985B1877FFB
S113054085B985B1846085B965E08C2F02DF81307F
S113055021F485B1826085B903C085B18D7F85B9E9
S113056064E08C2FF6DE813021F485B1816085B999
S113057003C085B18E7F85B98BB180688BB98BB18F
S11305808F778BB963E08C2FE4DE813021F485B161
S1130590886085B903C085B1877F85B962E08C2FF7
S11305A0D8DE813021F485B1846085B903C085B17A
S11305B08B7F85B961E08C2FCCDE813021F485B14D
S11305C0826085B903C085B18D7F85B960E08C2FC9
S11305D0C0DE813021F485B1816085B903C085B165
S11305E08E7F85B98BB180688BB98BB18F778BB9CE
S11305F068E270E080E090E00E94E21CCF910895F0
S11306000F931F93CF93DF938C01623011F080E03E
S113061001C080E4480F8FEF840F803118F04154FB
S1130620403108F416DFC0E0D0E002C09ADE219623
S1130630F801EC0FFD1F80818111F8CFDF91CF917C
S11306401F910F9108950F931F93CF93DF938C0104
S1130650C0E0D0E002C085DE2196F801EC0FFD1F5A
S113066080818111F8CFDF91CF911F910F9108956F
S11306700F931F93CF93DF93CDB7DEB768970FB671
S1130680F894DEBF0FBECDBF88E0E0E0F1E0DE010C
S1130690119601900D928A95E1F788E0E8E0F1E087
S11306A0DE01199601900D928A95E1F788E0E0E168
S11306B0F1E0DE01519601900D928A95E1F780E414
S11306C038DF00E010E00AC0E1E0F0E0EC0FFD1FCD
S11306D0E00FF11F808145DE0F5F1F4F08301105C9
S11306E09CF300E010E00AC0E9E0F0E0EC0FFD1F2D
S11306F0E00FF11F808135DE0F5F1F4F08301105B9
S11307009CF300E010E00AC0E1E1F0E0EC0FFD1F13
S1130710E00FF11F808125DE0F5F1F4F08301105A8
S11307209CF380E096DE68960FB6F894DEBF0FBEA9
S1130730CDBFDF91CF911F910F91089580E006C046
S11307400E949B1B9FEB980F923020F081548230C3
S1130750B8F780E008950E949B1B8234E1F7089566
S11307600F931F93CF93DF93CDB7DEB7AC970FB63C
S1130770F894DEBF0FBECDBFAC018B01FE013196F4
S113078088E0DF011D928A95E9F785E589838EE487
S11307908A8385E08B8380E1E4E2F1E0DE0119964F
S11307A001900D928A95E1F7FE01799684E1DF01CB
S11307B01D928A95E9F790E010C0292F30E0F901E5
S11307C03396DA01A20FB31F2C9161E070E06C0F35
S11307D07D1FE60FF71F20839F5F953070F3CE01D6
S11307E001960E94801CCE0149960E943A1C898D74
S11307F08D3431F58A8D8E3429F541E020E019C01D
S1130800822F90E0D801A80FB91FFC01339669E14B
S113081070E06C0F7D1FE60FF71F30813C93E9E019
S1130820F0E0EC0FFD1FE80FF91F8081381340E062
S11308302F5F8B8D281720F3442331F080E005C00F
S11308408FEF03C08FEF01C081E0AC960FB6F89430
S1130850DEBF0FBECDBFDF91CF911F910F910895E1
S1130860CF93DF93EA0190E024C0E62FF72F292FDE
S113087030E0D901AA0FBB1F2A0F3B1F220F331FE1
S1130880220F331F220F331FE20FF31F3081288101
S113089032130EC03181298132130AC022812223EE
S11308A061F03A81231304C033812B81321739F06C
S11308B09F5F9817D0F28FEF03C0892F01C0892F53
S11308C0DF91CF910895CF93DF93EC01AB01688161
S11308D079818A81C5DFE881F98190E09C01220F4A
S11308E0331F820F931F880F991F880F991F880F3A
S11308F0991FE80FF91F87898F5F878BDF91CF914D
S11309000895CF93DF93D82FC0E080E090E01FC01C
S1130910E62FF72F2C2F30E0D901AA0FBB1F2A0F87
S11309203B1F220F331F220F331F220F331FE20FEF
S1130930F31F3696DF010D900020E9F71197AE1BE7
S1130940BF0B8A0F9B1F0496840F951FCF5FCD1793
S1130950F8F2DF91CF91089541E061E084E391E002
S11309604FDE41E062E085E491E04ACE089541E043
S113097062E084E591E044DE82E46BDD81E0F1DC59
S11309808EE467DD8FE7EDCC0895CF92DF92EF928E
S1130990FF920F931F93CF93DF93D62EE72EF82E5B
S11309A000E03BC0CD2DDE2D802F90E09C01220F76
S11309B0331F820F931F880F991F880F991F880F69
S11309C0991FC80FD91F8F899DEC899F912D1124E0
S11309D09695969596950F2EF0E3CF2EF02DC90E91
S11309E0990F292F220F220F920F891B10E3180F42
S11309F08FEE91E00E94801C8C2D0E94331C812F6D
S1130A000E94331C80E20E94331CCE0106960E9491
S1130A10801C8AE00E94331C0F5F0F1518F2DF91CF
S1130A20CF911F910F91FF90EF90DF90CF90089599
S1130A305F926F927F928F929F92AF92BF92CF926A
S1130A40DF92EF92FF920F931F93CF93DF9300D027
S1130A5000D000D0CDB7DEB7762E872ED82E622EEA
S1130A60532E942EEC82FD820E83C1101BC085E5AB
S1130A700E94331C82E50E94331C85E10E94331CD2
S1130A8085E691E00E94801CCE0101960E943A1CEA
S1130A9089818D3409F067C08A81823509F465C083
S1130AA08FEF68C0F82E882339F049EA51E029DF36
S1130AB08C01035F1F4F02C00DE010E0E92C992068
S1130AC041F049EB51E0662D752D892D1ADF080F91
S1130AD0191F4BE751E06C817D818E8112DF080F75
S1130AE0191F46E851E06A2D7B2D8C2D0ADF080F73
S1130AF0191F84E991E00E94801C802F32DC87E971
S1130B0091E00E94801CFF2041F086EA91E00E945F
S1130B10801C672D782D8D2D38DFEE2041F086EB7B
S1130B2091E00E94801C672D782D8D2D2EDF8BE7A0
S1130B3091E00E94801C6C817D818E8126DF84EC93
S1130B4091E00E94801C6A2D7B2D8C2D1EDFCE012E
S1130B5001960E943A1C89818D3449F48A81823538
S1130B6041F08FEF07C08FEF05C081E003C08FEF26
S1130B7001C081E026960FB6F894DEBF0FBECDBF4C
S1130B80DF91CF911F910F91FF90EF90DF90CF9065
S1130B90BF90AF909F908F907F906F905F900895DB
S1130BA09C0190E005C0F901E90FF11D10829F5FDF
S1130BB09230C8F308954F925F927F929F92AF92C2
S1130BC0BF92CF92DF92EF92FF920F931F93CF9336
S1130BD0DF93CDB7DEB7C357D1090FB6F894DEBFA4
S1130BE00FBECDBF5C016B017A012901FE01319674
S1130BF085E0DF011D928A95E9F781E13596DF01F1
S1130C00682F1D926A95E9F71F8A188E198E7496BB
S1130C10DF01682F1D926A95E9F71BA61CA61DA685
S1130C207496DF011D928A95E9F785E50E94331CCD
S1130C3089E40E94331CCE01CF9622E3FC01119279
S1130C402A95E9F70E943A1C8FAD8D3409F0A2C2AF
S1130C5021968FAD2197893409F09EC241E061E06D
S1130C6081ED91E0CDDC83DECE01CF9699DF10E0FB
S1130C700E949B1B082F8FEB800F823008F08FC0DF
S1130C80013469F4133021F0113011F011110FC047
S1130C9089E389838A831B821C8212E008C00234A0
S1130CA031F480E389838A831B821C8212E085E508
S1130CB00E94331C86E40E94331C812F0E94331C43
S1130CC0123089F48981E2968FAFE2978A81E396A4
S1130CD08FAFE397E4961FAEE497CE018F589F4FF2
S1130CE00E94801C04C0CE0101960E94801CCE018B
S1130CF0CF960E943A1C8FAD8D3429F421968FAD86
S1130D002197863411F08FEF50C2DE01AE5BBF4FE6
S1130D10FD0101900020E9F731974E2F4A1B20E096
S1130D2013C0822F90E0FC0133966FE370E06C0FE8
S1130D307D1FE60FF71F3081E6E0F0E0EC0FFD1FAA
S1130D40E80FF91F30832F5F241758F341E061E067
S1130D5082EE91E055DC41E061E0CE01069650DC84
S1130D6041E062E083EF91E04BDC81E0FADA83EC6E
S1130D7093E069DC82E0F5DA82E4F3DADFDC082F61
S1130D80823409F03CC041E061E081ED91E038DC5F
S1130D90EEDDCE01CF9604DF10E000E030C0033476
S1130DA099F4112389F077247A94710EE1E0F0E04C
S1130DB0EC0FFD1FE70DF11D10828BE0810F49DB65
S1130DC080E2CFDA172D1BC00332C9F00A32B9F022
S1130DD00434A9F0023499F0033489F0013479F031
S1130DE0143068F48CE0810F34DBE1E0F0E0EC0FC8
S1130DF0FD1FE10FF11D00831F5F802FB2DA8FEB1F
S1130E00800F823008F034CF41E061E08FEF91E051
S1130E10F7DBADDDCE01CF96C3DE912C0E949B1B88
S1130E20182F8FEB810F823008F079C0113451F400
S1130E3071E0791538F089E38F8B888F6894992451
S1130E4091F808C0123431F480E38F8B888F689452
S1130E50992491F885E50E94331C83E50E94331C94
S1130E60892D0E94331CCE0147960E94801CCE011E
S1130E70CF960E943A1C8FAD8D3409F08FC1219614
S1130E808FAD2197833509F08BC1DE01AE5BBF4F77
S1130E90FD0101900020E9F731974E2F4A1B20E015
S1130EA013C0822F90E0FC013396AFE3B0E0AC0FA7
S1130EB0BD1FEA0FFB1F3081EAE1F0E0EC0FFD1FDC
S1130EC0E80FF91F30832F5F241758F341E061E0E6
S1130ED082EE91E095DB41E061E0CE014A9690DB41
S1130EE041E062E083EF91E08BDB81E03ADA83EC6E
S1130EF093E0A9DB82E035DA82E433DA1FDC182FD1
S1130F00823409F03DC041E061E08FEF91E078DB8D
S1130F102EDDCE01CF9644DE912C10E031C0133487
S1130F2099F4992089F077247A94790CE7E1F0E038
S1130F30EC0FFD1FE70DF11D108287E0890D89DAA2
S1130F4080E20FDA972C1CC01332D1F01A32C1F0B0
S1130F501434B1F01234A1F0133491F0113481F04F
S1130F60B1E0B91568F088E0890D73DAE7E1F0E0E3
S1130F70EC0FFD1FE90DF11D10839394812FF1D91E
S1130F808FEB810F823008F049CF41E061E080E1CE
S1130F9092E036DBECDCCE01CF9602DE912C0E948F
S1130FA09B1B182F8FEB810F823008F079C011340E
S1130FB051F4E1E0E91538F089E38BA78CA7689434
S1130FC0992491F808C0123431F480E38BA78CA7DC
S1130FD06894992491F885E50E94331C80E50E9469
S1130FE0331C892D0E94331CCE018B960E94801CD9
S1130FF0CE01CF960E943A1C8FAD8D3409F0D2C039
S113100021968FAD2197803509F0CEC0DE01AE5B0D
S1131010BF4FFD0101900020E9F731974E2F4A1B85
S113102020E013C0822F90E0FC0133966FE370E060
S11310306C0F7D1FE60FF71F3081EEE2F0E0EC0F3E
S1131040FD1FE80FF91F30832F5F241758F341E089
S113105061E082EE91E0D4DA41E061E0CE018E9667
S1131060CFDA41E062E083EF91E0CADA81E079D936
S113107083EC93E0E8DA82E074D982E472D95EDB2F
S1131080182F823409F03DC041E061E080E192E034
S1131090B7DA6DDCCE01CF9683DD912C10E031C040
S11310A0133499F4992089F077247A94790CEBE23B
S11310B0F0E0EC0FFD1FE70DF11D10828AE0890DB1
S11310C0C8D980E24ED9972C1CC01332D1F01A3201
S11310D0C1F01434B1F01234A1F0133491F011348E
S11310E081F071E0791568F08BE0890DB2D9EBE2FB
S11310F0F0E0EC0FFD1FE90DF11D10839394812F97
S113110030D98FEB810F823008F049CFCE01CF96D2
S113111047DD85E50E94331C83E40E94331CCE0125
S1131120CF960E943A1C8FAD8D3429F421968FAD51
S11311302197833419F010DC8FEF37C0DE0111964C
S1131140FD0101900020E9F73197EA1BFB0B34976E
S113115039F4AE014A5F5F4FBD01C501B4DB08C07D
S1131160AE014A5F5F4FBE016F5F7F4FC601ABDBCD
S1131170AE01465E5F4FBE01695E7F4FC701A3DBD0
S1131180AE01425D5F4FBE01655D7F4FC2019BDBD7
S113119082E00BC08FEF09C08FEF07C08FEF05C04F
S11311A08FEF03C08FEF01C08FEFCD58DF4F0FB625
S11311B0F894DEBF0FBECDBFDF91CF911F910F9189
S11311C0FF90EF90DF90CF90BF90AF909F907F9073
S11311D05F904F900895CF93DF93CDB7DEB7C35898
S11311E0D2400FB6F894DEBF0FBECDBF84B181608C
S11311F084B984B1826084B984B1846084B984B1CF
S1131200886084B98AB180688AB98AB180648AB9ED
S11312108AB180628AB98AB180618AB98AB18860E8
S11312208AB98AB184608AB987B18E7F87B987B158
S11312308D7F87B987B18B7F87B987B1877F87B95E
S113124084B1806184B984B1806284B98BB18062D5
S11312508BB98BB180618BB98BB188608BB98BB141
S113126084608BB988B1816088B988B1826088B99B
S113127088B1846088B988B1886088B985B18F7E67
S113128085B985B18F7D85B90E94FE0060E081E05B
S11312900E94350140E060E081E01ED8E9D90E9457
S11312A0211D0E94131C48EABE016F5F7F4FDB01C2
S11312B0E42F1D92EA95E9F7CF5EDD4F79836883C9
S11312C0C151D240CD5EDD4F1882C351D2409E0140
S11312D027553F4FCC5EDD4F39832883C451D2401C
S11312E0CA5EDD4F1882C651D240CE018F5D9E4F3B
S11312F0C95EDD4F99838883C751D240C75EDD4FF5
S11313001882C951D240DE01AF54BE4FC65EDD4FD4
S1131310B983A883CA51D240C45EDD4F1882CC5130
S1131320D240FB0111924A95E9F748E7F90111927D
S11313304A95E9F720E9FC0111922A95E9F780E63C
S1131340FD0111928A95E9F7FE01E35EFD4F85E008
S1131350DF01982F1D929A95E9F7359691E1DF0107
S11313601D929A95E9F77196DF01982F1D929A952F
S1131370E9F73596DF011D928A95E9F785E0E8E102
S1131380F1E0DE01A35CBD4F01900D928A95E1F777
S113139085E0EEE1F1E0DE01AE5BBD4F01900D9220
S11313A08A95E1F7FE01E95BFD4F82E3DF011D92BF
S11313B08A95E9F7812C712C99249394DD24D39494
S11313C0B2E0CD57DD4FB883C358D2404AC1E2E002
S11313D0DE16F9F0F3E0DF1609F476C081E0D812E6
S11313E019C141E061E081E292E00AD941E062E0A2
S11313F082E392E005D980E00E94B10181E40E9479
S1131400B1019CD9813409F005C16894DD24D1F877
S113141001C141E061E081E492E0F2D841E062E0A0
S113142082E592E0EDD882E414D881E00E94B10113
S113143088E40FD882E00E94B1018EE40AD88FE7D5
S11314400E94B10188E005D800E00E949B1B182F80
S1131450813411F4053069F1123481F1133469F4E3
S1131460002359F01FEF100F89E0800F0E9429021A
S113147080E20E94B101012F23C0053008F51A3221
S1131480F9F01434E9F01332D9F01134C9F01334FB
S1131490B9F08AE0800F0E942902812F0E94B101D5
S11314A0E8E3F2E0EC0FFD1FE00FF11D10830F5F86
S11314B007C00F2EF3E0DF2EF02D02C0DD24D394FD
S11314C092E0D91611F2A6C041E061E083E692E011
S11314D097D841E062E082E592E092D882E40E94EB
S11314E0290281E00E94B10188E40E94290282E07D
S11314F00E94B1018EE40E9429028FE70E94B1018B
S113150088E00E94290200E00E949B1B182F81346E
S113151009F044C0053009F041C025C0282F30E04F
S1131520E8E3F2E0EC0FFD1FE20FF31F4081EDE36F
S1131530F2E0EC0FFD1FE20FF31F9081491311C07D
S1131540E3E3F2E0EC0FFD1FE20FF31F4081E2E45E
S1131550F2E0EC0FFD1FE20FF31F9081491301C06D
S11315605F5F8F5F02C050E080E08530B8F2553095
S113157009F441C041E061E084E792E041D841E0F0
S113158062E085E892E03CD882E00E94B10182E406
S11315900E94B101E0D8DD24D39438C01234A1F103
S11315A0133469F4002359F01FEF100F89E0800F02
S11315B00E94290280E20E94B101012F27C0053058
S11315C028F51A3219F1143409F11332F9F01134EF
S11315D0E9F01334D9F08AE0800F0E9429028AE2EC
S11315E00E94B101E3E3F2E0EC0FFD1FE00FF11DF7
S11315F010830F5F0BC0DD24D394A2E0CD57DD4FE1
S1131600A883C358D24002C0DD24D394B3E0DB16D0
S113161009F47ACF80919405823130F4813109F54F
S1131620809195058F30E8F041E061E084E992E033
S11316300E94000341E062E085EA92E00E94000318
S113164060ED77E080E090E00E94FF1C77247394C3
S1131650912CDD24D394E4E0CD57DD4FE883C358C7
S1131660D240CD57DD4FF881C358D240F13009F054
S1131670C7C5ADCE8D2D90E0FC013197E830F10562
S113168008F03CC1EC5CFF4F0C94091E41E061E0A2
S113169086EB92E00E94000381E00E94B10181E4A4
S11316A00E94B10141E062E085EC92E00E940003F7
S11316B080E00E94B10182E40E94B1013FD88234EB
S11316C011F4D3941BC1813409F018C1EAC041E07C
S11316D061E084ED92E00E94000381E00E94B10188
S11316E081E40E94B10141E062E083EE92E00E9455
S11316F0000380E00E94B10182E40E94B1011ED87F
S1131700823411F4D394FAC0813409F0F7C0CDC007
S113171041E061E082EF92E00E94000381E00E94D8
S1131720B10181E40E94B10141E062E081E093E013
S11317300E94000380E00E94B10182E40E94B10192
S11317400E949E03823411F4D394D8C0813409F0EA
S1131750D5C0B0C041E061E080E193E00E940003A5
S113176081E00E94B10181E40E94B10141E062E0A4
S11317708FE193E00E94000380E00E94B10182E4C3
S11317800E94B1010E949E03823411F4D394B6C026
S1131790813409F0B3C094C041E061E08EE293E08B
S11317A00E94000381E00E94B10181E40E94B10122
S11317B041E062E08DE393E00E94000380E00E9438
S11317C0B10182E40E94B1010E949E03823411F4AB
S11317D0D39494C0813409F091C077C041E061E0B2
S11317E08CE493E00E94000381E00E94B10181E453
S11317F00E94B10141E062E08BE593E00E940003A6
S113180080E00E94B10182E40E94B1010E949E0323
S1131810823411F4D39472C0813409F06FC05BC078
S113182041E061E08AE693E00E94000381E00E94C7
S1131830B10181E40E94B10141E062E089E793E0F3
S11318400E94000380E00E94B10182E40E94B10181
S11318500E949E03823411F4D39450C0813409F061
S11318604DC03FC041E061E088E893E00E9400037E
S113187081E00E94B10181E40E94B10141E062E093
S113188089E793E00E94000380E00E94B10182E4B2
S11318900E94B1010E949E03823449F1813471F5A2
S11318A029C099249394D12C29C06894992491F83F
S11318B0D12C24C00F2EF3E09F2EF02DD12C1EC06E
S11318C06894992492F8D12C19C00F2EF5E09F2E1C
S11318D0F02DD12C13C00F2EF6E09F2EF02DD12C1D
S11318E00DC00F2EF7E09F2EF02DD12C07C0DD2464
S11318F0D39404C06894992493F8D12C892D90E052
S1131900FC013197E830F10508F03DC4E45CFF4F79
S11319100C94091E41E061E087E993E00E94000312
S113192082E00E94B10181E40E94B10141E062E0E1
S113193086EA93E00E94000381E00E94B10182E400
S11319400E94B1010E949E038234D9F441E061E017
S113195085EB93E00E94000341E062E086EC93E0B3
S11319600E94000368EE73E080E090E00E94FF1C98
S1131970DD24D39481E0CD57DD4F8883C358D24012
S113198002C4813409F0FFC3F5C341E061E087ED8F
S113199093E00E94000341E062E082E592E00E944D
S11319A0000382E40E94290281E00E94B10188E4DC
S11319B00E94290282E00E94B1018EE40E94290261
S11319C08FE70E94B10188E00E94290200E00E9492
S11319D09B1B182F813409F080C0053009F07DC0AD
S11319E0BE016E5D7D4FCE01835E9D4F0E94B003AC
S11319F0813009F056C041E061E0CE018E5D9D4F1B
S1131A000E94000341E062E083EF91E00E94000342
S1131A1081E00E94B10183EC93E00E94230382E001
S1131A200E94B10182E40E94B1010E949E03182F1A
S1131A30813499F59E012F5E3D4FAE014C5E5D4FA2
S1131A40BE01665E7D4FCE01895E9D4FB4D8813064
S1131A5069F441E061E088EE93E00E94000341E014
S1131A6062E089EF93E00E940003FFCF823009F027
S1131A706BC0809192058F5F8093920541E061E095
S1131A808AE094E00E94000341E062E082EE91E08B
S1131A900E9400030E94820057C0823409F054C09F
S1131AA04AC0811151C041E061E08BE194E00E94A1
S1131AB0000341E062E084EE91E00E94000382E0D2
S1131AC00E94B10182E40E94B1010E94AB03182F6D
S1131AD0912C6894DD24D1F837C0123489F1133481
S1131AE071F4002361F0FF24FA94F00E87E0800F74
S1131AF00E94290280E20E94B1010F2D25C0053009
S1131B0018F51A3209F11434F9F01332E9F01134EA
S1131B10D9F01334C9F088E0800F0E942902812F84
S1131B200E94B101EDE1F2E0EC0FFD1FE00FF11DA9
S1131B3010830F5F09C0912C6894DD24D1F804C090
S1131B40912C6894DD24D1F8123409F040CF1BC3E2
S1131B5041E061E08CE294E00E94000341E062E035
S1131B6084EE91E00E94000382E00E94B10182E4CD
S1131B700E94B1010E94621D0E949B1B823409F0E5
S1131B8002C30E94661D912C0F2EF3E0DF2EF02D70
S1131B90FAC241E061E08DE394E00E94000341E079
S1131BA062E08EE494E00E9400038FE70E94B1019A
S1131BB083E40E94B10180E20E94B10182E00E94AC
S1131BC0B10182E40E94B10180E20E94B10181E08E
S1131BD00E94B10181E40E94B101C758DD4F18820F
S1131BE019821A821B82C957D24000E00E949B1BB3
S1131BF0182F813409F055C0043009F052C0C5587B
S1131C00DD4F4881CB57D24050E040535109C4586E
S1131C10DD4F9881CC57D240C758DD4F2881C95732
S1131C20D24030E020533109C658DD4F3881CA57BD
S1131C30D240440F642F660F660F460F642F690F5E
S1131C406053220F822F880F880F280F822F830F53
S1131C5080530E94371D81110DC041E061E087E58A
S1131C6094E00E94000341E062E088E694E00E9470
S1131C7000030CC041E061E089E794E00E940003A6
S1131C8041E062E08AE894E00E94000360ED77E0BE
S1131C9080E090E00E94FF1C912C6894DD24D2F82F
S1131CA03FC01234C9F11334A1F4002391F01FEFA3
S1131CB0100F123028F480E4800F0E94290204C01F
S1131CC081E4800F0E94290280E20E94B101012F69
S1131CD027C0043028F51A3219F1143409F11332EB
S1131CE0F9F01134E9F01334D9F0023028F481E426
S1131CF0800F0E94290204C082E4800F0E942902FE
S1131D00812F0E94B101E9E7F2E0EC0FFD1FE00F23
S1131D10F11D10830F5F04C0912C6894DD24D2F868
S1131D2094E0991609F462CF2EC285E50E94331C13
S1131D3086E50E94331C04E915E0D8018C910E94C9
S1131D40331CF80181810E94331C809192050E940A
S1131D50331CCE01895B9D4F0E943A1CC95BDD4F49
S1131D608881C754D2408D3409F092C0C85BDD4FDE
S1131D708881C854D240863509F08AC0C75BDD4FDC
S1131D808881C954D2408F34E1F441E061E08BE9A9
S1131D9094E00E94000341E062E08CEA94E00E9437
S1131DA0000368EE73E080E090E00E94FF1C0F2EB9
S1131DB0F3E08F2EF02D912C0F2EF5E0DF2EF02D79
S1131DC067C0893491F58394F3E08F1261C041E0D8
S1131DD061E08BE994E00E94000341E062E08DEB56
S1131DE094E00E94000368EE73E080E090E00E94BB
S1131DF0FF1C41E061E085EB93E00E94000341E0B9
S1131E0062E086EC93E00E94000368EE73E080E0F9
S1131E1090E00E94FF1C912CDD24D39481E0CD57E7
S1131E20DD4F8883C358D24033C0883589F541E0FB
S1131E3061E08BE994E00E94000341E062E08DEBF5
S1131E4094E00E94000368EE73E080E090E00E945A
S1131E50FF1C41E061E085EB93E00E94000341E058
S1131E6062E086EC93E00E94000368EE73E080E099
S1131E7090E00E94FF1C0F2EF3E08F2EF02D912C8A
S1131E80DD24D39491E0CD57DD4F9883C358D240DD
S1131E90A2E0A81508F049CF76C1CF5EDD4FA88037
S1131EA0B980CA80C151D240CC5EDD4FE880F98050
S1131EB00A81C451D240C65EDD4F288139814A81EE
S1131EC0CA51D240C95EDD4F688179818A81C75188
S1131ED0D2400E941805813009F055C141E061E00B
S1131EE08EEC94E00E94000341E062E08FED94E008
S1131EF00E94000360ED77E080E090E00E94FF1C08
S1131F0042C1FE01E258FD4F85E0DF01982F1D928A
S1131F109A95E9F73597DF011D928A95E9F741E033
S1131F2061E080EF94E00E94000341E062E082E51A
S1131F3092E00E94000382E40E94290281E00E9450
S1131F40B10188E40E94290282E00E94B1018EE47A
S1131F500E9429028FE70E94B10101E0F12C0E9446
S1131F609B1B182F813419F4B5E0FB1651F1123480
S1131F7051F1133459F41FEF1F0D8AE08F0D0E94A5
S1131F80290280E20E94B101F12E1FC0E4E0EF15A6
S1131F90E0F01A32D1F01434C1F01332B1F011343C
S1131FA0A1F08BE08F0D0E9429028AE20E94B10108
S1131FB0EEE7F2E0EC0FFD1FEF0DF11D1083F3943B
S1131FC004C002E002C003E0912C013041F203306E
S1131FD009F4D4C041E061E081E095E00E9400038F
S1131FE041E062E082E195E00E94000380E00E940B
S1131FF0B10181E40E94B1010E949E0341E061E0CD
S113200080EF94E00E94000341E062E082E592E008
S11320100E94000382E40E94290281E00E94B1012F
S113202088E40E94290282E00E94B1018EE40E94A9
S113203029028FE70E94B101F12C0E949B1B182FEB
S1132040813409F063C0F5E0FF1260C015C0822F2F
S113205090E0EEE7F2E0EC0FFD1FE80FF91F30818E
S1132060E9E7F2E0EC0FFD1FE80FF91F8081381358
S113207001C04F5F2F5F02C020E040E0253038F3FD
S1132080453049F512C0822F90E0EEE7F2E0EC0F04
S1132090FD1FE80FF91F3081E3E3F2E0EC0FFD1FB1
S11320A0E80FF91F30832F5F01C020E0253058F37B
S11320B041E061E081E295E00E94000341E062E0DA
S11320C082E395E00E94000382E00E94B10182E471
S11320D00E94B10112C041E061E081E495E00E94F8
S11320E0000341E062E082E595E00E94000382E0A3
S11320F00E94B10182E40E94B1010E94AB0303E09B
S1132100912C0F2EF7E0DF2EF02D30C0123441F168
S1132110133459F41FEF1F0D8AE08F0D0E9429021A
S113212080E20E94B101F12E21C084E08F15F0F00D
S11321301A32E1F01434D1F01332C1F01134B1F099
S11321408BE08F0D0E9429028AE20E94B101E9E727
S1132150F2E0EC0FFD1FEF0DF11D1083F39406C0A8
S113216003E0912C0F2EF7E0DF2EF02D023009F45E
S113217064CF09C0912CDD24D39405C0912C0F2E7B
S1132180F7E0DF2EF02D80919405883040F4CD5790
S1132190DD4F9881C358D240913061F531C0209110
S11321A0920530E02132310544F4823130F481313A
S11321B039F5809195058F3018F141E061E084E9AB
S11321C092E00E94000341E062E085EA92E00E940E
S11321D0000360ED77E080E090E00E94FF1C712C2A
S11321E0912CDD24D394A4E0CD57DD4FA883C358AC
S11321F0D24006C0B3E0CD57DD4FB883C358D240B8
S1132200CD57DD4FE881C358D240E23009F432CAD9
S113221092C48D2D90E0FC013197E830F10508F06F
S11322201AC1EC5BFF4F0C94091E41E061E086EBA0
S113223092E00E94000381E00E94B10181E40E94C7
S1132240B10141E062E085EC92E00E94000380E08D
S11322500E94B10182E40E94B1010E949E03823473
S113226019F4D394D394F7C0813409F0F4C0CBC0EB
S1132270D394F1C041E061E082EF92E00E94000358
S113228081E00E94B10181E40E94B10141E062E079
S113229081E093E00E94000380E00E94B10182E4A7
S11322A00E94B1010E949E03823411F4D394D3C0DE
S11322B0813409F0D0C0ABC041E061E080E193E03B
S11322C00E94000381E00E94B10181E40E94B101F7
S11322D041E062E08FE193E00E94000380E00E940D
S11322E0B10182E40E94B1010E949E03823411F480
S11322F0D394B1C0813409F0AEC08FC041E061E035
S11323008EE293E00E94000381E00E94B10181E427
S11323100E94B10141E062E08DE393E00E9400037A
S113232080E00E94B10182E40E94B1010E949E03F8
S1132330823411F4D3948FC0813409F08CC072C0FC
S113234041E061E08CE493E00E94000381E00E949C
S1132350B10181E40E94B10141E062E08BE593E0C8
S11323600E94000380E00E94B10182E40E94B10156
S11323700E949E03823411F4D3946DC0813409F019
S11323806AC056C041E061E08AE693E00E9400031F
S113239081E00E94B10181E40E94B10141E062E068
S11323A089E793E00E94000380E00E94B10182E487
S11323B00E94B1010E949E03823411F4D3944BC055
S11323C0813409F048C03AC041E061E088E893E014
S11323D00E94000381E00E94B10181E40E94B101E6
S11323E041E062E089E793E00E94000380E00E94FC
S11323F0B10182E40E94B1010E949E03823421F162
S1132400813449F524C099249394D12C24C00F2EEF
S1132410F3E09F2EF02DD12C1EC06894992492F8DD
S1132420D12C19C00F2EF5E09F2EF02DD12C13C006
S11324300F2EF6E09F2EF02DD12C0DC00F2EF7E0BD
S11324409F2EF02DD12C07C0DD24D39404C06894B2
S1132450992493F8D12C892D90E0FC013197E83030
S1132460F10508F024C3E45BFF4F0C94091E41E01E
S113247061E081E695E00E94000382E00E94B101E0
S113248081E40E94B10141E062E086EA93E00E94A7
S1132490000381E00E94B10182E40E94B1010E9424
S11324A09E038234D9F441E061E085EB93E00E941D
S11324B0000341E062E086EC93E00E94000368EED2
S11324C073E080E090E00E94FF1CDD24D394F1E0EF
S11324D0CD57DD4FF883C358D240E9C2813409F0A7
S11324E0E6C2DCC241E061E08CE294E00E940003B9
S11324F041E062E084EE91E00E94000382E00E94E9
S1132500B10182E40E94B1010E94621D0E949B1BE2
S1132510823409F0CCC20E94661D912C0F2EF3E088
S1132520DF2EF02DC4C241E061E08DE394E00E940F
S1132530000341E062E08EE494E00E9400038FE730
S11325400E94B10183E40E94B10180E20E94B101C2
S113255082E00E94B10182E40E94B10180E20E9403
S1132560B10181E00E94B10181E40E94B101C75828
S1132570DD4F188219821A821B82C957D24000E0AB
S11325800E949B1B182F813409F055C0043009F0B8
S113259052C0C558DD4F4881CB57D24050E040531C
S11325A05109C458DD4F9881CC57D240C758DD4FEC
S11325B02881C957D24030E020533109C658DD4F35
S11325C03881CA57D240440F642F660F660F460FF6
S11325D0642F690F6053220F822F880F880F280FF2
S11325E0822F830F80530E94371D81110DC041E05B
S11325F061E087E594E00E94000341E062E088E640
S113260094E00E9400030CC041E061E089E794E09B
S11326100E94000341E062E08AE894E00E94000323
S113262060ED77E080E090E00E94FF1C912C6894BC
S1132630DD24D2F83FC01234C9F11334A1F40023CD
S113264091F01FEF100F123028F480E4800F0E94E5
S1132650290204C081E4800F0E94290280E20E94C2
S1132660B101012F27C0043028F51A3219F11434AE
S113267009F11332F9F01134E9F01334D9F00230CE
S113268028F481E4800F0E94290204C082E4800FB0
S11326900E942902812F0E94B101E9E7F2E0EC0FC8
S11326A0FD1FE00FF11D10830F5F04C0912C68948F
S11326B0DD24D2F884E0981609F462CFF8C185E5E8
S11326C00E94331C86E50E94331C04E915E0D801FE
S11326D08C910E94331CF80181810E94331C8091EB
S11326E092050E94331CCE01895B9D4F0E943A1CC7
S11326F0C95BDD4F8881C754D2408D3409F092C044
S1132700C85BDD4F8881C854D240863509F08AC041
S1132710C75BDD4F8881C954D2408F34E1F441E076
S113272061E08BE994E00E94000341E062E08CEAFE
S113273094E00E94000368EE73E080E090E00E9461
S1132740FF1C0F2EF3E08F2EF02D912C0F2EF5E0B1
S1132750DF2EF02D67C0893491F58394F3E08F1256
S113276061C041E061E08BE994E00E94000341E034
S113277062E08DEB94E00E94000368EE73E080E079
S113278090E00E94FF1C41E061E085EB93E00E9431
S1132790000341E062E086EC93E00E94000368EEEF
S11327A073E080E090E00E94FF1C912CDD24D39420
S11327B081E0CD57DD4F8883C358D24033C088357C
S11327C089F541E061E08BE994E00E94000341E077
S11327D062E08DEB94E00E94000368EE73E080E019
S11327E090E00E94FF1C41E061E085EB93E00E94D1
S11327F0000341E062E086EC93E00E94000368EE8F
S113280073E080E090E00E94FF1C0F2EF3E08F2E17
S1132810F02D912CDD24D39491E0CD57DD4F988396
S1132820C358D240A2E0A81508F049CF40C1FE0128
S1132830E258FD4F85E0DF01982F1D929A95E9F744
S11328403597DF011D928A95E9F741E061E080EF59
S113285094E00E94000341E062E082E592E00E947D
S1132860000382E40E94290281E00E94B10188E40D
S11328700E94290282E00E94B1018EE40E94290292
S11328808FE70E94B10101E0F12C55D7182F813454
S113289019F4B5E0FB1651F1123451F1133459F423
S11328A01FEF1F0D8AE08F0D0E94290280E20E9413
S11328B0B101F12E1FC0E4E0EF15E0F01A32D1F0BF
S11328C01434C1F01332B1F01134A1F08BE08F0D48
S11328D00E9429028AE20E94B101EEE7F2E0EC0FC5
S11328E0FD1FEF0DF11D1083F39404C002E002C03C
S11328F003E0912C013049F2033009F4D3C041E0E4
S113290061E081E095E00E94000341E062E082E141
S113291095E00E94000380E00E94B10181E40E94DE
S1132920B1010E949E0341E061E080EF94E00E94C7
S1132930000341E062E082E592E00E94000382E449
S11329400E94290281E00E94B10188E40E942902C8
S113295082E00E94B1018EE40E9429028FE70E9466
S1132960B101F12CE8D6182F813409F063C0F5E0E9
S1132970FF1260C015C0822F90E0EEE7F2E0EC0F8A
S1132980FD1FE80FF91F3081E9E7F2E0EC0FFD1FAE
S1132990E80FF91F8081381301C04F5F2F5F02C019
S11329A020E040E0253038F3453049F512C0822F4D
S11329B090E0EEE7F2E0EC0FFD1FE80FF91F308125
S11329C0E3E3F2E0EC0FFD1FE80FF91F30832F5F04
S11329D001C020E0253058F341E061E081E295E058
S11329E00E94000341E062E082E395E00E9400035C
S11329F082E00E94B10182E40E94B10112C041E070
S1132A0061E081E495E00E94000341E062E082E538
S1132A1095E00E94000382E00E94B10182E40E94DA
S1132A20B1010E94AB0303E0912C0F2EF7E0DF2EDF
S1132A30F02D30C0123441F1133459F41FEF1F0D3F
S1132A408AE08F0D0E94290280E20E94B101F12EDA
S1132A5021C084E08F15F0F01A32E1F01434D1F083
S1132A601332C1F01134B1F08BE08F0D0E942902B2
S1132A708AE20E94B101E9E7F2E0EC0FFD1FEF0DDD
S1132A80F11D1083F39406C003E0912C0F2EF7E0A0
S1132A90DF2EF02D023009F465CF09C0912CDD241E
S1132AA0D39405C0912C0F2EF7E0DF2EF02D8091EA
S1132AB09405883080F0813130F0813161F4909157
S1132AC095059F3040F4CD57DD4F9881C358D240CF
S1132AD0913059F530C02091920530E02132310512
S1132AE044F4823130F4813131F5809195058F3091
S1132AF010F141E061E084E992E00E94000341E0CA
S1132B0062E085EA92E00E94000360ED77E080E0F5
S1132B1090E075D7712C912CDD24D394A4E0CD578B
S1132B20DD4FA883C358D24006C0B2E0CD57DD4F75
S1132B30B883C358D240CD57DD4FE881C358D24043
S1132B40E33009F466CB64C5772009F42BC1F2E0C5
S1132B50DF1611F183E0D81609F47EC091E0D91292
S1132B6057C541E061E081E292E00E94000341E048
S1132B7062E080E795E00E94000380E00E94B101DA
S1132B8081E40E94B1010E949E03813409F040C592
S1132B906894DD24D1F83CC541E061E081E492E031
S1132BA00E94000341E062E082E592E00E9400039B
S1132BB082E40E94290281E00E94B10188E40E941B
S1132BC0290282E00E94B1018EE40E9429028FE76B
S1132BD00E94B10188E00E94290200E0ACD5182FC0
S1132BE0813411F4053069F1123481F1133469F43C
S1132BF0002359F01FEF100F89E0800F0E94290273
S1132C0080E20E94B101012F23C0053008F51A3279
S1132C10F9F01434E9F01332D9F01134C9F0133453
S1132C20B9F08AE0800F0E942902812F0E94B1012D
S1132C30E8E3F2E0EC0FFD1FE00FF11D10830F5FDE
S1132C4007C00F2EF3E0DF2EF02D02C0DD24D39455
S1132C50A2E0DA1619F2DCC441E061E083E692E016
S1132C600E94000341E062E082E592E00E940003DA
S1132C7082E40E94290281E00E94B10188E40E945A
S1132C80290282E00E94B1018EE40E9429028FE7AA
S1132C900E94B10188E00E94290200E04CD5182F5F
S1132CA0813409F047C0053009F044C025C0282FFD
S1132CB030E0E8E3F2E0EC0FFD1FE20FF31F408188
S1132CC0EDE3F2E0EC0FFD1FE20FF31F90814913D7
S1132CD011C0E3E3F2E0EC0FFD1FE20FF31F4081AC
S1132CE0E2E4F2E0EC0FFD1FE20FF31F90814913C1
S1132CF001C05F5F8F5F02C050E080E08530B8F2B2
S1132D00553009F444C041E061E084E792E00E9458
S1132D10000341E062E085E892E00E94000382E063
S1132D200E94B10182E40E94B1010E94AB03DD2440
S1132D30D39433C0123479F1133469F4002359F075
S1132D401FEF100F89E0800F0E94290280E20E9489
S1132D50B101012F22C0053000F51A32F1F014340C
S1132D60E1F01332D1F01134C1F01334B1F08AE040
S1132D70800F0E9429028AE20E94B101E3E3F2E09B
S1132D80EC0FFD1FE00FF11D10830F5F06C0712CC7
S1132D90DD24D39402C0DD24D394B3E0DB1609F41C
S1132DA07DCF36C48D2D90E0FC013197E830F105DC
S1132DB008F019C1EC5AFF4F2CC741E061E086EBE3
S1132DC092E00E94000381E00E94B10181E40E942C
S1132DD0B10141E062E085EC92E00E94000380E0F2
S1132DE00E94B10182E40E94B1010E949E038234D8
S1132DF019F4D394D394F7C0813409F0F4C0CBC050
S1132E00D394F1C041E061E082EF92E00E940003BC
S1132E1081E00E94B10181E40E94B10141E062E0DD
S1132E2081E093E00E94000380E00E94B10182E40B
S1132E300E94B1010E949E03823411F4D394D3C042
S1132E40813409F0D0C0ABC041E061E080E193E09F
S1132E500E94000381E00E94B10181E40E94B1015B
S1132E6041E062E08FE193E00E94000380E00E9471
S1132E70B10182E40E94B1010E949E03823411F4E4
S1132E80D394B1C0813409F0AEC08FC041E061E099
S1132E908EE293E00E94000381E00E94B10181E48C
S1132EA00E94B10141E062E08DE393E00E940003DF
S1132EB080E00E94B10182E40E94B1010E949E035D
S1132EC0823411F4D3948FC0813409F08CC072C061
S1132ED041E061E08CE493E00E94000381E00E9401
S1132EE0B10181E40E94B10141E062E08BE593E02D
S1132EF00E94000380E00E94B10182E40E94B101BB
S1132F000E949E03823411F4D3946DC0813409F07D
S1132F106AC056C041E061E08AE693E00E94000383
S1132F2081E00E94B10181E40E94B10141E062E0CC
S1132F3089E793E00E94000380E00E94B10182E4EB
S1132F400E94B1010E949E03823411F4D3944BC0B9
S1132F50813409F048C03AC041E061E088E893E078
S1132F600E94000381E00E94B10181E40E94B1014A
S1132F7041E062E089E793E00E94000380E00E9460
S1132F80B10182E40E94B1010E949E03823421F1C6
S1132F90813449F524C099249394D12C24C00F2E54
S1132FA0F3E09F2EF02DD12C1EC06894992492F842
S1132FB0D12C19C00F2EF5E09F2EF02DD12C13C06B
S1132FC00F2EF6E09F2EF02DD12C0DC00F2EF7E022
S1132FD09F2EF02DD12C07C0DD24D39404C0689417
S1132FE0992493F8D12C892D90E0FC013197E83095
S1132FF0F10508F00DC3E45AFF4F0BC641E061E050
S11330008FE795E00E94000382E00E94B10181E411
S11330100E94B10141E062E086EA93E00E9400036D
S113302081E00E94B10182E40E94B1010E949E03EA
S11330308234B1F441E061E085EB93E00E94000347
S113304041E062E086EC93E00E94000368EE73E0E6
S113305080E090E0D4D477247394DD24D394D8C250
S1133060813409F0D5C2CBC241E061E08CE294E046
S11330700E94000341E062E084EE91E00E940003BC
S113308082E00E94B10182E40E94B1011BD553D3B6
S1133090823409F0BDC21AD5912C0F2EF3E0DF2E35
S11330A0F02DB6C241E061E08DE394E00E9400039C
S11330B041E062E08EE494E00E9400038FE70E9406
S11330C0B10183E40E94B10180E20E94B10182E077
S11330D00E94B10182E40E94B10180E20E94B10128
S11330E081E00E94B10181E40E94B101C758DD4F23
S11330F0188219821A821B82C957D24000E01BD35E
S1133100182F813409F053C0043009F050C0C55859
S1133110DD4F4881CB57D24050E040535109C45849
S1133120DD4F9881CC57D240C758DD4F2881C9570D
S1133130D24030E020533109C658DD4F3881CA5798
S1133140D240440F642F660F660F460F642F690F39
S11331506053220F822F880F880F280F822F830F2E
S1133160805385D481110DC041E061E087E594E08E
S11331700E94000341E062E088E694E00E940003BC
S11331800CC041E061E089E794E00E94000341E063
S113319062E08AE894E00E94000360ED77E080E05A
S11331A090E02DD4912C6894DD24D2F83FC01234E1
S11331B0C9F11334A1F4002391F01FEF100F123062
S11331C028F480E4800F0E94290204C081E4800F67
S11331D00E94290280E20E94B101012F27C004301D
S11331E028F51A3219F1143409F11332F9F01134B3
S11331F0E9F01334D9F0023028F481E4800F0E94FE
S1133200290204C082E4800F0E942902812F0E94B7
S1133210B101E9E7F2E0EC0FFD1FE00FF11D1083AF
S11332200F5F04C0912C6894DD24D2F8E4E09E166C
S113323009F465CFEDC185E516D386E514D304E919
S113324015E0D8018C910FD3F80181810CD38091C2
S1133250920509D3CE01895B9D4F0CD3C95BDD4F29
S11332608881C754D2408D3409F08DC0C85BDD4FCE
S11332708881C854D240863509F085C0C75BDD4FCC
S11332808881C954D2408F34D9F441E061E08BE99C
S113329094E00E94000341E062E08CEA94E00E9422
S11332A0000368EE73E080E090E0A9D30F2EF3E012
S11332B08F2EF02D912C0F2EF5E0DF2EF02D63C014
S11332C0893481F58394F3E08F125DC041E061E0BD
S11332D08BE994E00E94000341E062E08DEB94E00E
S11332E00E94000368EE73E080E090E088D341E040
S11332F061E085EB93E00E94000341E062E086EC2C
S113330093E00E94000368EE73E080E090E077D3DE
S1133310912CDD24D39481E0CD57DD4F8883C358AD
S1133320D24031C0883579F541E061E08BE994E021
S11333300E94000341E062E08DEB94E00E940003F0
S113334068EE73E080E090E05AD341E061E085EB01
S113335093E00E94000341E062E086EC93E00E9467
S1133360000368EE73E080E090E049D30F2EF3E0B1
S11333708F2EF02D912CDD24D39491E0CD57DD4F89
S11333809883C358D240A2E0A81508F054CF40C196
S1133390FE01E258FD4F85E0DF01982F1D929A95BA
S11333A0E9F73597DF011D928A95E9F741E061E07D
S11333B080EF94E00E94000341E062E082E592E045
S11333C00E94000382E40E94290281E00E94B1016C
S11333D088E40E94290282E00E94B1018EE40E94E6
S11333E029028FE70E94B10101E0F12CA4D1182F2A
S11333F0813419F4B5E0FB1651F1123451F1133450
S113340059F41FEF1F0D8AE08F0D0E94290280E2FC
S11334100E94B101F12E1FC0E4E0EF15E0F01A3272
S1133420D1F01434C1F01332B1F01134A1F08BE0B7
S11334308F0D0E9429028AE20E94B101EEE7F2E0B8
S1133440EC0FFD1FEF0DF11D1083F39404C002E097
S113345002C003E0912C013049F2033009F4D3C0D7
S113346041E061E081E095E00E94000341E062E018
S113347082E195E00E94000380E00E94B10181E4B2
S11334800E94B1010E949E0341E061E080EF94E05C
S11334900E94000341E062E082E592E00E940003A2
S11334A082E40E94290281E00E94B10188E40E9422
S11334B0290282E00E94B1018EE40E9429028FE772
S11334C00E94B101F12C37D1182F813409F063C067
S11334D0F5E0FF1260C015C0822F90E0EEE7F2E045
S11334E0EC0FFD1FE80FF91F3081E9E7F2E0EC0F64
S11334F0FD1FE80FF91F8081381301C04F5F2F5F54
S113350002C020E040E0253038F3453049F512C0D0
S1133510822F90E0EEE7F2E0EC0FFD1FE80FF91FB9
S11335203081E3E3F2E0EC0FFD1FE80FF91F308375
S11335302F5F01C020E0253058F341E061E081E2D3
S113354095E00E94000341E062E082E395E00E947E
S1133550000382E00E94B10182E40E94B10112C022
S113356041E061E081E495E00E94000341E062E013
S113357082E595E00E94000382E00E94B10182E4AA
S11335800E94B1010E94AB0303E0912C0F2EF7E0DF
S1133590DF2EF02D30C0123441F1133459F41FEFF3
S11335A01F0D8AE08F0D0E94290280E20E94B10162
S11335B0F12E21C084E08F15F0F01A32E1F01434BA
S11335C0D1F01332C1F01134B1F08BE08F0D0E94B1
S11335D029028AE20E94B101E9E7F2E0EC0FFD1F43
S11335E0EF0DF11D1083F39406C003E0912C0F2E10
S11335F0F7E0DF2EF02D023009F465CF09C0912CDD
S1133600DD24D39405C0912C0F2EF7E0DF2EF02D8E
S1133610CD57DD4F9881C358D240943009F494CAF1
S11336200C94310B1F93CF93DF93C62F8230B1F0EC
S113363018F4813031F038C08330E9F0843041F13E
S113364033C08BB18F7D8BB98BB180618BB98BB15A
S113365088608BB98BB184608BB926C08BB18062D2
S11336608BB98BB18F7E8BB98BB188608BB98BB1E1
S113367084608BB919C08BB180628BB98BB18061C6
S11336808BB98BB1877F8BB98BB184608BB90CC03C
S11336908BB180628BB98BB180618BB98BB188603F
S11336A08BB98BB18B7F8BB9D0E010E001C0182FA0
S11336B061E070E080E090E0A2D1C23061F018F4E3
S11336C0C13031F016C0C33051F0C43069F011C0BC
S11336D086B181700FC086B1869581700BC086B1AA
S11336E082FB882780F906C086B183FB882780F98E
S11336F001C0812F181302C0DF5F01C0D0E0D730B2
S1133700B0F2C23061F018F4C13031F010C0C330EF
S113371049F0C43051F00BC0309BFECF08C0319B40
S1133720FECF05C0329BFECF02C0339BFECFDF919C
S1133730CF911F91089561E081E074DF882309F43B
S113374054C062E081E06EDF882309F450C063E076
S113375081E068DF882309F44CC064E081E062DF23
S1133760882309F448C061E082E05CDF882309F41F
S113377044C062E082E056DF882309F440C063E07D
S113378082E050DF882309F43CC064E082E04ADF31
S1133790882309F438C061E083E044DF8823A9F179
S11337A062E083E03FDF882391F163E083E03ADF66
S11337B0882379F164E083E035DF882361F161E0F7
S11337C084E030DF882349F162E084E02BDF882342
S11337D031F163E084E026DF882319F164E084E0BA
S11337E021DF8111A8CF84E4089581E3089582E361
S11337F0089583E3089581E4089584E3089585E3B7
S1133800089586E3089582E4089587E3089588E39C
S1133810089589E3089583E408958AE2089580E38E
S1133820089583E20895E1ECF0E088E1808383E386
S113383090E09093C5008093C40080818068808369
S113384078940895E1ECF0E080818F778083809113
S1133850C0008823E4F78091C600E1ECF0E0908199
S11338609068908308958093C6008091C00085FF7E
S1133870FCCF0895FF920F931F93CF93DF93EC0136
S1133880E1DF88838D34E1F78D3499F5DBDF8983BB
S1133890893431F0833421F0843511F0823511F408
S11338A01A8228C0863551F4CDDF8A838F3421F003
S11338B0893411F0883511F41B821CC089818E343F
S11338C031F0803521F0833511F0863491F4BADF7C
S11338D08A83F12C0AC00F2D10E00D5F1F4F0C0FCF
S11338E01D1FB0DFF8018083F3948A81F81698F3E2
S11338F001C01882DF91CF911F910F91FF9008951D
S1133900EF92FF920F931F93CF93DF937C01FC01FF
S113391001900020E9F731978F01081B190BC0E0D3
S1133920D0E006C0F701EC0FFD1F80819CDF2196DB
S11339300C171D07BCF7DF91CF911F910F91FF90DA
S1133940EF9008951F920F920FB60F9211242F93A8
S11339503F934F935F936F937F938F939F93AF9313
S1133960BF93CF93EF93FF938091C6008D34C1F43E
S1133970E1ECF0E080818F77808364DF883459F450
S113398061DFC82F5FDF682F8C2F71D0811103C0D6
S11339908EE895E0B5DFE1ECF0E08081806880831B
S11339A0FF91EF91CF91BF91AF919F918F917F91B3
S11339B06F915F914F913F912F910F900FBE0F9098
S11339C01F90189522E024BD31E035BD3FE937BD95
S11339D016BC25BB2AE030E040E050E0FED080E099
S11339E090E0DC01A99BFECF62E065BB0196A11DBE
S11339F0B11D82179307A407B507A4F308950F9385
S1133A001F938B019C0182E084BD83E085BD89EF17
S1133A1087BD16BC85B3826085BB40E050E0BA0127
S1133A20A99BFECF85B3826085BB4F5F5F4F6F4F0D
S1133A307F4F401751076207730794F31F910F914B
S1133A400895109280008CE08093810083E294EFCB
S1133A5090938900809388001092850010928400CE
S1133A60EFE6F0E080818260808378940895883165
S1133A7040F46C3340F4E4E9F5E08083618380E052
S1133A80089581E0089581E00895809196058B332F
S1133A90A9F4E4E9F5E0128281818B3359F41182AF
S1133AA08081873119F41092940508958F5F809373
S1133AB0940508958F5F8093950508958F5F809393
S1133AC09605089581E080939305089510929305D7
S1133AD008951F920F920FB60F9211242F933F93C4
S1133AE04F935F936F937F938F939F93AF93BF9302
S1133AF0EF93FF93CF93DF93CDB7DEB72997DEBF64
S1133B00CDBFC3DF80919305882309F44BC0FE0128
S1133B10319689E0DF011D928A95E9F7A4E9B5E0C1
S1133B208C919DEC899F212D11242695269526950F
S1133B3030E3320F3983220F322F330F330F230F29
S1133B40821B805D8A834AE34B8311968C91119783
S1133B50899F212D112426952695269530E3320F31
S1133B603C83220F322F330F330F230F821B805DD0
S1133B708D834E8312962C91299F912D1124969515
S1133B809695969580E3890F8F83990F892F880FD7
S1133B90880F980F291B205D288741E062E0CF0140
S1133BA00E94000382E086BB29960FB6F894DEBF1C
S1133BB00FBECDBFDF91CF91FF91EF91BF91AF9138
S1133BC09F918F917F916F915F914F913F912F9131
S1133BD00F900FBE0F901F901895052E97FB16F4AB
S1133BE000940FD057FD05D01AD007FC02D046F43C
S1133BF008C050954095309521953F4F4F4F5F4FEA
S1133C00089590958095709561957F4F8F4F9F4F44
S1133C100895EE0FFF1F0590F491E02D0994A1E2A1
S1133C201A2EAA1BBB1BFD010DC0AA1FBB1FEE1F32
S1133C30FF1FA217B307E407F50720F0A21BB30B7D
S1133C40E40BF50B661F771F881F991F1A9469F7F9
S1133C5060957095809590959B01AC01BD01CF0155
S1093C600895F894FFCF63
S1133C6604040404150E0400000103161C080000D5
S1133C760E111114121F020430313233370031325F
S1133C8633373800436F6469676F20696E76616CF9
S1133C9669646F004552524F204E4120434F4D55A3
S1133CA64E49432E00202020202053455249414CA2
S1133CB620202000413A2020423A4252414E434FAE
S1133CC620433A200053454D20564F544F5320521B
S1133CD645474953545241444F53000A53454E41B4
S1133CE6444F523A0A000A505245534944454E54E9
S1133CF6453A0A005552003E44455020464544453F
S1133D0652414C3A0A002020202D43616E646964B6
S1133D1661746F3A0A002020202D50617274696420
S1133D266F3A0A000A505245534944454E453A0AE9
S1133D3600446570204665646572616C3A202020F3
S1133D462000202020202020202020202020202089
S1133D56202000436F6E6669726D613F2020005318
S1133D66656E61646F723A20202020202020200096
S1133D76507265736964656E74653A20202020204C
S1133D860020202020202055726E61202020202033
S1133D962000202020426C6F7175656164612020CB
S1133DA6004C6F67696E2061646D3A2020202020E4
S1133DB62000413A20202020423A20202020433A65
S1133DC620200053656E68612061646D3A202020CE
S1133DD62020200020202020204D65736172696F09
S1133DE6202020200020202020696E76616C6964E2
S1133DF66F20200020202020202055524E412020D4
S1133E06202020200020202020454E4345525241A8
S1133E16444120202000312E2045737461646F20B4
S1133E26646F2020002020202053697374656D611F
S1133E3620202000322E202020204E6F766F202056
S1133E462020002020202020456C6569746F722094
S1133E562000332E2020436F6E73756C746120200E
S1133E6600202020646520486F726172696F20000B
S1133E76342E202054726F63612064652020002054
S1133E86202020486F726172696F20202000352E31
S1133E962020566572696669632E202000646520B9
S1133EA6436F72726573706F6E642E00362E2052E5
S1133EB6656C61746F72696F202000202064652030
S1133EC6566F746163616F202000372E2020547270
S1133ED66F63612064652020002020202020536524
S1133EE66E68612020202000382E202052657365DC
S1133EF6746172202020004F5045524143494F4E71
S1133F06414C2020200020426C6F71756561723F20
S1133F162020202000424C4F515545414E444F200D
S1133F2655524E4120002020202020202E2E2E20C7
S1133F3620202020202000456C6569746F723A2089
S1133F46202020202020200020202020202054452E
S1133F564D504F2020202020002020202020455393
S1133F66474F5441444F2020200020202020202069
S1133F762046494D20202020202000454C45495408
S1133F864F5220494E56414C49444F00484F5241E6
S1133F9620415455414C3A202020202000494E53BC
S1133FA64552495220484F524152494F20003C2025
S1133FB6203A20203E2000484F524152494F20418A
S1133FC64C54455241444F002020434F4D205355F5
S1133FD6434553534F2020200056414C4F5220490D
S1133FE64E56414C49444F2C200054454E544520CE
S1133FF64E4F56414D454E544520002020434F4ECA
S113400653495354454E4349412020002020202043
S11340162020204F4B20202020202020002020205C
S1134026202046414C484F552020202020002020A7
S11340362052454C41544F52494F20202020002005
S1134046202020454E564941444F20202020200060
S11340564E6F76612053656E68613A2020202020D9
S113406600205265706974612061204E6F7661206C
S113407620002020202053656E6861202020202007
S1134086002054726F63612064652053656E686115
S11340962000202020204566657475616461202017
S11340A60020202053656E686173204E616F2020C6
S11340B6200020202020436F6E666572656D2020E7
S11340C600414755415244414E444F202020200090
S11340D6202020456E63657272616461202000456C
S11340E64E43455252414441202020202000554849
S10540F60000C4
S9030000FC
