:1000000043C000005DC000005BC0000059C000009C
:1000100057C0000055C0000053C0000051C0000090
:100020004FC000004DC000004BC000000C94EC0D10
:1000300047C0000045C0000043C0000041C00000B0
:100040003FC000003DC000003BC0000039C00000C0
:1000500037C0000035C0000033C0000031C00000D0
:100060002FC000002DC000009908B408CF08EA088E
:10007000050920093B095609D30BA6097E0AD30BB3
:10008000D30BD30B9A0AD30B11241FBECFEFD8E0AA
:10009000DEBFCDBF13E0A0E0B1E0ECE6FDE102C0C1
:1000A00005900D92A43FB107D9F723E0A4EFB3E088
:1000B00001C01D92A93FB207E1F787D60C94B40E98
:1000C0009FCFCF92DF92EF92FF92CF93C0E049C0D3
:1000D00085B1806185B966E771E080E090E00E94BB
:1000E000730D85B18F7E85B966E771E080E090E0A1
:1000F0000E94730D8CEEC80E82E0D81EE11CF11C2C
:1001000003C0C12CD12C760180E9C8168FE5D80632
:1001100081E0E806F104E4F2C12CD12C760118C08C
:1001200085B1806185B96CE571E080E090E00E9466
:10013000730D85B18F7E85B96CE571E080E090E04C
:100140000E94730D88EBC80E82E0D81EE11CF11CE2
:1001500080E9C8168FE5D80681E0E806F10404F3CB
:10016000CF5FC53070F2C12CD12C760118C085B19B
:10017000806185B966E771E080E090E00E94730DD0
:1001800085B18F7E85B966E771E080E090E00E94DE
:10019000730D8CEEC80E82E0D81EE11CF11C80ECC1
:1001A000C81684EDD80681E0E806F10404F3CF9187
:1001B000FF90EF90DF90CF90089585B1877F85B94C
:1001C00085B18B7F85B985B1826085B985B18E7F18
:1001D00085B98BB18F7B8BB98BB180688BB98BB1B3
:1001E0008F778BB98BB180688BB98BB18F778BB9D7
:1001F00068E270E080E090E00E94730D8BB180684F
:100200008BB98BB18F778BB985B1886085B98BB18C
:1002100080688BB98BB18F778BB968E270E080E032
:1002200090E00C94730D08959BB19F7B9BB995B1A1
:10023000977F95B995B19B7F95B995B19D7F95B9FC
:1002400095B19E7F95B99BB190689BB99BB19F7703
:100250009BB995B1946095B9813021F485B18260E4
:1002600085B903C085B18D7F85B9613021F485B131
:10027000816085B903C085B18E7F85B98BB18068F7
:100280008BB98BB18F778BB968E270E080E090E03A
:100290000C94730D089595B1977F95B995B19B7F97
:1002A00095B995B19D7F95B995B19E7F95B99BB153
:1002B00090689BB99BB19F779BB995B1986095B9B0
:1002C000813021F485B1846085B903C085B18B7F0D
:1002D00085B9613021F485B1826085B903C085B1EB
:1002E0008D7F85B9413021F485B1816085B903C026
:1002F00085B18E7F85B98BB180688BB98BB18F77D3
:100300008BB968E270E080E090E00C94730D089582
:1003100090E002C0959587956A95E2F781700895FF
:10032000CF93C82F67E0F4DF813021F485B1886076
:1003300085B903C085B1877F85B966E08C2FE8DF7A
:10034000813021F485B1846085B903C085B18B7F8C
:1003500085B965E08C2FDCDF813021F485B18260C6
:1003600085B903C085B18D7F85B964E08C2FD0DF5E
:10037000813021F485B1816085B903C085B18E7F5C
:1003800085B98BB180648BB98BB180688BB98BB127
:100390008F778BB963E08C2FBBDF813021F485B17F
:1003A000886085B903C085B1877F85B962E08C2FED
:1003B000AFDF813021F485B1846085B903C085B198
:1003C0008B7F85B961E08C2FA3DF813021F485B16B
:1003D000826085B903C085B18D7F85B960E08C2FBF
:1003E00097DF813021F485B1816085B903C085B183
:1003F0008E7F85B98BB180688BB98BB18F778BB9C4
:1004000068E270E080E090E00E94730DCF91089563
:10041000CF93C82F8BB18F7B8BB985B1886085B99D
:1004200066E08C2F75DF813021F485B1846085B959
:1004300003C085B18B7F85B965E08C2F69DF813082
:1004400021F485B1826085B903C085B18D7F85B9FE
:1004500064E08C2F5DDF813021F485B1816085B946
:1004600003C085B18E7F85B98BB180688BB98BB1A4
:100470008F778BB963E08C2F4BDF813021F485B10E
:10048000886085B903C085B1877F85B962E08C2F0C
:100490003FDF813021F485B1846085B903C085B127
:1004A0008B7F85B961E08C2F33DF813021F485B1FA
:1004B000826085B903C085B18D7F85B960E08C2FDE
:1004C00027DF813021F485B1816085B903C085B112
:1004D0008E7F85B98BB180688BB98BB18F778BB9E3
:1004E00068E270E080E090E00E94730DCF91089583
:1004F000CF93C82F8BB18F7B8BB985B1877F85B99F
:1005000085B1846085B965E08C2F02DF813021F4EC
:1005100085B1826085B903C085B18D7F85B964E0FE
:100520008C2FF6DE813021F485B1816085B903C05E
:1005300085B18E7F85B98BB180688BB98BB18F7790
:100540008BB963E08C2FE4DE813021F485B18860C3
:1005500085B903C085B1877F85B962E08C2FD8DE6D
:10056000813021F485B1846085B903C085B18B7F6A
:1005700085B961E08C2FCCDE813021F485B18260B9
:1005800085B903C085B18D7F85B960E08C2FC0DE51
:10059000813021F485B1816085B903C085B18E7F3A
:1005A00085B98BB180688BB98BB18F778BB968E2D5
:1005B00070E080E090E00E94730DCF9108950F935A
:1005C0001F93CF93DF938C01623011F080E001C064
:1005D00080E4480F8FEF840F803118F04154403190
:1005E00008F416DFC0E0D0E002C09ADE2196F801E0
:1005F000EC0FFD1F80818111F8CFDF91CF911F910A
:100600000F9108950F931F93CF93DF938C01C0E058
:10061000D0E002C085DE2196F801EC0FFD1F80813D
:100620008111F8CFDF91CF911F910F9108950F9312
:100630001F93CF93DF93CDB7DEB768970FB6F894CB
:10064000DEBF0FBECDBF88E0E0E0F1E0DE01119635
:1006500001900D928A95E1F788E0E8E0F1E0DE0193
:10066000199601900D928A95E1F788E0E0E1F1E0BA
:10067000DE01519601900D928A95E1F780E438DF12
:1006800000E010E00AC0E1E0F0E0EC0FFD1FE00F39
:10069000F11F808145DE0F5F1F4F083011059CF36D
:1006A00000E010E00AC0E9E0F0E0EC0FFD1FE00F11
:1006B000F11F808135DE0F5F1F4F083011059CF35D
:1006C00000E010E00AC0E1E1F0E0EC0FFD1FE00FF8
:1006D000F11F808125DE0F5F1F4F083011059CF34D
:1006E00080E096DE68960FB6F894DEBF0FBECDBFF1
:1006F000DF91CF911F910F91089580E006C00E9475
:100700006C0C9FEB980F923020F081548230B8F738
:1007100080E008950E946C0C8234E1F708950F93F5
:100720001F93CF93DF93CDB7DEB7AC970FB6F89496
:10073000DEBF0FBECDBFAC018B01FE01319688E05C
:10074000DF011D928A95E9F785E589838EE48A8326
:1007500085E08B8380E1E4E2F1E0DE01199601900F
:100760000D928A95E1F7FE01799684E1DF011D92F1
:100770008A95E9F790E010C0292F30E0F90133960F
:10078000DA01A20FB31F2C9161E070E06C0F7D1FA6
:10079000E60FF71F20839F5F953070F3CE0101961F
:1007A0000E94510DCE0149960E94FC0C898D8D341A
:1007B00031F58A8D8E3429F541E020E019C0822F71
:1007C00090E0D801A80FB91FFC01339669E170E0F1
:1007D0006C0F7D1FE60FF71F30813C93E9E0F0E0DE
:1007E000EC0FFD1FE80FF91F8081381340E02F5FE9
:1007F0008B8D281720F3442331F080E005C08FEF64
:1008000003C08FEF01C081E0AC960FB6F894DEBF55
:100810000FBECDBFDF91CF911F910F91089541E0A1
:1008200061E084E391E0CBDE41E062E085E491E0C9
:10083000C6CE089541E062E084E591E0C0DE82E446
:10084000E7DD81E06DDD8EE4E3DD8FE769CD0895BE
:100850009C0190E005C0F901E90FF11D10829F5F36
:100860009230C8F30895FF920F931F93CF93DF93B5
:10087000CDB7DEB7C357D1090FB6F894DEBF0FBEB0
:10088000CDBFFE01319685E0DF011D928A95E9F723
:1008900081E13596DF01682F1D926A95E9F71F8A7D
:1008A000188E198E7496DF01682F1D926A95E9F7EC
:1008B0001BA61CA61DA67496DF011D928A95E9F75A
:1008C00085E50E94F50C89E40E94F50CCE01CF96D7
:1008D00022E3FC0111922A95E9F70E94FC0C8FADEE
:1008E0008D3409F05AC221968FAD2197893409F0D1
:1008F00056C241E061E085E691E061DE9BDFCE011A
:10090000CF96A6DF00E0E8D7182F8FEB810F82305B
:1009100008F08EC0113469F4033021F0013011F079
:1009200001110FC089E389838A831B821C8202E044
:1009300008C0123431F480E389838A831B821C82CD
:1009400002E085E50E94F50C86E40E94F50C802FFC
:100950000E94F50C023089F48981E2968FAFE2970C
:100960008A81E3968FAFE397E4961FAEE497CE01BA
:100970008F589F4F0E94510D04C0CE0101960E94D6
:10098000510DCE01CF960E94FC0C8FAD8D3429F411
:1009900021968FAD2197863411F08FEF09C2DE01C9
:1009A000DF96FD0101900020E9F731974E2F4A1B99
:1009B00020E013C0822F90E0FC0133966FE370E0DB
:1009C0006C0F7D1FE60FF71F3081E6E0F0E0EC0FC3
:1009D000FD1FE80FF91F30832F5F241758F341E004
:1009E00061E086E791E0EBDD41E061E0CE01069653
:1009F000E6DD41E062E087E891E0E1DD81E090DC66
:100A000083E991E0FFDD82E08BDC82E489DC75DE46
:100A1000182F823409F03CC041E061E085E691E0A6
:100A2000CEDD08DFCE01CF9613DF00E010E030C04E
:100A3000133499F4002389F0FF24FA94F00EE1E0D6
:100A4000F0E0EC0FFD1FEF0DF11D10828BE0800F29
:100A5000DFDC80E265DC0F2D1BC01332C9F01A32D7
:100A6000B9F01434A9F0123499F0133489F0113428
:100A700079F0043068F48CE0800FCADCE1E0F0E04B
:100A8000EC0FFD1FE00FF11D10830F5F812F48DC7D
:100A90001154123008F037CF41E061E086E991E06F
:100AA0008EDDC8DECE01CF96D3DE00E015D7182F3D
:100AB0008FEB810F823008F06EC0113439F40230B0
:100AC00028F489E38F8B888F02E006C0123421F46A
:100AD00080E38F8B888F02E085E587D783E585D714
:100AE000802F83D7CE014796DCD7CE01CF9684D70F
:100AF0008FAD8D3409F055C121968FAD2197833587
:100B000009F051C1DE01DF96FD0101900020E9F7F7
:100B100031974E2F4A1B20E013C0822F90E0FC013A
:100B20003396AFE3B0E0AC0FBD1FEA0FFB1F30817F
:100B3000EAE1F0E0EC0FFD1FE80FF91F30832F5FB3
:100B4000241758F341E061E086E791E038DD41E0A9
:100B500061E0CE014A9633DD41E062E087E891E052
:100B60002EDD81E0DDDB83E991E04CDD82E0D8DB46
:100B700082E4D6DBC2DD182F823409F03CC041E0AC
:100B800061E086E991E01BDD55DECE01CF9660DEA7
:100B900000E010E030C0133499F4002389F0FF2402
:100BA000FA94F00EE7E1F0E0EC0FFD1FEF0DF11D00
:100BB000108287E0800F2CDC80E2B2DB0F2D1BC09F
:100BC0001332C9F01A32B9F01434A9F0123499F082
:100BD000133489F0113479F0023068F488E0800F22
:100BE00017DCE7E1F0E0EC0FFD1FE00FF11D1083D3
:100BF0000F5F812F95DB1154123008F057CF41E081
:100C000061E087EA91E0DBDC15DECE01CF9620DEE5
:100C100000E062D6182F8FEB810F823008F06EC093
:100C2000113439F4023028F489E38BA78CA702E051
:100C300006C0123421F480E38BA78CA702E085E57F
:100C4000D4D680E5D2D6802FD0D6CE018B9629D7A8
:100C5000CE01CF96D1D68FAD8D3409F0A6C02196A6
:100C60008FAD2197803509F0A2C0DE01DF96FD012E
:100C700001900020E9F731974E2F4A1B20E013C066
:100C8000822F90E0FC0133966FE370E06C0F7D1FC4
:100C9000E60FF71F3081EEE2F0E0EC0FFD1FE80FEA
:100CA000F91F30832F5F241758F341E061E086E796
:100CB00091E085DC41E061E0CE018E9680DC41E090
:100CC00062E087E891E07BDC81E02ADB83E991E068
:100CD00099DC82E025DB82E423DB0FDD182F8234F0
:100CE00009F03CC041E061E087EA91E068DCA2DD08
:100CF000CE01CF96ADDD00E010E030C0133499F4A2
:100D0000002389F0FF24FA94F00EEBE2F0E0EC0F00
:100D1000FD1FEF0DF11D10828AE0800F79DB80E26C
:100D2000FFDA0F2D1BC01332C9F01A32B9F0143498
:100D3000A9F0123499F0133489F0113479F00230AB
:100D400068F48BE0800F64DBEBE2F0E0EC0FFD1F5A
:100D5000E00FF11D10830F5F812FE2DA1154123082
:100D600008F057CFCE01CF9673DD85E53ED683E4FC
:100D70003CD6CE01CF9640D68FAD8D3429F4219646
:100D80008FAD2197833411F04ADDFFCF41E061E060
:100D900088EB91E014DC82E00BC08FEF09C08FEF8D
:100DA00007C08FEF05C08FEF03C08FEF01C08FEF3B
:100DB000CD58DF4F0FB6F894DEBF0FBECDBFDF9129
:100DC000CF911F910F91FF900895CF93DF93CDB7EF
:100DD000DEB7C55DD2400FB6F894DEBF0FBECDBF03
:100DE00084B1816084B984B1826084B984B1846043
:100DF00084B984B1886084B98AB180688AB98AB1BB
:100E000080648AB98AB180628AB98AB180618AB9FC
:100E10008AB188608AB98AB184608AB987B18E7FC5
:100E200087B987B18D7F87B987B18B7F87B987B144
:100E3000877F87B984B1806184B984B1806284B9C5
:100E40008BB180628BB98BB180618BB98BB18860BB
:100E50008BB98BB184608BB988B1816088B988B156
:100E6000826088B988B1846088B988B1886088B99F
:100E700085B18F7E85B985B18F7D85B99ED960E0BA
:100E800081E0D2D940E060E081E005DAD0DB6AD6CB
:100E90009BD5FE01EF55FD4F85E0DF01982F1D9298
:100EA0009A95E9F7359691E1DF011D929A95E9F758
:100EB0007196DF01982F1D929A95E9F73596DF011B
:100EC0001D928A95E9F785E0E8E1F1E0DE01AF5394
:100ED000BD4F01900D928A95E1F785E0EEE1F1E0DA
:100EE000DE01AA53BD4F01900D928A95E1F7FF24D0
:100EF000F394EE24E394B1E0CB52DD4FB883C55DAB
:100F0000D24003C182E0E816E9F093E0E91609F463
:100F100068C0A1E0EA12F9C041E061E089EC91E02B
:100F20004EDB41E062E08AED91E049DB80E0F8D9F8
:100F300081E4F6D9E2DB813409F0E7C06894EE245D
:100F4000E1F8E3C041E061E089EE91E038DB41E0A7
:100F500062E08AEF91E033DB82E45ADA81E0E0D9A3
:100F600088E456DA82E0DCD98EE452DA8FE7D8D909
:100F700088E04EDA00E0B0D4182F813411F4053047
:100F800029F1123441F1133449F41FEF100F89E0B5
:100F9000800F3EDA80E2C4D9012F1FC00530E8F48B
:100FA0001A32D9F01434C9F01332B9F01134A9F05F
:100FB0008AE0800F2DDA812FB3D9ECEBF2E0EC0F51
:100FC000FD1FE00FF11D10830F5F07C00F2EF3E030
:100FD000EF2EF02D02C0EE24E394B2E0EB1659F2AE
:100FE00094C041E061E08BE092E0E9DA41E062E048
:100FF0008AEF91E0E4DA82E40BDA81E091D988E4C7
:1010000007DA82E08DD98EE403DA8FE789D988E0A8
:10101000FFD900E061D4182F813409F042C00530B7
:1010200009F03FC025C0822F90E0ECEBF2E0EC0F1E
:10103000FD1FE80FF91F5081E1ECF2E0EC0FFD1FFE
:10104000E80FF91F4081541311C0E7EBF2E0EC0FF9
:10105000FD1FE80FF91F4081E6ECF2E0EC0FFD1FE9
:10106000E80FF91F8081481301C03F5F2F5F02C066
:1010700030E020E02530B8F2353009F437C041E0E7
:1010800061E08CE192E09BDA41E062E08DE292E087
:1010900096DA82E045D982E443D93CDBEE24E3943E
:1010A00030C0123461F1133449F41FEF100F89E09E
:1010B000800FAED980E234D9012F23C0053008F566
:1010C0001A32F9F01434E9F01332D9F01134C9F0BE
:1010D0008AE0800F9DD98AE223D9E7EBF2E0EC0F9A
:1010E000FD1FE00FF11D10830F5F0BC0EE24E39492
:1010F00082E0CB52DD4F8883C55DD24002C0EE2432
:10110000E39493E0E91609F485CFCB52DD4FA88133
:10111000C55DD240A13009F046C3F4CE8E2D90E0DB
:10112000FC013197E830F10508F005C1EC5CFF4F98
:10113000F3C541E061E08CE392E041DA81E0F0D870
:1011400081E4EED841E062E08BE492E038DA80E0BE
:10115000E7D882E4E5D8D1DA823411F4E394EBC025
:10116000813409F0E8C0BAC041E061E08AE592E06C
:1011700026DA81E0D5D881E4D3D841E062E089E67F
:1011800092E01DDA80E0CCD882E4CAD8B6DA8234A4
:1011900011F4E394D0C0813409F0CDC0A3C041E084
:1011A00061E088E792E00BDA81E0BAD881E4B8D850
:1011B00041E062E087E892E002DA80E0B1D882E4C0
:1011C000AFD89BDA823411F4E394B5C0813409F0CE
:1011D000B2C08DC041E061E086E992E0F0D981E0E3
:1011E0009FD881E49DD841E062E085EA92E0E7D9AA
:1011F00080E096D882E494D880DA823411F4E394C3
:101200009AC0813409F097C078C041E061E084EB76
:1012100092E0D5D981E084D881E482D841E062E0CF
:1012200083EC92E0CCD980E07BD882E479D865DA8F
:10123000823411F4E3947FC0813409F07CC062C031
:1012400041E061E082ED92E0BAD981E069D881E4C1
:1012500067D841E062E081EE92E0B1D980E060D8E9
:1012600082E45ED84ADA823411F4E39464C08134B3
:1012700009F061C04DC041E061E080EF92E09FD98C
:1012800081E04ED881E44CD841E062E08FEF92E0FB
:1012900096D980E045D882E443D82FDA823411F41D
:1012A000E39449C0813409F046C038C041E061E0B0
:1012B0008EE093E084D981E033D881E431D841E0F5
:1012C00062E08FEF92E07BD980E02AD882E428D8D0
:1012D00014DA823449F1813471F529C0FF24F39482
:1012E000E12C29C06894FF24F1F8E12C24C00F2ED2
:1012F000F3E0FF2EF02DE12C1EC06894FF24F2F8DD
:10130000E12C19C00F2EF5E0FF2EF02DE12C13C0BB
:101310000F2EF6E0FF2EF02DE12C0DC00F2EF7E082
:10132000FF2EF02DE12C07C0EE24E39404C0689456
:10133000FF24F3F8E12C8F2D90E0FC013197E83089
:10134000F10508F030C2E45CFF4FE6C441E061E023
:101350008DE193E034D941E062E08AEF91E02FD94A
:1013600082E456D881E00E94900188E451D882E05E
:101370000E9490018EE44CD88FE70E94900188E093
:1013800047D800E0A9D2182F813409F080C0053079
:1013900009F07DC0BE016A557D4FCE018F559D4F2E
:1013A000BED9813009F049C041E061E0CE018A55E3
:1013B0009D4F05D941E062E087E891E000D981E0E6
:1013C0000E94900183E991E01DD982E00E94900182
:1013D00082E40E94900191D9182F813451F5CE01F9
:1013E000019641DA813059F441E061E08EE293E008
:1013F000E6D841E062E08FE393E0E1D8FFCF8F3F92
:1014000019F40DDA87D9FFCF823009F073C08091CB
:10141000F4038F5F8093F40341E061E080E593E0A3
:10142000CED841E062E086E791E0C9D80E94610031
:1014300061C0823409F05EC054C0811117C041E020
:1014400061E081E693E0BBD841E062E088E791E0AB
:10145000B6D882E00E94900182E40E9490015AD99D
:10146000182FF12C6894EE24E1F844C08F3F09F066
:1014700041C0D5D982E00E94900182E40E9490018F
:1014800049D9182FF12C6894EE24E1F833C01234B6
:1014900069F1133461F4DD24DA94D00E87E0800F13
:1014A0000E94080280E20E9490010D2D23C00530A9
:1014B00008F51A32F9F01434E9F01332D9F0113486
:1014C000C9F088E0800F0E940802812F0E949001DD
:1014D000E1EAF2E0EC0FFD1FE00FF11D10830F5F5A
:1014E00009C0F12C6894EE24E1F804C0F12C689452
:1014F000EE24E1F8123409F045CF55C141E061E036
:1015000082E793E05CD841E062E088E791E057D859
:1015100082E00E94900182E40E94900156D3DCD1C7
:10152000823409F040C155D3F12C0F2EF3E0EF2E99
:10153000F02D39C1FE01E053FD4F85E0DF01982F0A
:101540001D929A95E9F73597DF011D928A95E9F783
:1015500041E061E083E893E032D841E062E08AEF65
:1015600091E02DD882E40E94080281E00E9490015F
:1015700088E40E94080282E00E9490018EE40E94AA
:1015800008028FE70E94900101E0D12CA5D1182F0D
:10159000813419F4B5E0DB1651F1123451F11334F2
:1015A00059F41FEF1D0D8AE08D0D0E94080280E2A4
:1015B0000E949001D12E1FC084E08D15E0F01A32F8
:1015C000D1F01434C1F01332B1F01134A1F08BE03A
:1015D0008D0D0E9408028AE20E949001E0EDF2E087
:1015E000EC0FFD1FED0DF11D1083D39404C002E03C
:1015F00002C003E0F12C013049F2033009F4CEC0FF
:1016000041E061E084E993E00E94DF0241E062E0B2
:1016100085EA93E00E94DF0280E00E94900181E46D
:101620000E9490016AD841E061E083E893E00E9463
:10163000DF0241E062E08AEF91E00E94DF0282E493
:101640000E94080281E00E94900188E40E94080242
:1016500082E00E9490018EE40E9408028FE70E94BF
:101660009001D12C39D1182F813409F063C095E055
:10167000D91260C015C0822F90E0E0EDF2E0EC0FCF
:10168000FD1FE80FF91F3081EBECF2E0EC0FFD1FBE
:10169000E80FF91F8081381301C04F5F2F5F02C030
:1016A00020E040E0253038F3453049F512C0822F64
:1016B00090E0E0EDF2E0EC0FFD1FE80FF91F308144
:1016C000E7EBF2E0EC0FFD1FE80FF91F30832F5F0F
:1016D00001C020E0253058F341E061E084EB93E065
:1016E0000E94DF0241E062E085EC93E00E94DF02AD
:1016F00082E00E94900182E40E94900112C041E0C9
:1017000061E084ED93E00E94DF0241E062E085EE5B
:1017100093E00E94DF0282E00E94900182E40E9436
:1017200090010E948A0303E0F12C0F2EF7E0EF2EC8
:10173000F02D30C0123441F1133459F41FEF1D0D58
:101740008AE08D0D0E94080280E20E949001D12E55
:1017500021C0A4E0AD15F0F01A32E1F01434D1F05C
:101760001332C1F01134B1F08BE08D0D0E940802EC
:101770008AE20E949001EBECF2E0EC0FFD1FED0D10
:10178000F11D1083D39406C003E0F12C0F2EF7E077
:10179000EF2EF02D023009F465CF05C0F12C0F2E8D
:1017A000F7E0EF2EF02DCB52DD4FB881C55DD24072
:1017B000B23009F4B3CCCB52DD4F8881C55DD24045
:1017C0008330C9F3A2CC1F93CF93DF93C62F82300F
:1017D000B1F018F4813031F038C08330E9F0843052
:1017E00041F133C08BB18F7D8BB98BB180618BB9E7
:1017F0008BB188608BB98BB184608BB926C08BB1FB
:1018000080628BB98BB18F7E8BB98BB188608BB9BD
:101810008BB184608BB919C08BB180628BB98BB1ED
:1018200080618BB98BB1877F8BB98BB184608BB9A9
:101830000CC08BB180628BB98BB180618BB98BB1DD
:1018400088608BB98BB18B7F8BB9D0E010E001C081
:10185000182F61E070E080E090E062D1C23061F06A
:1018600018F4C13031F016C0C33051F0C43069F003
:1018700011C086B181700FC086B1869581700BC092
:1018800086B182FB882780F906C086B183FB882752
:1018900080F901C0812F181302C0DF5F01C0D0E0C2
:1018A000D730B0F2C23061F018F4C13031F010C05E
:1018B000C33049F0C43051F00BC0309BFECF08C09C
:1018C000319BFECF05C0329BFECF02C0339BFECFC3
:1018D000DF91CF911F91089561E081E074DF88234B
:1018E00009F454C062E081E06EDF882309F450C03F
:1018F00063E081E068DF882309F44CC064E081E0A4
:1019000062DF882309F448C061E082E05CDF88235D
:1019100009F444C062E082E056DF882309F440C045
:1019200063E082E050DF882309F43CC064E082E099
:101930004ADF882309F438C061E083E044DF88236C
:10194000A9F162E083E03FDF882391F163E083E067
:101950003ADF882379F164E083E035DF882361F1A1
:1019600061E084E030DF882349F162E084E02BDF2E
:10197000882331F163E084E026DF882319F164E0F5
:1019800084E021DF8111A8CF84E4089581E30895E4
:1019900082E3089583E3089581E4089584E308953C
:1019A00085E3089586E3089582E4089587E3089522
:1019B00088E3089589E3089583E408958AE2089509
:1019C00080E3089583E2089588E18093C10083E372
:1019D00090E09093C5008093C40008958091C0006A
:1019E0008823E4F78091C60008958093C600809113
:1019F000C00085FFFCCF0895FF920F931F93CF93F4
:101A0000DF93EC01EBDF88838D34E1F78D3409F04F
:101A100041C0E4DF8983893431F0833421F0843597
:101A200011F0823511F41A8236C0863551F4D6DFB2
:101A30008A838F3421F0893411F0883511F41B82A8
:101A40002AC08981883459F4C9DF8A83C7DF8B8330
:101A50009A81983120F48C3310F41C821CC0898147
:101A60008E3431F0803521F0833511F0863491F4D5
:101A7000B5DF8A83F12C0AC00F2D10E00D5F1F4FD8
:101A80000C0F1D1FABDFF8018083F3948A81F816D9
:101A900098F301C01882DF91CF911F910F91FF90B1
:101AA0000895EF92FF920F931F93CF93DF937C01E2
:101AB000FC0101900020E9F731978F01081B190BF9
:101AC000C0E0D0E006C0F701EC0FFD1F80818DDF84
:101AD00021960C171D07BCF7DF91CF911F910F9135
:101AE000FF90EF90089522E024BD31E035BD3FE93D
:101AF00037BD16BC25BB2AE030E040E050E0F0D016
:101B000080E090E0DC01A99BFECF62E065BB01961E
:101B1000A11DB11D82179307A407B507A4F308956B
:101B20000F931F938B019C0182E084BD83E085BDF0
:101B300089EF87BD16BC85B3826085BB40E050E06D
:101B4000BA01A99BFECF85B3826085BB4F5F5F4F13
:101B50006F4F7F4F401751076207730794F31F9130
:101B60000F910895109280008CE08093810083E2B1
:101B700094EF9093890080938800109285001092D2
:101B80008400EFE6F0E0808182608083789408959D
:101B90008091F8038B33A9F4E6EFF3E012828181A0
:101BA0008B3359F411828081873119F41092F60336
:101BB00008958F5F8093F60308958F5F8093F703F6
:101BC00008958F5F8093F803089581E08093F50373
:101BD00008951092F50308951F920F920FB60F9279
:101BE00011242F933F934F935F936F937F938F9322
:101BF0009F93AF93BF93EF93FF93CF93DF93CDB7B3
:101C0000DEB72997DEBFCDBFC3DF8091F503882300
:101C100009F44BC0FE01319689E0DF011D928A95DF
:101C2000E9F7A6EFB3E08C919DEC899F212D11245B
:101C300026952695269530E3320F3983220F322FD1
:101C4000330F330F230F821B805D8A834AE34B835C
:101C500011968C911197899F212D112426952695F7
:101C6000269530E3320F3C83220F322F330F330F90
:101C7000230F821B805D8D834E8312962C91299FAA
:101C8000912D112496959695969580E3890F8F83D3
:101C9000990F892F880F880F980F291B205D28879F
:101CA00041E062E0CF010E94DF0282E086BB29961C
:101CB0000FB6F894DEBF0FBECDBFDF91CF91FF917D
:101CC000EF91BF91AF919F918F917F916F915F91B4
:101CD0004F913F912F910F900FBE0F901F9018952D
:101CE000052E97FB16F400940FD057FD05D01AD09F
:101CF00007FC02D046F408C05095409530952195D8
:101D00003F4F4F4F5F4F0895909580957095619527
:101D10007F4F8F4F9F4F0895EE0FFF1F0590F49157
:101D2000E02D0994A1E21A2EAA1BBB1BFD010DC0D8
:101D3000AA1FBB1FEE1FFF1FA217B307E407F5077B
:101D400020F0A21BB30BE40BF50B661F771F881F57
:101D5000991F1A9469F760957095809590959B01ED
:0C1D6000AC01BD01CF010895F894FFCF45
:101D6C0004040404150E0400000103161C080000F2
:101D7C000E111114121F020430313233370031327C
:101D8C0033373800436F6469676F20696E76616C16
:101D9C0069646F004552524F204E4120434F4D55C0
:101DAC004E49432E00202020202053455249414CBF
:101DBC0020202000413A2020423A4252414E434FCB
:101DCC0020433A2000446570204665646572616C5E
:101DDC003A202020200020202020202020202020FD
:101DEC0020202020202000436F6E6669726D613FB9
:101DFC0020200041200053656E61646F723A2020F0
:101E0C0020202020202000507265736964656E7458
:101E1C00653A202020202000202020202020202077
:101E2C0066696D20202020200020202020202055B5
:101E3C00726E6120202020202000202020426C6F18
:101E4C007175656164612020004C6F67696E20615B
:101E5C00646D3A20202020202000413A20202020B0
:101E6C00423A20202020433A20200053656E6861BE
:101E7C002061646D3A20202020202000202020208A
:101E8C00204D65736172696F202020200020202076
:101E9C0020696E76616C69646F202000312E2045BC
:101EAC00737461646F20646F202000202020205305
:101EBC00697374656D6120202000322E2020202053
:101ECC004E6F766F20202020002020202020456C93
:101EDC006569746F72202000332E2020436F6E735F
:101EEC00756C7461202000202020646520486F727E
:101EFC006172696F2000342E202054726F63612050
:101F0C00646520200020202020486F726172696F68
:101F1C0020202000352E2020566572696669632EBC
:101F2C00202000646520436F72726573706F6E645D
:101F3C002E00362E2052656C61746F72696F2020F2
:101F4C00002020646520566F746163616F2020004F
:101F5C00372E202054726F6361206465202000208E
:101F6C002020202053656E68612020202000382E10
:101F7C0020205265736574617220202000456C65C9
:101F8C0069746F723A20202020202020200020200D
:101F9C002020202054454D504F2020202020002070
:101FAC00202020204553474F5441444F20202000EF
:101FBC002020202020202046494D20202020202099
:101FCC0000454C4549544F5220494E56414C4944CA
:101FDC004F00484F524120415455414C3A2020204B
:101FEC002020004E6F76612053656E68613A202088
:101FFC0020202000205265706974612061204E6F92
:10200C0076612020002020202053656E68612020FE
:10201C00202020002054726F63612064652053657A
:10202C006E6861200020202020456665747561640F
:10203C006120200020202053656E686173204E6162
:10204C006F2020200020202020436F6E6665726573
:04205C006D202000D3
:00000001FF
