S017000075726E615F656C6574726F6E6963612E73726563D2
S113000071C0000081C000007FC000007DC00000FE
S11300107BC0000079C0000077C0000075C00000FC
S113002073C0000071C000006FC000006DC000000C
S11300306BC0000069C0000067C0000065C000001C
S113004063C0000061C000005FC000005DC000002C
S1130050B9C4000059C0000057C0000055C00000DA
S113006053C0000051C000004FC000004DC000004C
S11300704BC0000049C0000047C0000045C000005C
S113008043C0000041C000003FC000003DC000006C
S11300903BC0000039C0000037C0000035C000007C
S11300A033C0000031C000002FC000002DC000008C
S11300B02BC0000029C0000027C0000025C000009C
S11300C023C0000021C000001FC000001DC00000AC
S11300D01BC0000019C0000017C0000015C00000BC
S11300E013C0000011241FBECFEFD1E2DEBFCDBF8D
S11300F000E00CBF22E0A0E0B2E001C01D92A330FA
S1130100B207E1F7E7D1E4C47BCFCF93DF93C2E03A
S1130110D1E088818F7D888388818F7B888385B1B6
S1130120806185B985B18F7D85B985B18F7785B9B2
S113013085B1806485B985B18F7B85B988E290E00B
S1130140B6D385B1806485B985B18F7B85B9888143
S11301508062888385B1806485B985B18F7B85B9D8
S113016088E290E0A4D3DF91CF91089595B19F7771
S113017095B9E2E0F1E090819F7D908390819F7B2F
S1130180908395B19F7E95B995B19F7D95B995B1B1
S1130190906495B995B19F7B95B990819064908353
S11301A0813021F485B1806185B903C085B18F7E2A
S11301B085B9613021F485B1806285B903C085B108
S11301C08F7D85B985B1806485B985B18F7B85B90B
S11301D088E290E06CC30895E2E0F1E090819F7DB5
S11301E0908390819F7B908395B19F7E95B995B1C3
S11301F09F7D95B995B1906495B995B19F7B95B95B
S1130200908190629083813021F480818064808326
S113021005C0E2E0F1E080818F7B8083613021F4CE
S113022085B1806185B903C085B18F7E85B94130C0
S113023021F485B1806285B903C085B18F7D85B90C
S113024085B1806485B985B18F7B85B988E290E0FA
S11302502EC3089590E002C0959587956A95E2F7BC
S113026081700895CF93C82F67E0F4DF813031F4B3
S1130270E2E0F1E080818062808305C0E2E0F1E0A9
S113028080818F7D808366E08C2FE4DF813031F4C0
S1130290E2E0F1E080818064808305C0E2E0F1E087
S11302A080818F7B808365E08C2FD4DF813021F4C3
S11302B085B1806185B903C085B18F7E85B964E05D
S11302C08C2FC8DF813021F485B1806285B903C0E9
S11302D085B18F7D85B985B1806885B985B1806424
S11302E085B985B18F7B85B963E08C2FB3DF81300D
S11302F031F4E2E0F1E080818062808305C0E2E0D5
S1130300F1E080818F7D808362E08C2FA3DF8130D8
S113031031F4E2E0F1E080818064808305C0E2E0B2
S1130320F1E080818F7B808361E08C2F93DF8130CB
S113033021F485B1806185B903C085B18F7E85B90B
S113034060E08C2F87DF813021F485B1806285B92C
S113035003C085B18F7D85B985B1806485B985B1C8
S11303608F7B85B988E290E0A2D2CF910895CF9394
S1130370C82F85B18F7785B9E2E0F1E08081806292
S1130380808366E08C2F66DF813031F4E2E0F1E0B7
S113039080818064808305C0E2E0F1E080818F7B0E
S11303A0808365E08C2F56DF813021F485B1806134
S11303B085B903C085B18F7E85B964E08C2F4ADF8F
S11303C0813021F485B1806285B903C085B18F7D08
S11303D085B985B1806485B985B18F7B85B963E0C2
S11303E08C2F38DF813031F4E2E0F1E080818062EB
S11303F0808305C0E2E0F1E080818F7D808362E04C
S11304008C2F28DF813031F4E2E0F1E080818064D8
S1130410808305C0E2E0F1E080818F7B808361E02E
S11304208C2F18DF813021F485B1806185B903C038
S113043085B18F7E85B960E08C2F0CDF813021F48B
S113044085B1806285B903C085B18F7D85B985B1D9
S1130450806485B985B18F7B85B988E290E027D225
S1130460CF9108950F931F93CF93DF938C01623044
S113047011F080E001C080E4480F8FEF840F8031D9
S113048018F04154403108F472DFC0E0D0E002C0FB
S1130490E9DE2196F801EC0FFD1F80818111F8CF70
S11304A0DF91CF911F910F9108950F931F93CF93D5
S11304B0DF938C01C0E0D0E002C0D4DE2196F801C5
S11304C0EC0FFD1F80818111F8CFDF91CF911F9137
S11304D00F910895CF93DF93CDB7DEB7C956D109F5
S11304E00FB6F894DEBF0FBECDBF84B1806284B96D
S11304F084B1806184B9E1E0F1E08081806480832B
S113050080818062808384B1806484B984B180688E
S113051084B980B3816080BB80B3826080BB80B3C8
S1130520846080BB80B3886080BB80B38F7E80BBD7
S113053080B38F7D80BB80B38F7B80BB80B38F778C
S113054080BB81B3816081BB81B3826081BB81B395
S1130550846081BB81B3886081BBD7DD60E081E0CA
S113056005DE41E061E081E037DEF9D11AD1FE0118
S1130570319685E0DF011D928A95E9F7359684E688
S1130580DF011D928A95E9F785E5898380E58A83F1
S11305901B82CE01019689DF82E08B838AD08C8313
S11305A061DE87D08D835EDECE01019665D1CE01FA
S11305B006960FD18E818D3419F48F818035A1F385
S11305C041E062E0CE0109964DDFDECF1F93CF9369
S11305D0DF93C62F8230B1F018F4813031F038C087
S11305E08330E9F0843041F133C081B38E7F81BB25
S11305F081B3826081BB81B3846081BB81B3886035
S113060081BB26C081B3816081BB81B38D7F81BBF7
S113061081B3846081BB81B3886081BB19C081B31D
S1130620816081BB81B3826081BB81B38B7F81BBDD
S113063081B3886081BB0CC081B3816081BB81B30D
S1130640826081BB81B3846081BB81B3877F81BBBE
S1130650D0E010E001C0182F88EE93E028D1C2301A
S113066069F018F4C13031F018C0C33061F0C430FF
S113067079F013C08FB18295817010C08FB185FB62
S1130680882780F90BC08FB186FB882780F906C0C4
S11306908FB1881F8827881F01C0812F181302C0BB
S11306A0DF5F01C0D0E0D730B0F2DF91CF911F916E
S11306B0089561E081E08ADF882309F454C062E090
S11306C081E084DF882309F450C063E081E07EDFA9
S11306D0882309F44CC064E081E078DF882309F4BE
S11306E048C061E082E072DF882309F444C062E01C
S11306F082E06CDF882309F440C063E082E066DFB7
S1130700882309F43CC064E082E060DF882309F4B4
S113071038C061E083E05ADF8823A9F162E083E016
S113072055DF882391F163E083E050DF882379F17A
S113073064E083E04BDF882361F161E084E046DF1D
S1130740882349F162E084E041DF882331F163E0EA
S113075084E03CDF882319F164E084E037DF811111
S1130760A8CF84E4089581E3089582E3089583E3A0
S1130770089581E4089584E3089585E3089586E364
S1130780089582E4089587E3089588E3089589E34A
S1130790089583E408958AE2089580E3089583E246
S11307A0089588E18093C10083E390E09093C500AD
S11307B08093C40008958091C0008823E4F7809159
S11307C0C60008958093C6008091C0008823E4F792
S11307D00895FF920F931F93CF93DF93EC01EBDF08
S11307E088838D3409F041C0E6DF8983893431F090
S11307F0833421F0843511F0823511F41A8236C025
S1130800863551F4D8DF8A838F3421F0893411F08E
S1130810883511F41B822AC08981883459F4CBDFCE
S11308208A83C9DF8B839A81983120F48C3310F446
S11308301C821CC089818E3431F0803521F08335CF
S113084011F0863491F4B7DF8A83F12C0AC00F2D9E
S113085010E00D5F1F4F0C0F1D1FADDFF8018083EB
S1130860F3948A81F81698F301C01882DF91CF912E
S11308701F910F91FF9008950F931F93CF93DF93D0
S11308808C01FC0101900020E9F73197DE2FD81B81
S1130890C0E006C0F801EC0FF11D808193DFC15068
S11308A0CD17C0F3DF91CF911F910F91089514BC20
S11308B08038910584F422E025BDDC0120E034E297
S11308C044EF50E0C4D020E032E14AE750E0A3D046
S11308D0219526BD41C09C01205831092936334059
S11308E080F423E025BDDC0120E034E244EF50E055
S11308F0AED020E030E940ED53E08DD0219526BD07
S11309002BC09C01295E3340283B3B4080F424E00B
S113091025BDDC0120E034E244EF50E098D020E033
S113092030E442E45FE077D0219526BD15C09C01F8
S1130930215A3F402C30304378F425E025BDDC01BA
S113094020E034E244EF50E082D020E030E049E09F
S11309505DE361D0219526BDA89BFECF089510923A
S113096080008CE08093810083E294EF909389006F
S1130970809388001092850010928400EFE6F0E0E6
S113098080818260808378940895809102028B3301
S1130990A9F4E0E0F2E0128281818B3359F41182F0
S11309A08081873119F41092000208958F5F80933B
S11309B0000208958F5F8093010208958F5F8093F2
S11309C0020208951F920F920FB60F9211240BB6D4
S11309D00F922F933F934F935F936F937F938F93D4
S11309E09F93AF93BF93EF93FF93CFDF82E086BBD8
S11309F0FF91EF91BF91AF919F918F917F916F91F3
S1130A005F914F913F912F910F900BBE0F900FBEAE
S1130A100F901F901895052E97FB16F400940FD095
S1130A2057FD05D01AD007FC02D046F408C05095F3
S1130A304095309521953F4F4F4F5F4F08959095C6
S1130A408095709561957F4F8F4F9F4F0895B7FFA5
S1130A5026C025D0821B930B0895A1E21A2EAA1B4F
S1130A60BB1BFD010DC0AA1FBB1FEE1FFF1FA2175A
S1130A70B307E407F50720F0A21BB30BE40BF50B57
S1130A80661F771F881F991F1A9469F760957095E0
S1130A90809590959B01AC01BD01CF01089509D0CB
S1130AA0A59F900DB49F900DA49F800D911D1124BE
S1130AB00895A29FB001B39FC001A39F700D811D33
S1130AC01124911DB29F700D811D1124911D089553
S1070AD0F894FFCFC4
S9030000FC
