:1000000033C000004DC000004BC0000049C00000DC
:1000100047C0000045C0000043C0000041C00000D0
:100020003FC000003DC000003BC000000C941A0A15
:1000300037C0000035C0000033C0000031C00000F0
:100040002FC000002DC000002BC0000029C0000000
:1000500027C0000025C0000023C0000021C0000010
:100060001FC000001DC0000011241FBECFEFD8E04C
:10007000DEBFCDBF12E0A0E0B1E0EEEEF5E102C0E0
:1000800005900D92A63BB107D9F722E0A6EBB2E0AE
:1000900001C01D92AB3BB207E1F78DD50C94F50A78
:1000A000AFCF85B1877F85B985B18B7F85B985B1A4
:1000B000826085B985B18E7F85B98BB18F7B8BB915
:1000C0008BB180688BB98BB18F778BB98BB180681E
:1000D0008BB98BB18F778BB988E290E00E9486094B
:1000E0008BB180688BB98BB18F778BB985B1886004
:1000F00085B98BB180688BB98BB18F778BB988E26A
:1001000090E00C94860908959BB19F7B9BB995B1B3
:10011000977F95B995B19B7F95B995B19D7F95B91D
:1001200095B19E7F95B99BB190689BB99BB19F7724
:100130009BB995B1946095B9813021F485B1826005
:1001400085B903C085B18D7F85B9613021F485B152
:10015000816085B903C085B18E7F85B98BB1806818
:100160008BB98BB18F778BB988E290E00C948609BC
:10017000089595B1977F95B995B19B7F95B995B144
:100180009D7F95B995B19E7F95B99BB190689BB9BC
:100190009BB19F779BB995B1986095B9813021F457
:1001A00085B1846085B903C085B18B7F85B9613025
:1001B00021F485B1826085B903C085B18D7F85B991
:1001C000413021F485B1816085B903C085B18E7F4E
:1001D00085B98BB180688BB98BB18F778BB988E289
:1001E00090E00C948609089590E002C0959587955B
:1001F0006A95E2F781700895CF93C82F67E0F4DF26
:10020000813021F485B1886085B903C085B1877FCD
:1002100085B966E08C2FE8DF813021F485B18460F8
:1002200085B903C085B18B7F85B965E08C2FDCDF94
:10023000813021F485B1826085B903C085B18D7F9D
:1002400085B964E08C2FD0DF813021F485B18160E5
:1002500085B903C085B18E7F85B98BB180648BB9B8
:100260008BB180688BB98BB18F778BB963E08C2FA2
:10027000BBDF813021F485B1886085B903C085B1C9
:10028000877F85B962E08C2FAFDF813021F485B1A3
:10029000846085B903C085B18B7F85B961E08C2FFF
:1002A000A3DF813021F485B1826085B903C085B1B7
:1002B0008D7F85B960E08C2F97DF813021F485B187
:1002C000816085B903C085B18E7F85B98BB18068A7
:1002D0008BB98BB18F778BB988E290E00E94860949
:1002E000CF910895CF93C82F8BB18F7B8BB985B1F8
:1002F000886085B966E08C2F77DF813021F485B185
:10030000846085B903C085B18B7F85B965E08C2F8A
:100310006BDF813021F485B1826085B903C085B17E
:100320008D7F85B964E08C2F5FDF813021F485B14A
:10033000816085B903C085B18E7F85B98BB1806836
:100340008BB98BB18F778BB963E08C2F4DDF813008
:1003500021F485B1886085B903C085B1877F85B9EF
:1003600062E08C2F41DF813021F485B1846085B952
:1003700003C085B18B7F85B961E08C2F35DF81307B
:1003800021F485B1826085B903C085B18D7F85B9BF
:1003900060E08C2F29DF813021F485B1816085B93F
:1003A00003C085B18E7F85B98BB180688BB98BB165
:1003B0008F778BB988E290E0A9D7CF910895CF933A
:1003C000C82F8BB18F7B8BB985B1877F85B985B1FC
:1003D000846085B965E08C2F07DF813021F485B119
:1003E000826085B903C085B18D7F85B964E08C2FAB
:1003F000FBDE813021F485B1816085B903C085B110
:100400008E7F85B98BB180688BB98BB18F778BB9B3
:1004100063E08C2FE9DE813021F485B1886085B9F5
:1004200003C085B1877F85B962E08C2FDDDE813026
:1004300021F485B1846085B903C085B18B7F85B90E
:1004400061E08C2FD1DE813021F485B1826085B9E5
:1004500003C085B18D7F85B960E08C2FC5DE81300A
:1004600021F485B1816085B903C085B18E7F85B9DE
:100470008BB180688BB98BB18F778BB988E290E0B4
:1004800045D7CF9108950F931F93CF93DF938C019E
:10049000623011F080E001C080E4480F8FEF840FDC
:1004A000803118F04154403108F41CDFC0E0D0E046
:1004B00002C0A2DE2196F801EC0FFD1F80818111A0
:1004C000F8CFDF91CF911F910F9108950F931F9354
:1004D000CF93DF938C01C0E0D0E002C08DDE219687
:1004E000F801EC0FFD1F80818111F8CFDF91CF91D2
:1004F0001F910F9108950F931F93CF93DF93CDB763
:10050000DEB768970FB6F894DEBF0FBECDBF88E0A8
:10051000E0E0F1E0DE01119601900D928A95E1F79D
:1005200088E0E8E0F1E0DE01199601900D928A95ED
:10053000E1F788E0E0E1F1E0DE01519601900D92F3
:100540008A95E1F780E43BDF00E010E00AC0E1E0DB
:10055000F0E0EC0FFD1FE00FF11F80814DDE0F5F1B
:100560001F4F083011059CF300E010E00AC0E9E0DD
:10057000F0E0EC0FFD1FE00FF11F80813DDE0F5F0B
:100580001F4F083011059CF300E010E00AC0E1E1C4
:10059000F0E0EC0FFD1FE00FF11F80812DDE0F5FFB
:1005A0001F4F083011059CF380E09CDE68960FB663
:1005B000F894DEBF0FBECDBFDF91CF911F910F9199
:1005C000089580E005C09BD59FEB980F923020F0F6
:1005D00081548230C0F780E0089591D58234E9F7E4
:1005E00008950F931F93CF93DF93CDB7DEB7AC97EA
:1005F0000FB6F894DEBF0FBECDBFAC018B01FE017C
:10060000319688E0DF011D928A95E9F785E58983B7
:100610008EE48A8385E08B8380E1E8E1F1E0DE010E
:10062000199601900D928A95E1F7FE01799684E181
:10063000DF011D928A95E9F790E010C0292F30E084
:10064000F9013396DA01A20FB31F2C9161E070E03B
:100650006C0F7D1FE60FF71F20839F5F953070F3AF
:10066000CE01019631D6CE014996D9D5898D8D34EA
:1006700031F58A8D8E3429F541E020E019C0822FB2
:1006800090E0D801A80FB91FFC01339669E170E032
:100690006C0F7D1FE60FF71F30813C93E9E0F0E01F
:1006A000EC0FFD1FE80FF91F8081381340E02F5F2A
:1006B0008B8D281720F3442331F080E005C08FEFA5
:1006C00003C08FEF01C081E0AC960FB6F894DEBF97
:1006D0000FBECDBFDF91CF911F910F91089541E0E3
:1006E00062E088E491E0CFDE82E4FCDD81E084DD3D
:1006F0008EE4F8DD8FE780CD08959C0190E005C081
:10070000F901E90FF11D10829F5F9230C8F308953F
:10071000FF920F931F93CF93DF93CDB7DEB7CC55E6
:10072000D1090FB6F894DEBF0FBECDBF19821A8271
:100730001B821C8281E1FE013596DF01482F1D924C
:100740004A95E9F71F8A1E8A7396DF01482F1D928A
:100750004A95E9F71AA619A67396DF011D928A95A4
:10076000E9F785E555D589E453D5CE01CC9621E24C
:10077000FC0111922A95E9F752D58CAD8D3409F020
:100780000CC28DAD893409F008C241E061E089E511
:1007900091E079DEA4DFCE01CC96AFDF00E0AFD4EC
:1007A000182F8FEB810F823008F06AC0113469F482
:1007B000033021F0013011F001110DC089E389836C
:1007C0008A831B821C8202E006C080E389838A83BD
:1007D0001B821C8202E085E51BD586E419D5802F9B
:1007E00017D5CE01019670D5CE01CC9618D58CAD1B
:1007F0008D3409F0D2C18DAD863409F0CEC120E030
:1008000013C0822F90E0FC0133964CE350E04C0F74
:100810005D1FE40FF51F3081E5E0F0E0EC0FFD1FF8
:10082000E80FF91F30832F5F8EAD281750F341E09A
:1008300061E08AE691E027DE41E061E0CE010596C5
:1008400022DE41E062E08BE791E01DDE81E0D4DC56
:1008500087E891E03BDE82E0CFDC82E4CDDCB1DEF4
:10086000182F823409F03CC041E061E089E591E055
:100870000ADE35DFCE01CC9640DF00E010E030C06C
:10088000133499F4002389F0FF24FA94F00EE1E088
:10089000F0E0EC0FFD1FEF0DF11D10828BE0800FDB
:1008A00021DD80E2A9DC0F2D1BC01332C9F01A3202
:1008B000B9F01434A9F0123499F0133489F01134DA
:1008C00079F0043068F48CE0800F0CDDE1E0F0E0BA
:1008D000EC0FFD1FE00FF11D10830F5F812F8CDCEB
:1008E0001154123008F05BCF41E061E08AE891E0FA
:1008F000CADDF5DECE01CC9600DF00E000D4182F73
:100900008FEB810F823008F062C0113431F4023075
:1009100020F489E38E8B02E005C0123419F480E3E1
:100920008E8B02E085E574D483E572D4802F70D479
:10093000CE014696C9D4CE01CC9671D48CAD8D34FF
:1009400009F02BC18DAD833509F027C120E013C01C
:10095000822F90E0FC013396ACE3B0E0AC0FBD1FFA
:10096000EA0FFB1F3081E8E1F0E0EC0FFD1FE80F1C
:10097000F91F30832F5F8EAD281750F341E061E0FF
:100980008AE691E080DD41E061E0CE0148967BDDC2
:1009900041E062E08BE791E076DD81E02DDC87E8E5
:1009A00091E094DD82E028DC82E426DC0ADE182F68
:1009B000823409F03CC041E061E08AE891E063DD07
:1009C0008EDECE01CC9699DE00E010E030C013340C
:1009D00099F4002389F0FF24FA94F00EE6E1F0E0A8
:1009E000EC0FFD1FEF0DF11D108287E0800F7ADC08
:1009F00080E202DC0F2D1BC01332C9F01A32B9F0AD
:100A00001434A9F0123499F0133489F0113479F0C8
:100A1000023068F488E0800F65DCE6E1F0E0EC0F7E
:100A2000FD1FE00FF11D10830F5F812FE5DB1154D7
:100A3000123008F063CF41E061E08BE991E023DD03
:100A40004EDE5DD3CE01CC9658DE00E058D3182F91
:100A50008FEB810F823008F062C0113431F4023024
:100A600020F489E389A702E005C0123419F480E379
:100A700089A702E085E5CCD380E5CAD3802FC8D30F
:100A8000CE01899621D4CE01CC96C9D38CAD8D34BC
:100A900009F083C08DAD803509F07FC020E013C020
:100AA000822F90E0FC0133964CE350E04C0F5D1F29
:100AB000E40FF51F3081EBE2F0E0EC0FFD1FE80FD3
:100AC000F91F30832F5F8EAD281750F341E061E0AE
:100AD0008AE691E0D8DC41E061E0CE018B96D3DC80
:100AE00041E062E08BE791E0CEDC81E085DB87E8E6
:100AF00091E0ECDC82E080DB82E47EDB62DD182FBB
:100B0000823409F03CC041E061E08BE991E0BBDC5C
:100B1000E6DDCE01CC96F1DD00E010E030C013340C
:100B200099F4002389F0FF24FA94F00EE9E2F0E052
:100B3000EC0FFD1FEF0DF11D10828AE0800FD2DB5C
:100B400080E25ADB0F2D1BC01332C9F01A32B9F004
:100B50001434A9F0123499F0133489F0113479F077
:100B6000023068F48BE0800FBDDBE9E2F0E0EC0FCF
:100B7000FD1FE00FF11D10830F5F812F3DDB11542E
:100B8000123008F063CFCE01CC96B7DD85E540D3B7
:100B900083E43ED3CE01CC9642D38FEFC45ADF4FCD
:100BA0000FB6F894DEBF0FBECDBFDF91CF911F917E
:100BB0000F91FF900895CF93DF93CDB7DEB7C75A5B
:100BC000D2400FB6F894DEBF0FBECDBF84B18160B6
:100BD00084B984B1826084B984B1846084B984B1F9
:100BE000886084B98AB180688AB98AB180648AB918
:100BF0008AB180628AB98AB180618AB98AB1886013
:100C00008AB98AB184608AB987B18E7F87B987B182
:100C10008D7F87B987B18B7F87B987B1877F87B988
:100C200084B1806184B984B1806284B98BB18062FF
:100C30008BB98BB180618BB98BB188608BB98BB16B
:100C400084608BB988B1816088B988B1826088B9C5
:100C500088B1846088B988B1886088B985B18F7E91
:100C600085B985B18F7D85B91CDA60E081E04CDA09
:100C700040E060E081E07DDA3EDCA2D3B8D2FE0144
:100C8000EE56FD4F85E0DF011D928A95E9F7359616
:100C900081E1DF011D928A95E9F7EE24E394FF24B8
:100CA000F3948BC141E061E08CEA91E0ECDB81E000
:100CB000A3DA81E4A1DA41E062E08BEB91E0E3DBCF
:100CC00080E09ADA82E498DA7CDC823411F4F394DE
:100CD000AAC0813409F0A7C084C041E061E08AEC79
:100CE00091E0D1DB81E088DA81E486DA41E062E0FC
:100CF00089ED91E0C8DB80E07FDA82E47DDA61DCB7
:100D0000823411F4F3948FC0813409F08CC06DC02B
:100D100041E061E088EE91E0B6DB81E06DDA81E4EC
:100D20006BDA41E062E087EF91E0ADDB80E064DA0E
:100D300082E462DA46DC823411F4F39474C08134C4
:100D400009F071C057C041E061E086E092E09BDBB2
:100D500081E052DA81E450DA41E062E085E192E03C
:100D600092DB80E049DA82E447DA2BDC823411F44A
:100D7000F39459C0813409F056C042C041E061E0AB
:100D800084E292E080DB81E037DA81E435DA41E029
:100D900062E083E392E077DB80E02EDA82E42CDA13
:100DA00010DC823411F4F3943EC0813409F03BC06E
:100DB0002CC041E061E082E492E065DB81E01CDA76
:100DC00081E41ADA41E062E081E592E05CDB80E0F8
:100DD00013DA82E411DAF5DB8234E9F0813419F5B3
:100DE0001DC0EE24E394F12C1EC06894EE24E1F8BB
:100DF000F12C19C00F2EF3E0EF2EF02DF12C13C0C3
:100E00006894EE24E2F8F12C0EC00F2EF5E0EF2EE0
:100E1000F02DF12C08C0FF24F39405C00F2EF6E04E
:100E2000EF2EF02DF12CB2E0EB1629F083E0E8165E
:100E300009F4ABC0C2C041E061E080E692E023DB90
:100E400041E062E081E792E01EDB82E44BDA81E080
:100E5000D3D988E447DA82E0CFD98EE443DA8FE74A
:100E6000CBD988E03FDA00E04AD1182F813409F06D
:100E700059C0053009F056C0BE0169567D4FCE01FC
:100E80008E569D4FAEDB813009F035C041E061E008
:100E9000CE0189569D4FF7DA41E062E08BE791E0A1
:100EA000F2DA81E0A9D987E891E010DB82E0A4D9E9
:100EB00082E4A2D986DB182F8134C9F4CE010196D1
:100EC00027DC813009F45DC0823009F05AC080917E
:100ED000B6028F5F8093B60241E061E082E892E063
:100EE000D2DA41E062E08AE691E0CDDAFFCF8234E7
:100EF00009F047C03DC0811144C041E061E083E991
:100F000092E0C1DA41E062E08CE691E0BCDA82E096
:100F100073D982E471D961DB182FE12C6894FF2426
:100F2000F1F82FC0123449F1133451F4DD24DA946E
:100F3000D00E87E0800FD6D980E25ED90D2D21C07A
:100F40000530F8F41A32E9F01434D9F01332C9F04C
:100F50001134B9F088E0800FC5D9812F4DD9E2E96D
:100F6000F2E0EC0FFD1FE00FF11D10830F5F09C0D1
:100F7000E12C6894FF24F1F804C0E12C6894FF246C
:100F8000F1F8123409F070CF18C041E061E084EA52
:100F900092E079DA41E062E08CE691E074DA82E096
:100FA0002BD982E429D93FD2AAD0823431F43FD25E
:100FB000E12C0F2EF3E0FF2EF02DA3E0FA1609F43A
:100FC000A7CEAF1548F0B1E0FB1609F46BCE82E076
:100FD000F81609F482CE27CFA5E0FA1609F4CECE92
:100FE000FA1608F4B0CEB6E0FB1609F4E2CE1BCF39
:100FF0001F93CF93DF93C62F8230B1F018F4813066
:1010000031F038C08330E9F0843041F133C08BB126
:101010008F7D8BB98BB180618BB98BB188608BB9B7
:101020008BB184608BB926C08BB180628BB98BB1D8
:101030008F7E8BB98BB188608BB98BB184608BB993
:1010400019C08BB180628BB98BB180618BB98BB1C8
:10105000877F8BB98BB184608BB90CC08BB18062F8
:101060008BB98BB180618BB98BB188608BB98BB137
:101070008B7F8BB9D0E010E001C0182F88EE93E091
:1010800045D1C23061F018F4C13031F016C0C33020
:1010900051F0C43069F011C086B181700FC086B1C3
:1010A000869581700BC086B182FB882780F906C0C7
:1010B00086B183FB882780F901C0812F181302C0F5
:1010C000DF5F01C0D0E0D730C0F2C23061F018F469
:1010D000C13031F010C0C33049F0C43051F00BC002
:1010E000309BFECF08C0319BFECF05C0329BFECFA8
:1010F00002C0339BFECFDF91CF911F91089561E035
:1011000081E076DF882309F454C062E081E070DF7B
:10111000882309F450C063E081E06ADF882309F482
:101120004CC064E081E064DF882309F448C061E0DA
:1011300082E05EDF882309F444C062E082E058DF89
:10114000882309F440C063E082E052DF882309F479
:101150003CC064E082E04CDF882309F438C061E0E1
:1011600083E046DF8823A9F162E083E041DF882342
:1011700091F163E083E03CDF882379F164E083E070
:1011800037DF882361F161E084E032DF882349F1B1
:1011900062E084E02DDF882331F163E084E028DF22
:1011A000882319F164E084E023DF8111A8CF84E46F
:1011B000089581E3089582E3089583E3089581E427
:1011C000089584E3089585E3089586E3089582E40D
:1011D000089587E3089588E3089589E3089583E4F3
:1011E00008958AE2089580E3089583E2089588E1EE
:1011F0008093C10083E390E09093C5008093C40086
:1012000008958091C0008823E4F78091C600089576
:101210008093C6008091C00085FFFCCF0895FF92A7
:101220000F931F93CF93DF93EC01EBDF88838D3413
:10123000E1F78D3409F041C0E4DF8983893431F06E
:10124000833421F0843511F0823511F41A8236C0CE
:10125000863551F4D6DF8A838F3421F0893411F03A
:10126000883511F41B822AC08981883459F4C9DF7A
:101270008A83C7DF8B839A81983120F48C3310F4F2
:101280001C821CC089818E3431F0803521F0833579
:1012900011F0863491F4B5DF8A83F12C0AC00F2D4A
:1012A00010E00D5F1F4F0C0F1D1FABDFF801808397
:1012B000F3948A81F81698F301C01882DF91CF91D8
:1012C0001F910F91FF900895EF92FF920F931F933C
:1012D000CF93DF937C01FC0101900020E9F7319767
:1012E0008F01081B190BC0E0D0E006C0F701EC0F1E
:1012F000FD1F80818DDF21960C171D07BCF7DF9144
:10130000CF911F910F91FF90EF90089514BC8138F9
:10131000910580F422E025BDDC0120E034E244EFB9
:1013200050E028D120E032E14AE750E007D1219592
:1013300026BD41C09C01215831092038334080F43A
:1013400023E025BDDC0120E034E244EF50E012D17F
:1013500020E030E940ED53E0F1D0219526BD2BC0CF
:101360009C012150344021153C4080F424E025BDEF
:10137000DC0120E034E244EF50E0FCD020E030E437
:1013800042E45FE0DBD0219526BD15C09C012150D1
:1013900030412115304398F425E025BDDC0120E0E3
:1013A00034E244EF50E0E6D020E030E049E05DE395
:1013B000C5D0219526BD81E085BBA89BFECF0895B1
:1013C000109280008CE08093810083E294EF9093F0
:1013D0008900809388001092850010928400EFE6C7
:1013E000F0E0808182608083789408958091BA02D1
:1013F0008B33A9F4E8EBF2E0128281818B3359F44C
:1014000011828081873119F41092B80208958F5F9C
:101410008093B80208958F5F8093B90208958F5F1B
:101420008093BA02089581E08093B70208951092E4
:10143000B70208951F920F920FB60F9211242F93A7
:101440003F934F935F936F937F938F939F93AF934C
:10145000BF93EF93FF93CF93DF93CDB7DEB7299779
:10146000DEBFCDBFC3DF8091B702882309F44BC034
:10147000FE01319689E0DF011D928A95E9F7A8EB1C
:10148000B2E08C919DEC899F212D11242695269503
:10149000269530E3320F3983220F322F330F330F6B
:1014A000230F821B805D8A834AE34B8311968C91C4
:1014B0001197899F212D112426952695269530E395
:1014C000320F3C83220F322F330F330F230F821B37
:1014D000805D8D834E8312962C91299F912D11242E
:1014E00096959695969580E3890F8F83990F892F0E
:1014F000880F880F980F291B205D288741E062E044
:10150000CF010E94430282E086BB29960FB6F89471
:10151000DEBF0FBECDBFDF91CF91FF91EF91BF91A5
:10152000AF919F918F917F916F915F914F913F917B
:101530002F910F900FBE0F901F901895052E97FBBF
:1015400016F400940FD057FD05D01ED007FC02D032
:1015500046F408C050954095309521953F4F4F4F28
:101560005F4F089590958095709561957F4F8F4F4F
:101570009F4F08952BD0A59F900DB49F900DA49FD1
:10158000800D911D11240895A1E21A2EAA1BBB1BE8
:10159000FD010DC0AA1FBB1FEE1FFF1FA217B3073F
:1015A000E407F50720F0A21BB30BE40BF50B661F55
:1015B000771F881F991F1A9469F760957095809519
:1015C00090959B01AC01BD01CF010895A29FB00190
:1015D000B39FC001A39F700D811D1124911DB29F67
:0E15E000700D811D1124911D0895F894FFCF08
:1015EE0004040404150E0400000103161C08000078
:1015FE000E111114121F0204436F6469676F206984
:10160E006E76616C69646F004552524F204E4120D8
:10161E00434F4D554E49432E002020202020534548
:10162E005249414C20202000413A2020423A425259
:10163E00414E434F20433A20004465702046656476
:10164E006572616C3A20202020002020202020206E
:10165E002020202020202020202000436F6E66694D
:10166E00726D613F20200041200053656E61646FF2
:10167E00723A2020202020202020005072657369AD
:10168E0064656E74653A202020202000312E20459E
:10169E00737461646F20646F20200020202020531B
:1016AE00697374656D6120202000322E2020202069
:1016BE004E6F766F20202020002020202020456CA9
:1016CE006569746F72202000332E2020436F6E7375
:1016DE00756C7461202000202020646520486F7294
:1016EE006172696F2000342E202054726F63612066
:1016FE00646520200020202020486F726172696F7F
:10170E0020202000352E2020566572696669632ED2
:10171E00202000646520436F72726573706F6E6473
:10172E002E00362E2052656C61746F72696F202008
:10173E00002020646520566F746163616F20200065
:10174E00456C6569746F723A20202020202020207D
:10175E0000413A20202020423A20202020433A20E7
:10176E0020002020202020202046494D202020200F
:10177E00202000454C4549544F5220494E56414C6D
:10178E0049444F00484F524120415455414C3A2054
:06179E00202020200000C5
:00000001FF
