S017000075726E615F656C6574726F6E6963612E73726563D2
S113000033C000004DC000004BC0000049C00000D8
S113001047C0000045C0000043C0000041C00000CC
S11300203FC000003DC000003BC000000C94050B25
S113003037C0000035C0000033C0000031C00000EC
S11300402FC000002DC000002BC0000029C00000FC
S113005027C0000025C0000023C0000021C000000C
S11300601FC000001DC0000011241FBECFEFD8E048
S1130070DEBFCDBF12E0A0E0B1E0E2E9F7E102C0EB
S113008005900D92AA3FB107D9F722E0AAEFB2E09A
S113009001C01D92AF3FB207E1F767D60C94C70BBE
S11300A0AFCFCF92DF92EF92FF92CF93C0E049C0DF
S11300B085B1806185B966E771E080E090E00E94D7
S11300C08C0A85B18F7E85B966E771E080E090E0A7
S11300D00E948C0A8CEEC80E82E0D81EE11CF11C32
S11300E003C0C12CD12C760180E9C8168FE5D8064F
S11300F081E0E806F104E4F2C12CD12C760118C0A9
S113010085B1806185B96CE571E080E090E00E9482
S11301108C0A85B18F7E85B96CE571E080E090E052
S11301200E948C0A88EBC80E82E0D81EE11CF11CE8
S113013080E9C8168FE5D80681E0E806F10404F3E7
S1130140CF5FC53070F2C12CD12C760118C085B1B7
S1130150806185B966E771E080E090E00E948C0AD6
S113016085B18F7E85B966E771E080E090E00E94FA
S11301708C0A8CEEC80E82E0D81EE11CF11C80ECC7
S1130180C81684EDD80681E0E806F10404F3CF91A3
S1130190FF90EF90DF90CF90089585B1877F85B968
S11301A085B18B7F85B985B1826085B985B18E7F34
S11301B085B98BB18F7B8BB98BB180688BB98BB1CF
S11301C08F778BB98BB180688BB98BB18F778BB9F3
S11301D068E270E080E090E00E948C0A8BB1806855
S11301E08BB98BB18F778BB985B1886085B98BB1A9
S11301F080688BB98BB18F778BB968E270E080E04F
S113020090E00C948C0A08959BB19F7B9BB995B1A7
S1130210977F95B995B19B7F95B995B19D7F95B918
S113022095B19E7F95B99BB190689BB99BB19F771F
S11302309BB995B1946095B9813021F485B1826000
S113024085B903C085B18D7F85B9613021F485B14D
S1130250816085B903C085B18E7F85B98BB1806813
S11302608BB98BB18F778BB968E270E080E090E056
S11302700C948C0A089595B1977F95B995B19B7F9D
S113028095B995B19D7F95B995B19E7F95B99BB16F
S113029090689BB99BB19F779BB995B1986095B9CC
S11302A0813021F485B1846085B903C085B18B7F29
S11302B085B9613021F485B1826085B903C085B107
S11302C08D7F85B9413021F485B1816085B903C042
S11302D085B18E7F85B98BB180688BB98BB18F77EF
S11302E08BB968E270E080E090E00C948C0A089589
S11302F090E002C0959587956A95E2F7817008951C
S1130300CF93C82F67E0F4DF813021F485B1886092
S113031085B903C085B1877F85B966E08C2FE8DF96
S1130320813021F485B1846085B903C085B18B7FA8
S113033085B965E08C2FDCDF813021F485B18260E2
S113034085B903C085B18D7F85B964E08C2FD0DF7A
S1130350813021F485B1816085B903C085B18E7F78
S113036085B98BB180648BB98BB180688BB98BB143
S11303708F778BB963E08C2FBBDF813021F485B19B
S1130380886085B903C085B1877F85B962E08C2F09
S1130390AFDF813021F485B1846085B903C085B1B4
S11303A08B7F85B961E08C2FA3DF813021F485B187
S11303B0826085B903C085B18D7F85B960E08C2FDB
S11303C097DF813021F485B1816085B903C085B19F
S11303D08E7F85B98BB180688BB98BB18F778BB9E0
S11303E068E270E080E090E00E948C0ACF9108956A
S11303F0CF93C82F8BB18F7B8BB985B1886085B9BA
S113040066E08C2F75DF813021F485B1846085B975
S113041003C085B18B7F85B965E08C2F69DF81309E
S113042021F485B1826085B903C085B18D7F85B91A
S113043064E08C2F5DDF813021F485B1816085B962
S113044003C085B18E7F85B98BB180688BB98BB1C0
S11304508F778BB963E08C2F4BDF813021F485B12A
S1130460886085B903C085B1877F85B962E08C2F28
S11304703FDF813021F485B1846085B903C085B143
S11304808B7F85B961E08C2F33DF813021F485B116
S1130490826085B903C085B18D7F85B960E08C2FFA
S11304A027DF813021F485B1816085B903C085B12E
S11304B08E7F85B98BB180688BB98BB18F778BB9FF
S11304C068E270E080E090E00E948C0ACF91089589
S11304D0CF93C82F8BB18F7B8BB985B1877F85B9BB
S11304E085B1846085B965E08C2F02DF813021F409
S11304F085B1826085B903C085B18D7F85B964E01B
S11305008C2FF6DE813021F485B1816085B903C07A
S113051085B18E7F85B98BB180688BB98BB18F77AC
S11305208BB963E08C2FE4DE813021F485B18860DF
S113053085B903C085B1877F85B962E08C2FD8DE89
S1130540813021F485B1846085B903C085B18B7F86
S113055085B961E08C2FCCDE813021F485B18260D5
S113056085B903C085B18D7F85B960E08C2FC0DE6D
S1130570813021F485B1816085B903C085B18E7F56
S113058085B98BB180688BB98BB18F778BB968E2F1
S113059070E080E090E0C0D7CF9108950F931F934F
S11305A0CF93DF938C01623011F080E001C080E4CE
S11305B0480F8FEF840F803118F04154403108F414
S11305C017DFC0E0D0E002C09BDE2196F801EC0FFB
S11305D0FD1F80818111F8CFDF91CF911F910F9181
S11305E008950F931F93CF93DF938C01C0E0D0E065
S11305F002C086DE2196F801EC0FFD1F8081811177
S1130600F8CFDF91CF911F910F9108950F931F930E
S1130610CF93DF93CDB7DEB768970FB6F894DEBFFC
S11306200FBECDBF88E0E0E0F1E0DE01119601905D
S11306300D928A95E1F788E0E8E0F1E0DE01199691
S113064001900D928A95E1F788E0E0E1F1E0DE01A6
S1130650519601900D928A95E1F780E439DF00E02C
S113066010E00AC0E1E0F0E0EC0FFD1FE00FF11F25
S1130670808146DE0F5F1F4F083011059CF300E0B8
S113068010E00AC0E9E0F0E0EC0FFD1FE00FF11FFD
S1130690808136DE0F5F1F4F083011059CF300E0A8
S11306A010E00AC0E1E1F0E0EC0FFD1FE00FF11FE4
S11306B0808126DE0F5F1F4F083011059CF380E018
S11306C097DE68960FB6F894DEBF0FBECDBFDF91FC
S11306D0CF911F910F91089580E005C016D69FEB2E
S11306E0980F923020F081548230C0F780E0089552
S11306F00CD68234E9F708950F931F93CF93DF93B9
S1130700CDB7DEB7AC970FB6F894DEBF0FBECDBF42
S1130710AC018B01FE01319688E0DF011D928A95C0
S1130720E9F785E589838EE48A8385E08B8380E11C
S1130730E8E1F1E0DE01199601900D928A95E1F766
S1130740FE01799684E1DF011D928A95E9F790E034
S113075010C0292F30E0F9013396DA01A20FB31F3C
S11307602C9161E070E06C0F7D1FE60FF71F208372
S11307709F5F953070F3CE010196ACD6CE014996B9
S113078054D6898D8D3431F58A8D8E3429F541E026
S113079020E019C0822F90E0D801A80FB91FFC01F6
S11307A0339669E170E06C0F7D1FE60FF71F30810F
S11307B03C93E9E0F0E0EC0FFD1FE80FF91F8081A6
S11307C0381340E02F5F8B8D281720F3442331F03A
S11307D080E005C08FEF03C08FEF01C081E0AC96CD
S11307E00FB6F894DEBF0FBECDBFDF91CF911F913E
S11307F00F91089541E061E088E291E0CFDE41E0AD
S113080062E089E391E0CACE089541E062E088E4C1
S113081091E0C4DE82E4ECDD81E072DD8EE4E8DDAB
S11308208FE76ECD08959C0190E005C0F901E90FB2
S1130830F11D10829F5F9230C8F30895FF920F93C9
S11308401F93CF93DF93CDB7DEB7C357D1090FB64C
S1130850F894DEBF0FBECDBFFE01319685E0DF0107
S11308601D928A95E9F781E13596DF01482F1D92A3
S11308704A95E9F71F8A188E198E7496DF01482F5E
S11308801D924A95E9F71BA61CA61DA67496DF01C6
S11308901D928A95E9F785E5C1D589E4BFD5CE01D6
S11308A0CF9622E3FC0111922A95E9F7BED58FADCC
S11308B08D3409F042C221968FAD2197893409F015
S11308C03EC241E061E089E591E068DE9EDFCE0151
S11308D0CF96A9DF00E019D5182F8FEB810F823056
S11308E008F082C0113469F4033021F0013011F0B2
S11308F001110FC089E389838A831B821C8202E071
S113090008C0123431F480E389838A831B821C82F9
S113091002E085E583D586E481D5802F7FD502303A
S113092081F48981E2968FAFE2978A81E3968FAF53
S1130930E397E4961FAEE497CE018F589F4FCAD534
S113094003C0CE010196C6D5CE01CF966ED58FAD2C
S11309508D3429F421968FAD21978634B1F08FEF31
S1130960F7C1822F90E0FC0133964FE350E04C0F27
S11309705D1FE40FF51F3081E6E0F0E0EC0FFD1F92
S1130980E80FF91F30832F5F01C020E022968FAD5E
S11309902297281730F341E061E08AE691E0FEDD1A
S11309A041E061E0CE010696F9DD41E062E08BE7CB
S11309B091E0F4DD81E0A4DC87E891E012DE82E0DE
S11309C09FDC82E49DDC88DE182F823409F03CC071
S11309D041E061E089E591E0E1DD17DFCE01CF96EA
S11309E022DF00E010E030C0133499F4002389F0D2
S11309F0FF24FA94F00EE1E0F0E0EC0FFD1FEF0DA0
S1130A00F11D10828BE0800FF3DC80E279DC0F2D86
S1130A101BC01332C9F01A32B9F01434A9F01234DD
S1130A2099F0133489F0113479F0043068F48CE0CF
S1130A30800FDEDCE1E0F0E0EC0FFD1FE00FF11DC4
S1130A4010830F5F812F5CDC1154123008F043CF08
S1130A5041E061E08AE891E0A1DDD7DECE01CF96E6
S1130A60E2DE00E052D4182F8FEB810F823008F0C1
S1130A7068C0113439F4023028F489E38F8B888FED
S1130A8002E006C0123421F480E38F8B888F02E0E9
S1130A9085E5C4D483E5C2D4802FC0D4CE01479663
S1130AA019D5CE01CF96C1D48FAD8D3409F049C18B
S1130AB021968FAD2197833509F045C120E013C0FD
S1130AC0822F90E0FC013396AFE3B0E0AC0FBD1F82
S1130AD0EA0FFB1F3081EAE1F0E0EC0FFD1FE80FA5
S1130AE0F91F30832F5F22968FAD2297281740F38A
S1130AF041E061E08AE691E051DD41E061E0CE0150
S1130B004A964CDD41E062E08BE791E047DD81E00D
S1130B10F7DB87E891E065DD82E0F2DB82E4F0DB7D
S1130B20DBDD182F823409F03CC041E061E08AE843
S1130B3091E034DD6ADECE01CF9675DE00E010E090
S1130B4030C0133499F4002389F0FF24FA94F00E92
S1130B50E7E1F0E0EC0FFD1FEF0DF11D108287E0DF
S1130B60800F46DC80E2CCDB0F2D1BC01332C9F0B2
S1130B701A32B9F01434A9F0123499F0133489F00C
S1130B80113479F0023068F488E0800F31DCE7E159
S1130B90F0E0EC0FFD1FE00FF11D10830F5F812FBC
S1130BA0AFDB1154123008F05DCF41E061E08BE916
S1130BB091E0F4DC2ADECE01CF9635DE00E0A5D349
S1130BC0182F8FEB810F823008F068C0113439F48C
S1130BD0023028F489E38BA78CA702E006C0123404
S1130BE021F480E38BA78CA702E085E517D480E588
S1130BF015D4802F13D4CE018B966CD4CE01CF960E
S1130C0014D48FAD8D3409F0A0C021968FAD2197F7
S1130C10803509F09CC020E013C0822F90E0FC01D5
S1130C2033964FE350E04C0F5D1FE40FF51F308106
S1130C30EEE2F0E0EC0FFD1FE80FF91F30832F5FA9
S1130C4022968FAD2297281740F341E061E08AE6AF
S1130C5091E0A4DC41E061E0CE018E969FDC41E0AE
S1130C6062E08BE791E09ADC81E04ADB87E891E07F
S1130C70B8DC82E045DB82E443DB2EDD182F8234CE
S1130C8009F03CC041E061E08BE991E087DCBDDD27
S1130C90CE01CF96C8DD00E010E030C0133499F4E3
S1130CA0002389F0FF24FA94F00EEBE2F0E0EC0F5D
S1130CB0FD1FEF0DF11D10828AE0800F99DB80E2A9
S1130CC01FDB0F2D1BC01332C9F01A32B9F01434D4
S1130CD0A9F0123499F0133489F0113479F0023008
S1130CE068F48BE0800F84DBEBE2F0E0EC0FFD1F97
S1130CF0E00FF11D10830F5F812F02DB11541230BE
S1130D0008F05DCFCE01CF968EDD85E587D383E4F1
S1130D1085D3CE01CF9689D38FAD8D3429F4219616
S1130D208FAD2197833411F065DDFFCF41E061E0A1
S1130D308CEA91E033DC82E00BC08FEF09C08FEFC7
S1130D4007C08FEF05C08FEF03C08FEF01C08FEF97
S1130D50CD58DF4F0FB6F894DEBF0FBECDBFDF9185
S1130D60CF911F910F91FF900895CF93DF93CDB74B
S1130D70DEB7C65BD2400FB6F894DEBF0FBECDBF60
S1130D8084B1816084B984B1826084B984B184609F
S1130D9084B984B1886084B98AB180688AB98AB117
S1130DA080648AB98AB180628AB98AB180618AB959
S1130DB08AB188608AB98AB184608AB987B18E7F22
S1130DC087B987B18D7F87B987B18B7F87B987B1A1
S1130DD0877F87B984B1806184B984B1806284B922
S1130DE08BB180628BB98BB180618BB98BB1886018
S1130DF08BB98BB184608BB988B1816088B988B1B3
S1130E00826088B988B1846088B988B1886088B9FB
S1130E1085B18F7E85B985B18F7D85B9BED960E0F6
S1130E2081E0F2D940E060E081E025DAEFDBB3D382
S1130E30E4D2FE01EF55FD4F85E0DF011D928A9556
S1130E40E9F7359681E1DF011D928A95E9F7EE24F1
S1130E50E394FF24F394B5C141E061E08DEB91E0AC
S1130E609DDB81E04DDA81E44BDA41E062E08CEC19
S1130E7091E094DB80E044DA82E442DA2DDC8234CF
S1130E8011F4F394AAC0813409F0A7C084C041E0EE
S1130E9061E08BED91E082DB81E032DA81E430DAEB
S1130EA041E062E08AEE91E079DB80E029DA82E4D5
S1130EB027DA12DC823411F4F3948FC0813409F000
S1130EC08CC06DC041E061E089EF91E067DB81E0B7
S1130ED017DA81E415DA41E062E088E092E05EDB53
S1130EE080E00EDA82E40CDAF7DB823411F4F39456
S1130EF074C0813409F071C057C041E061E087E1FA
S1130F0092E04CDB81E0FCD981E4FAD941E062E073
S1130F1086E292E043DB80E0F3D982E4F1D9DCDBC2
S1130F20823411F4F39459C0813409F056C042C09C
S1130F3041E061E085E392E031DB81E0E1D981E4E5
S1130F40DFD941E062E084E492E028DB80E0D8D994
S1130F5082E4D6D9C1DB823411F4F3943EC08134E7
S1130F6009F03BC02CC041E061E083E592E016DB70
S1130F7081E0C6D981E4C4D941E062E082E692E02E
S1130F800DDB80E0BDD982E4BBD9A6DB8234E9F075
S1130F90813419F51DC0EE24E394F12C1EC068942D
S1130FA0EE24E1F8F12C19C00F2EF3E0EF2EF02D12
S1130FB0F12C13C06894EE24E2F8F12C0EC00F2E2D
S1130FC0F5E0EF2EF02DF12C08C0FF24F39405C0BA
S1130FD00F2EF6E0EF2EF02DF12CB2E0EB1629F0F7
S1130FE083E0E81609F4D5C0ECC041E061E081E794
S1130FF092E0D4DA41E062E082E892E0CFDA82E47F
S1131000F7D981E07DD988E4F3D982E079D98EE4F7
S1131010EFD98FE775D988E0EBD900E076D1182FA6
S1131020813409F083C0053009F080C0BE016A55DF
S11310307D4FCE018F559D4F5FDB813009F050C04D
S113104041E061E0CE018A559D4FA8DA41E062E0BB
S11310508BE791E0A3DA81E053D987E891E0C1DA24
S113106082E04ED982E44CD937DB182F8134A1F5C4
S1131070CE010196E3DB813059F441E061E083E97C
S113108092E08CDA41E062E084EA92E087DAFFCF12
S11310908F3F19F4AFDB2CDBFFCF823091F48091CA
S11310A0FA028F5F8093FA0241E061E085EB92E0FF
S11310B075DA41E062E08AE691E070DA0E9451005C
S11310C0FFCF41E061E086EC92E068DA41E062E063
S11310D08AE691E063DAFFCF823409F056C04CC04F
S11310E0811115C041E061E087ED92E057DA41E0FB
S11310F062E08CE691E052DA82E002D982E400D91F
S1131100F7DA182FE12C6894FF24F1F83EC08F3FE2
S113111009F03BC06FDB82E0F3D882E4F1D8E8DA6F
S1131120182FE12C6894FF24F1F82FC0123449F1F0
S1131130133451F4DD24DA94D00E87E0800F58D9AB
S113114080E2DED80D2D21C00530F8F41A32E9F022
S11311501434D9F01332C9F01134B9F088E0800F97
S113116047D9812FCDD8E1EAF2E0EC0FFD1FE00F63
S1131170F11D10830F5F09C0E12C6894FF24F1F87E
S113118004C0E12C6894FF24F1F8123409F046CF2E
S113119018C041E061E088EE92E000DA41E062E0EC
S11311A08CE691E0FBD982E0ABD882E4A9D826D2C0
S11311B0ACD0823431F426D2E12C0F2EF3E0FF2E92
S11311C0F02DA3E0FA1609F47DCEAF1548F0B1E096
S11311D0FB1609F441CE82E0F81609F458CEFDCE90
S11311E0A5E0FA1609F4A4CEFA1608F486CEB6E001
S11311F0FB1609F4B8CEF1CE1F93CF93DF93C62F1D
S11312008230B1F018F4813031F038C08330E9F025
S1131210843041F133C08BB18F7D8BB98BB1806148
S11312208BB98BB188608BB98BB184608BB926C0C4
S11312308BB180628BB98BB18F7E8BB98BB1886097
S11312408BB98BB184608BB919C08BB180628BB9B7
S11312508BB180618BB98BB1877F8BB98BB1846083
S11312608BB90CC08BB180628BB98BB180618BB9A7
S11312708BB188608BB98BB18B7F8BB9D0E010E0D8
S113128001C0182F61E070E080E090E062D1C230CC
S113129061F018F4C13031F016C0C33051F0C430DD
S11312A069F011C086B181700FC086B186958170D6
S11312B00BC086B182FB882780F906C086B183FB08
S11312C0882780F901C0812F181302C0DF5F01C095
S11312D0D0E0D730B0F2C23061F018F4C13031F050
S11312E010C0C33049F0C43051F00BC0309BFECF66
S11312F008C0319BFECF05C0329BFECF02C0339B9A
S1131300FECFDF91CF911F91089561E081E074DFFA
S1131310882309F454C062E081E06EDF882309F475
S113132050C063E081E068DF882309F44CC064E0C6
S113133081E062DF882309F448C061E082E05CDF79
S1131340882309F444C062E082E056DF882309F46C
S113135040C063E082E050DF882309F43CC064E0CD
S113136082E04ADF882309F438C061E083E044DF87
S11313708823A9F162E083E03FDF882391F163E0F1
S113138083E03ADF882379F164E083E035DF882362
S113139061F161E084E030DF882349F162E084E0B8
S11313A02BDF882331F163E084E026DF882319F101
S11313B064E084E021DF8111A8CF84E4089581E30F
S11313C0089582E3089583E3089581E4089584E30E
S11313D0089585E3089586E3089582E4089587E3F4
S11313E0089588E3089589E3089583E408958AE2DB
S11313F0089580E3089583E2089588E18093C1000D
S113140083E390E09093C5008093C4000895809195
S1131410C0008823E4F78091C60008958093C60035
S11314208091C00085FFFCCF0895FF920F931F9316
S1131430CF93DF93EC01EBDF88838D34E1F78D34B8
S113144009F041C0E4DF8983893431F0833421F029
S1131450843511F0823511F41A8236C0863551F480
S1131460D6DF8A838F3421F0893411F0883511F462
S11314701B822AC08981883459F4C9DF8A83C7DF73
S11314808B839A81983120F48C3310F41C821CC015
S113149089818E3431F0803521F0833511F0863422
S11314A091F4B5DF8A83F12C0AC00F2D10E00D5F93
S11314B01F4F0C0F1D1FABDFF8018083F3948A814B
S11314C0F81698F301C01882DF91CF911F910F9104
S11314D0FF900895EF92FF920F931F93CF93DF93A2
S11314E07C01FC0101900020E9F731978F01081B72
S11314F0190BC0E0D0E006C0F701EC0FFD1F80819E
S11315008DDF21960C171D07BCF7DF91CF911F913A
S11315100F91FF90EF90089522E024BD31E035BD96
S11315203FE937BD16BC25BB2AE030E040E050E07F
S1131530F0D080E090E0DC01A99BFECF62E065BBC7
S11315400196A11DB11D82179307A407B507A4F343
S113155008950F931F938B019C0182E084BD83E067
S113156085BD89EF87BD16BC85B3826085BB40E02D
S113157050E0BA01A99BFECF85B3826085BB4F5F63
S11315805F4F6F4F7F4F401751076207730794F304
S11315901F910F910895109280008CE08093810038
S11315A083E294EF909389008093880010928500E1
S11315B010928400EFE6F0E080818260808378946A
S11315C008958091FE028B33A9F4ECEFF2E01282CD
S11315D081818B3359F411828081873119F41092FF
S11315E0FC0208958F5F8093FC0208958F5F8093BF
S11315F0FD0208958F5F8093FE02089581E0809339
S1131600FB0208951092FB0208951F920F920FB6E9
S11316100F9211242F933F934F935F936F937F9374
S11316208F939F93AF93BF93EF93FF93CF93DF93E6
S1131630CDB7DEB72997DEBFCDBFC3DF8091FB02F4
S1131640882309F44BC0FE01319689E0DF011D9225
S11316508A95E9F7ACEFB2E08C919DEC899F212D3E
S1131660112426952695269530E3320F3983220FCF
S1131670322F330F330F230F821B805D8A834AE39B
S11316804B8311968C911197899F212D11242695B6
S11316902695269530E3320F3C83220F322F330FE9
S11316A0330F230F821B805D8D834E8312962C9102
S11316B0299F912D112496959695969580E3890FEF
S11316C08F83990F892F880F880F980F291B205D0E
S11316D0288741E062E0CF010E94CE0282E086BB0F
S11316E029960FB6F894DEBF0FBECDBFDF91CF9120
S11316F0FF91EF91BF91AF919F918F917F916F91E6
S11317005F914F913F912F910F900FBE0F901F90BB
S11317101895052E97FB16F400940FD057FD05D0AD
S113172014D007FC02D046F408C05095409530957B
S113173021953F4F4F4F5F4F089590958095709539
S113174061957F4F8F4F9F4F0895A1E21A2EAA1BD8
S1131750BB1BFD010DC0AA1FBB1FEE1FFF1FA2175D
S1131760B307E407F50720F0A21BB30BE40BF50B5A
S1131770661F771F881F991F1A9469F760957095E3
S1131780809590959B01AC01BD01CF010895F8941B
S1051790FFCF85
S113179204040404150E0400000103161C080000CE
S11317A20E111114121F0204436F6469676F2069DA
S11317B26E76616C69646F004552524F204E41202F
S11317C2434F4D554E49432E00202020202053459F
S11317D25249414C20202000413A2020423A4252B0
S11317E2414E434F20433A200044657020466564CD
S11317F26572616C3A2020202000202020202020C5
S11318022020202020202020202000436F6E6669A3
S1131812726D613F20200041200053656E61646F48
S1131822723A202020202020202000507265736903
S113183264656E74653A2020202020002020202038
S11318422020202066696D202020202000312E20B7
S113185245737461646F20646F202000202020206F
S113186253697374656D6120202000322E2020207C
S1131872204E6F766F20202020002020202020453B
S11318826C6569746F72202000332E2020436F6EC2
S113189273756C7461202000202020646520486FD9
S11318A2726172696F2000342E202054726F63615A
S11318B220646520200020202020486F7261726914
S11318C26F20202000352E202056657269666963D8
S11318D22E202000646520436F72726573706F6EF0
S11318E2642E00362E2052656C61746F72696F200B
S11318F220002020646520566F746163616F20208C
S113190200456C6569746F723A20202020202020E3
S11319122000413A20202020423A20202020433A2D
S113192220200020202020202054454D504F2020EC
S11319322020200020202020204553474F5441449A
S11319424F202020002020202020202046494D2006
S1131952202020202000202020202020203F3F3F44
S113196220202020202000454C4549544F52204934
S11319724E56414C49444F00484F52412041545520
S10D1982414C3A20202020200000F0
S9030000FC
