S017000075726E615F656C6574726F6E6963612E73726563D2
S113000033C000004CC000004AC0000048C00000DB
S113001046C0000044C0000042C0000040C00000D0
S11300203EC000003CC000003AC00000EAC300002B
S113003036C0000034C0000032C0000030C00000F0
S11300402EC000002CC000002AC0000028C0000000
S113005026C0000024C0000022C0000020C0000010
S11300601EC000001CC0000011241FBECFEFD8E04A
S1130070DEBFCDBF11E0A0E0B1E0E0EBF9E002C0EB
S113008005900D92AC30B107D9F721E0ACE0B1E0B6
S113009001C01D92AF30B207E1F7A8D187C4B0CF39
S11300A085B1877F85B985B18B7F85B985B182603C
S11300B085B985B18E7F85B98BB18F7B8BB98BB1B7
S11300C080688BB98BB18F778BB988E290E00CD3C1
S11300D08BB180688BB98BB18F778BB985B1886010
S11300E085B98BB180688BB98BB18F778BB988E276
S11300F090E0FAC208959BB19F7B9BB995B1977F1D
S113010095B995B19B7F95B995B19D7F95B995B1F9
S11301109E7F95B99BB190689BB99BB19F779BB922
S113012095B1946095B9813021F485B1826085B927
S113013003C085B18D7F85B9613021F485B18160BB
S113014085B903C085B18E7F85B98BB180688BB9C1
S11301508BB18F778BB988E290E0C6C2089595B1D0
S1130160977F95B995B19B7F95B995B19D7F95B9C9
S113017095B19E7F95B99BB190689BB99BB19F77D0
S11301809BB995B1986095B9813021F485B18460AB
S113019085B903C085B18B7F85B9613021F485B100
S11301A0826085B903C085B18D7F85B9413021F462
S11301B085B1816085B903C085B18E7F85B98BB166
S11301C080688BB98BB18F778BB988E290E08CC251
S11301D0089590E002C0959587956A95E2F781703D
S11301E00895CF93C82F67E0F4DF813021F485B1FF
S11301F0886085B903C085B1877F85B966E08C2F97
S1130200E8DF813021F485B1846085B903C085B10C
S11302108B7F85B965E08C2FDCDF813021F485B1DB
S1130220826085B903C085B18D7F85B964E08C2F68
S1130230D0DF813021F485B1816085B903C085B1F7
S11302408E7F85B98BB180648BB98BB180688BB993
S11302508BB18F778BB963E08C2FBBDF813021F4B6
S113026085B1886085B903C085B1877F85B962E0AF
S11302708C2FAFDF813021F485B1846085B903C050
S113028085B18B7F85B961E08C2FA3DF813021F4A8
S113029085B1826085B903C085B18D7F85B960E081
S11302A08C2F97DF813021F485B1816085B903C03B
S11302B085B18E7F85B98BB180688BB98BB18F770F
S11302C08BB988E290E010D2CF910895CF93C82FD4
S11302D08BB18F7B8BB985B1886085B966E08C2F33
S11302E078DF813021F485B1846085B903C085B19C
S11302F08B7F85B965E08C2F6CDF813021F485B16B
S1130300826085B903C085B18D7F85B964E08C2F87
S113031060DF813021F485B1816085B903C085B186
S11303208E7F85B98BB180688BB98BB18F778BB990
S113033063E08C2F4EDF813021F485B1886085B96C
S113034003C085B1877F85B962E08C2F42DF81309D
S113035021F485B1846085B903C085B18B7F85B9EB
S113036061E08C2F36DF813021F485B1826085B95C
S113037003C085B18D7F85B960E08C2F2ADF813081
S113038021F485B1816085B903C085B18E7F85B9BB
S11303908BB180688BB98BB18F778BB988E290E091
S11303A0A3D1CF9108950F931F93CF93DF938C0123
S11303B0623011F080E001C080E4480F8FEF840FB9
S11303C0803118F04154403108F480DFC0E0D0E0BF
S11303D002C007DF2196F801EC0FFD1F8081811117
S11303E0F8CFDF91CF911F910F910895CF93DF93B1
S11303F0CDB7DEB72C970FB6F894DEBF0FBECDBFD6
S113040084B1816084B984B1826084B984B1846028
S113041084B984B1886084B98AB180688AB98AB1A0
S113042080648AB98AB180628AB98AB180618AB9E2
S11304308AB188608AB98AB184608AB987B18E7FAB
S113044087B987B18D7F87B987B18B7F87B987B12A
S1130450877F87B984B1806184B984B1806284B9AB
S11304608BB180628BB98BB180618BB98BB18860A1
S11304708BB98BB184608BB988B1816088B988B13C
S1130480826088B988B1846088B988B1886088B985
S113049085B18F7E85B985B18F7D85B901DE60E038
S11304A081E029DE41E061E081E059DE77D112D1BB
S11304B08CE0E0E0F1E0DE01119601900D928A9566
S11304C0E1F790D08B878823E1F343E061E0CE012C
S11304D0019669DFF6CF1F93CF93DF93C62F823047
S11304E0B1F018F4813031F038C08330E9F0843051
S11304F041F133C08BB18F7D8BB98BB180618BB9E6
S11305008BB188608BB98BB184608BB926C08BB1F9
S113051080628BB98BB18F7E8BB98BB188608BB9BC
S11305208BB184608BB919C08BB180628BB98BB1EC
S113053080618BB98BB1877F8BB98BB184608BB9A8
S11305400CC08BB180628BB98BB180618BB98BB1DC
S113055088608BB98BB18B7F8BB9D0E010E001C080
S1130560182F88EE93E0C0D0C23061F018F4C13087
S113057031F016C0C33051F0C43069F011C086B1F7
S113058081700FC086B1869581700BC086B182FBE5
S1130590882780F906C086B183FB882780F901C0CB
S11305A0812F181302C0DF5F01C0D0E0D730C0F242
S11305B0C23061F018F4C13031F010C0C33049F0DA
S11305C0C43051F00BC0309BFECF08C0319BFECF2E
S11305D005C0329BFECF02C0339BFECFDF91CF918B
S11305E01F91089561E081E076DF882309F454C007
S11305F062E081E070DF882309F450C063E081E0A9
S11306006ADF882309F44CC064E081E064DF882356
S113061009F448C061E082E05EDF882309F444C045
S113062062E082E058DF882309F440C063E082E09E
S113063052DF882309F43CC064E082E04CDF882365
S113064009F438C061E083E046DF8823A9F162E061
S113065083E041DF882391F163E083E03CDF88237A
S113066079F164E083E037DF882361F161E084E0BD
S113067032DF882349F162E084E02DDF882331F101
S113068063E084E028DF882319F164E084E023DF59
S11306908111A8CF84E4089581E3089582E3089545
S11306A083E3089581E4089584E3089585E3089538
S11306B086E3089582E4089587E3089588E308951E
S11306C089E3089583E408958AE2089580E3089510
S11306D083E2089588E18093C10083E390E09093DE
S11306E0C5008093C400089514BC8138910580F43A
S11306F022E025BDDC0120E034E244EF50E01BD1D0
S113070020E032E14AE750E0FAD0219526BD41C00D
S11307109C01205831092138334080F423E025BD61
S1130720DC0120E034E244EF50E005D120E030E980
S113073040ED53E0E4D0219526BD2BC09C0121500F
S1130740344021153C4080F424E025BDDC0120E048
S113075034E244EF50E0EFD020E030E442E45FE0E4
S1130760CED0219526BD15C09C01215030412115C4
S1130770304398F425E025BDDC0120E034E244EF69
S113078050E0D9D020E030E049E05DE3B8D02195D5
S113079026BD81E085BBA89BFECF08951092800002
S11307A08CE08093810083E294EF9093890080939E
S11307B088001092850010928400EFE6F0E08081BA
S11307C0826080837894089580910E018B33A9F41C
S11307D0ECE0F1E0128281818B3359F41182808143
S11307E0873119F410920C0108958F5F80930C01E6
S11307F008958F5F80930D0108958F5F80930E019C
S113080008951F920F920FB60F9211242F933F93C6
S11308104F935F936F937F938F939F93AF93BF9304
S1130820EF93FF93CF93DF93CDB7DEB72997DEBF66
S1130830CDBFCADFFE01319689E0DF011D928A95A2
S1130840E9F7ACE0B1E08C919DEC899F212D112456
S113085026952695269530E3320F3983220F322FC1
S1130860330F330F230F821B805D8A834AE34B834C
S113087011968C911197899F212D112426952695E7
S1130880269530E3320F3C83220F322F330F330F80
S1130890230F821B805D8D834E8312962C91299F9A
S11308A0912D112496959695969580E3890F8F83C3
S11308B0990F892F880F880F980F291B205D28878F
S11308C041E062E0CF016FDD82E086BB29960FB67E
S11308D0F894DEBF0FBECDBFDF91CF91FF91EF91B2
S11308E0BF91AF919F918F917F916F915F914F9144
S11308F03F912F910F900FBE0F901F901895052ECA
S113090097FB16F400940FD057FD05D01ED007FCBA
S113091002D046F408C050954095309521953F4F3C
S11309204F4F5F4F089590958095709561957F4FD7
S11309308F4F9F4F08952BD0A59F900DB49F900D7E
S1130940A49F800D911D11240895A1E21A2EAA1BC3
S1130950BB1BFD010DC0AA1FBB1FEE1FFF1FA2176B
S1130960B307E407F50720F0A21BB30BE40BF50B68
S1130970661F771F881F991F1A9469F760957095F1
S1130980809590959B01AC01BD01CF010895A29F74
S1130990B001B39FC001A39F700D811D1124911D4F
S11309A0B29F700D811D1124911D0895F894FFCFFD
S10F09B041207465636C612065207800B0
S9030000FC
